:020000040800F2
:1000000018A00020A101000805870008156A000853
:1000100051860008310C0008F1970008000000002C
:10002000000000000000000000000000D98C000863
:100030003711000800000000B18A00088192000812
:10004000BB010008BB010008BB010008BB010008A0
:10005000BB010008BB010008BB010008BB01000890
:10006000BB010008BB010008BB010008BB01000880
:10007000BB010008BB010008BB010008BB01000870
:10008000BB010008BB010008BB010008BB01000860
:10009000BB010008BB010008BB010008BB01000850
:1000A000BB010008BB010008BB010008A5930008C4
:1000B000BB010008BB010008BB010008BB01000830
:1000C000BB010008BB010008BB010008BB01000820
:1000D000BB010008BB010008BB010008BB01000810
:1000E00039110008BB010008BB010008BB01000872
:1000F000BB010008BB010008BB010008BB010008F0
:10010000BB010008BB010008BB010008BB010008DF
:10011000BB010008BB010008BB010008BB010008CF
:1001200015100008BB010008BB010008BB01000856
:10013000BB0100080000000000000000BB01000837
:10014000BB010008BB010008BB010008BB0100089F
:10015000BB010008BB010008BB010008BB0100088F
:10016000BB010008BB010008BB010008BB0100087F
:10017000BB010008BB0100080000000000000000F7
:10018000BB010008BB010008DFF810D000F0CCFB79
:100190000048004783FF0008AFF3008018A000204C
:1001A0000648804706480047FEE7FEE7FEE7FEE711
:1001B000FEE7FEE7FEE7FEE7FEE7FEE791930008B5
:1001C000890100089FED1A1AF5EE000A40EE010AB7
:1001D000BDEEE00AF5EEC00A10EE100AF1EE10FADC
:1001E00038BF401E00EE100A1349F7EE001AB8EEB1
:1001F000C00A30EEC00ADFED0F0A20EE200AFCEE46
:10020000C00A10EE900AC0F3080000EE900A01EB5D
:100210008000F8EE600A90ED011A70EE600A90ED31
:10022000000A71EEE01A21EE800A00EE810A7047A2
:1002300083F9223E0000004498090108B5EEC00A87
:10024000F1EE10FA07D2DFED1E0AB4EEE00AF1EE8D
:1002500010FAA8BF7047DFED1B0AB5EEC00A60EECA
:10026000200ABDEEE01A11EE100AF1EE10FA38BFC6
:10027000401E00EE100A1549F7EE001AB8EEC00A4B
:1002800030EEC00ADFED100A60EE200ABCEEE00A94
:1002900010EE100AC0F3080000EE100A01EB800017
:1002A000B8EE400A90ED011A70EEC00A90ED000A17
:1002B00071EEE01A21EE800A00EE810A704700001C
:1002C000CD024CB483F9223E000000449809010895
:1002D0002DE9F05F0546002092469B46884606467B
:1002E000814640241BE0284641464746224600F00E
:1002F00048F953465A46C01A914110D31146184640
:10030000224600F02FF92D1A67EB01084F462246CE
:100310000120002100F026F917EB00094E41201EB4
:10032000A4F10104DFDC484631462A464346BDE8D5
:10033000F09F10B5431A934209D28318881803E03E
:1003400010F8011D03F8011D521EF9D210BD40EA3C
:1003500001039B0703D009E008C9121F08C0042A43
:10036000FAD203E011F8013B00F8013B521EF9D22A
:1003700010BDD2B201E000F8012B491EFBD270473C
:100380000022F6E710B513460A4604461946FFF761
:10039000F0FF204610BD2DE9FE4F81EA030404F072
:1003A000004421F0004100944FF0000B23F0004383
:1003B00050EA01045ED052EA03045BD0C3F30A544E
:1003C000C1F30A552C44A4F2F3340194A0FB025467
:1003D000C1F3130141F48011C3F3130343F48013F9
:1003E00001FB024400FB034E840A970A44EA81544D
:1003F00047EA8357A4FB076802958D0A05FB07852A
:100400004FEA932C04FB0C542705029D4FEA065833
:1004100047EA1637B5EB08056EEB070C870E920E10
:1004200047EA811742EA8312A7FB0201B6EB0B01F0
:1004300064EB00042B0D43EA0C335E1844EB1C50B4
:10044000DA465146E7FB0201C5F313044FEA0B33CA
:1004500043EA14534FEA0432019C43EA0603A4F131
:100460000C040294009CCDE900B400F0E0F803B065
:10047000BDE8F08F00200146F9E700F0004230F0BF
:1004800000400AD0C10D01F56071C0F3160042EAC8
:100490000151C208400711437047002001467047D0
:1004A00030B5041E71F1000404DB4FF000444042FB
:1004B00064EB0101141E73F1000405DB1C464FF0D0
:1004C0000043524263EB04038B4208BF824230BDBB
:1004D00030B5041E71F1000404DB4FF000444042CB
:1004E00064EB0101141E73F1000405DB1C464FF0A0
:1004F0000043524263EB0403994208BF904230BD6F
:1005000001F0004330B421F0004150EA010206D06E
:100510000A0DA2F56072C1F31301002A02DC30BC9F
:1005200000207047440F44EAC104C100E01830BC09
:1005300000EBC25000F035B830B50B460146002044
:100540002022012409E021FA02F59D4205D303FA95
:1005500002F5491B04FA02F52844151EA2F1010216
:10056000F1DC30BD202A04DB203A00FA02F1002041
:1005700070479140C2F1200320FA03F319439040E1
:100580007047202A04DB203A21FA02F0002170474C
:1005900021FA02F3D040C2F12002914008431946EB
:1005A00070470029A8BF7047401C490008BF20F0D1
:1005B0000100704710B4B0FA80FC00FA0CF050EA69
:1005C000010404BF10BC704749B1CCF1200421FAEA
:1005D00004F411FA0CF118BF012121430843A3EBE5
:1005E0000C01CB1D4FEA00614FEA102042BF0020F2
:1005F00010BC704700EBC35010440029A4BF10BCCE
:100600007047401C490008BF20F0010010BC704733
:1006100010B5141E73F1000408DA401C41F100010A
:1006200092185B411A4301D120F0010010BD2DE961
:10063000F04D92469B4611B1B1FA81F202E0B0FA58
:1006400080F220329046FFF78DFF04460F4640EAC5
:100650000A0041EA0B0153465A46084313D011469B
:1006600053EA010019D0C8F140025046FFF789FF54
:1006700005460E46504659464246FFF773FF08436B
:1006800005D0012004E020463946BDE8F08D002069
:10069000054346EAE0762C4337430A986305E40AAB
:1006A000A0EB08000022FD0A44EA47540A3002D5B4
:1006B00000200146E9E7010510196941DDE9084517
:1006C00000196941BDE8F04DA2E72DE9FE4F8046D3
:1006D00081EA0300C00F0C46009021F0004123F096
:1006E0000045B8EB0200A94105D24046214690469C
:1006F0001C460B46024623F00040104347D0270D0E
:10070000C7F30A00C3F30A510290401A019040282F
:100710006BDAC3F3130040F4801B0098924620B1BB
:100720000023D2EB030A63EB0B0B01985946C0F18F
:1007300040025046FFF716FF06460D465046594602
:10074000019A00F003F910EB08006141002487EAE8
:10075000115284EAE7731A4340D0009A62B3019AB7
:10076000012A4FEA075215DC001B61EB02014FF032
:10077000004202EA0752CDE90042001C41F5801117
:1007800032462B46FFF753FF03B0BDE8F08F4046DB
:100790002146F9E7001B61EB0201001C41F58013C3
:1007A00000185B412018A2F5001747EB030140EA4F
:1007B000D570B6196D4111E06D084FEA360645EA6D
:1007C000C0754FEA0752001B61EB0201001C41F5A6
:1007D000801149084FEA30000019514132462B463A
:1007E00003B0BDE8F04FFFF713BF009801224000AF
:1007F0000023D0EB020263EBE073009821464FEA3E
:10080000E074B8EB000061EB0401E9E783F000431A
:100810005BE781F0004158E72DE9F04D81EA0304E0
:1008200004F0004B21F0004514464FF0000A23F07D
:10083000004150EA050220D054EA01021DD0C5F360
:100840000A570246C5F31303C1F31300C1F30A5656
:1008500040F4801543F48013A7EB0608101BD6461E
:1008600008F2FD3873EB050002D308F1010801E03E
:1008700092185B41B8F1000F03DA00200146BDE891
:10088000F08D00204FF48011064684460EE0171BC1
:1008900073EB050705D3121B63EB050306434CEA14
:1008A000010C49084FEA300092185B4150EA0107F9
:1008B000EDD152EA030012D082EA040083EA050176
:1008C000084305D0101BAB4106D20122002306E0ED
:1008D00000224FF0004302E06FF0010253101AEBC8
:1008E00006004CEB085110EB0A0041EB0B01BDE890
:1008F000F04DFFF78DBEC1F30A52C1F3130140F270
:10090000FF3341F480119A4202DA00200146704719
:1009100040F233439A42A2F2334202DC5242FFF7E2
:1009200030BEFFF71FBE0000064C074D06E0E06832
:1009300040F0010394E8070098471034AC42F6D326
:10094000FFF726FCC4170108E4170108202A06DB7C
:10095000CB17203A41FA02F043EAE07306E041FA8D
:1009600002F3D040C2F1200291400843194670477B
:1009700070B58C1810F8015B15F0070301D110F861
:10098000013B2A1106D110F8012B03E010F8016B8E
:1009900001F8016B5B1EF9D12B0705D40023521E11
:1009A0000DD401F8013BFAE710F8013BCB1A921C79
:1009B00003E013F8015B01F8015B521EF9D5A14277
:1009C000D8D3002070BD000008480068A0F61100D0
:1009D0000649C86008464068A0F5066008610846F8
:1009E0008068A0F64600486170470000A01D002006
:1009F00010B503220249034803F09CFC10BD00001F
:100A0000A01D00208416002070B50546AC6B206C3C
:100A100000F0500050BB206C40F40070206420684F
:100A2000806800F04050E8B9207ED8B92068C06ADC
:100A300000F4700020B12068806800F4806088B9FC
:100A40002068406820F0200021684860206C20F475
:100A500080702064206C00F4805018B9206C40F045
:100A600001002064204603F095FB0BE0206C00F0B1
:100A7000100018B1204603F08FFB03E0A06BC16C9F
:100A80002846884770BD70B50546AC6B4020206491
:100A9000606C40F004006064204603F07DFB70BD94
:100AA00070B50446A56B284603F075FB70BD0000C9
:100AB00055494A6822F440324A604A6843681A43FA
:100AC0004A600268526822F4807203685A600268C1
:100AD0005368026943EA022203685A600268526856
:100AE00022F0407203685A600268526883681A43B1
:100AF00003685A600268926822F4006203689A6090
:100B000002689268C3681A4303689A603F4B826A1E
:100B10009A4218D00268926822F0706203689A6064
:100B200002689268836A1A4303689A60026892684E
:100B300022F0405203689A6002689268C36A1A43BE
:100B400003689A600BE00268926822F070620368A2
:100B50009A600268926822F0405203689A600268C4
:100B6000926822F0020203689A6002689368027E2B
:100B700043EA420203689A602022125CA2B1026832
:100B8000526842F4006203685A600268526822F4B4
:100B9000604203685A6002685368426A521E43EA20
:100BA000423203685A6005E00268526822F400622B
:100BB00003685A600268D26A22F470020368DA623B
:100BC0000268D36A828B521E43EA02520368DA62D9
:100BD0000268926822F4007203689A60026893685F
:100BE00090F8302043EA422203689A6002689268D3
:100BF00022F4806203689A6002689368426943EA5B
:100C0000822203689A607047002301400100000FB0
:100C100010B507F003FA07F04CFF00F087FB10BD9A
:100C200010B507F003FA07F051FF00F083FB10BD89
:100C300000BFFEE790ED060A80ED090A90ED060A76
:100C4000D0ED070AB0EE001A01EE200ADFED030A2C
:100C500080EE201A80ED0A1A70470000D0B3DD3F05
:100C60007CB509F05DF90546002000902B46044A4A
:100C700002210190034800F0A9FE044620467CBDF5
:100C8000D5F500082802010810B52DED088B0446A3
:100C900094ED0C0A84ED120A94ED020A84ED130A15
:100CA00094ED130AD4ED120A30EE600A84ED140AB2
:100CB00094ED140AD4ED150A30EE600AD4ED0F0A53
:100CC00020EE200AD4ED100A94ED141A00EE810AE9
:100CD000D4ED160A30EE200A84ED160A94ED140ABB
:100CE00084ED150A94ED170A10EE101A0846FFF766
:100CF000C4FB41EC1A0BB0EE4A0AF0EE6A0A0EF0A1
:100D000027FCB0EE408AF0EE608A94ED160A10EEF1
:100D1000101A0846FFF7B1FB41EC190B53EC182BE6
:100D2000FFF7D6FB17D294ED170A10EE101A0846FB
:100D3000FFF7A3FB41EC190BB0EE490AF0EE690A8C
:100D40000EF006FCB0EE408AF0EE608A51EC180B13
:100D5000FFF7D6FBA06594ED170A10EE101A0846AF
:100D6000FFF78BFB41EC1B0BB0EE4B0AF0EE6B0A6E
:100D70000EF0EEFBB0EE40AAF0EE60AA51EC1A0BBA
:100D800081F0004141EC180B94ED160A10EE101A98
:100D90000846FFF772FB41EC190B53EC182BFFF7D9
:100DA0007FFB1BD294ED170A10EE101A0846FFF7CE
:100DB00064FB41EC1A0BB0EE4A0AF0EE6A0A0EF040
:100DC000C7FBB0EE409AF0EE609A51EC190B81F03F
:100DD000004141EC180BFFF793FBA065BDEC088BBD
:100DE00010BD10B52DED088B044694ED0B0A84ED73
:100DF0001B0A94ED010A84ED1C0A94ED1C0AD4ED43
:100E00001B0A30EE600A84ED1D0A94ED1D0AD4ED34
:100E10001E0A30EE600AD4ED180A20EE200AD4ED46
:100E2000190A94ED1D1A00EE810AD4ED1F0A30EE66
:100E3000200A84ED1F0A94ED1D0A84ED1E0A94ED2C
:100E4000200A10EE101A0846FFF717FB41EC1A0BA8
:100E5000B0EE4A0AF0EE6A0A0EF07AFBB0EE408A73
:100E6000F0EE608A94ED1F0A10EE101A0846FFF7A4
:100E700004FB41EC190B53EC182BFFF729FB17D29D
:100E800094ED200A10EE101A0846FFF7F6FA41EC2E
:100E9000190BB0EE490AF0EE690A0EF059FBB0EEFC
:100EA000408AF0EE608A51EC180BFFF729FBE067EF
:100EB00094ED200A10EE101A0846FFF7DEFA41EC16
:100EC0001B0BB0EE4B0AF0EE6B0A0EF041FBB0EEDE
:100ED00040AAF0EE60AA51EC1A0B81F0004141ECFF
:100EE000180B94ED1F0A10EE101A0846FFF7C5FA0A
:100EF00041EC190B53EC182BFFF7D2FA1BD294EDEF
:100F0000200A10EE101A0846FFF7B7FA41EC1A0B48
:100F1000B0EE4A0AF0EE6A0A0EF01AFBB0EE409A02
:100F2000F0EE609A51EC190B81F0004141EC180B86
:100F3000FFF7E6FAE067BDEC088B10BD10B504467C
:100F400004F12002111F081FD4F890309847207D2B
:100F5000032800DA10BDD4F88C008047072853D24C
:100F6000DFE800F05204111E2B38450094ED070A0B
:100F7000DFED270A30EEC00AD4ED080A30EE600A31
:100F800084ED060A41E094ED060ADFED210A30EE19
:100F9000C00AD4ED080A30EE600A84ED070A34E096
:100FA00094ED060ADFED1A0A30EEC00AD4ED080A05
:100FB00030EE600A84ED070A27E094ED060ADFEDC3
:100FC000140A30EEC00AD4ED070A30EE600A84ED50
:100FD000080A1AE094ED060ADFED0D0A30EEC00AA9
:100FE000D4ED070A30EE600A84ED080A0DE094EDB6
:100FF000070ADFED070A30EEC00AD4ED080A30EE2A
:10100000600A84ED060A00E000BF00BF00BFA1E750
:101010000000000010B5FFF7D7FC07F057FB0248AF
:1010200003F08AFB10BD0000141700200146087869
:1010300010381823B0FBF3F20848805CC865032A17
:1010400005D908686FF30900001D886503E008688A
:101050006FF309008865886D70470000C2FF0008C3
:10106000014600208A6A8B69CBB932B1012A0DD0C2
:10107000022A03D0032A10D10EE000BFCB6A03F08E
:101080008073B3F1807F00D1012007E0CB6AB3F118
:10109000C07F00D1012001E000E000BF34E08B6997
:1010A000B3F5005F1AD132B1012A07D0022A03D06A
:1010B000032A11D10AE000BF01200EE0CB6A03F041
:1010C0008073B3F1807F00D1012006E0CB6AB3F1D9
:1010D000C07F00D1012000E000BF15E032B1012A3D
:1010E00005D0022A04D0032A0CD103E000BF00BFC0
:1010F000012008E0CB6A03F08073B3F1807F00D158
:10110000012000E000BF00BF704730B504682468CC
:1011100024F4802405682C60046863608468402C93
:1011200004D10468A2600468E16003E00468A1607F
:101130000468E26030BD704710B54FF4005003F012
:1011400005FD10BD72B600BFFEE7000010B507F048
:1011500081FADFED0B1A9FED0B1ADFED0B0A9FED05
:101160000A0A0A4807F0B9FD0121084807F0D8FD2E
:10117000DFED040A9FED030A07F018FF10BD000021
:101180006991DD400000000017B7513A24010020AA
:1011900010B5024800F004F810BD00002401002042
:1011A00010B52DED028B044694ED060A10EE101AD0
:1011B0000846FFF762F941EC180B53EC182B34A0EA
:1011C0000EF09AF994ED070A10EE101A0846FFF790
:1011D00054F941EC180B53EC182B2FA00EF08CF99E
:1011E00094ED080A10EE101A0846FFF746F941EC94
:1011F000180B53EC182B2AA00EF07EF994ED030A7D
:1012000010EE101A0846FFF738F941EC180B53ECB2
:10121000182B25A00EF070F994ED0C0A10EE101AA0
:101220000846FFF72AF941EC180B53EC182B20A0C5
:101230000EF062F994ED0B0A10EE101A0846FFF753
:101240001CF941EC180B53EC182B1BA00EF054F9B1
:1012500094ED020A10EE101A0846FFF70EF941EC61
:10126000180B53EC182B16A00EF046F994ED010A5A
:1012700010EE101A0846FFF700F941EC180B53EC7A
:10128000182B11A00EF038F9BDEC028B10BD000038
:10129000313A25660D0A0000323A25660D0A000033
:1012A000333A25660D0A0000343A25660D0A00001F
:1012B000353A25660D0A0000363A25660D0A00000B
:1012C000373A25660D0A0000383A25660D0A0000F7
:1012D00010B50446204602F00DFC2046FFF72EFE16
:1012E0002046FFF7A7FC204607F0ADFB2046FFF79E
:1012F000CBFC2046FFF775FD9FED0B0A84ED160A27
:10130000B1EE080A84ED1F0A204607F069FB94ED50
:101310000E1AF0EE410A94ED0D1AB0EE410AD4F81F
:101320009400804710BD00000000000010B500F0E0
:101330007BF810BD10B500F083F810BD2DE9F04327
:101340000446C56887B090468946002001F022FA1D
:10135000064625B1287910B146F0020001E026F0DA
:10136000020001F017FA2069012558B1D4E90212F0
:101370008DE8260003956388228804684146484624
:10138000A0471EE0124F134B214638681B68427C71
:10139000E068984730B9E088012801D0002001E0DA
:1013A0003868806BA288E388A1680095CDE90410B5
:1013B000CDE902320195638822884146484605F00E
:1013C00007FF07B03046BDE8F04301F0E3B9000085
:1013D000AC140020A414002010B5002001F0C6F9C0
:1013E0006FF07F4001F0C4F9012001F003FA002002
:1013F00001F008FA002001F00FFA002001F0CAF90C
:101400000448006801F0C8F9BDE81040002001F070
:10141000CDB90000A814002000200249086008711E
:1014200070470000A000002010B507F09FF900F001
:101430007FFC00F0F1F9FFF713FC00F029FC10BD70
:1014400010B507F09BF910BD2DE9F04FDFF828B17A
:1014500091B04FF0FF35DBF80030B3F92210069160
:10146000DE69B3F92490F469A189814206D8E28942
:10147000824203D3471AD4F8008012E0D4E90181F4
:1014800000296FD00A8882426CD84D88854269D382
:10149000801A82B2486800EB8200B0F90070B0F99F
:1014A0000250781C5ED0307EA17C10FB01FA217CBA
:1014B000CDE90701B3F92A60304606F093FBC0B2CC
:1014C0000E90DBF8000007FB0A81A37C826B0127EA
:1014D000CDE90412CDE90273C069089AC17E807E0D
:1014E000CDE90001DDE90603494605F071FE681CFF
:1014F00018D046F0020006F075FBDBF80000A37C74
:1015000005FB0A81826BCDE90273CDE90412C06943
:10151000089AC17E807ECDE90001DDE906034946D7
:1015200005F056FEDBF800005D46C069417E007E96
:10153000814214D9022E12D086F0040006F052FB2C
:101540002868C069027EC37E12FB0391437E857EBC
:10155000089A06984B4412FB050205F0C5FF0E9849
:1015600006F040FBDBF80000627C418C11444184B2
:1015700011B0BDE8F08F0000AC14002004480068F2
:10158000C069C06909B1027C0A60407C70470000F4
:10159000AC140020022008807047C06982898A420A
:1015A00002D8C2898A4210D2806880B102888A42F9
:1015B0000DD843888B420AD3406800EB8100A0EB32
:1015C0008200B0F90000002801DB012070470020F4
:1015D0007047002801D009F08BBC704738B505462C
:1015E000FFF7F7FF040009D000F0B2F82A46002107
:1015F000009002F031FA684600F0CCF8204638BD81
:10160000024A106021F00300506070478496002069
:1016100010B5002814D004460A48406B10F8341066
:1016200000290DD002290BD2042101EBC40141583D
:10163000486809F015FC2046BDE810400DF014B9CB
:1016400010BD0000C4950020002805D0034AD16BCE
:10165000016001B14860D06370470000C49500206C
:101660002DE9F04104460CF067FD2848E41C24F005
:101670000305016C2D1DA94200D90D46C46B13E072
:1016800054F8042CAA420ED184B1216809B16268D1
:101690004A60616809B122680A60C26BA24231D116
:1016A0002168C1632EE02468002CE9D18046816B5B
:1016B000C0680F1857F8040C3E1A306838B1002083
:1016C0000DF03AF957F8040C3E1A3068D0B970683A
:1016D000A84217DB3044441B3046241D0DF0E4F8CB
:1016E000D8F80C10491BC8F80C10D8F8141029446D
:1016F000C8F814107068401B02D0314609F0B0FBE6
:1017000044F8045C2046BDE8F0810000C495002048
:1017100010B500240CF010FD0C490F2001EBC002A5
:10172000526C1AB101EBC000406C08E0401EF5D5C8
:1017300008E04168A14200D90C46806810B1806879
:101740000028F6D1A4F10C0010BD0000C4950020C3
:101750000549CA69521CCA61496B01EBC0010A788C
:10176000521C0A7000F02EB8C495002010B5FFF787
:10177000CFFF64220649B0F5800F04D990FBF2F048
:10178000096A484310BD096A4143B1FBF2F010BD3C
:10179000C49500200A4902684B6B52F8082C03EBF1
:1017A000C2021378022B03D3CB690BB15B1ECB6152
:1017B0001178491E11700021016008467047000031
:1017C000C4950020002806D00349042202EBC00083
:1017D000496B085808307047C495002010B5C2B254
:1017E000CBB2D21A00D5524293B25B43C0F3072268
:1017F000C1F30724121B00D55242000C92B2A0EB99
:10180000114002FB023200B2002801DA404200B26D
:1018100080B200FB002010BD10B50021084600F08A
:101820007DFA43F6FF725042BDE810401346014670
:10183000AFF300802DE9FC4107461C4615460E46D5
:10184000042006F0CFF980461148C068C16C006DD5
:101850000F4406440D440444ADF80070ADF8045044
:10186000ADF80260ADF80640684608F073FF07E087
:1018700023462A463146384605F036FE08F01EFF5C
:101880000028F5D1404606F0ADF9BDE8FC81000026
:10189000A014002070B586B00D46064614461146C9
:1018A00001A802F069F8BDF8060013282ED00CDC60
:1018B000A0F106000D2820D2DFE800F024263436FF
:1018C000383A44461F484C4A5000192836D008DCA4
:1018D000A0F11400052810D2DFE800F01A1C1E2029
:1018E00022001C2828D004DC1A2829D01B2804D167
:1018F00020E01D2830D0642802D0012006B070BD41
:1019000000212CE01A492AE01A4928E01A4926E069
:101910001A4924E01A4922E01A4920E01A491EE037
:101920001A491CE01A491AE01A4918E01A4916E047
:101930001A4914E01A4912E01A4910E01A490EE057
:101940001A490CE01A490AE01A4908E01A4906E067
:101950001A4904E01A4902E01A4900E01A490091C4
:101960002B463246214601A801F04AFA0020C5E77D
:101970006C1401087C140108541201086412010857
:10198000741201088412010894120108A4120108BB
:10199000D4120108E4120108B4120108C4120108AB
:1019A0001413010824130108341301084413010817
:1019B0008C1401089C140108AC140108441201089D
:1019C000F412010804130108BC1401082DE9F843BE
:1019D0001C00DDE9089816460F46054602D108F0BE
:1019E0009FFA044600962E6843464A4621462846FA
:1019F000B047061E35D008F087FA8146698A30461E
:101A000007F088FF304608F056FD484608F053FDC1
:101A10004FF000080CE000BFCDF8008055F81CCF57
:101A200000231A4649462846E047E0B108F043FD46
:101A30007F1E002FF0DC1D21484608F08CFC601C46
:101A40000ED008F089FA30B1FFF7BCFE8469B442C9
:101A500001D02000F8D1B44202D0304608F0E4FCB6
:101A60003046BDE8F883304608F08CF90020F8E7EE
:101A70002DE9F0411C4616460D460746022B02DBB7
:101A80000020BDE8F0811C20FFF7EAFD0028F8D017
:101A90000DB105610AE0094A52F8241009B905E0C0
:101AA00011460A68002AFBD10969016184618682B6
:101AB000002101604160C0E90217E2E7C414002080
:101AC00070B51D46FFF7D4FF040009D000F00EF8F2
:101AD000E068006820B90348006800EB8500846571
:101AE000204670BDAC140020FFF7AEBD70B590B3BA
:101AF0008269022A30DA1E4C54F8221019B944F8CF
:101B0000220032E019464B68002BFBD106E0CB687F
:101B1000C5681B682D68AB4203DD09680029F6D152
:101B20001AE0C1B1CB68C6681B683668B3420CD1F5
:101B3000838A012B05D008E01946DB681B68AB429D
:101B400003DB0B68002BF7D129B14B6833B1186068
:101B50004A68426004E0FFE7012070BD44F82200BB
:101B60004860884200D100210160002070BD000063
:101B7000C41400200A4A816952F82130834202D1FC
:101B8000036842F82130416809B102680A600168BF
:101B900009B142684A60002101604160704700005D
:101BA000C4140020022801DB00207047054951F8C9
:101BB000200004E0C16809680029F6D00068002808
:101BC000F8D17047C41400207CB506461048006860
:101BD000C36C006D5D1884183188681E0844ADF828
:101BE0000400ADF800507188601E0844ADF806008E
:101BF000ADF80240684608F0ADFD06E022462946F1
:101C00003046FFF79BFB08F059FD0028F6D17CBD5C
:101C1000AC1400202DE9FC411C4C2468E66C94F8BF
:101C200018C03718206DACF1010C4518C418A7EB8B
:101C30000C001644ADF8000006EB0C00ADF80400F3
:101C4000A5EB0C00ADF8020004EB0C00ADF80600AB
:101C5000684608F07FFD15E032462946384605F013
:101C6000B9FB32462146384605F0B4FB621E691CBA
:101C7000384605F00FFC621E691C304605F00AFC70
:101C800008F01CFD0028E7D1BDE8FC81AC14002061
:101C900010B5002400E0012400F004F80028FAD177
:101CA000204610BD094810B50068002410B18047D7
:101CB00000B1012408F0DAF800B1012404480068FA
:101CC00010B1804700B10124204610BDD01400207F
:101CD000CC140020034951F82000C1688A6A082109
:101CE00010470000C414002010B505F02DFCBDE81D
:101CF000104005F007BD01F015BD0000024951F884
:101D00002000006900687047C4140020024951F89F
:101D10002000006940687047C414002070B50D466B
:101D20000CF020F9044628460CF024F9204370BD3D
:101D30002DE9F0411948016821F0010101601848BE
:101D4000012585601749016000681749884200D065
:101D5000FEE700F087FF154E2E20307000F0CBFE1E
:101D600013480CF09BF90EF0BAF8074605F082FC18
:101D700010B105F093FC38B905F099FC044605F064
:101D800082FC214605F028FF0021084600F016FDE0
:101D900008F01CF975703846BDE8F081002000E0BD
:101DA00000300240C2A507F4CDB5E8B5A01400206C
:101DB000909600201CB520B90C480068006E0028E1
:101DC00012D0FFF7C5FC009044696846FFF7E2FCBB
:101DD000002C09D02046FFF7BBFC01908168896880
:101DE000884701A8FFF7D6FC1CBD0000AC140020FA
:101DF00001490A4600F002B801F0FFFF2DE9F04367
:101E000087B015460C465FEA000842D0002000F07B
:101E1000C1FC814620480068066E4046FFF798FCEA
:101E200000900068806900F089FC074640F6FF706A
:101E3000C44204D10098B0F90440B0F906500098AB
:101E4000611E0289ADF804401144ADF808104189C3
:101E5000681E0844ADF80650ADF80A0007F066FEAB
:101E60006846FFF797FC01A808F074FC06E02A46D4
:101E70002146404600F08CFB08F020FC0028F6D1FB
:101E8000384600F05BFC304600F0A4F9484600F00C
:101E900081FC07B0BDE8F083AC14002038B5002405
:101EA000009400F001F838BD2DE9FE4F83461A4832
:101EB0008A461A4900680C9E9846407C9146002745
:101EC00051F82040E1680968042903D02468002CF7
:101ED000F8D100E01CB9FFF765FE041E19D0E068D8
:101EE0000121C26A20469047050011D02469A068EC
:101EF0008047401C02D10A4C46F001060096CDE90D
:101F0000015443464A465146584600F0E7F9074611
:101F10003846BDE8FE8F0000AC140020C414002039
:101F2000AC110108FEB50546DDE909640020089FF3
:101F3000002C05D00097CDE90164284600F0CEF9C9
:101F4000FEBD000038B5040018D00D480068006ED2
:101F5000A04201D100F0E8FB2046FFF7F9FB00901A
:101F6000406908B100F0A5FD00980068FFF7BCFDCE
:101F70006846FFF70FFC2046FFF74AFB38BD00001C
:101F8000AC1400202DE9FF4FDFF83891074683B0ED
:101F9000D9F800009A468B46447C4B4800570128EC
:101FA000204606DD05F06CFB0546204605F07CFB6F
:101FB00005E005F04DFB0546204605F04FFB0446C5
:101FC0001FB302A901A8FFF796FEB7F90000002889
:101FD00000DA0020B7F902608046002E00DA002601
:101FE00001984119B7F90400491E0CF039F905466A
:101FF00002980119B7F90600491E0CF031F9A5EB5A
:102000000802841B521C641C03E04FF00008464683
:102010002A46BAF1000F01D1C4F1000A002A4FDDAF
:10202000002C4DDD10980090534631464046FFF796
:102030003BFF5FEA000A10D000F092F80746A0428A
:1020400006D0D9F80000806C10B1322108F080FE73
:10205000504600F0BFF8002521E059460598884712
:10206000012007B0BDE8F08F611BB94202DA50468B
:1020700000F09AF83DB172194146504600F0CCF894
:102080005046FFF797FE5946059888470F48016864
:1020900009B1002088475046FFF7AAFE3D44A542FB
:1020A000E2DB5046FFF74EFF002000F093F8A74216
:1020B00006D0D9F80000806C10B1332108F048FE3A
:1020C0000020CEE7AC140020E0140020C41500204E
:1020D00038B5002460B1FFF73BFB00900068006951
:1020E0008068804705F02AFF04466846FFF752FBE8
:1020F000204638BD38B5002808D0FFF729FB00F18D
:10210000180400906846FFF745FB204638BD0000E4
:1021100038B5002418B907480068006E38B1FFF7D9
:1021200017FB0090B0F904406846FFF733FB2046E8
:1021300038BD0000AC14002038B5002418B9074899
:102140000068006E38B1FFF703FB0090B0F906405D
:102150006846FFF71FFB204638BD0000AC14002086
:1021600038B5002418B907480068006E38B1FFF789
:10217000EFFA0090B0F90A406846FFF70BFB2046E3
:1021800038BD0000AC14002070B505460024284678
:1021900009F024F8641C18B1BDE8704000F068B87C
:1021A000052CF4DB70BD000038B50C4620B908489A
:1021B0000068006E00280AD0FFF7CAFA0090B0F954
:1021C0000A10A14200DD44816846FFF7E3FA38BDFA
:1021D000AC140020F8B50F4E05003068046E16D020
:1021E0000CB100F0A1FA07F08FFD2846FFF7B0FA16
:1021F000009031680D660068FFF778FC6846FFF7CD
:10220000C9FA05F05DFD05F0C7FC2046F8BD00F0F9
:102210008BFAFAE7AC1400207CB515460C4620B9C1
:1022200012480068006E00281FD0FFF791FA2DB207
:102230000090C58024B2848005F0AEFC009840690F
:1022400080B1FFF785FA009A0190B2F908108180F9
:10225000B2F90A20C28011B10AB10480458001A8F8
:10226000FFF798FA6846FFF795FA7CBDAC1400209A
:1022700001490A4600F002B801F0FFFF7FB515469C
:102280000C46060028D0FFF763FA40F6FF71019074
:10229000CC4203D1B0F90440B0F906500289611E66
:1022A0001144ADF80840ADF80C104189681E08448F
:1022B000ADF80E00ADF80A5001A8FFF76BFA02A8BE
:1022C00008F048FA06E02A462146304600F048F970
:1022D00008F0F4F90028F6D17FBD00002DE9FF4F8A
:1022E000DFF8E8B083B01C46DBF80010DDE91060D1
:1022F00092464FF000084B7C42461299FFF7B8FB1C
:10230000050060D028698068804705F017FE814687
:102310000AFB09F1C91DCF08FFF728FAF10705D11B
:10232000C11700EB9170801000EB4000002C09DC1D
:102330001FB11838B0FBF7F000E000206442A04263
:1023400000DC0446F00707D10090DDE903012346D5
:10235000524600F037FB8046002C03DC2846FFF78E
:10236000C3FB30E004FB07F01830F10702D0FFF7A1
:1023700030F901E0FFF732F906001CD0FFF7E8F969
:1023800001900560039981800499C180A0F808A09C
:102390004481C0F81480C0E9037901A8FFF7FAF975
:1023A0001298AE602861DBF80000407CA8613046DE
:1023B00007B0BDE8F08F2846FFF796FBB8F10000A4
:1023C00001D0FFF725F90020F2E70000AC1400204F
:1023D0002DE9F74F8EB0144689460E98FFF7B8F9ED
:1023E0000990B0F908B0B0F90A6000680069406867
:1023F0000C9009A8FFF7CEF9564D574F2868407C3E
:1024000057F82000C1688A6A082190470790182869
:1024100001D3202007902868407C57F820000069ED
:10242000069003C80B904D48814201D0012000E086
:1024300000200A90002000F05FFB00287DD1286872
:1024400009EB0B01B0F90C20891A491E002902DDA5
:10245000ABEB010500E05D46B0F90810494505DD2C
:10246000A1EB090189446D1A089101E0002108914E
:10247000002D6BDDB0F90E20A119891A491E002923
:1024800002DDA6EB010800E0B046B0F90A00A04268
:1024900004DD061B3444A8EB060800E00026B8F172
:1024A000000F53DD089801900DA95F46DDF830A0BC
:1024B0000E980091FFF71EFE774300EB870101980D
:1024C0002B4601EB800200994846CDE900A1214648
:1024D00000F0B4FC0090002838D00A98E8B1DDE99B
:1024E00006322946009800F0B7FBB0B90698009F65
:1024F000DA46D0F810C0BCF1000F05D004235A46CC
:1025000039463846E04708E00B993868884701C7E4
:10251000AAF101005FEA000AF6D100990020079AAB
:10252000CDE90301059001200090CDE9010221468B
:102530000346641C2A46484600E007E004F048FED3
:10254000A8F10100761C5FEA0008ABD111B0BDE82C
:10255000F08F0000AC140020C4140020DF770008C6
:10256000F8B515460E460746FFF7F2F800900068EA
:102570001621C068426A0020904704466846FFF76B
:1025800009F9002C03D02A4631463846A047F8BD49
:10259000F8B516460F46050012D0FFF7D9F800909F
:1025A00044696846FFF7F6F82846FFF791FD0346B1
:1025B000082800DD2CB13246394628460CF0F8FBDD
:1025C000F8BD3246394628460CF092FDF8BD10B5EC
:1025D000002821D009B30AB3B1F90040B2F90030A4
:1025E0009C4200DA23460380B1F90240B2F902307E
:1025F0009C4200DA23464380B1F90440B2F904302A
:102600009C4200DD23468380B1F90610B2F9062012
:10261000914200DC1146C18010BD11460A6802607B
:102620004968416010BD00280BD003880B4403802B
:10263000838819448180418811444180C1881144B4
:10264000C180704770B5094C0020D4E900218A424E
:102650000AD0D2E9005610460BF0A2FC20603146A9
:10266000284607F0C3FD012070BD00008015002042
:102670002DE9FC41154DDDE908742D68B5F90860B8
:10268000864200DD3046B5F90C60964200DA3246EB
:10269000824219DBB5F90A608E4200DD3146B5F998
:1026A0000E509D4200DA2B468B420DDB00E02C469B
:1026B000E5682D6825B1042D02D02568002DF6D1DE
:1026C000CDE9007405F052F9BDE8FC81AC1400209E
:1026D000B0F90220B1F906309A4213DCB1F90220B8
:1026E000B0F906309A420DDCB0F90020B1F904309F
:1026F0009A4207DCB1F90010B0F90400814201DC14
:10270000012070470020704701460248702200688F
:10271000FDF70FBEAC140020024970220968FDF7D6
:1027200008BE0000AC14002010B505F0EBF905F070
:10273000C7FABDE8104007F0F9B9000070B5094DBF
:102740000446022C2868467C09D22046FFF72AFA64
:1027500028B128684474FFF7E7FF03480460304657
:1027600070BD0000AC1400201015002005F0EAB97F
:1027700005F020BA034A6FF070411268116305F04A
:102780001FBA0000AC1400200149886070470000A7
:10279000A014002005F026BA03490968CA6900B1EF
:1027A000C861104670470000AC1400200249096857
:1027B0008A7E887610467047AC140020094A30B4EF
:1027C0001080094A1180094A1268537C084A52F85D
:1027D0002330DA68146A0A46A446014630BC18461B
:1027E00060470000E8140020EA140020AC14002028
:1027F000C4140020024909680A7E08761046704712
:10280000AC14002003490968B1F92C2088851046D2
:1028100070470000AC14002003490968B1F92A2070
:102820004885104670470000AC140020024800683C
:10283000002800D000477047A415002002498A688C
:1028400002B98860FFF7F2BF8015002010B50400C0
:1028500009D00CF043F820460CF07AFA2046BDE887
:102860001040FEF7D5BE10BD38B50C4660B1FEF77E
:102870006FFF00908089204201D0012400E00024F5
:102880006846FEF787FF00E00124204638BD0000BF
:1028900038B50546002028600648046844B1204643
:1028A000FEF756FF0090006928606846FEF772FF49
:1028B000204638BD9015002038B504004FF00000C8
:1028C0000D46086011D02046FEF742FF0090846854
:1028D00044B16846FEF75EFF2046FEF739FF0090E0
:1028E000006928606846FEF755FF204638BD2DE98F
:1028F000F0411E46069C1746884605463A46A8689B
:102900007F1C3346D0F804C041462846E047641E89
:10291000F4D1BDE8F08170B5B0F90040091BB0F901
:1029200004408C422CDD00F11404B0F9025000691F
:10293000521B02FB0040CA1800EBE104521ED010EB
:10294000B0EBE10501F007034FF0FF0102F00702D1
:1029500021FA03F0C2F1070201FA02F1CEB22178A6
:102960000FD001436D1E04F8011B002D05DDFF2271
:1029700029462046FDF7FDFC2C442078304320708A
:1029800070BD30400143217070BD10B5B0F900300A
:10299000B0F90240C91A00F114030069121B02FBCE
:1029A000003000EBE10001F0070302788021D940FC
:1029B0000A43027010BDB0F9061002695143143089
:1029C000FDF7DEBC2DE9F843804602F10F0000114F
:1029D000470003FB07F01C46154689461430FEF7F6
:1029E000FDFD060013D0FEF7B3FE0090A0F80080B6
:1029F000A0F802908580C480064981600121818110
:102A000007616846FEF7C6FE3046BDE8F883002041
:102A1000FBE70000CC14010870B5B0F90660B0F90E
:102A200004400B6800F1140596421BDD0069A342C7
:102A300002FB005000EBE30214DA641EE010A0EB8E
:102A4000E30512F8010B03F00704A040C4B206E04E
:102A500045B1083312F8014B23F007036D1E002C1B
:102A6000F6D004E0002070BD6006040E5B1C20065A
:102A7000FAD5FF2C07D0184602E06406240E401C4D
:102A80006606FAD400E0D81DC443640705D006E00A
:102A900012F8014BFF2C09D108306D1EF8D5C01A71
:102AA000401C0B6070BD6206140E401C2206FAD456
:102AB000F5E738B50546FEF74BFE00908189491EC3
:102AC0000CB284816846FEF765FE002C02D12846D0
:102AD000FEF79EFD38BD000010B54FF4F0410348ED
:102AE000FEF78EFD0248FFF74FFE10BDC41D00200B
:102AF00074090108704770470EB508B102AA00E0DA
:102B00000022002301A9684600F0BEFD0EBD0000B2
:102B1000074910B50C7818B101200870801E03E039
:102B2000002008706FF07F4004F02EFB204610BD9F
:102B3000E214002010B5082A0EDC0346012A18D042
:102B4000022A56D0042A76D010F8042B03F8012B61
:102B5000491EF9D1012010BD102A08DC4FEA0002FD
:102B600030F8043B22F8023B491EF9D1F2E700207D
:102B700010BD10F8042BD207120E491E34D010F8E5
:102B8000044B491E04F0010442EA84122CD010F8D0
:102B9000044B491E04F0010442EA441224D010F808
:102BA000044B491E04F0010442EA04121CD010F840
:102BB000044B491E04F0010442EAC40214D010F888
:102BC000044B491E04F0010442EA84020CD010F8C0
:102BD000044B491E04F0010442EA440204D010F8F8
:102BE000044B04F00104224303F8012B0029C0D157
:102BF000B0E710F8042B9207120E491E15D010F8FA
:102C0000044B491E04F0030442EA04120DD010F8EC
:102C1000044B491E04F0030442EA840205D010F874
:102C2000044B04F003042243491E03F8012B00293E
:102C3000DFD18FE7FFE710F8042B1207120E491EB1
:102C400005D010F8044B04F00F042243491E03F88A
:102C5000012B0029EFD17DE738B50024009400F066
:102C60001BF838BD0A4810B5816900290ED1012131
:102C70008161FFF731FF05F035F8054905481C3142
:102C80000860BDE81040084600F0A6BE10BD000078
:102C9000A014002051E500082DE9F0410D460699E9
:102CA000044601B901461F68082A09DC0E46012ABC
:102CB0001AD0022A5BD0042A7DD0082A13D18DE0D5
:102CC000102A07DCD3F810C00E46BCF1000F04D068
:102CD000022389E00020BDE8F08101CCB84726F846
:102CE000020B6D1EF9D189E001CCB847C0074FEA4D
:102CF00010686D1E36D001CCB84748EA801000F04D
:102D0000FF086D1E2ED001CCB84748EA401000F0F5
:102D1000FF086D1E26D001CCB84748EA001000F02D
:102D2000FF086D1E1ED001CCB84748EAC00000F075
:102D3000FF086D1E16D001CCB84748EA800000F0AD
:102D4000FF086D1E0ED001CCB84748EA400000F0E5
:102D5000FF086D1E06D001CCB84740EA080000F01D
:102D6000FF086D1E06F8018B002DBDD146E001CC99
:102D7000B84780074FEA10686D1E16D001CCB847DF
:102D800048EA001000F0FF086D1E0ED001CCB847D5
:102D900048EA800000F0FF086D1E06D001CCB8475D
:102DA00040EA080000F0FF086D1E06F8018B002DB8
:102DB000DDD123E0FFE701CCB84700074FEA1068F8
:102DC0006D1E06D001CCB84740EA080000F0FF08AD
:102DD0006D1E06F8018B002DEDD10FE0D3F810C069
:102DE000BCF1000F04D001232A462046E04705E04D
:102DF00001CCB84706F8010B6D1EF9D101206AE736
:102E000030B54589039CD58005899580858901EB7E
:102E100085051035C2E9025385881580C58855801F
:102E20001461002B08D0827B1A718089186008B168
:102E3000103100E00021996030BD00002DE9FF4F06
:102E40008DB00020DDF86CA0164600901D460446AB
:102E50000246CAF8000008AB03A902A800F014FC5F
:102E600018B1002011B0BDE8F08F0898854200DD50
:102E70000546614F0B9561493868407C51F8201038
:102E8000049109690691FEF725FF05903868407C9A
:102E9000FEF73CFF5A498146884204D0594989458A
:102EA00001D0012000E000200A9001CE1A99884745
:102EB0008346000E079077D0009870BB0D9800EB0A
:102EC00004084D480068B0F90800404503DDA0EB58
:102ED0000807804600E000270298049900EB840070
:102EE00000EB8700CDE900010B990D98421809927B
:102EF0000E9B40461946521EFFF7BAFB0120009078
:102F0000059818280ADA0298DDE9052300EB840009
:102F100000EB8700E91B00F015FB12E00A9880B176
:102F2000029800EB840000EB87070998A0EB0808E3
:102F300049463868884701C7A8F101005FEA0008E0
:102F4000F6D13148C06980B3DDE9020700EB8400A7
:102F500007EB8402CDE902022B4C361F3046E469B0
:102F60002B460299A047FF213068B1EB106F02D1C8
:102F70000298006804E0029A1268B1EB126F01D166
:102F8000039A1060029806F10406001D029003984F
:102F9000001D03906D1EE7D10397DAF8000040F0A2
:102FA0000101CAF8001020E021E0FFE70798FF28A0
:102FB00011D0C0F1FF02029850F82410584600F0DA
:102FC00077FC039941F82400DAF8000040F0010191
:102FD000CAF8001005E00298039950F8240041F85F
:102FE0002400641C6D1E7FF460AF03983AE70399D8
:102FF00041F824B0E8E70000AC140020C41400201D
:10300000DF770008DD770008D41500202DE9F04FA8
:103010008FB01D4616460F468146DDF87480189C19
:10302000FEF762FE0B9004F08FFA0190DDE91A01C1
:1030300008434FEA460B012803D04FF0000A0997D6
:1030400009E188480068407CFEF760FE1C994FF05B
:10305000000C884211D101200DF1040810210090CC
:1030600088E80308CDE9044C2B46324639464846E9
:1030700004F0AEF80FB0BDE8F08F7819401E049050
:1030800009EB0600A0F1010A76480168B1F90A20AF
:10309000BA4207DDD31B174603FB0BF222F00102F5
:1030A0001444ED1AB1F90E30049AD21A002A00DD48
:1030B000AD1A002DDEDDB1F90C30AAEB0302002AB7
:1030C00000DDB61AB1F90800484505DDA0EB09009E
:1030D000361A04EB40048144002ECBDD0020CDF8ED
:1030E00018C00890B8F1000F09D0D8F81400089063
:1030F00028B100231A46194606A800F0C5FA04F0C4
:103100002BFA804657480068407CFEF7F7FD059093
:10311000D8F800C0524639464846049BE04700288C
:103120005CD10698E8B34F484F490068407C51F89D
:10313000200000690069049030E0089F02233246B5
:1031400020460699B847049830B10699049F042395
:1031500032460846B8470EE0069800278246814668
:1031600007E000BF059959F8040B88474AF8040B9B
:103170007F1CB742F6DB0027DDF8189006E000BFA1
:10318000D8F8041059F8040B88477F1CB742F7DBC6
:10319000D8F8080080472BF0010004446D1ECCD203
:1031A00019E016E0A14600270AE000BF1C9939F893
:1031B000020B884705998847D8F8041088477F1C78
:1031C000B742F3DB3DB1D8F8080080472BF001008F
:1031D00004446D1EE6D2D8F80C0080473DE01B99F0
:1031E000099808440D90401E07901E4801680798F2
:1031F000B1F90A20824225DCB1F90E10099881420A
:1032000020DBA0460027CDF8289019E038F8020B03
:103210000090DDE90001884205D01C99884704F040
:10322000C9FC009801900A991A98079B0A18009205
:10323000DDE90910521E04F057F9009A7F1C0A922A
:10324000B742E3DB0BEBDB7020F0010004440D9888
:103250000AF1010A0990AA45C1DB0B98FFF788FA29
:1032600008E70000AC140020C41400202DE9FF4F33
:1032700093B00020DDF8908010906FF070400190C6
:10328000DDE9225017460543AD4E02EB47000F9093
:1032900030689A46209C407CFEF730FD0A903068EA
:1032A000407CFEF717FD0890182803D0082804DC9E
:1032B000012007E02020089003E0102801DC022014
:1032C00000E004201190012D04D014984FF0000B61
:1032D000079031E19A480068407CFEF717FD4045B1
:1032E00001D101201090002309AA1946184600F0C8
:1032F000CBF9002872D10025A9462678FF2E01D0EF
:1033000086B193E06D1CBD4207D1002509F101098A
:10331000BAF1000F62D0AAF1010A14F8030FFF28D6
:10332000F0D0A3E01398149928440D9001EB090004
:103330000C901098002678B10998A1786278E41C66
:1033400001EB02216D1C761C20F8021BBD4225D02A
:1033500021780029F1D057E01198012804D00228E3
:1033600026D0042850D13AE0DDE9080B01284BD0E3
:10337000022849D0042847D0082845D1A078617890
:1033800000EB012080B2414688470A998847E41C37
:103390006D1C761C0BF8010BBD4205D1002509F10F
:1033A0000109AAF1010A2FE020780028E6D02BE0DD
:1033B000DDF824B0A078617800EB012080B24146AE
:1033C00088470A998847E41C6D1C761C2BF8020B71
:1033D000BD42E3D020780028ECD015E04AE0DDF8CB
:1033E00024B0A078617800EB012080B24146884784
:1033F0000A998847E41C6D1C761C4BF8040BBD42EF
:10340000CCD020780028ECD0DDE908020DF1080BC3
:1034100000230F998BE80F000120009003460190D4
:10342000DDE90C10324603F0D3FE1FE0A17860788E
:1034300001EB002080B24146884703461499139857
:10344000C6F1FF024944284400F0CEFA6D1CBD428B
:1034500007D1002509F10109BAF1000F0AD0AAF13C
:10346000010A14F8036F701EFE28DFD3BAF1000FB3
:103470007FF443AF17B0BDE8F08F07992398084455
:103480000C90401E03902E4801680398B1F90A2061
:1034900082424DDCB1F90E100798814248DB139847
:1034A0000026069042E0A0786178257800EB0120A4
:1034B00080B24146884701990090884203D004F0C9
:1034C00079FB00980190FF2D2AD2069905B3079841
:1034D0000F910290069922980844A0F101090398DF
:1034E0000D90C5F1FF000590009804900F9D06E037
:1034F000DDE904322846029900F076FA6D1C4D454C
:10350000F6DD02980D99401C02908842EEDD07E03E
:103510002298039B0A18DDE90601521E03F0E4FF1E
:1035200022990698E41C0844761C0690BE42BADB39
:103530000C980BF1010B0790D3459EDB9AE7000036
:10354000AC1400202DE9F05F0C1E16DD5E6801460C
:1035500000EB8405082A12DC611E012A26D0022A0B
:1035600047D0042A6AD0082A07D1071917F8010D95
:10357000B04745F8040D641EF8D1BDE8F09F102A4D
:10358000FBDC5F693FB12246BC46BDE8F04F022339
:103590005DF804EB604701EB440700BF37F8020D0C
:1035A000B04745F8040D641EF8D1E6E700EBE100F2
:1035B00001F0070710F801A98146802020FA07F8DA
:1035C000B5F104050AEA0800C7F10701C840B04791
:1035D00045F804093FB14FEA48604FEA10687F1E82
:1035E000641EEFD1C9E719F801A907274FF00108B8
:1035F000F6E700EBA10001F0030710F801A98146EE
:103600007900C02020FA01F84FF0060BB5F104054F
:103610000AEA0800ABEB4701C840B04745F8040987
:103620003FB14FEA88604FEA10687F1E641EEFD1F9
:10363000A3E7032719F801A9B846F7E700EB6100F3
:10364000012710F801A9A7438146B900F02020FA0C
:1036500001F84FF0040B2D1F0AEA0800ABEB8701BD
:10366000C840B04745F804093FB14FEA08704FEA37
:1036700010687F1E641EEFD17FE719F801A90127AA
:103680004FF00F08F6E700002DE9F047224C064600
:103690001F46A06990468946002540B90120A061D7
:1036A00004F120011D480860084600F095F96069A2
:1036B00030B91B480068606110B903F0CCFF60614D
:1036C00007B138604EB1A06830B960698000FDF77D
:1036D000C7FFA06000B901253060B9F1000F0AD022
:1036E000E06830B960698000FDF7BAFFE06000B9BA
:1036F0000125C9F80000B8F1000F0AD0206930B9DF
:1037000060698000FDF7ACFF206100B90125C8F8B1
:1037100000002846BDE8F087D4150020C5E5000864
:10372000D8140020044AB2F9002002600348B0F91E
:103730000000086070470000E8140020EA14002030
:10374000B0F90030B1F90020934200DA0280B0F9FC
:103750000230B1F90220934200DA4280B0F904301D
:10376000B1F90420934200DD8280B0F90620B1F95E
:1037700006108A4200DDC180704770B5B1F9004083
:10378000B2F900309C4200DD23460380B1F90250BB
:10379000B2F90240A54200DD2C464480B1F9046034
:1037A000B2F90450AE4200DA35468580B1F9061010
:1037B000B2F90620914200DB1146C1809D4201DB37
:1037C000A14201DA002070BD012070BD014602480F
:1037D0000068407C00F002B8AC1400202DE9F843EA
:1037E00001268946044602285DDA304F7A6802B124
:1037F00090472E4D5FEA090005F1100532D00128EF
:1038000003D0B9F1020F4ED118E055F8240088B961
:103810002046FEF7C7F9009018B3C0680D21426A30
:103820006846904702003ED049460098904755F8B8
:1038300024000026401C45F8240034E02046FEF712
:10384000B1F9009068B1C0680D21426A684690479E
:10385000040028D0386800B1804749460098A04746
:10386000002620E055F82400A846012812D1204661
:10387000FEF798F9009068B1C0680D21426A684669
:103880009047050006D0386800B180474946009847
:10389000A847002658F8241009B1012200E00022B0
:1038A000891A48F824103046BDE8F88368150020CE
:1038B00070B5FF23B3EB116F2CD0C3B213FB02F52D
:1038C00000F47F4400F47F0354435343000E10FB85
:1038D00002F6C2F1FF00CAB212FB005201F47F45AA
:1038E00005FB004401F47F0505FB0033090E11FBC5
:1038F0000065C2F307204FF47F024FF47F4102EAD4
:10390000132201EA14214FF07F43084303EA0543E1
:103910001043184370BD2DE9F04F0646DDE90CB9A0
:1039200015460C4600208046584519D20B9F4FF093
:10393000FF0A01CE08CCAAEB106202FB09F2B2FB2F
:10394000FAF1CAB21946FFF7B3FF20F07F4001C574
:103950007F1EEED1099804EB800408F10100E2E734
:10396000BDE8F08F016811F8012B11F8013B0160EF
:1039700042EA03221046704713B5044601A8FFF738
:10398000F1FF208001A8FFF7EDFF608001A8FFF79D
:10399000E9FFA08001A8FFF7E5FFE08001A8FFF79D
:1039A000E1FF208101A8FFF7DDFF608101A8FFF79B
:1039B000D9FFA08101A8FFF7D5FFE0811CBD0B88CE
:1039C000134403808B889B1A83804B881344438065
:1039D000C988891AC180704702494A6942604861B2
:1039E00070470000A01400202DE9F041184C064655
:1039F0000D46206898461746B0F90A10A94224DC03
:103A0000B0F90E10A94220DBB0F90810B1421CDC5D
:103A1000B0F90C00B04218DB2946304603F0E0FD57
:103A200001463A464046FFF743FF03F0B5FB034625
:103A300020682A46417C074850F82100C1688C69FB
:103A40003146A446BDE8F0416047BDE8F081000082
:103A5000AC140020C414002010B502E000F8011BD3
:103A6000521E0AB18307F9D1930818D001EB014423
:103A700002F0030204EB042406E010C01B1F10C078
:103A800040F8084B40F8044C042BF6DA01E010C073
:103A90005B1E002BFBD102E000F8011B521E002A26
:103AA000FAD110BD0146104A52F8212000EE102A2A
:103AB000B8EEC00ADFED0D0A20EE200A0A4A0C32E9
:103AC00052F8212000EE902AF8EEE00A9FED081A45
:103AD00001EE200ABDEEC00A10EE100A024A0C32B6
:103AE00042F8210070470000AC1D0020CDCC4C3FB7
:103AF000CCCC4C3E10B50446D4F8880080476078A2
:103B000000EE900AF8EE600A20EE200A84ED030A27
:103B100094ED030ADFED030A20EE200A84ED040A87
:103B200010BD00004DF38E3C10B54FF400710448F9
:103B300001F01CF9012800D110BD0020FCE70000B5
:103B40000008024010B500F0BFF8DFED020A30EEC9
:103B5000600A10BD000034432DE9F0412DED048BC7
:103B600004460D4616460020FFF79CFF404200EE3B
:103B7000100AB8EEC00ADFED2B0A20EE200A10EE84
:103B8000107A3846FCF779FC41EC190B9FED260BB7
:103B900053EC102BFCF7FFFB41EC180BFCF7B0FCCF
:103BA00020600120FFF77EFF404200EE100AB8EED1
:103BB000C00ADFED1C0A20EE200A10EE107A38460B
:103BC000FCF75BFC41EC190B9FED170B53EC102B32
:103BD000FCF7E1FB41EC180BFCF792FC286002209B
:103BE000FFF760FF404200EE100AB8EEC00ADFEDBA
:103BF0000D0A20EE200A10EE107A3846FCF73DFC44
:103C000041EC190B9FED080B53EC102BFCF7C3FB99
:103C100041EC180BFCF774FC3060BDEC048BBDE884
:103C2000F08100001EF9833C000000000000F83F16
:103C300010B52DED028B00F047F8184880ED000A12
:103C400090ED000A1648D0ED000A30EE600AB0EEA2
:103C5000408A9FED140AB4EEC08AF1EE10FA05D244
:103C60009FED110A38EE000AB0EE408A9FED0F0A70
:103C7000B4EEC08AF1EE10FA05DD9FED0B0A38EEC6
:103C8000400AB0EE408A054890ED000A044880EDF5
:103C9000000AB0EE480ABDEC028B10BDF80100200E
:103CA000FC010020000034C30000B4430000344392
:103CB00010B5024800F004F810BD0000CC00002050
:103CC000014691F84400704700B500F029F800EE75
:103CD000100AF8EEC00A9FED0F1A80EE810ADFEDA0
:103CE0000E0A20EE200A0D4880ED010A90ED010A2F
:103CF000B5EEC00AF1EE10FA07D290ED010ADFED41
:103D0000060A30EE200A80ED010A044890ED010A0F
:103D100000BD0000000000460000B44398000020F1
:103D20001348016813480068406AA0F51C50103819
:103D300008440F49086042F210700E490968486251
:103D40000B480068002805DA0948006800F50050B3
:103D50000749086006490868C11700EBD1414913BB
:103D6000A0EB4131024A1160104600687047000024
:103D7000980000204819002090F8441007297CD2B0
:103D8000DFE801F07B04376A9FD2FD0090ED0D0A59
:103D9000DFED9B0A20EE200AD0ED100A80EE201AFB
:103DA00090ED030A21EE000A80ED090A90ED0D0A5C
:103DB000DFED930A20EE200AD0ED100A80EE201AE3
:103DC00090ED020A21EE000A80ED0B0A90ED0D0A3B
:103DD000D0ED090A30EE600AD0ED0B0A30EE600A31
:103DE000F0EE000A80EE201A80ED0C1A80ED051A24
:103DF00003E190ED0D0ADFED830A20EE200AD0EDFD
:103E0000100A80EE201A90ED030A21EE000A80EDE0
:103E1000070A90ED0D0ADFED7B0A20EE200AD0EDB7
:103E2000100A80EE201A90ED040A21EE000A80EDBF
:103E30000B0A90ED0D0AD0ED070A30EE600AD0EDC6
:103E40000B0A30EE600AF0EE000A80EE201A80EDD8
:103E50000C1A80ED051AD0E090ED0D0ADFED680A2E
:103E600060EE200A90ED101A80EE810AD0ED020A71
:103E700020EE200A80ED070A00E0BDE090ED0D0A7B
:103E8000DFED5F0A20EE200AD0ED100A80EE201A46
:103E900090ED040A21EE000A80ED080A90ED0D0A6B
:103EA000D0ED070A30EE600AD0ED080A30EE600A65
:103EB000F0EE000A80EE201A80ED0C1A80ED051A53
:103EC0009BE090ED0D0ADFED4F0A20EE200A90ED09
:103ED000101AC0EE010A90ED020A20EE800A80ED71
:103EE000060A90ED0D0ADFED470A20EE200A90ED5C
:103EF000101AC0EE010A90ED030A20EE800A80ED50
:103F0000080A90ED0D0AD0ED060A30EE600AD0EDF9
:103F1000080A30EE600AF0EE000A80EE201A80ED0A
:103F20000C1A80ED051A68E090ED0D0ADFED340AF9
:103F300060EE200A90ED101A80EE810AD0ED040A9E
:103F400020EE200A80ED060A90ED0D0ADFED2C0A26
:103F500060EE200A90ED101A80EE810AD0ED030A7F
:103F600020EE200A80ED0A0A90ED0D0AD0ED060A37
:103F700030EE600AD0ED0A0A30EE600A00E008E098
:103F8000F0EE000A80EE201A80ED0C1A80ED051A82
:103F900033E090ED0D0ADFED1B0A60EE200A90ED94
:103FA000101A80EE810AD0ED040A20EE200A80ED7E
:103FB000090A90ED0D0ADFED130A20EE200AD0ED7C
:103FC000100A80EE201A90ED020A21EE000A80ED20
:103FD0000A0A90ED0D0AD0ED090A30EE600AD0ED24
:103FE0000A0A30EE600AF0EE000A80EE201A80ED38
:103FF0000C1A80ED051A00E000BF00BF70470000FA
:104000002DB2DD3F2DB2DDBF38B502460020009055
:1040100000BF92F83C00012801D1022038BD0120E8
:1040200082F83C0000BF0868092816D91068C068EB
:104030000C780A3C04EB44050724AC40A043146808
:10404000E0600C780A3C04EB44048868A0401468E3
:10405000E46820431468E06013E0106800690C789D
:1040600004EB44050724AC40A043146820610C789D
:1040700004EB44048868A040146824692043146851
:1040800020614868072817D21068406B0C79641EBD
:1040900004EB84051F24AC40A043146860630888C7
:1040A00080B20C79641E04EB8404A0401468646B35
:1040B00020431468606331E048680D2817D2106807
:1040C000006B0C79E41F04EB84051F24AC40A04373
:1040D00014682063088880B20C79E41F04EB840420
:1040E000A0401468246B20431468206316E0106815
:1040F000C06A0C790D3C04EB84051F24AC40A0433E
:104100001468E062088880B20C790D3C04EB8404EA
:10411000A0401468E46A20431468E062194B1A4C0A
:104120001068A04206D10868122803D1586840F4EC
:1041300080005860144C1068A0421CD108681028F8
:1041400002D00868112816D1586840F40000586061
:10415000086810280FD10D4800680D4CB0FBF4F032
:1041600000EB80004000009002E00098401E0090AC
:1041700000980028F9D100BF002082F83C0000BF61
:1041800000BF4BE700230140002001401400002045
:1041900040420F00704770477047000070B50446FA
:1041A00000250CB9012070BD1549A06A884200D0D5
:1041B00000BF206C30B9204600F024F80020606475
:1041C00084F83C00206C00F0100088B9206C20F4CA
:1041D000885040F0020020642046FCF769FC002073
:1041E0006064206C20F0020040F00100206400E0D8
:1041F000012500BF002084F83C0000BF2846D2E71C
:104200000100000F10B586B00446142101A8FCF788
:10421000B7F84149206888424BD100BF0020009088
:104220003E48006840F480703C49086008460068D9
:1042300000F48070009000BF00BF00BF002000901D
:1042400036481438006840F00100344914390860D9
:104250000846006800F00100009000BF00BF702019
:104260000190032002900020039001A92C4800F047
:104270007BFC2C482C4908600020486000212A481B
:104280008160C1604FF480610161890041618900F2
:1042900081618911C161490201620021416200F01E
:1042A0006BFB08B1FCF74EFF00BF1F48A06384639F
:1042B0002FE01E49206888422BD100BF00200090CB
:1042C0001648006840F40070144908600846006809
:1042D00000F40070009000BF00BF00BF00200090FD
:1042E0000E481438006840F004000C491439086086
:1042F0000846006800F00400009000BF00BF3020B6
:104300000190032002900020039001A9084800F0CA
:104310002BFC06B010BD00000020014044380240D4
:1043200000000240106402401417002000210140E8
:1043300000080240F8B504460D46164600200090DD
:1043400000BF94F83C00012801D10220F8BD0120F3
:1043500084F83C0000BF2068806800F00100A0B92C
:104360002068806840F00100216888605548006836
:104370005549B0FBF1F000EB4000009002E00098DE
:10438000401E009000980028F9D12068806800F451
:104390008070B0F5807F05D12068806820F480703F
:1043A000216888602068806800F0010000287ED0C5
:1043B000206C40F20161884340F4807020642068E2
:1043C000406800F4806028B1206C20F4005040F474
:1043D00080502064206C00F48050B0F5805F04D1E0
:1043E000606C20F00600606401E00020606400BFA3
:1043F000002084F83C0000BF344F3548A16BC863EF
:104400003448A16B08643448A16BC8646FF0220083
:10441000216808602068406840F08060216848603A
:104420002068806840F4807021688860226802F10A
:104430004C0133462A46A06B00F014FB786800F06C
:104440001F0018BB25492068884213D024492068E2
:10445000884204D1381D006800F01F0050B1214986
:10446000206888422BD11948001D006800F01F0009
:10447000102824D22068806800F04050F8B92068E5
:10448000806840F080402168886018E01349206807
:10449000884214D12068806800F0405078B92068C4
:1044A000806840F080402168886008E0FFE7206C69
:1044B00040F010002064606C40F001006064002057
:1044C00044E700001400002040420F000023014098
:1044D000090A0008A10A0008870A00080020014014
:1044E000002101400022014070B504460CB90120B2
:1044F00070BD94F8200010B9204600F0AFF8206895
:10450000006820F002002168086000F03DFC0546CC
:104510000DE000F039FC401B0A2808D9606A40F41D
:1045200000306062052084F820000120E0E7206868
:10453000406800F002000028EBD12068006840F0DD
:1045400001002168086000F01FFC05460DE000F046
:104550001BFC401B0A2808D9606A40F400306062E6
:10456000052084F820000120C2E72068406800F0A0
:1045700001000028EBD0207E012806D120680068C9
:1045800040F080002168086005E02068006820F0A5
:10459000800021680860607E012806D120680068DC
:1045A00040F040002168086005E02068006820F0C5
:1045B000400021680860A07E012806D120680068BC
:1045C00040F020002168086005E02068006820F0C5
:1045D000200021680860E07E012806D1206800687C
:1045E00020F010002168086005E02068006840F0B5
:1045F000100021680860207F012806D1206800682B
:1046000040F008002168086005E02068006820F09C
:10461000080021680860607F012806D120680068D2
:1046200040F004002168086005E02068006820F080
:10463000040021680860D4E90201084321690843A5
:10464000616908436168491E08432168C861002008
:104650006062012084F82000002049E710B586B090
:104660000446142101A8FBF78BFE1B4920688842F1
:1046700030D100BF002000901848006840F0007062
:10468000164908600846006800F00070009000BFFE
:1046900000BF00BF0020009010481038006840F0B4
:1046A00001000E49103908600846006800F001005A
:1046B000009000BF00BF4FF4C05001900220029054
:1046C00000200390032004900920059001A90448CC
:1046D00000F04AFA06B010BD0064004040380240C5
:1046E0000000024010B504460CB9012010BD6079ED
:1046F00020B900202071204600F004F801206071EC
:104700000020F3E708B50A4A016891420FD100BFC3
:10471000002100910749096841F48051054A116060
:104720001146096801F48051009100BF00BF08BD27
:104730000030024030380240F8B5044600200090B6
:104740008C4800684FF41651B0FBF1F7A56D2E6848
:1047500094F85C1008208840304098B120680068C8
:1047600000F0040070B12068006820F004002168A7
:10477000086094F85C1008208840A860606D40F0E4
:104780000100606594F85C1001208840304068B1F9
:104790002068406900F0800040B194F85C1001206E
:1047A0008840A860606D40F00200606594F85C107D
:1047B00004208840304068B12068006800F00200A2
:1047C00040B194F85C1004208840A860606D40F00F
:1047D0000400606594F85C1010208840304078B385
:1047E0002068006800F0080050B394F85C101020B6
:1047F0008840A8602068006800F4802080B12068AC
:10480000006800F4002028B9206CC8B12046216C53
:10481000884715E0A06C98B12046A16C88470FE04E
:104820002068006800F4807028B92068006820F0D3
:10483000080021680860206C10B12046216C884770
:1048400094F85C10202088403040002865D0206813
:10485000006800F0100000285FD094F85C10202061
:104860008840A86094F83500052828D120680068A1
:1048700020F01600216808602068406920F0800060
:1048800021684861206C08B9A06C28B120680068D4
:1048900020F008002168086094F85C103F208840F0
:1048A000A86000BF002084F8340000BF012084F815
:1048B0003500206D10B12046216D8847F8BD206875
:1048C000006800F4802080B12068006800F40020B7
:1048D00028B9606C10B12046616C88471DE0E06B20
:1048E000D8B12046E16B884717E02068006800F4E3
:1048F000807068B92068006820F0100021680860A6
:1049000000BF002084F8340000BF012084F8350087
:10491000E06B10B12046E16B8847606D38B3606D85
:1049200000F00100F0B1052084F83500206800682F
:1049300020F001002168086000BF0098401C009032
:10494000B84200D905E02068006800F001000028A6
:10495000F3D100BF00BF002084F8340000BF012065
:1049600084F83500E06C10B12046E16C884700BF48
:10497000A4E70000140000202DE9F04104460025C2
:1049800000F002FA074614B90120BDE8F081606A20
:1049900000B100BF00BF002084F8340000BF022037
:1049A00084F835002068006820F001002168086064
:1049B0000AE000F0E9F9C01B052805D92020606550
:1049C000032084F83500E0E72068006800F001006B
:1049D0000028EED12068056821480540D4E901018E
:1049E0000843E16808432169084361690843A169F4
:1049F0000843E1690843216A08430543606A0428C3
:104A000003D1D4E90B010843054320680560206801
:104A1000456925F00705606A0543606A04280DD1E1
:104A2000A06A0543E06A48B12046FCF719FB28B1AB
:104A300040206065012084F83500A6E720684561C4
:104A40002046FCF7F3FA064694F85C103F208840B5
:104A5000B06000206065012084F83500002094E7F4
:104A60003F8010F02DE9F04704460D4616461F46DC
:104A70004FF00008D4F8589000BF94F83400012893
:104A800002D10220BDE8F087012084F8340000BF85
:104A900094F83500012825D1022084F83500002043
:104AA00060653B46324629462046FCF72EFB94F8CB
:104AB0005C103F208840C9F808002068006840F07A
:104AC000160021680860206C28B12068006840F05A
:104AD0000800216808602068006840F00100216833
:104AE000086006E000BF002084F8340000BF4FF0EB
:104AF00002084046C6E7000070B5044600F044F9DD
:104B000006462546681C10B104480078054400BFDD
:104B100000F03AF9801BA842FAD370BD10000020C3
:104B200010B50446B4F5005F0DD10748007930B9DF
:104B3000FFF7F6F8044908600120087103E0024914
:104B4000086804F047FA10BDA000002010B5044624
:104B500004480068204020B1024804602046FFF766
:104B6000DFFF10BD143C0140F8B502460B4600259E
:104B7000002400200021DEE0012606FA01F51E686F
:104B800006EA0504AC4275D11E7906F00306012E33
:104B900004D01E7906F00306022E13D190684F0050
:104BA0000326BE40B0434F00DE68BE4030439060F5
:104BB000506801268E40B0431E79C6F300168E4021
:104BC000304350601E7906F00306032E09D0D068EA
:104BD0004F000326BE40B0434F009E68BE403043A6
:104BE000D0601E7906F00306022E13D1CF0802F121
:104BF000200656F827004E07F70E0F26BE40B0439A
:104C00004F07FF0E1E69BE403043CF0802F1200659
:104C100046F8270010684F000326BE40B0431E79B7
:104C200006F003064F00BE40304310605E6806F099
:104C30008056B6F1805F7DD100BF00260096404EC1
:104C4000366846F480463E4F3E603E46366806F47F
:104C50008046009600BF00BF3A4E8F0856F82700E6
:104C60008E07370F0F26BE40B043374EB24202D1F7
:104C7000002624E05EE0354EB24201D101261EE05E
:104C8000334EB24201D1022619E0324EB24201D176
:104C9000032614E0304EB24201D104260FE02F4E1D
:104CA000B24201D105260AE02D4EB24201D10626BC
:104CB00005E02C4EB24201D1072600E008268F07FE
:104CC0003F0FBE4030431F4E8F0846F82700264E48
:104CD0003068A0435E6806F48036B6F5803F00D1A8
:104CE0002043214E3060361D3068A0435E6806F4D4
:104CF0000036B6F5003F00D120431B4E361D306014
:104D0000361D3068A0435E6806F48016B6F5801F35
:104D100000D12043144E08363060361D3068A04361
:104D20005E6806F40016B6F5001F00D120430E4E53
:104D30000C363060491C1029FFF41EAFF8BD00008E
:104D4000443802400838014000000240000402409C
:104D500000080240000C0240001002400014024013
:104D600000180240001C0240003C0140024613694A
:104D70000B400BB1012000E0002070470AB18161B7
:104D800001E00B0483617047014800687047000030
:104D90000800002070B504460CB9012070BD94F8DD
:104DA0003D0028B9002084F83C00204600F08CF932
:104DB000242084F83D002068006820F0010021686C
:104DC00008602068006840F400402168086020689E
:104DD000006820F400402168086000F07DFB054673
:104DE0005C496068884206D85B48854201D2012050
:104DF00007E0002005E05948854201D2012000E08B
:104E00000020012800D1C9E75548B5FBF0F620681D
:104E1000406820F03F003043216848604D49606899
:104E2000884201D8701C07E04FF4967070434FF42D
:104E30007A71B0FBF1F0401C2168096A21F03F0152
:104E400008432168086243496068884214D8681E94
:104E500061684900B0FBF1F0401CC0F30B0004286E
:104E600001D204203DE0681E61684900B0FBF1F00A
:104E7000401CC0F30B0034E0A06838B9681E6168BC
:104E800001EB4101B0FBF1F0401C0AE0681E6168D3
:104E900001EBC10202EB0111B0FBF1F0401C40F448
:104EA0008040C0F30B0008B901201AE0A06848B99F
:104EB000681E616801EB4101B0FBF1F0401CC0F3DA
:104EC0000B000CE0681E616801EBC10202EB0111EE
:104ED000B0FBF1F0401CC0F30B0040F4804040F404
:104EE00000402168C9694CF6FF729143084321686C
:104EF000C861D4E9070108432168096821F0C001AD
:104F0000084321680860D4E90310084321688968D0
:104F100048F2FF329143084321688860D4E90501D3
:104F200008432168C96821F0FF0108432168C8606F
:104F30002068006840F001002168086000202064BB
:104F4000202084F83D000020206384F83E0000BF4C
:104F500024E70000A086010080841E0000093D00B7
:104F600040420F002DE9FC5F04460F4690469946EB
:104F7000DDE90CAB0E9EFFF707FF054694F83D00F8
:104F800020287DD1192301224D492046009501F0AA
:104F900001FE10B10220BDE8FC9F00BF94F83C0068
:104FA000012801D10220F6E7012084F83C0000BF6F
:104FB0002068006800F0010028B92068006840F00F
:104FC0000100216808602068006820F40060216802
:104FD0000860212084F83D00402084F83E00002035
:104FE0002064C4F824A0A4F82AB0608D2085354838
:104FF000E0624B46424639462046CDE9006501F065
:105000002BFD08B10120C6E731E02A463146204693
:1050100001F065FE50B1206C042805D120680068BD
:1050200040F40070216808600120B4E7606A0078ED
:1050300021680861606A401C6062208D401E2085E6
:10504000608D401E608520684069C0F3800070B1AB
:10505000208D60B1606A007821680861606A401C38
:105060006062208D401E2085608D401E6085208DF1
:105070000028CAD12A463146204601F05DFD00E0F5
:105080001CE050B1206C042805D12068006840F471
:1050900000702168086001207DE72068006840F406
:1050A000007021680860202084F83D00002084F80A
:1050B0003E0000BF84F83C0000BF6CE702206AE7B6
:1050C000020010000000FFFF10B586B00446142156
:1050D00001A8FBF755F92C492068884251D100BF3F
:1050E000002000902948006840F00200274908602D
:1050F0000846006800F00200009000BF00BF4FF4B7
:10510000407001901220029001200390032004902F
:105110000420059001A91E48FFF726FD00BF0020CE
:1051200000901A481030006840F400101749103100
:1051300008600846006800F40010009000BF00BF3F
:105140001448154908604FF000704860402112482B
:1051500081600021C1604FF48061016100214161E3
:105160008161C1614FF40031016200214162FFF7AA
:1051700003FC08B1FBF7E6FF00BF074860638463E8
:1051800000BF06B010BD000000540040303802409F
:1051900000040240B8600240F01700200348006895
:1051A0000349097808440149086070470800002055
:1051B0001000002010B50D48006840F400700B4945
:1051C00008600846006840F480600860084600688F
:1051D00040F480700860032000F0A2F8002000F086
:1051E00007F800F02BF8002010BD0000003C024042
:1051F00070B504460E4800784FF47A71B1FBF0F0B8
:105200000C490968B1FBF0F5284600F0FFFC08B135
:10521000012070BD102C07D200222146501E00F044
:1052200041F80548046001E00120F2E70020F0E7C2
:1052300010000020140000200C00002008B500BF62
:10524000002000900E48006840F480400C4908603F
:105250000846006800F48040009000BF00BF00BF17
:1052600000200090081F006840F08050091F08606F
:105270000846006800F08050009000BF00BF08BDE5
:105280004438024001460846002809DB00F01F03AD
:1052900001229A4043099B0003F1E023C3F8002157
:1052A00000BF70472DE9F05F80460D461646002787
:1052B0000AF032F9074639462A46334601F007001C
:1052C000C0F1070ABAF1040F02D94FF0040A01E055
:1052D000C0F1070AD14600F1040ABAF1070F02D261
:1052E0004FF0000A01E0A0F1030AD4464FF0010A92
:1052F0000AFA09FAAAF1010A0AEA020A0AFA0CFAF7
:105300004FF0010B0BFA0CFBABF1010B0BEA030B9B
:105310004AEA0B04214640460AF006F9BDE8F09F30
:1053200000BF00F00702064B19684FF6FF03194053
:10533000044B0B4343EA0221014B196000BF704745
:105340000CED00E00000FA0570B504460D460CB9FE
:10535000012070BD5848006800F00700A84209D23B
:1053600055490D700846006800F00700A84201D0BA
:105370000120EEE7207800F0020002281DD12078FD
:1053800000F00400042805D14C48006840F4E050C7
:105390004A490860207800F00800082805D14748ED
:1053A000006840F46040454908604448006820F0C7
:1053B000F000A168084341490860207800F001002E
:1053C000A8B36068012807D13C4808380068C0F3DA
:1053D0004040B8B90120BCE76068022802D060688C
:1053E000032807D1354808380068C0F3406048B941
:1053F0000120AEE7314808380068C0F3400008B922
:105400000120A6E72D48006820F0030061680843EA
:105410002A490860FFF7B8FC064609E0FFF7B4FC2C
:10542000801B41F28831884202D9032091E707E0CE
:105430002248006800F00C006168B0EB810FEDD1EC
:105440001D48006800F00700A84209D91A490D70EC
:105450000846006800F00700A84201D0012078E764
:10546000207800F00400042807D11448006820F4D4
:10547000E050E168084311490860207800F0080016
:10548000082808D10D48006820F46040216940EAEE
:10549000C1000A49086000F02FF808490968C1F303
:1054A0000311074A515CC840064908600648006875
:1054B000FFF79EFE00204CE7003C02400838024007
:1054C000CAFF0008140000200C00002001480068FA
:1054D000704700001400002000B5FFF7F7FF0449F3
:1054E0000968C1F38221034A515CC84000BD000035
:1054F00008380240DAFF00082DE9F04700240025B3
:105500000026A1462548006800F00C0020B10428C0
:1055100005D008283AD105E0DFF8849039E0DFF8BB
:10552000849036E01D48001F006800F03F041B48CF
:10553000001F006800F4800078B11A481749091F5D
:105540000968C1F38811A0FB0170014622460023BF
:105550003846FAF7BDFE05460EE011480F49091F0F
:105560000968C1F38811A0FB01700146224600239F
:105570003846FAF7ADFE05460848001F0068C0F33C
:105580000140401C4600B5FBF6F902E0DFF8109040
:1055900000BF00BF4846BDE8F08700000838024061
:1055A0000024F40000127A00F8B504460CB901207A
:1055B000F8BD207800F00100002874D0F948006898
:1055C00000F00C0004280DD0F648006800F00C0034
:1055D000082813D1F348001F006800F48000B0F5DC
:1055E000800F0BD1EF4808380068C0F34040002816
:1055F00059D06068002856D10120D9E700BF606803
:10560000B0F5803F08D1E7480838006840F48030A2
:10561000E449083908601EE06068B0F5A02F0DD19C
:10562000E0480838006840F48020DE490839086006
:105630000846006840F4803008600CE0D94808381B
:10564000006820F48030D7490839086008460068AF
:1056500020F48020086000BF606890B1FFF794FBE1
:10566000054606E0FFF790FB401B642801D90320A4
:105670009EE7CC4808380068C0F340400028F1D0CD
:1056800011E0FFF781FB054606E0FFF77DFB401BBD
:10569000642801D903208BE7C24808380068C0F3AA
:1056A00040400028F1D1207800F0020002285FD1AC
:1056B000BC48006800F00C0058B1BA48006800F01F
:1056C0000C0008281CD1B748001F006800F48000B7
:1056D000B0B9B44808380068C0F3400020B1E068B1
:1056E000012801D0012063E7AE480838006820F0A7
:1056F000F800216940EAC100AA490839086037E08A
:10570000E06800B30120A8490860FFF73DFB0546AB
:1057100006E0FFF739FB401B022801D9032047E7C9
:10572000A04808380068C0F340000028F1D09D4828
:105730000838006820F0F800216940EAC100994962
:105740000839086014E0002097490860FFF71CFB47
:10575000054606E0FFF718FB401B022801D903208D
:1057600026E7904808380068C0F340000028F1D1CF
:10577000207800F0080008282CD16069A8B1012029
:105780008A490860FFF700FB054606E0FFF7FCFAD0
:10579000401B022801D903200AE782486C300068C8
:1057A000C0F340000028F1D014E000207F490860D9
:1057B000FFF7EAFA054606E0FFF7E6FA401B022883
:1057C00001D90320F4E677486C300068C0F340004C
:1057D0000028F1D1207800F00400042870D10027BF
:1057E00070483830006800F0805090B900BF002049
:1057F00000906C483830006840F08050694938317A
:1058000008600846006800F08050009000BF00BFAC
:1058100001276748006800F48070B0B964480068E8
:1058200040F4807062490860FFF7AEFA054606E072
:10583000FFF7AAFA401B022801D90320B8E65C480A
:10584000006800F480700028F2D000BFA068012832
:1058500008D154486830006840F00100514968316F
:1058600008601DE0A06805280DD14E48683000682A
:1058700040F004004B49683108600846006840F079
:10588000010008600CE047486830006820F0010023
:105890004449683108600846006820F00400086048
:1058A00000BFA068A8B1FFF76FFA054609E0FFF74F
:1058B0006BFA401B41F28831884202D9032077E617
:1058C00026E0384868300068C0F340000028EED079
:1058D00013E0FFF759FA054608E0FFF755FA401BB9
:1058E00041F28831884201D9032061E62D486830B1
:1058F0000068C0F340000028EFD1012F07D12948EC
:105900003830006820F0805026493831086000BFE8
:10591000A069002845D02348006800F00C00082842
:105920005DD0A069022845D100201F490866FFF715
:105930002BFA054606E0FFF727FA401B022801D99B
:10594000032035E6174808380068C0F34060002897
:10595000F1D1D4E907010843616A40EA81110122CB
:10596000A06AC2EB500041EA00412C20005D41EAF0
:1059700000600C49091F086001200B490866FFF709
:1059800003FA054606E0FFF7FFF9401B022801D99C
:1059900003200DE6034808380068C0F34060002883
:1059A000F1D049E00838024000004742800E4742EB
:1059B00000700040002021490866FFF7E5F9054620
:1059C00006E0FFF7E1F9401B022801D90320EFE5CB
:1059D0001B480068C0F340600028F2D12CE0A069A9
:1059E000012800D1E4E51648001D0668A0690128D9
:1059F00020D006F48001E06981421BD106F03F010E
:105A0000206A814216D147F6C0703040616AB0EB1F
:105A1000811F0FD106F440310122A06AC2EB500071
:105A2000B1EB004F06D106F070612C20005DB1EBA8
:105A3000006F01D00120BBE50020B9E5000047421E
:105A40000038024010B504460CB9012010BD606A50
:105A500038B96068B0F5827F00D105E00021E161CE
:105A600002E00021216161610021A16294F85100EE
:105A700028B9002084F85000204600F047F80220A2
:105A800084F851002068006820F040002168086018
:105A9000A08800F48270218901F404410843A1899F
:105AA00001F400610843217C01F002010843217DDB
:105AB00001F001010843218B01F400710843217FAB
:105AC00001F0380108432021095D01F080010843FD
:105AD000218D01F400510843216808600421A06968
