:020000040800F2
:10000000280D0020A10100086D460008153F0008DA
:10001000B9450008150C0008CD5700080000000085
:10002000000000000000000000000000614B00081C
:10003000F310000800000000414700087952000852
:10004000BB010008BB010008BB010008BB010008A0
:10005000BB010008BB010008BB010008BB01000890
:10006000BB010008BB010008BB010008BB01000880
:10007000BB010008BB010008BB010008BB01000870
:10008000BB010008BB010008BB010008BB01000860
:10009000BB010008BB010008BB010008BB01000850
:1000A000BB010008BB010008BB0100088153000828
:1000B000BB010008BB010008BB010008BB01000830
:1000C000BB010008BB010008BB010008BB01000820
:1000D000BB010008BB010008BB010008BB01000810
:1000E000F5100008BB010008BB010008BB010008B7
:1000F000BB010008BB010008BB010008BB010008F0
:10010000BB010008BB010008BB010008BB010008DF
:10011000BB010008BB010008BB010008BB010008CF
:10012000D10F0008BB010008BB010008BB0100089B
:10013000BB0100080000000000000000BB01000837
:10014000BB010008BB010008BB010008BB0100089F
:10015000BB010008BB010008BB010008BB0100088F
:10016000BB010008BB010008BB010008BB0100087F
:10017000BB010008BB0100080000000000000000F7
:10018000BB010008BB010008DFF810D000F0BEFB87
:100190000048004705610008AFF30080280D0020EB
:1001A0000648804706480047FEE7FEE7FEE7FEE711
:1001B000FEE7FEE7FEE7FEE7FEE7FEE76D53000819
:1001C000890100089FED1A1AF5EE000A40EE010AB7
:1001D000BDEEE00AF5EEC00A10EE100AF1EE10FADC
:1001E00038BF401E00EE100A1349F7EE001AB8EEB1
:1001F000C00A30EEC00ADFED0F0A20EE200AFCEE46
:10020000C00A10EE900AC0F3080000EE900A01EB5D
:100210008000F8EE600A90ED011A70EE600A90ED31
:10022000000A71EEE01A21EE800A00EE810A7047A2
:1002300083F9223E0000004460610008B5EEC00A68
:10024000F1EE10FA07D2DFED1E0AB4EEE00AF1EE8D
:1002500010FAA8BF7047DFED1B0AB5EEC00A60EECA
:10026000200ABDEEE01A11EE100AF1EE10FA38BFC6
:10027000401E00EE100A1549F7EE001AB8EEC00A4B
:1002800030EEC00ADFED100A60EE200ABCEEE00A94
:1002900010EE100AC0F3080000EE100A01EB800017
:1002A000B8EE400A90ED011A70EEC00A90ED000A17
:1002B00071EEE01A21EE800A00EE810A704700001C
:1002C000CD024CB483F9223E000000446061000876
:1002D0002DE9F05F0546002092469B46884606467B
:1002E000814640241BE0284641464746224600F00E
:1002F0003AF953465A46C01A914110D3114618464E
:10030000224600F021F92D1A67EB01084F462246DC
:100310000120002100F018F917EB00094E41201EC2
:10032000A4F10104DFDC484631462A464346BDE8D5
:10033000F09F40EA01039B0703D009E008C9121FA0
:1003400008C0042AFAD203E011F8013B00F8013B8F
:10035000521EF9D27047D2B201E000F8012B491EBB
:10036000FBD270470022F6E710B513460A46044652
:100370001946FFF7F0FF204610BD2DE9FE4F81EA38
:10038000030404F0004421F0004100944FF0000BFE
:1003900023F0004350EA01045ED052EA03045BD02C
:1003A000C3F30A54C1F30A552C44A4F2F334019464
:1003B000A0FB0254C1F3130141F48011C3F31303F2
:1003C00043F4801301FB024400FB034E840A970AA6
:1003D00044EA815447EA8357A4FB076802958D0AD3
:1003E00005FB07854FEA932C04FB0C542705029D5F
:1003F0004FEA065847EA1637B5EB08056EEB070CCF
:10040000870E920E47EA811742EA8312A7FB020188
:10041000B6EB0B0164EB00042B0D43EA0C335E18C2
:1004200044EB1C50DA465146E7FB0201C5F31304C6
:100430004FEA0B3343EA14534FEA0432019C43EA78
:100440000603A4F10C040294009CCDE900B400F072
:10045000E0F803B0BDE8F08F00200146F9E700F0B6
:10046000004230F000400AD0C10D01F56071C0F3C8
:10047000160042EA0151C2084007114370470020AC
:100480000146704730B5041E71F1000404DB4FF0E3
:100490000044404264EB0101141E73F1000405DBCB
:1004A0001C464FF00043524263EB04038B4208BFEB
:1004B000824230BD30B5041E71F1000404DB4FF000
:1004C0000044404264EB0101141E73F1000405DB9B
:1004D0001C464FF00043524263EB0403994208BFAD
:1004E000904230BD01F0004330B421F0004150EAA9
:1004F000010206D00A0DA2F56072C1F31301002AB1
:1005000002DC30BC00207047440F44EAC104C10043
:10051000E01830BC00EBC25000F035B830B50B46E7
:10052000014600202022012409E021FA02F59D4223
:1005300005D303FA02F5491B04FA02F52844151EF7
:10054000A2F10102F1DC30BD202A04DB203A00FADE
:1005500002F1002070479140C2F1200320FA03F31A
:10056000194390407047202A04DB203A21FA02F018
:100570000021704721FA02F3D040C2F120029140DD
:100580000843194670470029A8BF7047401C49001E
:1005900008BF20F00100704710B4B0FA80FC00FAE8
:1005A0000CF050EA010404BF10BC704749B1CCF113
:1005B000200421FA04F411FA0CF118BF012121439F
:1005C0000843A3EB0C01CB1D4FEA00614FEA10205A
:1005D00042BF002010BC704700EBC35010440029FC
:1005E000A4BF10BC7047401C490008BF20F00100A8
:1005F00010BC704710B5141E73F1000408DA401CDB
:1006000041F1000192185B411A4301D120F0010031
:1006100010BD2DE9F04D92469B4611B1B1FA81F221
:1006200002E0B0FA80F220329046FFF78DFF0446D8
:100630000F4640EA0A0041EA0B0153465A46084376
:1006400013D0114653EA010019D0C8F140025046B8
:10065000FFF789FF05460E46504659464246FFF7CA
:1006600073FF084305D0012004E020463946BDE869
:10067000F08D0020054346EAE0762C4337430A9884
:100680006305E40AA0EB08000022FD0A44EA47548F
:100690000A3002D500200146E9E701051019694139
:1006A000DDE9084500196941BDE8F04DA2E72DE9F3
:1006B000FE4F804681EA0300C00F0C46009021F0F7
:1006C000004123F00045B8EB0200A94105D24046A5
:1006D000214690461C460B46024623F0004010433C
:1006E00047D0270DC7F30A00C3F30A510290401AFE
:1006F000019040286BDAC3F3130040F4801B00988C
:10070000924620B10023D2EB030A63EB0B0B019856
:100710005946C0F140025046FFF716FF06460D4607
:1007200050465946019A00F003F910EB0800614168
:10073000002487EA115284EAE7731A4340D0009AF2
:1007400062B3019A012A4FEA075215DC001B61EBE4
:1007500002014FF0004202EA0752CDE90042001CBC
:1007600041F5801132462B46FFF753FF03B0BDE839
:10077000F08F40462146F9E7001B61EB0201001CA7
:1007800041F5801300185B412018A2F5001747EBD4
:10079000030140EAD570B6196D4111E06D084FEACA
:1007A000360645EAC0754FEA0752001B61EB0201AD
:1007B000001C41F5801149084FEA300000195141F1
:1007C00032462B4603B0BDE8F04FFFF713BF009849
:1007D000012240000023D0EB020263EBE07300989B
:1007E00021464FEAE074B8EB000061EB0401E9E751
:1007F00083F000435BE781F0004158E72DE9F04DBD
:1008000081EA030404F0004B21F0004514464FF048
:10081000000A23F0004150EA050220D054EA010208
:100820001DD0C5F30A570246C5F31303C1F31300E5
:10083000C1F30A5640F4801543F48013A7EB060871
:10084000101BD64608F2FD3873EB050002D308F101
:10085000010801E092185B41B8F1000F03DA0020B3
:100860000146BDE8F08D00204FF480110646844615
:100870000EE0171B73EB050705D3121B63EB050393
:1008800006434CEA010C49084FEA300092185B41DC
:1008900050EA0107EDD152EA030012D082EA0400C7
:1008A00083EA0501084305D0101BAB4106D20122A3
:1008B000002306E000224FF0004302E06FF0010247
:1008C00053101AEB06004CEB085110EB0A0041EBF9
:1008D0000B01BDE8F04DFFF78DBEC1F30A52C1F325
:1008E000130140F2FF3341F480119A4202DA0020F2
:1008F0000146704740F233439A42A2F2334202DC8F
:100900005242FFF730BEFFF71FBE0000064C074DF6
:1009100006E0E06840F0010394E8070098471034CF
:10092000AC42F6D3FFF734FC706900089069000808
:10093000202A06DBCB17203A41FA02F043EAE073A3
:1009400006E041FA02F3D040C2F120029140084390
:100950001946704770B58C1810F8015B15F0070345
:1009600001D110F8013B2A1106D110F8012B03E048
:1009700010F8016B01F8016B5B1EF9D12B0705D450
:100980000023521E0DD401F8013BFAE710F8013B99
:10099000CB1A921C03E013F8015B01F8015B521EB5
:1009A000F9D5A142D8D3002070BD000008480068E6
:1009B000A0F61B000649C86008464068A0F2DF7038
:1009C000086108468068A0F2FA704861704700002C
:1009D0000009002010B503220249034801F02CF859
:1009E00010BD0000000900204402002070B505463B
:1009F000AC6B206C00F0500050BB206C40F40070D9
:100A000020642068806800F04050E8B9207ED8B9A2
:100A10002068C06A00F4700020B12068806800F48B
:100A2000806088B92068406820F020002168486014
:100A3000206C20F480702064206C00F4805018B981
:100A4000206C40F001002064204600F025FF0BE000
:100A5000206C00F0100018B1204600F01FFF03E0EA
:100A6000A06BC16C2846884770BD70B50546AC6B5D
:100A700040202064606C40F004006064204600F078
:100A80000DFF70BD70B50446A56B284600F005FF4C
:100A900070BD000055494A6822F440324A604A68F5
:100AA00043681A434A600268526822F480720368FD
:100AB0005A6002685368026943EA022203685A6076
:100AC0000268526822F0407203685A6002685268F5
:100AD00083681A4303685A600268926822F40062CD
:100AE00003689A6002689268C3681A4303689A6050
:100AF0003F4B826A9A4218D00268926822F0706274
:100B000003689A6002689268836A1A4303689A606D
:100B10000268926822F0405203689A600268926804
:100B2000C36A1A4303689A600BE00268926822F075
:100B3000706203689A600268926822F0405203680B
:100B40009A600268926822F0020203689A60026862
:100B50009368027E43EA420203689A602022125C94
:100B6000A2B10268526842F4006203685A600268E7
:100B7000526822F4604203685A6002685368426A0D
:100B8000521E43EA423203685A6005E00268526826
:100B900022F4006203685A600268D26A22F470028A
:100BA0000368DA620268D36A828B521E43EA0252F9
:100BB0000368DA620268926822F4007203689A603D
:100BC0000268936890F8302043EA422203689A60F2
:100BD0000268926822F4806203689A6002689368EF
:100BE000426943EA822203689A6070470023014009
:100BF0000100000F10B503F0E5F903F0A2FD00F0CD
:100C0000C8FA10BD10B503F0E5F903F0A9FD00F036
:100C1000C1FA10BD00BFFEE790ED060A80ED090A9B
:100C200090ED060AD0ED070AB0EE001A01EE200A98
:100C3000DFED030A80EE201A80ED0A1A70470000EB
:100C4000D0B3DD3F10B52DED088B044694ED0C0AB2
:100C500084ED120A94ED020A84ED130A94ED130A4E
:100C6000D4ED120A30EE600A84ED140A94ED140AF1
:100C7000D4ED150A30EE600AD4ED0F0A20EE200AFA
:100C8000D4ED100A94ED141A00EE810AD4ED160A80
:100C900030EE200A84ED160A94ED140A84ED150A4C
:100CA00094ED170A10EE101A0846FFF7D8FB41EC36
:100CB0001A0BB0EE4A0AF0EE6A0A04F0B7FDB0EE85
:100CC000408AF0EE608A94ED160A10EE101A08467B
:100CD000FFF7C5FB41EC190B53EC182BFFF7EAFBB0
:100CE00017D294ED170A10EE101A0846FFF7B7FB5B
:100CF00041EC190BB0EE490AF0EE690A04F096FDDA
:100D0000B0EE408AF0EE608A51EC180BFFF7EAFB78
:100D1000A06594ED170A10EE101A0846FFF79FFB26
:100D200041EC1B0BB0EE4B0AF0EE6B0A04F07EFDBB
:100D3000B0EE40AAF0EE60AA51EC1A0B81F000412F
:100D400041EC180B94ED160A10EE101A0846FFF746
:100D500086FB41EC190B53EC182BFFF793FB1BD2CE
:100D600094ED170A10EE101A0846FFF778FB41ECD5
:100D70001A0BB0EE4A0AF0EE6A0A04F057FDB0EE24
:100D8000409AF0EE609A51EC190B81F0004141EC71
:100D9000180BFFF7A7FBA065BDEC088B10BD10B5C5
:100DA0002DED088B044694ED0B0A84ED1B0A94ED9F
:100DB000010A84ED1C0A94ED1C0AD4ED1B0A30EEE6
:100DC000600A84ED1D0A94ED1D0AD4ED1E0A30EE72
:100DD000600AD4ED180A20EE200AD4ED190A94ED29
:100DE0001D1A00EE810AD4ED1F0A30EE200A84EDB0
:100DF0001F0A94ED1D0A84ED1E0A94ED200A10EEE0
:100E0000101A0846FFF72BFB41EC1A0BB0EE4A0A0A
:100E1000F0EE6A0A04F00AFDB0EE408AF0EE608A55
:100E200094ED1F0A10EE101A0846FFF718FB41EC6C
:100E3000190B53EC182BFFF73DFB17D294ED200A4A
:100E400010EE101A0846FFF70AFB41EC190BB0EE42
:100E5000490AF0EE690A04F0E9FCB0EE408AF0EECF
:100E6000608A51EC180BFFF73DFBE06794ED200A18
:100E700010EE101A0846FFF7F2FA41EC1B0BB0EE29
:100E80004B0AF0EE6B0A04F0D1FCB0EE40AAF0EE93
:100E900060AA51EC1A0B81F0004141EC180B94ED63
:100EA0001F0A10EE101A0846FFF7D9FA41EC190B89
:100EB00053EC182BFFF7E6FA1BD294ED200A10EE44
:100EC000101A0846FFF7CBFA41EC1A0BB0EE4A0AAB
:100ED000F0EE6A0A04F0AAFCB0EE409AF0EE609AD6
:100EE00051EC190B81F0004141EC180BFFF7FAFAB5
:100EF000E067BDEC088B10BD10B5044604F120027C
:100F0000111F081FD4F890309847207D032800DA7D
:100F100010BDD4F88C008047072853D2DFE800F0DA
:100F20005204111E2B38450094ED070ADFED270A05
:100F300030EEC00AD4ED080A30EE600A84ED060AED
:100F400041E094ED060ADFED210A30EEC00AD4ED4F
:100F5000080A30EE600A84ED070A34E094ED060AD0
:100F6000DFED1A0A30EEC00AD4ED080A30EE600A4E
:100F700084ED070A27E094ED060ADFED140A30EE4F
:100F8000C00AD4ED070A30EE600A84ED080A1AE0C0
:100F900094ED060ADFED0D0A30EEC00AD4ED070A23
:100FA00030EE600A84ED080A0DE094ED070ADFEDEB
:100FB000070A30EEC00AD4ED080A30EE600A84ED6C
:100FC000060A00E000BF00BF00BFA1E7000000006C
:100FD00010B5FFF7EBFC03F02DFB024800F004FF17
:100FE00010BD0000D40200200146087810381823F4
:100FF000B0FBF3F20848805CC865032A05D908688D
:101000006FF30900001D886503E008686FF30900AD
:101010008865886D70470000406100080146002027
:101020008A6A8B69CBB932B1012A0DD0022A03D06A
:10103000032A10D10EE000BFCB6A03F08073B3F136
:10104000807F00D1012007E0CB6AB3F1C07F00D1DF
:10105000012001E000E000BF34E08B69B3F5005FE0
:101060001AD132B1012A07D0022A03D0032A11D1A2
:101070000AE000BF01200EE0CB6A03F08073B3F1F9
:10108000807F00D1012006E0CB6AB3F1C07F00D1A0
:10109000012000E000BF15E032B1012A05D0022A8C
:1010A00004D0032A0CD103E000BF00BF012008E0F8
:1010B000CB6A03F08073B3F1807F00D1012000E0A0
:1010C00000BF00BF704730B50468246824F4802452
:1010D00005682C60046863608468402C04D104684F
:1010E000A2600468E16003E00468A1600468E26053
:1010F00030BD704710B54FF4005001F07FF810BDBF
:1011000072B600BFFEE7000010B503F057FADFED3E
:101110000B1A9FED0B1ADFED0B0A9FED0A0A0A4826
:1011200003F01FFD0121084803F03EFDDFED040A36
:101130009FED030A03F096FE10BD00006991DD40AB
:101140000000000017B7513A1C01002010B50446FA
:10115000204600F051F82046FFF7CEFE2046FFF76C
:101160005BFD204603F0B7FA2046FFF76BFD2046F3
:10117000FFF715FE204603F07BFA94ED0E1AF0EE11
:10118000410A94ED0D1AB0EE410AD4F8940080475C
:1011900010BD7047704700000020024908600871C8
:1011A00070470000980000200146104A52F82120A4
:1011B00000EE102AB8EEC00ADFED0D0A20EE200A7C
:1011C0000A4A0C3252F8212000EE902AF8EEE00A8A
:1011D0009FED081A01EE200ABDEEC00A10EE100ABB
:1011E000024A0C3242F82100704700000C0900202E
:1011F000CDCC4C3FCCCC4C3E10B50446D4F8880046
:101200008047607800EE900AF8EE600A20EE200A2F
:1012100084ED030A94ED030ADFED030A20EE200AB1
:1012200084ED040A10BD00004DF38E3C10B54FF460
:101230000071044801F0F2F8012800D110BD00202F
:10124000FCE700000008024010B500F0BFF8DFED39
:10125000020A30EE600A10BD000034432DE9F0416F
:101260002DED048B04460D4616460020FFF79CFF2B
:10127000404200EE100AB8EEC00ADFED2B0A20EE65
:10128000200A10EE107A3846FFF7E9F841EC190B06
:101290009FED260B53EC102BFFF76FF841EC180B6A
:1012A000FFF720F920600120FFF77EFF404200EEAB
:1012B000100AB8EEC00ADFED1C0A20EE200A10EE7C
:1012C000107A3846FFF7CBF841EC190B9FED170B5E
:1012D00053EC102BFFF751F841EC180BFFF702F914
:1012E00028600220FFF760FF404200EE100AB8EECF
:1012F000C00ADFED0D0A20EE200A10EE107A384603
:10130000FFF7ADF841EC190B9FED080B53EC102BD8
:10131000FFF733F841EC180BFFF7E4F83060BDEC51
:10132000048BBDE8F08100001EF9833C0000000042
:101330000000F83F10B52DED028B00F047F818487B
:1013400080ED000A90ED000A1648D0ED000A30EE5C
:10135000600AB0EE408A9FED140AB4EEC08AF1EE46
:1013600010FA05D29FED110A38EE000AB0EE408A5D
:101370009FED0F0AB4EEC08AF1EE10FA05DD9FED85
:101380000B0A38EE400AB0EE408A054890ED000A9C
:10139000044880ED000AB0EE480ABDEC028B10BD97
:1013A000F0010020F4010020000034C30000B44329
:1013B0000000344310B5024800F004F810BD0000EE
:1013C000C4000020014691F84400704700B500F0C9
:1013D00029F800EE100AF8EEC00A9FED0F1A80EE11
:1013E000810ADFED0E0A20EE200A0D4880ED010A89
:1013F00090ED010AB5EEC00AF1EE10FA07D290EDB9
:10140000010ADFED060A30EE200A80ED010A0448E9
:1014100090ED010A00BD0000000000460000B4434A
:10142000900000201348016813480068406AA0F546
:101430001C50103808440F49086042F210700E49E1
:10144000096848620B480068002805DA0948006806
:1014500000F500500749086006490868C11700EB0D
:10146000D1414913A0EB4131024A11601046006896
:101470007047000090000020A804002090F844105D
:1014800007297CD2DFE801F07B04376A9FD2FD0098
:1014900090ED0D0ADFED9B0A20EE200AD0ED100A38
:1014A00080EE201A90ED030A21EE000A80ED090A71
:1014B00090ED0D0ADFED930A20EE200AD0ED100A20
:1014C00080EE201A90ED020A21EE000A80ED0B0A50
:1014D00090ED0D0AD0ED090A30EE600AD0ED0B0A4E
:1014E00030EE600AF0EE000A80EE201A80ED0C1A51
:1014F00080ED051A03E190ED0D0ADFED830A20EE81
:10150000200AD0ED100A80EE201A90ED030A21EE99
:10151000000A80ED070A90ED0D0ADFED7B0A20EE50
:10152000200AD0ED100A80EE201A90ED040A21EE78
:10153000000A80ED0B0A90ED0D0AD0ED070A30EE9F
:10154000600AD0ED0B0A30EE600AF0EE000A80EE81
:10155000201A80ED0C1A80ED051AD0E090ED0D0AEE
:10156000DFED680A60EE200A90ED101A80EE810A25
:10157000D0ED020A20EE200A80ED070A00E0BDE06F
:1015800090ED0D0ADFED5F0A20EE200AD0ED100A83
:1015900080EE201A90ED040A21EE000A80ED080A80
:1015A00090ED0D0AD0ED070A30EE600AD0ED080A82
:1015B00030EE600AF0EE000A80EE201A80ED0C1A80
:1015C00080ED051A9BE090ED0D0ADFED4F0A20EE4D
:1015D000200A90ED101AC0EE010A90ED020A20EEEA
:1015E000800A80ED060A90ED0D0ADFED470A20EE35
:1015F000200A90ED101AC0EE010A90ED030A20EEC9
:10160000800A80ED080A90ED0D0AD0ED060A30EE52
:10161000600AD0ED080A30EE600AF0EE000A80EEB3
:10162000201A80ED0C1A80ED051A68E090ED0D0A85
:10163000DFED340A60EE200A90ED101A80EE810A88
:10164000D0ED040A20EE200A80ED060A90ED0D0A86
:10165000DFED2C0A60EE200A90ED101A80EE810A70
:10166000D0ED030A20EE200A80ED0A0A90ED0D0A63
:10167000D0ED060A30EE600AD0ED0A0A30EE600ABC
:1016800000E008E0F0EE000A80EE201A80ED0C1A6F
:1016900080ED051A33E090ED0D0ADFED1B0A60EED8
:1016A000200A90ED101A80EE810AD0ED040A20EE97
:1016B000200A80ED090A90ED0D0ADFED130A20EEF5
:1016C000200AD0ED100A80EE201A90ED020A21EED9
:1016D000000A80ED0A0A90ED0D0AD0ED090A30EEFD
:1016E000600AD0ED0A0A30EE600AF0EE000A80EEE1
:1016F000201A80ED0C1A80ED051A00E000BF00BF33
:10170000704700002DB2DD3F2DB2DDBF38B5024677
:101710000020009000BF92F83C00012801D1022077
:1017200038BD012082F83C0000BF0868092816D99E
:101730001068C0680C780A3C04EB44050724AC40F0
:10174000A0431468E0600C780A3C04EB4404886809
:10175000A0401468E46820431468E06013E0106857
:1017600000690C7804EB44050724AC40A0431468DE
:1017700020610C7804EB44048868A0401468246954
:101780002043146820614868072817D21068406B0E
:101790000C79641E04EB84051F24AC40A04314683C
:1017A0006063088880B20C79641E04EB8404A04056
:1017B0001468646B20431468606331E048680D2846
:1017C00017D21068006B0C79E41F04EB84051F240A
:1017D000AC40A04314682063088880B20C79E41FF1
:1017E00004EB8404A0401468246B20431468206335
:1017F00016E01068C06A0C790D3C04EB84051F24C8
:10180000AC40A0431468E062088880B20C790D3CBB
:1018100004EB8404A0401468E46A20431468E06286
:10182000194B1A4C1068A04206D10868122803D13F
:10183000586840F480005860144C1068A0421CD1D5
:101840000868102802D00868112816D1586840F49A
:1018500000005860086810280FD10D4800680D4C32
:10186000B0FBF4F000EB80004000009002E0009834
:10187000401E009000980028F9D100BF002082F897
:101880003C0000BF00BF4BE70023014000200140A7
:101890000C00002040420F00704770477047000066
:1018A00070B5044600250CB9012070BD1549A06A29
:1018B000884200D000BF206C30B9204600F024F8E8
:1018C0000020606484F83C00206C00F0100088B9AF
:1018D000206C20F4885040F0020020642046FFF77E
:1018E000D9F800206064206C20F0020040F0010074
:1018F000206400E0012500BF002084F83C0000BF08
:101900002846D2E70100000F10B586B00446142126
:1019100001A8FEF727FD4149206888424BD100BF4E
:10192000002000903E48006840F480703C49086008
:101930000846006800F48070009000BF00BF00BF40
:101940000020009036481438006840F00100344907
:10195000143908600846006800F00100009000BFDC
:1019600000BF70200190032002900020039001A985
:101970002C4800F051FC2C482C490860002048609D
:1019800000212A488160C1604FF4806101618900B3
:101990004161890081618911C161490201620021AF
:1019A000416200F041FB08B1FFF7AAFB00BF1F48EE
:1019B000A06384632FE01E49206888422BD100BFBA
:1019C000002000901648006840F400701449086038
:1019D0000846006800F40070009000BF00BF00BF20
:1019E000002000900E481438006840F004000C49B4
:1019F000143908600846006800F00400009000BF39
:101A000000BF30200190032002900020039001A924
:101A1000084800F001FC06B010BD000000200140A5
:101A2000443802400000024010640240D40200200A
:101A30000021014000080240F8B504460D46164654
:101A40000020009000BF94F83C00012801D1022042
:101A5000F8BD012084F83C0000BF2068806800F0D9
:101A60000100A0B92068806840F00100216888600A
:101A7000554800685549B0FBF1F000EB400000907C
:101A800002E00098401E009000980028F9D12068DC
:101A9000806800F48070B0F5807F05D12068806890
:101AA00020F48070216888602068806800F0010060
:101AB00000287ED0206C40F20161884340F48070A1
:101AC00020642068406800F4806028B1206C20F415
:101AD000005040F480502064206C00F48050B0F539
:101AE000805F04D1606C20F00600606401E000209B
:101AF000606400BF002084F83C0000BF344F3548CC
:101B0000A16BC8633448A16B08643448A16BC864F6
:101B10006FF02200216808602068406840F0806013
:101B2000216848602068806840F48070216888607F
:101B3000226802F14C0133462A46A06B00F0EAFA13
:101B4000786800F01F0018BB25492068884213D030
:101B500024492068884204D1381D006800F01F0025
:101B600050B12149206888422BD11948001D0068D6
:101B700000F01F00102824D22068806800F0405038
:101B8000F8B92068806840F080402168886018E0DB
:101B900013492068884214D12068806800F04050C2
:101BA00078B92068806840F080402168886008E04B
:101BB000FFE7206C40F010002064606C40F00100F2
:101BC0006064002044E700000C00002040420F0049
:101BD00000230140ED090008850A00086B0A00088F
:101BE00000200140002101400022014070B5044660
:101BF0000CB9012070BD94F8200010B9204600F007
:101C0000AFF82068006820F002002168086000F04A
:101C100013FC05460DE000F00FFC401B0A2808D914
:101C2000606A40F400306062052084F820000120E2
:101C3000E0E72068406800F002000028EBD120684F
:101C4000006840F001002168086000F0F5FB0546DF
:101C50000DE000F0F1FB401B0A2808D9606A40F44F
:101C600000306062052084F820000120C2E720686F
:101C7000406800F001000028EBD0207E012806D14A
:101C80002068006840F080002168086005E0206856
:101C9000006820F0800021680860607E012806D17D
:101CA0002068006840F040002168086005E0206876
:101CB000006820F0400021680860A07E012806D15D
:101CC0002068006840F020002168086005E0206876
:101CD000006820F0200021680860E07E012806D11D
:101CE0002068006820F010002168086005E0206886
:101CF000006840F0100021680860207F012806D1AC
:101D00002068006840F008002168086005E020684D
:101D1000006820F0080021680860607F012806D173
:101D20002068006840F004002168086005E0206831
:101D3000006820F0040021680860D4E9020108432B
:101D400021690843616908436168491E08432168A5
:101D5000C86100206062012084F82000002049E76B
:101D600010B586B00446142101A8FEF7FBFA1B4902
:101D70002068884230D100BF0020009018480068D9
:101D800040F00070164908600846006800F00070D6
:101D9000009000BF00BF00BF002000901048103826
:101DA000006840F001000E491039086008460068DC
:101DB00000F00100009000BF00BF4FF4C050019040
:101DC0000220029000200390032004900920059037
:101DD00001A9044800F020FA06B010BD00640040DC
:101DE0004038024000000240F8B504460020009050
:101DF0008C4800684FF41651B0FBF1F7A56D2E68C2
:101E000094F85C1008208840304098B12068006841
:101E100000F0040070B12068006820F00400216820
:101E2000086094F85C1008208840A860606D40F05D
:101E30000100606594F85C1001208840304068B172
:101E40002068406900F0800040B194F85C100120E7
:101E50008840A860606D40F00200606594F85C10F6
:101E600004208840304068B12068006800F002001B
:101E700040B194F85C1004208840A860606D40F088
:101E80000400606594F85C1010208840304078B3FE
:101E90002068006800F0080050B394F85C1010202F
:101EA0008840A8602068006800F4802080B1206825
:101EB000006800F4002028B9206CC8B12046216CCD
:101EC000884715E0A06C98B12046A16C88470FE0C8
:101ED0002068006800F4807028B92068006820F04D
:101EE000080021680860206C10B12046216C8847EA
:101EF00094F85C10202088403040002865D020688D
:101F0000006800F0100000285FD094F85C102020DA
:101F10008840A86094F83500052828D1206800681A
:101F200020F01600216808602068406920F08000D9
:101F300021684861206C08B9A06C28B1206800684D
:101F400020F008002168086094F85C103F20884069
:101F5000A86000BF002084F8340000BF012084F88E
:101F60003500206D10B12046216D8847F8BD2068EE
:101F7000006800F4802080B12068006800F4002030
:101F800028B9606C10B12046616C88471DE0E06B99
:101F9000D8B12046E16B884717E02068006800F45C
:101FA000807068B92068006820F01000216808601F
:101FB00000BF002084F8340000BF012084F8350001
:101FC000E06B10B12046E16B8847606D38B3606DFF
:101FD00000F00100F0B1052084F8350020680068A9
:101FE00020F001002168086000BF0098401C0090AC
:101FF000B84200D905E02068006800F00100002820
:10200000F3D100BF00BF002084F8340000BF0120DE
:1020100084F83500E06C10B12046E16C884700BFC1
:10202000A4E700000C0000202DE9F0410446002543
:1020300000F002FA074614B90120BDE8F081606A99
:1020400000B100BF00BF002084F8340000BF0220B0
:1020500084F835002068006820F0010021680860DD
:102060000AE000F0E9F9C01B052805D920206065C9
:10207000032084F83500E0E72068006800F00100E4
:102080000028EED12068056821480540D4E9010107
:102090000843E16808432169084361690843A1696D
:1020A0000843E1690843216A08430543606A04283C
:1020B00003D1D4E90B01084305432068056020687B
:1020C000456925F00705606A0543606A04280DD15B
:1020D000A06A0543E06A48B12046FEF79FFF28B199
:1020E00040206065012084F83500A6E7206845613E
:1020F0002046FEF779FF064694F85C103F208840A2
:10210000B06000206065012084F83500002094E76D
:102110003F8010F02DE9F04704460D4616461F4655
:102120004FF00008D4F8589000BF94F8340001280C
:1021300002D10220BDE8F087012084F8340000BFFE
:1021400094F83500012825D1022084F835000020BC
:1021500060653B46324629462046FEF7B4FF94F8B8
:102160005C103F208840C9F808002068006840F0F3
:10217000160021680860206C28B12068006840F0D3
:102180000800216808602068006840F001002168AC
:10219000086006E000BF002084F8340000BF4FF064
:1021A00002084046C6E7000070B5044600F044F956
:1021B00006462546681C10B104480078054400BF57
:1021C00000F03AF9801BA842FAD370BD0800002045
:1021D00010B50446B4F5005F0DD10748007930B959
:1021E000FFF720F9044908600120087103E0024963
:1021F000086802F04BFE10BD9800002010B50446A0
:1022000004480068204020B1024804602046FFF7DF
:10221000DFFF10BD143C0140F8B502460B46002517
:10222000002400200021DEE0012606FA01F51E68E8
:1022300006EA0504AC4275D11E7906F00306012EAC
:1022400004D01E7906F00306022E13D190684F00C9
:102250000326BE40B0434F00DE68BE40304390606E
:10226000506801268E40B0431E79C6F300168E409A
:10227000304350601E7906F00306032E09D0D06863
:102280004F000326BE40B0434F009E68BE4030431F
:10229000D0601E7906F00306022E13D1CF0802F19A
:1022A000200656F827004E07F70E0F26BE40B04313
:1022B0004F07FF0E1E69BE403043CF0802F12006D3
:1022C00046F8270010684F000326BE40B0431E7931
:1022D00006F003064F00BE40304310605E6806F013
:1022E0008056B6F1805F7DD100BF00260096404E3B
:1022F000366846F480463E4F3E603E46366806F4F9
:102300008046009600BF00BF3A4E8F0856F827005F
:102310008E07370F0F26BE40B043374EB24202D170
:10232000002624E05EE0354EB24201D101261EE0D7
:10233000334EB24201D1022619E0324EB24201D1EF
:10234000032614E0304EB24201D104260FE02F4E96
:10235000B24201D105260AE02D4EB24201D1062635
:1023600005E02C4EB24201D1072600E008268F0777
:102370003F0FBE4030431F4E8F0846F82700264EC1
:102380003068A0435E6806F48036B6F5803F00D121
:102390002043214E3060361D3068A0435E6806F44D
:1023A0000036B6F5003F00D120431B4E361D30608D
:1023B000361D3068A0435E6806F48016B6F5801FAF
:1023C00000D12043144E08363060361D3068A043DB
:1023D0005E6806F40016B6F5001F00D120430E4ECD
:1023E0000C363060491C1029FFF41EAFF8BD000008
:1023F0004438024008380140000002400004024016
:1024000000080240000C024000100240001402408C
:1024100000180240001C0240003C014002461369C3
:102420000B400BB1012000E0002070470AB1816130
:1024300001E00B04836170470148006870470000A9
:102440000000002070B504460CB9012070BD94F85E
:102450003D0028B9002084F83C00204600F0DAF85E
:10246000242084F83D002068006820F001002168E5
:1024700008602068006840F4004021680860206817
:10248000006820F400402168086000F0A5FA0546C5
:102490005C496068884206D85B48854201D20120C9
:1024A00007E0002005E05948854201D2012000E004
:1024B0000020012800D1C9E75548B5FBF0F6206897
:1024C000406820F03F003043216848604D49606813
:1024D000884201D8701C07E04FF4967070434FF4A7
:1024E0007A71B0FBF1F0401C2168096A21F03F01CC
:1024F00008432168086243496068884214D8681E0E
:1025000061684900B0FBF1F0401CC0F30B000428E7
:1025100001D204203DE0681E61684900B0FBF1F083
:10252000401CC0F30B0034E0A06838B9681E616835
:1025300001EB4101B0FBF1F0401C0AE0681E61684C
:1025400001EBC10202EB0111B0FBF1F0401C40F4C1
:102550008040C0F30B0008B901201AE0A06848B918
:10256000681E616801EB4101B0FBF1F0401CC0F353
:102570000B000CE0681E616801EBC10202EB011167
:10258000B0FBF1F0401CC0F30B0040F4804040F47D
:1025900000402168C9694CF6FF72914308432168E5
:1025A000C861D4E9070108432168096821F0C00126
:1025B000084321680860D4E903100843216889684A
:1025C00048F2FF329143084321688860D4E905014D
:1025D00008432168C96821F0FF0108432168C860E9
:1025E0002068006840F00100216808600020206435
:1025F000202084F83D000020206384F83E0000BFC6
:1026000024E70000A086010080841E0000093D0030
:1026100040420F0010B586B00446142101A8FDF712
:10262000A1FE1B492068884230D100BF00200090E5
:102630001848006840F00200164908600846006823
:1026400000F00200009000BF00BF4FF44070019006
:102650001220029001200390032004900420059092
:1026600001A90D48FFF7D8FD00BF002000900948E0
:102670001030006840F40010064910310860084628
:10268000006800F40010009000BF00BF06B010BD4D
:102690000054004030380240000402400348006803
:1026A0000349097808440149086070470000002088
:1026B0000800002010B50D48006840F400700B4978
:1026C00008600846006840F48060086008460068BA
:1026D00040F480700860032000F0A2F8002000F0B1
:1026E00007F800F02BF8002010BD0000003C02406D
:1026F00070B504460E4800784FF47A71B1FBF0F0E3
:102700000C490968B1FBF0F5284600F0FFFC08B160
:10271000012070BD102C07D200222146501E00F06F
:1027200041F80548046001E00120F2E70020F0E7ED
:10273000080000200C0000200400002008B500BFA5
:10274000002000900E48006840F480400C4908606A
:102750000846006800F48040009000BF00BF00BF42
:1027600000200090081F006840F08050091F08609A
:102770000846006800F08050009000BF00BF08BD10
:102780004438024001460846002809DB00F01F03D8
:1027900001229A4043099B0003F1E023C3F8002182
:1027A00000BF70472DE9F05F80460D4616460027B2
:1027B00003F020F8074639462A46334601F0070061
:1027C000C0F1070ABAF1040F02D94FF0040A01E080
:1027D000C0F1070AD14600F1040ABAF1070F02D28C
:1027E0004FF0000A01E0A0F1030AD4464FF0010ABD
:1027F0000AFA09FAAAF1010A0AEA020A0AFA0CFA22
:102800004FF0010B0BFA0CFBABF1010B0BEA030BC6
:102810004AEA0B042146404602F0F4FFBDE8F09F6F
:1028200000BF00F00702064B19684FF6FF0319407E
:10283000044B0B4343EA0221014B196000BF704770
:102840000CED00E00000FA0570B504460D460CB929
:10285000012070BD5848006800F00700A84209D266
:1028600055490D700846006800F00700A84201D0E5
:102870000120EEE7207800F0020002281DD1207828
:1028800000F00400042805D14C48006840F4E050F2
:102890004A490860207800F00800082805D1474818
:1028A000006840F46040454908604448006820F0F2
:1028B000F000A168084341490860207800F0010059
:1028C000A8B36068012807D13C4808380068C0F305
:1028D0004040B8B90120BCE76068022802D06068B7
:1028E000032807D1354808380068C0F3406048B96C
:1028F0000120AEE7314808380068C0F3400008B94D
:102900000120A6E72D48006820F003006168084315
:102910002A490860FFF790FD064609E0FFF78CFDA5
:10292000801B41F28831884202D9032091E707E0F9
:102930002248006800F00C006168B0EB810FEDD117
:102940001D48006800F00700A84209D91A490D7017
:102950000846006800F00700A84201D0012078E78F
:10296000207800F00400042807D11448006820F4FF
:10297000E050E168084311490860207800F0080041
:10298000082808D10D48006820F46040216940EA19
:10299000C1000A49086000F02FF808490968C1F32E
:1029A0000311074A515CC8400649086006480068A0
:1029B000FFF79EFE00204CE7003C02400838024032
:1029C000486100080C000020040000200148006855
:1029D000704700000C00002000B5FFF7F7FF044926
:1029E0000968C1F38221034A515CC84000BD000060
:1029F00008380240586100082DE9F04700240025FE
:102A00000026A1462548006800F00C0020B10428EB
:102A100005D008283AD105E0DFF8849039E0DFF8E6
:102A2000849036E01D48001F006800F03F041B48FA
:102A3000001F006800F4800078B11A481749091F88
:102A40000968C1F38811A0FB0170014622460023EA
:102A50003846FDF73DFC05460EE011480F49091FB9
:102A60000968C1F38811A0FB0170014622460023CA
:102A70003846FDF72DFC05460848001F0068C0F3E6
:102A80000140401C4600B5FBF6F902E0DFF810906B
:102A900000BF00BF4846BDE8F0870000083802408C
:102AA0000024F40000127A00F8B504460CB90120A5
:102AB000F8BD207800F00100002874D0F9480068C3
:102AC00000F00C0004280DD0F648006800F00C005F
:102AD000082813D1F348001F006800F48000B0F507
:102AE000800F0BD1EF4808380068C0F34040002841
:102AF00059D06068002856D10120D9E700BF60682E
:102B0000B0F5803F08D1E7480838006840F48030CD
:102B1000E449083908601EE06068B0F5A02F0DD1C7
:102B2000E0480838006840F48020DE490839086031
:102B30000846006840F4803008600CE0D948083846
:102B4000006820F48030D7490839086008460068DA
:102B500020F48020086000BF606890B1FFF76CFC33
:102B6000054606E0FFF768FC401B642801D90320F6
:102B70009EE7CC4808380068C0F340400028F1D0F8
:102B800011E0FFF759FC054606E0FFF755FC401B36
:102B9000642801D903208BE7C24808380068C0F3D5
:102BA00040400028F1D1207800F0020002285FD1D7
:102BB000BC48006800F00C0058B1BA48006800F04A
:102BC0000C0008281CD1B748001F006800F48000E2
:102BD000B0B9B44808380068C0F3400020B1E068DC
:102BE000012801D0012063E7AE480838006820F0D2
:102BF000F800216940EAC100AA490839086037E0B5
:102C0000E06800B30120A8490860FFF715FC0546FD
:102C100006E0FFF711FC401B022801D9032047E71B
:102C2000A04808380068C0F340000028F1D09D4853
:102C30000838006820F0F800216940EAC10099498D
:102C40000839086014E0002097490860FFF7F4FB9A
:102C5000054606E0FFF7F0FB401B022801D90320E0
:102C600026E7904808380068C0F340000028F1D1FA
:102C7000207800F0080008282CD16069A8B1012054
:102C80008A490860FFF7D8FB054606E0FFF7D4FB4A
:102C9000401B022801D903200AE782486C300068F3
:102CA000C0F340000028F1D014E000207F49086004
:102CB000FFF7C2FB054606E0FFF7BEFB401B0228FC
:102CC00001D90320F4E677486C300068C0F3400077
:102CD0000028F1D1207800F00400042870D10027EA
:102CE00070483830006800F0805090B900BF002074
:102CF00000906C483830006840F0805069493831A5
:102D000008600846006800F08050009000BF00BFD7
:102D100001276748006800F48070B0B96448006813
:102D200040F4807062490860FFF786FB054606E0C4
:102D3000FFF782FB401B022801D90320B8E65C485C
:102D4000006800F480700028F2D000BFA06801285D
:102D500008D154486830006840F00100514968319A
:102D600008601DE0A06805280DD14E486830006855
:102D700040F004004B49683108600846006840F0A4
:102D8000010008600CE047486830006820F001004E
:102D90004449683108600846006820F00400086073
:102DA00000BFA068A8B1FFF747FB054609E0FFF7A1
:102DB00043FB401B41F28831884202D9032077E669
:102DC00026E0384868300068C0F340000028EED0A4
:102DD00013E0FFF731FB054608E0FFF72DFB401B32
:102DE00041F28831884201D9032061E62D486830DC
:102DF0000068C0F340000028EFD1012F07D1294817
:102E00003830006820F0805026493831086000BF13
:102E1000A069002845D02348006800F00C0008286D
:102E20005DD0A069022845D100201F490866FFF740
:102E300003FB054606E0FFF7FFFA401B022801D915
:102E4000032035E6174808380068C0F340600028C2
:102E5000F1D1D4E907010843616A40EA81110122F6
:102E6000A06AC2EB500041EA00412C20005D41EA1B
:102E700000600C49091F086001200B490866FFF734
:102E8000DBFA054606E0FFF7D7FA401B022801D916
:102E900003200DE6034808380068C0F340600028AE
:102EA000F1D049E00838024000004742800E474216
:102EB00000700040002021490866FFF7BDFA054672
:102EC00006E0FFF7B9FA401B022801D90320EFE51D
:102ED0001B480068C0F340600028F2D12CE0A069D4
:102EE000012800D1E4E51648001D0668A069012804
:102EF00020D006F48001E06981421BD106F03F0139
:102F0000206A814216D147F6C0703040616AB0EB4A
:102F1000811F0FD106F440310122A06AC2EB50009C
:102F2000B1EB004F06D106F070612C20005DB1EBD3
:102F3000006F01D00120BBE50020B9E50000474249
:102F40000038024010B504460CB9012010BD606A7B
:102F500038B96068B0F5827F00D105E00021E161F9
:102F600002E00021216161610021A16294F8510019
:102F700028B9002084F85000204600F047F80220CD
:102F800084F851002068006820F040002168086043
:102F9000A08800F48270218901F404410843A189CA
:102FA00001F400610843217C01F002010843217D06
:102FB00001F001010843218B01F400710843217FD6
:102FC00001F0380108432021095D01F08001084328
:102FD000218D01F400510843216808600421A06993
:102FE00001EA104094F8241001F010010843216810
:102FF00048602068C06920F400602168C861002032
:103000006065012084F8510000209FE710B586B06C
:103010000446142101A8FDF7A5F937492068884224
:1030200030D100BF002000903448006840F4805048
:10303000324908600846006800F48050009000BFE4
:1030400000BF00BF002000902C481438006840F0FA
:1030500002002A49143908600846006800F002009E
:10306000009000BF00BF3820019002200290002095
:103070000390032004900520059001A92048FFF744
:10308000CBF836E01F492068884232D100BF0020CB
:1030900000901A48001F006840F400401749091FBB
:1030A00008600846006800F40040009000BF00BFC0
:1030B00000BF0020009011481438006840F0040060
:1030C0000E49143908600846006800F004000090BA
:1030D00000BF00BF4FF4E05001900220029000209A
:1030E0000390032004900620059001A90648FFF7ED
:1030F00093F806B010BD0000003001404438024093
:1031000000040240003C00400008024070B5044644
:103110002546681EB0F1807F01D301200FE0681EB4
:103120004FF0E02148610F214FF0FF3002F06AFBC1
:1031300000204FF0E021886107200861002070BD69
:103140007047704710B50346002200BF93F83C005B
:10315000012801D1022010BD012083F83C0000BFEE
:1031600022F0FF00CC6840EA040222F440708C6830
:1031700040EA040222F480604C6840EA040222F42F
:1031800000600C6840EA040222F480500C6940EAB6
:10319000040222F400504C6940EA040222F4804008
:1031A000CC6940EA04021868426400BF002083F83A
:1031B0003C0000BF00BFCEE730B502460B4600BF63
:1031C00092F83C00012801D1022030BD012082F894
:1031D0003C0000BF022082F83D001068446810687F
:1031E000816824F070041868044310684460184D26
:1031F0001068A8421BD01068B0F1804F17D0154D51
:103200001068A84213D0144D1068A8420FD0134D77
:103210001068A8420BD0124D1068A84207D0114D7B
:103220001068A84203D0104D1068A84205D121F0C3
:1032300080015868014310688160012082F83D00D8
:1032400000BF002082F83C0000BF00BFBDE70000C7
:10325000000001400004004000080040000C004055
:1032600000040140004001400018004070B50446D1
:103270000D4615B994F842000BE0042D02D143200D
:10328000005D06E0082D02D14420005D01E04520EC
:10329000005D012801D0012070BD1DB9022084F815
:1032A00042000EE0042D03D102214320015508E025
:1032B000082D03D102214420015502E002214520BE
:1032C000015504222946206802F013F92068406C59
:1032D00040F40040216848641A49206888421BD0A5
:1032E0002068B0F1804F17D017492068884213D06A
:1032F0001649206888420FD01549206888420BD0B3
:1033000014492068884207D013492068884203D0B6
:103310001249206888420CD12068806800F00706B6
:10332000062E0CD02068006840F00100216808607B
:1033300005E02068006840F0010021680860002076
:10334000AAE700000000014000040040000800401F
:10335000000C004000040140004001400018004003
:1033600010B504460CB9012010BD94F83D0028B9F1
:10337000002084F83C00204600F026F8022084F863
:103380003D00211D206802F037F8012084F8460036
:1033900000BF84F83E0001213F2001554020015527
:1033A0004120015500BF00BF012084F842004320A6
:1033B0000155442001554520015500BF012084F8E6
:1033C0003D000020D0E7000038B504460E492068D3
:1033D000884217D100BF002000900C48006840F0E0
:1033E00001000A4908600846006800F001000090EA
:1033F00000BF00BF002203211B20FFF7D3F91B20D1
:10340000FFF7C0F938BD0000000001404438024019
:10341000014691F83D00012801D0012070470220AB
:1034200081F83D000868C06840F001000B68D86072
:103430001A4B086898421BD00868B0F1804F17D02B
:10344000174B0868984213D0164B086898420FD063
:10345000154B086898420BD0144B0868984207D067
:10346000134B0868984203D0124B086898420CD15D
:103470000868806800F00702062A0CD00868006817
:1034800040F001000B68186005E00868006840F033
:1034900001000B6818600020C0E700000000014038
:1034A0000004004000080040000C004000040140FF
:1034B000004001400018004001460868C06820F044
:1034C00001000A68D06000BF0868006A41F211126A
:1034D000104050B90868006A9210104028B9086876
:1034E000006820F001000A68106000BF012081F828
:1034F0003D00002070472DE9F04104460D4600BF15
:1035000094F83C00012802D10220BDE8F08101209E
:1035100084F83C0000BF022084F83D0020688668E3
:1035200026F0770626F47F462068866028685028B3
:1035300033D00CDC202850D004DC00284BD01028DD
:1035400051D149E0302849D040284CD139E0602899
:103550002DD0702807D0B0F5805F03D0B0F5005FA4
:1035600041D10DE040E0D5E902136A68206801F01E
:10357000D1FF2068866846F077062068866033E0D1
:10358000D5E902136A68206801F0C4FF20688068EA
:1035900040F480402168886026E0EA686968206815
:1035A00002F0A8F85021206801F0BFFF1CE0EA6893
:1035B0006968206802F0B1F86021206801F0B5FF69
:1035C00012E0EA686968206802F094F840212068F7
:1035D00001F0ABFF08E000BF00BF00BF2968206812
:1035E00001F0A3FF00E000BF00BF012084F83D0010
:1035F00000BF002084F83C0000BF00BF85E72DE934
:10360000F04104460D4614B90120BDE8F08194F85C
:103610003D0028B9002084F83C00204600F054F812
:10362000022084F83D002068806844F20701884346
:1036300021688860211D206801F0DEFE2068D0F836
:103640000880206886692068076A286840EA0808B8
:1036500040F203308643A969A86840EA0120064386
:1036600040F60C4086434FF2F0008643E969E86873
:1036700040EA0120064328690001296A40EA013036
:10368000064327F0220727F088076969686840EA3F
:10369000011007432068C0F8088020688661206810
:1036A0000762012084F8460084F83E0001213F2093
:1036B0000155012084F8420043200155012084F87F
:1036C0003D000020A1E7000010B586B0044614219B
:1036D00001A8FCF747FE1A49206888422ED100BF96
:1036E000002000901748006840F004001549086069
:1036F0000846006800F00400009000BF00BF00BF53
:10370000002000900F481038006840F002000D497A
:10371000103908600846006800F00200009000BF01
:1037200000BFC0200190022002900020039004906E
:103730000220059001A90448FEF76EFD06B010BDF9
:103740000008004040380240000402402DE9F043E8
:1037500004460D4694F83E603F20075D94F8428091
:10376000432010F804906DB9012E02D1B8F1010F79
:1037700002D00120BDE8F083022084F83E0084F8E6
:10378000420025E0042D0CD1012F02D1B9F1010F27
:1037900001D00120EEE702213F20015543200155D1
:1037A00016E0012E07D1012F05D1B8F1010F02D18A
:1037B000B9F1010F01D00120DCE7022084F83E00BE
:1037C00002213F200155022084F842004320015588
:1037D00015B1042D0CD105E001220021206801F073
:1037E00077FE10E001220421206801F071FE0AE05A
:1037F00001220021206801F06BFE012204212068D3
:1038000001F066FE00BF00BF2068006840F00100C4
:10381000216808600020ADE7704710B504462068B5
:103820000069C0F34000D8B12068C068C0F3400010
:10383000B0B16FF002002168086101202077206894
:10384000806900F0030018B12046FFF7E5FF05E0AE
:10385000204600F0FDF8204600F0ADF9002020776A
:1038600020680069C0F38000D8B12068C068C0F348
:103870008000B0B16FF00400216808610220207759
:103880002068806900F4407018B12046FFF7C4FF3B
:1038900005E0204600F0DCF8204600F08CF900201E
:1038A000207720680069C0F3C000D8B12068C068E4
:1038B000C0F3C000B0B16FF00800216808610420B7
:1038C00020772068C06900F0030018B12046FFF798
:1038D000A3FF05E0204600F0BBF8204600F06BF99E
:1038E0000020207720680069C0F30010D8B120685C
:1038F000C068C0F30010B0B16FF01000216808611B
:10390000082020772068C06900F4407018B1204674
:10391000FFF782FF05E0204600F09AF8204600F00D
:103920004AF9002020772068006900F0010058B1B2
:103930002068C06800F0010030B16FF0010021681C
:103940000861204600F0E4FA20680069C0F3C01066
:1039500058B12068C068C0F3C01030B16FF080006B
:10396000216808612046FFF7EBFB20680069C0F37F
:10397000801058B12068C068C0F3801030B16FF07B
:10398000400021680861204600F0C3FA2068006901
:10399000C0F3401058B12068C068C0F3401030B187
:1039A0006FF02000216808612046FFF7CAFB10BDB8
:1039B00010B586B00446142101A8FCF7D3FC2049B9
:1039C0002068884239D100BF002000901D4800685F
:1039D00040F001001B4908600846006800F0010043
:1039E000009000BF00BF00BF0020009008460068A4
:1039F00040F0020008600846006800F002000090F5
:103A000000BF00BF4FF4F060019002200290002040
:103A1000039004900120059001A90B48FEF7FCFBE0
:103A200003200190022002900020039004900120C6
:103A3000059001A90548FEF7EFFB06B010BD000098
:103A40000000014030380240000002400004024003
:103A5000704770B504460D46164600BF94F83C000A
:103A6000012801D1022070BD012084F83C0000BF74
:103A700036B1042E1BD0082E31D00C2E5ED145E07D
:103A80002946206801F05AFD2068806940F008004E
:103A9000216888612068806920F0040021688861BD
:103AA00020688069296908432168886147E02946C0
:103AB000206801F07BFD2068806940F40060216887
:103AC00088612068806920F48060216888612068AE
:103AD0008069296940EA0120216888612FE0294630
:103AE000206801F0A1FD2068C06940F0080021684D
:103AF000C8612068C06920F004002168C86120689E
:103B0000C069296908432168C86118E0294620680E
:103B100001F0C6FD2068C06940F400602168C861FA
:103B20002068C06920F480602168C8612068C0698D
:103B3000296940EA01202168C86100E000BF00BF98
:103B400000BF002084F83C0000BF00BF8BE710B529
:103B500004460CB9012010BD94F83D0028B900209E
:103B600084F83C00204600F025F8022084F83D004F
:103B7000211D206801F040FC012084F8460000BFB0
:103B800084F83E0001213F2001554020015541208D
:103B9000015500BF00BF012084F8420043200155B9
:103BA000442001554520015500BF012084F83D0007
:103BB0000020D0E77047704770B504460D4615B930
:103BC00094F83E000BE0042D02D13F20005D06E09A
:103BD000082D02D14020005D01E04120005D012858
:103BE00001D0012070BD1DB9022084F83E000EE016
:103BF000042D03D102213F20015508E0082D03D1F7
:103C000002214020015502E00221412001550122FC
:103C10002946206801F05CFC23492068884203D0D3
:103C200022492068884201D1012000E0002028B10B
:103C30002068406C40F40040216848641A492068BC
:103C400088421BD02068B0F1804F17D018492068F7
:103C5000884213D01749206888420FD0164920683F
:103C600088420BD011492068884207D01349206848
:103C7000884203D01249206888420CD120688068AD
:103C800000F00706062E0CD02068006840F0010006
:103C90002168086005E02068006840F001002168A4
:103CA000086000209EE70000000001400004014081
:103CB0000004004000080040000C004000400140AB
:103CC0000018004070B504460D4615B994F83E0042
:103CD0000BE0042D02D13F20005D06E0082D02D14B
:103CE0004020005D01E04120005D012801D001205D
:103CF00070BD1DB9022084F83E000EE0042D03D1F2
:103D000002213F20015508E0082D03D10221402067
:103D1000015502E002214120015535B1042D0BD09F
:103D2000082D10D00C2D1CD114E02068C06840F084
:103D300002002168C86015E02068C06840F00400F7
:103D40002168C8600EE02068C06840F00800216863
:103D5000C86007E02068C06840F010002168C860B3
:103D600000E000BF00BF01222946206801F0B0FB3F
:103D700023492068884203D022492068884201D123
:103D8000012000E0002028B12068406C40F4004091
:103D9000216848641A49206888421BD02068B0F125
:103DA000804F17D018492068884213D017492068DF
:103DB00088420FD01649206888420BD011492068EC
:103DC000884207D013492068884203D012492068EE
:103DD00088420CD12068806800F00706062E0CD0BF
:103DE0002068006840F001002168086005E0206854
:103DF000006840F0010021680860002078E70000BA
:103E000000000140000401400004004000080040A0
:103E1000000C0040004001400018004030B504464E
:103E20000D4635B1042D0BD0082D10D00C2D1CD112
:103E300014E02068C06820F002002168C86015E026
:103E40002068C06820F004002168C8600EE0206887
:103E5000C06820F008002168C86007E02068C068DA
:103E600020F010002168C86000E000BF00BF002201
:103E70002946206801F02CFB23492068884203D0A2
:103E800022492068884201D1012000E0002090B141
:103E900000BF2068006A41F21111084050B9206843
:103EA000006A8910084028B92068406C20F400405E
:103EB0002168486400BF00BF2068006A41F2111108
:103EC000084050B92068006A8910084028B9206865
:103ED000006820F001002168086000BF1DB90120C2
:103EE00084F83E000EE0042D03D101213F2001554E
:103EF00008E0082D03D101214020015502E00121F5
:103F000041200155002030BD000001400004014067
:103F10007047704700BFFEE710B52DED028B0446D9
:103F2000B0EE408AB0EE480A2146034800F05FFE3A
:103F3000BDEC028B10BD0000B000002010B5B7EE44
:103F4000000A0220FFF7E8FF10BD000010B502488C
:103F500000F004F810BD0000B000002010B50446C9
:103F60001049E0680968081A00EE100AB8EE400A25
:103F7000D4ED010A9FED0C1A60EE810AB4EEE00A5E
:103F8000F1EE10FA01DB012000E0002040B105480D
:103F90000068E0602078022802D1204600F006F890
:103FA00010BD00003402002000007A4410B5044621
:103FB000607808B9012000E0002060706078216915
:103FC000884710BD10B501F0E5F901F0D1FBFDF710
:103FD000E3F810BD70B5074804680748006814305E
:103FE000844206D3FDF722F9054600F0D1FD0248D0
:103FF000046070BD8C000020880000201FB50020E8
:1040000000900190029003902148224908604FF4EB
:104010008030486000211F4881600121016100213A
:10402000017680F82010C1621B4981620021C160C5
:104030000321C161012180F8301000214161FDF7A9
:104040002FFC08B1FDF75CF80420009001200190DE
:104050000020029069460F48FDF758FB08B1FDF7B4
:104060004FF8052000900220019069460948FDF7AD
:104070004DFB08B1FDF744F80620009003200190A5
:1040800069460448FDF742FB08B1FDF739F81FBD4A
:1040900000200140440200200100000F1FB5002055
:1040A00000900190029003901548164908604FF463
:1040B000803048600021134881600161017680F8FA
:1040C0002010C162104981620021C1600121C161DB
:1040D000002180F8301001214161FDF7E1FB08B1BA
:1040E000FDF70EF80E2000900120019000200290B4
:1040F00069460448FDF70AFB08B1FDF701F81FBD4A
:10410000002101408C0200200100000F10B50B4877
:104110000B49086010204860002109488160C16097
:1041200001614161017641768176C17601774177FF
:10413000FDF75CFD08B1FCF7E3FF10BD0064004033
:104140003403002008B500BF002000900A48006832
:1041500040F48000084908600846006800F48000C8
:10416000009000BF00BF002202213820FEF71AFB9A
:104170003820FEF707FB08BD3038024000B587B095
:10418000142102A8FCF7EEF800BF002001906F4850
:10419000006840F004006D4908600846006800F0BF
:1041A0000400019000BF00BF00BF0020019008463E
:1041B000006840F0800008600846006800F0800059
:1041C000019000BF00BF00BF0020019008460068BA
:1041D00040F0010008600846006800F0010001900E
:1041E00000BF00BF00BF002001900846006840F0FB
:1041F000020008600846006800F00200019000BF5D
:1042000000BF00BF002001900846006840F0080091
:1042100008600846006800F00800019000BF00BF79
:10422000002248F208014A48FEF700F900224FF444
:1042300070414848FEF7FAF800224FF450714648A2
:10424000FEF7F4F8002204214448FEF7EFF84FF49B
:1042500000500290424803900020049002A93E487A
:10426000FDF7DAFF8320029000200390049002A95A
:104270003948FDF7D1FF032002900220039000206F
:10428000049005900120069002A93148FDF7C4FF73
:10429000082002900120039004900020059002A9BC
:1042A0002B48FDF7B9FF4FF44060029002200390C5
:1042B00000200490032005900720069002A92548BD
:1042C000FDF7AAFF4FF470400290012003900020F8
:1042D0000490059002A91F48FDF79EFF4020029020
:1042E000012003900490059002A91B48FDF794FF5C
:1042F0004FF440700290012003900490002005903C
:1043000002A91548FDF788FF4FF4004002900120F4
:10431000039000200490059002A90D48FDF77CFF52
:10432000042002900120039000200490059002A92F
:104330000A48FDF771FF002201212820FEF732FA1A
:104340002820FEF71FFA07B000BD000030380240F9
:10435000000002400004024000080240000C02403D
:104360000000111010B50B480B4908600B4848605D
:10437000002109488160C1604FF480410161002142
:1043800041618161C1610162FEF75CF808B1FCF72F
:10439000B7FE10BD005400405C030020A086010061
:1043A00010B50E480E4908604FF482704860002135
:1043B0000B488160C160016141614FF4007181610E
:1043C0000021C1610162416281620A21C162FEF77E
:1043D000B9FD08B1FCF794FE10BD000000300140AB
:1043E000B003002010B50E480E4908604FF48270EB
:1043F000486000210B488160C160016141614FF458
:10440000007181610021C1610162416281620A2102
:10441000C162FEF797FD08B1FCF772FE10BD000007
:10442000003C00400804002000B595B00020119029
:104430001290139014900F9010901C2108A8FBF775
:1044400091FF20216846FBF78DFF3A483A49086002
:104450000120486040213848816041F26701C16015
:1044600000210161416180218161FEF779FF08B17E
:10447000FCF746FE4FF48050119011A92E48FFF72B
:104480003AF808B1FCF73CFE2B48FFF760FB08B197
:10449000FCF736FE70200F90002010900FA92648E0
:1044A000FEF78AFE08B1FCF72BFE60200890002082
:1044B00009900A900B900C900D900E90002208A984
:1044C0001D48FFF7C6FA08B1FCF71AFE042208A936
:1044D0001948FFF7BEFA08B1FCF712FE082208A936
:1044E0001548FFF7B6FA08B1FCF70AFE0C2208A936
:1044F0001148FFF7AEFA08B1FCF702FE4FF4006076
:104500000090401001900020029064200390002051
:1045100004904FF40050059000200790694606482B
:10452000FEF710FE08B1FCF7EBFD0348FFF740FA79
:1045300015B000BD000001406004002000B58BB044
:10454000242102A8FBF70EFF0020009001901848DC
:10455000184908600020486000211648816044F630
:104560002061C1600021016181610320029000206F
:1045700003900120049000200590069007900120F0
:104580000890002009900A9002A90A48FFF737F81E
:1045900008B1FCF7B5FD0020009001906946054880
:1045A000FEF70AFE08B1FCF7ABFD0BB000BD000042
:1045B00000080040A804002000BFFEE710B501205D
:1045C00000F04EFB9FED180A00F0ACFB9FED160AC1
:1045D00000F0D0FB9FED150A00F0F4FB4FF4FA70E9
:1045E000FDF7E2FD002406E001F0DCF83220FDF7E3
:1045F000DBFD601CC4B20A2CF6DB9FED0D0A00F057
:1046000091FB9FED0B0A00F0B5FB9FED090A00F04E
:10461000D9FB002000F024FBFCF7BEFD4FF4FA604C
:10462000FDF7C2FD10BD00000000704200002042F6
:104630000000000010B50248FCF788FD10BD000026
:104640001C01002010B52DED028BB0EE408AF0EE7B
:10465000608AF0EE680AB0EE480A034800F0BCFC3D
:10466000BDEC028B10BD0000C400002000BFFEE7BF
:1046700010B52DED028B0446D4ED040AB0EE600AAD
:10468000FBF7A0FDD4ED160A20EE208AD4ED040A33
:10469000B0EE600AFBF7D2FDD4ED1F0A00EEC08A2F
:1046A00084ED0D8AD4ED040AB0EE600AFBF7C6FD76
:1046B000D4ED160A20EE208AD4ED040AB0EE600A8A
:1046C000FBF780FDD4ED1F0A00EE808A84ED0E8A90
:1046D000BDEC028B10BD10B52DED028B0446D4ED60
:1046E000040AB0EE600AFBF76DFDD4ED090A20EE76
:1046F000208AD4ED040AB0EE600AFBF79FFDD4EDEA
:104700000A0A00EE808A84ED0C8AD4ED040AB0EE29
:10471000600AFBF793FDD4ED090AF1EE600A20EE82
:10472000208AD4ED040AB0EE600AFBF74BFDD4ED0D
:104730000A0A00EE808A84ED0B8ABDEC028B10BD64
:10474000704710B54FF4FA60FDF72EFDFFF7F6FB4A
:10475000FCF7DAFC00F0A0FB00F042F810BD00000E
:1047600010B519480468194800680A30844203D318
:1047700000F05AF8154804601348046814480068AB
:1047800000F57A60844217D31248006838B90120D6
:10479000104908609FED100A00F078FA0AE00D4811
:1047A0000068012806D100200A4908609FED0B0A25
:1047B00000F06CFA0648046000F08CFB00F02CF866
:1047C000FFF7C4FB10BD00008C000020A8000020F3
:1047D000AC000020A00000200000B44200003442E1
:1047E00010B5B7EE000A094800F060FA9FED081A0C
:1047F000DFED080A9FED060A044800F05DFA9FED20
:10480000050A024800F05FFA10BD0000F801002020
:10481000295C0F3D0000000010B5024800F098F838
:1048200010BD0000F801002010B5024800F0B4F8F7
:1048300010BD0000F801002010B52DED028B0446DC
:10484000606B804784ED060A94ED060AD4ED050AF4
:1048500030EE600AB0EE408A9FED390AB4EEC08AAD
:10486000F1EE10FA06DD9FED370A38EE400AB0EEA1
:10487000408A0CE09FED340AB4EEC08AF1EE10FAE3
:1048800005D29FED300A38EE000AB0EE408A9FED67
:104890002F0A30EE480A84ED070A94ED020AD4ED9F
:1048A000070A20EE200AD4ED070A94ED081A70EEEC
:1048B000C10A94ED031A01EE200AD4ED040A94ED26
:1048C000091A00EE810A84ED0A0A94ED070A84EDC4
:1048D000080A94ED090AD4ED070A30EE200A84EDA7
:1048E000090A94ED0A0AD4ED0B0AB4EEE00AF1EEDF
:1048F00010FA04DD94ED0B0A84ED0A0A10E094ED41
:104900000A0AD4ED0B0AF1EE600AB4EEE00AF1EE09
:1049100010FA05D294ED0B0AB1EE400A84ED0A0AB2
:10492000207818B99FED090A84ED0A0AD4ED0A0A25
:10493000B0EE600AA06B8047BDEC028B10BD00009A
:10494000000034430000B443000034C30000000002
:1049500010B504460E4960680968081A00EE100A8E
:10496000B8EE400AD4ED0C0A9FED0A1A60EE810AF7
:10497000B4EEE00AF1EE10FA01DB012000E00020C5
:1049800028B10348006860602046FFF755FF10BD5E
:104990003C02002000007A4410B52DED028B044645
:1049A00094ED060A10EE101A0846FBF758FD41EC8C
:1049B000180B53EC182B0AA000F00CFF94ED050A1D
:1049C00010EE101A0846FBF74AFD41EC180B53ECA9
:1049D000182B05A000F0FEFEBDEC028B10BD000000
:1049E000353A25660D0A0000363A25660D0A0000A4
:1049F0002DE9F04704468946164600F0E9FE04EB2F
:104A00004401564800EBC100007D00F0030002287D
:104A100027D004EB4401514800EBC100D0F81080CE
:104A200004EB44014D4800EBC100C068A8EB000056
:104A3000451E002D06DA04EB4401484800EBC10096
:104A400080680544AE420CDD04EB4401434800EBB2
:104A5000C100007D00F0030010B90020BDE8F08720
:104A60002E460EB90020F9E7002700BF04EB4401F1
:104A70003A4800EBC100D0F8108004EB44013748FD
:104A800000EBC100C068A8EB0000451E002D06DA4F
:104A900004EB4401314800EBC1008068054404EB9D
:104AA00044012E4800EBC10004EB440281682B480E
:104AB00000EBC200C068081AA84201DD28460CE0DD
:104AC00004EB4401254800EBC10004EB440281687B
:104AD000224800EBC200C068081A0546B54201DA58
:104AE000284600E03046054604EB44021B4901EB32
:104AF000C20104EB44034A68184901EBC301C968C9
:104B000050182A464946FBF714FC2F44A944761B4B
:104B100004EB4401114800EBC100C068411904EBEB
:104B200044020E4800EBC200C16004EB44010B4894
:104B300000EBC100C16804EB4402084800EBC2006E
:104B40008068814206D1002104EB4402034800EB57
:104B5000C200C160002E89D138467FE728000020BE
:104B6000704780ED0F0AC0ED100A80ED111AC0EDFC
:104B7000171A80ED180AC0ED190A80ED1A1AC0ED57
:104B8000201A704780ED020AC0ED010A704700004C
:104B900010B5044622464FF400710248FDF746FC6A
:104BA00010BD00000008024070B504460D46257097
:104BB0002078D4F88410884770BD0221017080ED00
:104BC000010A704710B5044600202070227A0AB905
:104BD000012200E0002210462169884710BD10B56F
:104BE000044601202070207A2169884710BD70B5E5
:104BF0002DED028B05460C46B0EE408A24B1012C07
:104C000006D0022C0ED107E02846FFF7DBFF09E0B3
:104C10002846FFF7E4FF05E0B0EE480A2846FFF714
:104C2000CCFF00BF00BFBDEC028B70BD10B50446C9
:104C3000204600F015F8204600F084FD10BD00006D
:104C400010B52DED028BB0EE408AF0EE480A9FEDD4
:104C5000030A00F007F9BDEC028B10BD0000000054
:104C600010B50446224640210148FDF7DFFB10BD88
:104C70000008024010B52DED028BB0EE408AB0EE78
:104C8000480A00F02FF8BDEC028B10BD10B52DEDD9
:104C9000028BB0EE408AB0EE480A034800F013F8E9
:104CA000BDEC028B10BD0000F8010020FCEEC00A34
:104CB00010EE901A0170704780ED020AC0ED040AF0
:104CC00080ED031A704780ED050A704710B5044661
:104CD00022464FF480710248FDF7A8FB10BD00008A
:104CE0000008024010B52DED028BB0EE408AB0EE08
:104CF000480A034800F013F8BDEC028B10BD000019
:104D0000B4010020FCEEC00A10EE901A017070474A
:104D100080ED020AC0ED040A80ED031A704780EDB1
:104D2000050A7047B5EEC00AF1EE10FA03D2DFEDC6
:104D30000D0AB0EE600ADFED0C0AB4EEE00AF1EE07
:104D400010FA03DDDFED080AB0EE600ADFED070AB6
:104D500060EE200AFCEEE00A10EE900A04490968B1
:104D600048637047000000000000C842000028426D
:104D700060040020B5EEC00AF1EE10FA03D2DFEDB8
:104D80000D0AB0EE600ADFED0C0AB4EEE00AF1EEB7
:104D900010FA03DDDFED080AB0EE600ADFED070A66
:104DA00060EE200AFCEEE00A10EE900A0449096861
:104DB00088637047000000000000C84200002842DD
:104DC00060040020B5EEC00AF1EE10FA03D2DFED68
:104DD0000D0AB0EE600ADFED0C0AB4EEE00AF1EE67
:104DE00010FA03DDDFED080AB0EE600ADFED070A16
:104DF00060EE200AFCEEE00A10EE900A0449096811
:104E0000C8637047000000000000C842000028424C
:104E100060040020B5EEC00AF1EE10FA03D2DFED17
:104E20000D0AB0EE600ADFED0C0AB4EEE00AF1EE16
:104E300010FA03DDDFED080AB0EE600ADFED070AC5
:104E400060EE200AFCEEE00A10EE900A04490968C0
:104E500008647047000000000000C84200002842BB
:104E60006004002010B52DED028BB0EE408AF0EE0C
:104E7000608AF0EE680AB0EE480A0348FFF782FE47
:104E8000BDEC028B10BD00001C0100200149086030
:104E9000704700009000002010B5B7EE000A0948E6
:104EA000FFF730FF9FED081ADFED080A9FED080AB3
:104EB0000448FFF72DFF9FED040A0248FFF72FFF7C
:104EC00010BD0000B4010020000000008FC2F53CBE
:104ED0009A99994010B5024800F05AF810BD0000A8
:104EE000B401002010B50446606B804784ED060ACB
:104EF00094ED050AD4ED060A30EE600A84ED070A47
:104F000094ED070AD4ED080A30EE600AD4ED020AE7
:104F100020EE200AD4ED040A94ED071A00EE810A6F
:104F2000D4ED0A0A30EE200A84ED0A0A94ED070A4D
:104F300084ED080A94ED0A0AD4ED0B0AB4EEE00AF7
:104F4000F1EE10FA04DD94ED0B0A84ED0A0A10E08C
:104F500094ED0A0AD4ED0B0AF1EE600AB4EEE00A11
:104F6000F1EE10FA05D294ED0B0AB1EE400A84ED91
:104F70000A0A207818B99FED050A84ED0A0AD4EDD3
:104F80000A0AB0EE600AA06B804710BD0000000066
:104F900010B504460E4960680968081A00EE100A48
:104FA000B8EE400AD4ED0C0A9FED0A1A60EE810AB1
:104FB000B4EEE00AF1EE10FA01DB012000E000207F
:104FC00028B10348006860602046FFF78BFF10BDE2
:104FD0003802002000007A4410B52DED028B044603
:104FE000F0EE408AB0EE608AC4ED008A84ED018A5A
:104FF000204600F0D5F82046FCF740FA204600F0A5
:1050000003F8BDEC028B10BD10B52DED048B0446EA
:1050100094F84400072877D2DFE800F07604172AD6
:105020003D50630094ED090AD4ED0B0A30EE200ADE
:10503000D4ED0C0A30EE208A94ED0B0AD4ED0C0A64
:1050400070EE208A94ED0C9A5EE094ED0B0AD4ED9C
:105050000C0A30EE208A94ED070AD4ED0B0A30EEEC
:10506000200AD4ED0C0A70EE208A94ED0C9A4BE0E5
:1050700094ED0C8A94ED070AD4ED080A30EE200A6C
:10508000D4ED0C0A70EE208A94ED080AD4ED0C0AD7
:1050900030EE209A38E094ED0C8A94ED080AD4EDB5
:1050A0000C0A70EE208A94ED060AD4ED080A30EE60
:1050B000200AD4ED0C0A30EE209A25E094ED0A0A7D
:1050C000D4ED0C0A30EE208AD4ED0C8A94ED060A59
:1050D000D4ED0A0A30EE200AD4ED0C0A30EE209A04
:1050E00012E094ED090AD4ED0A0A30EE200AD4ED5C
:1050F0000C0A30EE208AD4ED0C8A94ED0A0AD4ED25
:105100000C0A30EE209A00BF00BFF0EE489AF4EE91
:10511000E89AF1EE10FA01D2F0EE689AF4EEC99A2C
:10512000F1EE10FA01D2F0EE499A94ED0E0AB4EEC7
:10513000E90AF1EE10FA1FD228EE290AD4ED0E0A80
:1051400080EE201AB0EE418A28EEA90AD4ED0E0AAC
:1051500080EE201AF0EE418A29EE290AD4ED0E0ADB
:1051600080EE201AB0EE419A94ED0E0AD4ED0F0AAB
:1051700030EE200AF0EE409AB0EE480AA06C80476C
:10518000B0EE680AE06C8047B0EE490A206D8047B7
:10519000B0EE690A606D8047BDEC048B10BD000065
:1051A00070B590ED010A80ED020AD0ED010AB0EE73
:1051B000001A80EE810AD0ED000A9FED2E1A10EE43
:1051C000810A80ED030AD0ED010AB0EE001A80EEEC
:1051D000810AD0ED000AF1EE600A9FED261A10EE6A
:1051E000810A80ED040A90ED020AB5EEC00AF1EEE4
:1051F00010FA01DD012100E0002190ED030AB5EE77
:10520000C00AF1EE10FA01DD012200E0002290ED6B
:10521000040AB5EEC00AF1EE10FA01DD012300E048
:1052200000239D00022606FB02550D44ECB2072C1C
:105230001DD2DFE804F01C081804100C140001252E
:1052400080F8445013E0022580F844500FE0032515
:1052500080F844500BE0042580F8445007E0052511
:1052600080F8445003E0062580F8445000BF00BF9A
:1052700070BD00002DB25D3F10B50B480068401CAA
:105280000949086009480068401C08490860084846
:105290000068401C0649086006480068401C054933
:1052A0000860FDF7FBF910BD8C00002034020020DF
:1052B000380200203C02002000B593B0302107A83E
:1052C000FBF750F8142102A8FBF74CF800BF0020B0
:1052D00001902448006840F0805022490860084648
:1052E000006800F08050019000BF00BF00BF0020A8
:1052F00001901D48006840F480401B490860084642
:10530000006800F48040019000BF00BF01200790BA
:105310000004089002200D9041050E9104210F9188
:10532000A8211091022111910421129107A8FDF7E3
:10533000BBFB08B1FBF7E4FE0F20029002200390B4
:10534000002004904FF4A05005904FF48050069038
:10535000052102A8FDF778FA08B1FBF7D1FE13B0DA
:1053600000BD000040380240007000400348006863
:1053700040F47000014908607047000088ED00E0CB
:1053800010B5FBF727FB0248FEF747FA10BD0000F7
:105390006004002010B500211548FEF70DFC042123
:1053A0001348FEF709FC08211148FEF705FC00210F
:1053B0000F48FDF75BFF04210D48FDF757FF08215B
:1053C0000B48FDF753FF9FED0B0AFFF7ABFC9FED7A
:1053D000090AFFF7CFFC9FED070AFFF7F3FC9FEDEB
:1053E000050AFFF717FD002000F0ACF910BD000022
:1053F000600400200000000010B50268294B9842AC
:105400000ED0B0F1804F0BD0274B984208D0274BDD
:10541000984205D0264B984202D0264B984203D1A1
:1054200022F070024B681A431E4B984220D0B0F114
:10543000804F1DD01C4B98421AD01C4B984217D05D
:105440001B4B984214D01B4B984211D01A4B9842D8
:105450000ED01A4B98420BD0194B984208D0194BDA
:10546000984205D0184B984202D0184B984203D16D
:1054700022F44072CB681A4322F080034C6943EA5D
:10548000040202608B68C3620B688362054B98421A
:1054900002D0084B984201D10B6903630123436199
:1054A00010BD000000000140000400400008004062
:1054B000000C004000040140004001400044014055
:1054C0000048014000180040001C0040002000403F
:1054D00030B501F01F05012404FA05F3046A9C436A
:1054E0000462046A01F01F0502FA05F52C43046208
:1054F00030BD30B501F01F05042404FA05F3046A39
:105500009C430462046A01F01F0502FA05F52C436E
:10551000046230BD30B50C46816821F47F4142EA17
:10552000032525432943816030BD0A46816821F067
:10553000700142F0070319438160704730B5056A76
:1055400025F001050562026A4368846924F070044D
:1055500024F003040D682C4322F002028D682A43D4
:10556000104DA84200D103E00F4DA84206D100BF64
:1055700022F00802CD682A4322F00402094DA84215
:1055800002D0094DA84207D123F4807323F400739D
:105590004D692B438D692B43436084614D6845639E
:1055A000026230BD000001400004014030B5056AD0
:1055B00025F010050562026A4368846924F4E0441A
:1055C00024F440740D6844EA052422F020028D681A
:1055D00042EA0512124DA84200D103E0114DA84243
:1055E00007D100BF22F08002CD6842EA051222F006
:1055F00040020B4DA84202D00A4DA84209D123F423
:10560000806323F400634D6943EA85038D6943EAAF
:105610008503436084614D688563026230BD00008C
:10562000000001400004014030B5056A25F4807592
:105630000562026A4368C46924F0700424F003041C
:105640000D682C4322F400728D6842EA0522124D47
:10565000A84200D103E0114DA84207D100BF22F4B7
:105660000062CD6842EA052222F480620A4DA84217
:1056700002D00A4DA84209D123F4805323F40053E9
:105680004D6943EA05138D6943EA05134360C4611C
:105690004D68C563026230BD000001400004014056
:1056A00030B5056A25F480550562036A4468C2690D
:1056B00022F4E04222F440720D6842EA052223F40B
:1056C00000538D6843EA0533084DA84202D0084DC7
:1056D000A84204D124F480444D6944EA851444600E
:1056E000C2614D680564036230BD000000000140E6
:1056F0000004014030B50B461446026A056A25F0E5
:1057000001050562816921F0F00141EA041122F0EE
:105710000A021A438161026230BD30B50B4614465D
:10572000056A25F0100505628169026A21F470415D
:1057300041EA043122F0A00242EA031281610262CE
:1057400030BD000010B50446012C07D10C210748DC
:10575000FEF7B8FA0548FDF75BFE06E00C210348AA
:10576000FEF75CFB0148FDF7A7FE10BD60040020BA
:1057700010B504210848FDF7E9FF42F21070064910
:10578000096848629FED050A054880ED010A00207E
:105790000349086010BD0000A804002000000000BC
:1057A0009000002042F210700549096848629FEDA0
:1057B000050A054880ED010A00200349086070478A
:1057C000A8040020000000009000002000BFFEE7B9
:1057D000704700000FB4054B10B503A9044A0298A6
:1057E00000F000F910BC5DF814FB0000EB6000084D
:1057F0004002002002480068C0F302207047000009
:105800000CED00E010B5002804DB0A07130E054A72
:10581000135406E00A07140E034A00F00F031B1F7F
:10582000D45410BD00E400E018ED00E02DED020BB3
:10583000019820F0004001909DED000B02B07047F0
:1058400002E008C8121F08C1002AFAD17047704749
:10585000002001E001C1121F002AFBD170470000A7
:105860002DE9FF5F82B00021DDE90430020DDDF893
:1058700040B0034318D044F61050A2F2FF32424326
:105880001514119801281FD0A5EB0B00401C5FEAEE
:10589000000A4FF000064E4FDFF83891B0465046F0
:1058A00015D5CAF1000413E0119801244AA3012878
:1058B00001D16FEA0B010298119AC0E90031C0E9E9
:1058C000024206B0BDE8F09FCBF10000DFE70446DE
:1058D0000021404A491842EB0450CDE9001012E083
:1058E000E00707D032463B4640464946FAF745FDB9
:1058F0008046894632463B4610461946FAF73DFD3A
:1059000006460F466410002CEAD1DDE90401DDE90A
:105910000023BAF1000F06DAFAF72FFD42464B4694
:10592000FAF72BFD05E0FAF769FF42464B46FAF716
:1059300065FF04460E460022284BFAF7BBFD03D84C
:105940004FF0FF30014607E00022254B204631464C
:10595000FAF7ADFEFAF7C1FF102409E0002C0ADBCC
:105960000A220023FAF7B4FC039B30321A55641E56
:1059700050EA0102F2D1641C039AC4F111031444E9
:10598000119A012A03D0012208430DD10AE00843ED
:1059900004D000204FF0110B119072E7A3EB0B0520
:1059A0006D1E0DE05B4504DD4FF0000205F10105C1
:1059B00004E003DA4FF00002A5F10105002AECD063
:1059C00002981199C0E90231C0E9004579E7000069
:1059D000000014400000F03F300000000000F043E1
:1059E0000000E03F2DE9FF4F95B09A4688460646F5
:1059F0000025EEE1252877D100242746F94A012128
:105A0000039400E0044316F8013F203B01FA03F041
:105A10001042F7D130782A2811D06FF02F03307858
:105A2000A0F13002092A16D8039A44F0020402EBCE
:105A3000820203EB42021044761C0390EFE758F811
:105A4000042B0392002A03DA504244F400540390DA
:105A500044F00204761C30782E2816D116F8010F77
:105A600044F004042A280DD06FF02F023078A0F102
:105A70003003092B09D807EB870302EB4303C71850
:105A8000761CF3E758F8047B761C30786C280FD02E
:105A900006DC4C2817D068280DD06A2814D104E001
:105AA000742810D07A280FD10DE044F400140AE0D5
:105AB00044F4801401E044F440147278824202D12C
:105AC00004F58014761C761C307866280BD013DC25
:105AD000582877D009DC002875D04528F6D046280C
