:020000040800F2
:10000000780D0020A1010008C93C0008AF360008A7
:10001000793B0008F50A00080D50000800000000B8
:100020000000000000000000000000004144000843
:10003000D70F0008000000009B3D0008D94B0008C6
:10004000BB010008BB010008BB010008BB010008A0
:10005000BB010008BB010008BB010008BB01000890
:10006000BB010008BB010008BB010008BB01000880
:10007000BB010008BB010008BB010008BB01000870
:10008000BB010008BB010008BB010008BB01000860
:10009000BB010008BB010008BB010008BB01000850
:1000A000BB010008BB010008BB010008BB01000840
:1000B000BB010008E94C0008F94C0008BB0100082E
:1000C000BB010008BB010008BB010008BB01000820
:1000D000BB010008BB010008BB010008BB01000810
:1000E000BB010008BB010008BB010008BB01000800
:1000F000BB010008BB010008BB010008BB010008F0
:10010000BB010008BB010008BB010008BB010008DF
:10011000BB010008BB010008BB010008BB010008CF
:10012000B50E0008BB010008BB010008BB010008B8
:10013000BB010008BB010008BB010008BB010008AF
:10014000BB010008BB010008BB010008BB0100089F
:10015000BB010008BB010008BB010008BB0100088F
:10016000BB010008BB010008BB010008BB0100087F
:10017000BB010008BB010008BB0100080000000033
:10018000BB010008BB010008DFF810D000F04AFBFB
:1001900000480047B75A0008AFF30080780D0020F0
:1001A0000648804706480047FEE7FEE7FEE7FEE711
:1001B000FEE7FEE7FEE7FEE7FEE7FEE7CD4C0008C0
:1001C000890100082DE9F05F0546002092469B4614
:1001D00088460646814640241BE02846414647465D
:1001E000224600F04CF953465A46C01A914110D3AA
:1001F00011461846224600F033F92D1A67EB010824
:100200004F4622460120002100F02AF917EB000991
:100210004E41201EA4F10104DFDC484631462A4647
:100220004346BDE8F09F40EA01039B0703D009E085
:1002300008C9121F08C0042AFAD203E011F8013BD2
:1002400000F8013B521EF9D27047D2B201E000F82B
:10025000012B491EFBD270470022F6E710B513466A
:100260000A4604461946FFF7F0FF204610BD2DE967
:10027000FE4F81EA030404F0004421F000410094A1
:100280004FF0000B23F0004350EA01045ED052EA25
:1002900003045BD0C3F30A54C1F30A552C44A4F2FF
:1002A000F3340194A0FB0254C1F3130141F4801113
:1002B000C3F3130343F4801301FB024400FB034E1A
:1002C000840A970A44EA815447EA8357A4FB0768E3
:1002D00002958D0A05FB07854FEA932C04FB0C540D
:1002E0002705029D4FEA065847EA1637B5EB080581
:1002F0006EEB070C870E920E47EA811742EA8312D3
:10030000A7FB0201B6EB0B0164EB00042B0D43EAE3
:100310000C335E1844EB1C50DA465146E7FB0201F1
:10032000C5F313044FEA0B3343EA14534FEA043284
:10033000019C43EA0603A4F10C040294009CCDE95D
:1003400000B400F0F2F803B0BDE8F08F00200146E1
:10035000F9E70EB5C10F80EAE0700844CA07002132
:1003600040F233438DE80E000A460B4600F0DDF8FC
:1003700003B000BD00F0004230F000400AD0C10DD3
:1003800001F56071C0F3160042EA0151C20840074E
:1003900011437047002001467047000030B5041E2D
:1003A00071F1000404DB4FF00044404264EB0101B2
:1003B000141E73F1000405DB1C464FF0004352424B
:1003C00063EB04038B4208BF824230BD30B5041E8C
:1003D00071F1000404DB4FF00044404264EB010182
:1003E000141E73F1000405DB1C464FF0004352421B
:1003F00063EB0403994208BF904230BD01F0004313
:1004000030B421F0004150EA010206D00A0DA2F5F5
:100410006072C1F31301002A02DC30BC0020704777
:10042000440F44EAC104C100E01830BC00EBC250E4
:1004300000F035B830B50B460146002020220124DB
:1004400009E021FA02F59D4205D303FA02F5491BA2
:1004500004FA02F52844151EA2F10102F1DC30BDB8
:10046000202A04DB203A00FA02F100207047914074
:10047000C2F1200320FA03F3194390407047202A69
:1004800004DB203A21FA02F00021704721FA02F33E
:10049000D040C2F12002914008431946704700291C
:1004A000A8BF7047401C490008BF20F001007047FA
:1004B00010B4B0FA80FC00FA0CF050EA010404BF5A
:1004C00010BC704749B1CCF1200421FA04F411FAB0
:1004D0000CF118BF012121430843A3EB0C01CB1DF4
:1004E0004FEA00614FEA102042BF002010BC704765
:1004F00000EBC35010440029A4BF10BC7047401C3F
:10050000490008BF20F0010010BC704710B5141E50
:1005100073F1000408DA401C41F1000192185B41BC
:100520001A4301D120F0010010BD2DE9F04D924693
:100530009B4611B1B1FA81F202E0B0FA80F22032AA
:100540009046FFF78DFF04460F4640EA0A0041EA55
:100550000B0153465A46084313D0114653EA010093
:1005600019D0C8F140025046FFF789FF05460E46F4
:10057000504659464246FFF773FF084305D0012015
:1005800004E020463946BDE8F08D0020054346EAE8
:10059000E0762C4337430A986305E40AA0EB080091
:1005A0000022FD0A44EA47540A3002D500200146E1
:1005B000E9E7010510196941DDE9084500196941BC
:1005C000BDE8F04DA2E72DE9FE4F804681EA030029
:1005D000C00F0C46009021F0004123F00045B8EB1D
:1005E0000200A94105D24046214690461C460B46D2
:1005F000024623F00040104347D0270DC7F30A00FE
:10060000C3F30A510290401A019040286BDAC3F3F9
:10061000130040F4801B0098924620B10023D2EBD7
:10062000030A63EB0B0B01985946C0F14002504698
:10063000FFF716FF06460D4650465946019A00F050
:1006400003F910EB08006141002487EA115284EAA3
:10065000E7731A4340D0009A62B3019A012A4FEA25
:10066000075215DC001B61EB02014FF0004202EA69
:100670000752CDE90042001C41F5801132462B465D
:10068000FFF753FF03B0BDE8F08F40462146F9E77E
:10069000001B61EB0201001C41F5801300185B4157
:1006A0002018A2F5001747EB030140EAD570B619F0
:1006B0006D4111E06D084FEA360645EAC0754FEA14
:1006C0000752001B61EB0201001C41F58011490833
:1006D0004FEA30000019514132462B4603B0BDE8C5
:1006E000F04FFFF713BF0098012240000023D0EB2A
:1006F000020263EBE073009821464FEAE074B8EB26
:10070000000061EB0401E9E783F000435BE781F05F
:10071000004158E72DE9F04D81EA030404F0004B55
:1007200021F0004514464FF0000A23F0004150EA42
:10073000050220D054EA01021DD0C5F30A57024633
:10074000C5F31303C1F31300C1F30A5640F4801537
:1007500043F48013A7EB0608101BD64608F2FD38B9
:1007600073EB050002D308F1010801E092185B4128
:10077000B8F1000F03DA00200146BDE8F08D00203B
:100780004FF48011064684460EE0171B73EB0507F5
:1007900005D3121B63EB050306434CEA010C490821
:1007A0004FEA300092185B4150EA0107EDD152EA5E
:1007B000030012D082EA040083EA0501084305D051
:1007C000101BAB4106D20122002306E000224FF0AD
:1007D000004302E06FF0010253101AEB06004CEBED
:1007E000085110EB0A0041EB0B01BDE8F04DFFF79B
:1007F0008DBEC1F30A52C1F3130140F2FF3341F43D
:1008000080119A4202DA00200146704740F23343D9
:100810009A42A2F2334202DC5242FFF730BEFFF7A7
:100820001FBE0000064C074D06E0E06840F00103E3
:1008300094E8070098471034AC42F6D3FFF7A8FCC1
:100840005C6300087C630008202A06DBCB17203A93
:1008500041FA02F043EAE07306E041FA02F3D040C5
:10086000C2F12002914008431946704770B58C18B8
:1008700010F8015B15F0070301D110F8013B2A11B4
:1008800006D110F8012B03E010F8016B01F8016BA1
:100890005B1EF9D12B0705D40023521E0DD401F89D
:1008A000013BFAE710F8013BCB1A921C03E013F866
:1008B000015B01F8015B521EF9D5A142D8D300209B
:1008C00070BD70B50546AC6B206C00F0500050BB9D
:1008D000206C40F4007020642068806800F0405074
:1008E000E8B9207ED8B92068C06A00F4700020B151
:1008F0002068806800F4806088B92068406820F033
:10090000200021684860206C20F480702064206CF6
:1009100000F4805018B9206C40F00100206420469B
:1009200000F0E6FE0BE0206C00F0100018B120464D
:1009300000F0E0FE03E0A06BC16C2846884770BD64
:1009400070B50546AC6B40202064606C40F004003C
:100950006064204600F0CEFE70BD70B50446A56B05
:10096000284600F0C6FE70BD55494A6822F4403260
:100970004A604A6843681A434A600268526822F42F
:10098000807203685A6002685368026943EA02226F
:1009900003685A600268526822F0407203685A6025
:1009A0000268526883681A4303685A600268926852
:1009B00022F4006203689A6002689268C3681A436E
:1009C00003689A603F4B826A9A4218D00268926824
:1009D00022F0706203689A6002689268836A1A4320
:1009E00003689A600268926822F0405203689A6035
:1009F00002689268C36A1A4303689A600BE002684F
:100A0000926822F0706203689A600268926822F02D
:100A1000405203689A600268926822F002020368FA
:100A20009A6002689368027E43EA420203689A6011
:100A30002022125CA2B10268526842F4006203688C
:100A40005A600268526822F4604203685A60026881
:100A50005368426A521E43EA423203685A6005E014
:100A60000268526822F4006203685A600268D26A1F
:100A700022F470020368DA620268D36A828B521E23
:100A800043EA02520368DA620268926822F4007252
:100A900003689A600268936890F8302043EA422223
:100AA00003689A600268926822F4806203689A6020
:100AB00002689368426943EA822203689A60704739
:100AC000002301400100000F10B502F049FE03F0C1
:100AD00065F900F0A5FA03F0B9FA10BD10B502F0FF
:100AE00043FE03F065F900F09FFA03F0B0FA10BD81
:100AF00003F044F800BFFEE790ED070A80ED0A0A14
:100B000090ED070AD0ED080AB0EE001A01EE200AB7
:100B1000DFED030A80EE201A80ED0B1A704700000B
:100B2000D0B3DD3F10B52DED088B044694ED0D0AD2
:100B300084ED130A94ED020A84ED140A94ED140A6C
:100B4000D4ED130A30EE600A84ED150A94ED150A0F
:100B5000D4ED160A30EE600AD4ED100A20EE200A19
:100B6000D4ED110A94ED151A00EE810AD4ED170A9E
:100B700030EE200A84ED170A94ED150A84ED160A6A
:100B800094ED180A10EE101A0846FFF7F3FB41EC3B
:100B90001A0BB0EE4A0AF0EE6A0A04F07FFAB0EEE1
:100BA000408AF0EE608A94ED170A10EE101A08469B
:100BB000FFF7E0FB41EC190B53EC182BFFF706FC99
:100BC00017D294ED180A10EE101A0846FFF7D2FB60
:100BD00041EC190BB0EE490AF0EE690A04F05EFA36
:100BE000B0EE408AF0EE608A51EC180BFFF706FC7D
:100BF000E06594ED180A10EE101A0846FFF7BAFBEC
:100C000041EC1B0BB0EE4B0AF0EE6B0A04F046FA17
:100C1000B0EE40AAF0EE60AA51EC1A0B81F0004150
:100C200041EC180B94ED170A10EE101A0846FFF766
:100C3000A1FB41EC190B53EC182BFFF7AFFB1BD2B8
:100C400094ED180A10EE101A0846FFF793FB41ECDA
:100C50001A0BB0EE4A0AF0EE6A0A04F01FFAB0EE80
:100C6000409AF0EE609A51EC190B81F0004141EC92
:100C7000180BFFF7C3FBE065BDEC088B10BD10B58A
:100C80002DED088B044694ED0C0A84ED1C0A94EDBE
:100C9000010A84ED1D0A94ED1D0AD4ED1C0A30EE04
:100CA000600A84ED1E0A94ED1E0AD4ED1F0A30EE90
:100CB000600AD4ED190A20EE200AD4ED1A0A94ED48
:100CC0001E1A00EE810AD4ED200A30EE200A84EDCF
:100CD000200A94ED1E0A84ED1F0A94ED210A10EEFD
:100CE000101A0846FFF746FB41EC1A0BB0EE4A0A11
:100CF000F0EE6A0A04F0D2F9B0EE408AF0EE608AB3
:100D000094ED200A10EE101A0846FFF733FB41EC71
:100D1000190B53EC182BFFF759FB18D294ED210A4D
:100D200010EE101A0846FFF725FB41EC190BB0EE48
:100D3000490AF0EE690A04F0B1F9B0EE408AF0EE2B
:100D4000608A51EC180BFFF759FB8021085194ED94
:100D5000210A10EE101A0846FFF70CFB41EC1B0BA2
:100D6000B0EE4B0AF0EE6B0A04F098F9B0EE40AA30
:100D7000F0EE60AA51EC1A0B81F0004141EC180B27
:100D800094ED200A10EE101A0846FFF7F3FA41EC32
:100D9000190B53EC182BFFF701FB1CD294ED210A21
:100DA00010EE101A0846FFF7E5FA41EC1A0BB0EE08
:100DB0004A0AF0EE6A0A04F071F9B0EE409AF0EED9
:100DC000609A51EC190B81F0004141EC180BFFF7D0
:100DD00015FB80210851BDEC088B10BD10B50446F1
:100DE00004F12402111F081FD4F894309847207E84
:100DF000032800DA10BDD4F890008047072853D2AA
:100E0000DFE800F05204111E2B38450094ED080A6B
:100E1000DFED270A30EEC00AD4ED090A30EE600A91
:100E200084ED070A41E094ED070ADFED210A30EE78
:100E3000C00AD4ED090A30EE600A84ED080A34E0F5
:100E400094ED070ADFED1A0A30EEC00AD4ED090A64
:100E500030EE600A84ED080A27E094ED070ADFED22
:100E6000140A30EEC00AD4ED080A30EE600A84EDB0
:100E7000090A1AE094ED070ADFED0D0A30EEC00A08
:100E8000D4ED080A30EE600A84ED090A0DE094ED15
:100E9000080ADFED070A30EEC00AD4ED090A30EE89
:100EA000600A84ED070A00E000BF00BF00BFA1E7B1
:100EB0000000000010B500F053F902F0D5FE024822
:100EC00000F072FE10BD00008C030020014608787F
:100ED00010381823B0FBF3F20848805CC865032A79
:100EE00005D908686FF30900001D886503E00868EC
:100EF0006FF309008865886D704700002C5B00085F
:100F0000014600208A6A8B69CBB932B1012A0DD023
:100F1000022A03D0032A10D10EE000BFCB6A03F0EF
:100F20008073B3F1807F00D1012007E0CB6AB3F179
:100F3000C07F00D1012001E000E000BF34E08B69F8
:100F4000B3F5005F1AD132B1012A07D0022A03D0CB
:100F5000032A11D10AE000BF01200EE0CB6A03F0A2
:100F60008073B3F1807F00D1012006E0CB6AB3F13A
:100F7000C07F00D1012000E000BF15E032B1012A9E
:100F800005D0022A04D0032A0CD103E000BF00BF21
:100F9000012008E0CB6A03F08073B3F1807F00D1B9
:100FA000012000E000BF00BF704730B5046824682E
:100FB00024F4802405682C60046863608468402CF5
:100FC00004D10468A2600468E16003E00468A160E1
:100FD0000468E26030BD7047704710B50446204693
:100FE00000F030F82046FFF7F9FE2046FFF784FDB9
:100FF000204602F09DFE2046FFF794FD2046FFF7B5
:101000003EFE204602F061FE94ED0F1AF0EE410A1A
:1010100094ED0E1AB0EE410AD4F89800804710BD46
:1010200010B5FFF765FD10BD7047000001460329AC
:1010300001DB00207047024850F82100FAE7000069
:101040005005002010B50446D4F88C00804784ED8C
:10105000030AD4ED030A607800EE100AB8EE400AE5
:1010600020EE800A84ED040A94ED040ADFED030A01
:1010700020EE200A84ED050A10BD00004DF38E3CE1
:1010800090ED030A7047000010B503220A490B488F
:1010900000F0CAFB08480068A0F500600649C86077
:1010A00008464068A0F50060086108468068A0F521
:1010B0000060486110BD000044050020440300208A
:1010C0002DE9F0412DED048B04460D461646022015
:1010D000FFF7ACFF0746FFF73CF941EC190B9FED1A
:1010E0001A0B53EC102BFFF7C2F841EC180BFFF76B
:1010F00085F920600120FFF799FF0746FFF729F9DE
:1011000041EC190B9FED100B53EC102BFFF7AFF8D0
:1011100041EC180BFFF772F928600020FFF786FFFB
:101120000746FFF716F941EC190B9FED070B53EC3F
:10113000102BFFF79CF841EC180BFFF75FF93060BC
:10114000BDEC048BBDE8F0812D431CEBE2364A3F39
:1011500010B5024800F0BAF810BD00007001002080
:1011600008480068A0F500600649C8600846406865
:10117000A0F50060086108468068A0F5006048613D
:10118000704700004405002010B50248FFF778FFC3
:1011900010BD0000C00000202DE9F0412DED048BB2
:1011A00004460D4616460020FFF740FF0746FFF7AE
:1011B000D0F841EC190B9FED1A0B53EC102BFFF7F5
:1011C00056F841EC180BFFF719F920600120FFF7E2
:1011D0002DFF0746FFF7BDF841EC190B9FED100BF3
:1011E00053EC102BFFF743F841EC180BFFF706F90F
:1011F00028600220FFF71AFF0746FFF7AAF841EC24
:10120000190B9FED070B53EC102BFFF730F841EC57
:10121000180BFFF7F3F83060BDEC048BBDE8F081EC
:101220002D431CEBE2364A3F10B5024800F04EF861
:1012300010BD0000BC01002010B5FFF7A5FFDFEDD9
:10124000020A30EE600A10BD0000344310B52DEDE7
:10125000028BFFF799FF184880ED000A90ED000A15
:101260001648D0ED000A30EE600AB0EE408A9FEDDD
:10127000140AB4EEC08AF1EE10FA05D29FED110AFD
:1012800038EE000AB0EE408A9FED0F0AB4EEC08A35
:10129000F1EE10FA05DD9FED0B0A38EE400AB0EED4
:1012A000408A054890ED000A044880ED000AB0EE3F
:1012B000480ABDEC028B10BDA8020020AC02002041
:1012C000000034C30000B44300003443014691F8E9
:1012D0003C00704790F83C1007297CD2DFE801F011
:1012E0007B04376A9FD2FD0090ED0D0ADFED9B0A6B
:1012F00020EE200AD0ED0E0A80EE201A90ED030AAF
:1013000021EE000A80ED090A90ED0D0ADFED930A47
:1013100020EE200AD0ED0E0A80EE201A90ED020A8F
:1013200021EE000A80ED0B0A90ED0D0AD0ED090ABE
:1013300030EE600AD0ED0B0A30EE600AF0EE000AE3
:1013400080EE201A80ED0C1A80ED051A03E190ED75
:101350000D0ADFED830A20EE200AD0ED0E0A80EEA2
:10136000201A90ED030A21EE000A80ED070A90EDA5
:101370000D0ADFED7B0A20EE200AD0ED0E0A80EE8A
:10138000201A90ED040A21EE000A80ED0B0A90ED80
:101390000D0AD0ED070A30EE600AD0ED0B0A30EEF0
:1013A000600AF0EE000A80EE201A80ED0C1A80ED43
:1013B000051AD0E090ED0D0ADFED680A60EE200A14
:1013C00090ED0E1A80EE810AD0ED020A20EE200A7E
:1013D00080ED070A00E0BDE090ED0D0ADFED5F0A49
:1013E00020EE200AD0ED0E0A80EE201A90ED040ABD
:1013F00021EE000A80ED080A90ED0D0AD0ED070AF3
:1014000030EE600AD0ED080A30EE600AF0EE000A15
:1014100080EE201A80ED0C1A80ED051A9BE090ED0D
:101420000D0ADFED4F0A20EE200A90ED0E1AC0EEF5
:10143000010A90ED020A20EE800A80ED060A90ED86
:101440000D0ADFED470A20EE200A90ED0E1AC0EEDD
:10145000010A90ED030A20EE800A80ED080A90ED63
:101460000D0AD0ED060A30EE600AD0ED080A30EE23
:10147000600AF0EE000A80EE201A80ED0C1A80ED72
:10148000051A68E090ED0D0ADFED340A60EE200ADF
:1014900090ED0E1A80EE810AD0ED040A20EE200AAB
:1014A00080ED060A90ED0D0ADFED2C0A60EE200AB1
:1014B00090ED0E1A80EE810AD0ED030A20EE200A8C
:1014C00080ED0A0A90ED0D0AD0ED060A30EE600AB2
:1014D000D0ED0A0A30EE600A00E008E0F0EE000A03
:1014E00080EE201A80ED0C1A80ED051A33E090EDA5
:1014F0000D0ADFED1B0A60EE200A90ED0E1A80EE59
:10150000810AD0ED040A20EE200A80ED090A90ED50
:101510000D0ADFED130A20EE200AD0ED0E0A80EE50
:10152000201A90ED020A21EE000A80ED0A0A90EDE1
:101530000D0AD0ED090A30EE600AD0ED0A0A30EE4D
:10154000600AF0EE000A80EE201A80ED0C1A80EDA1
:10155000051A00E000BF00BF704700002DB2DD3F5C
:101560002DB2DDBF38B502460020009000BF92F8D2
:101570003C00012801D1022038BD012082F83C0046
:1015800000BF0868092816D91068C0680C780A3CA2
:1015900004EB44050724AC40A0431468E0600C78D9
:1015A0000A3C04EB44048868A0401468E4682043C3
:1015B0001468E06013E0106800690C7804EB4405DF
:1015C0000724AC40A043146820610C7804EB440469
:1015D0008868A04014682469204314682061486822
:1015E000072817D21068406B0C79641E04EB840541
:1015F0001F24AC40A04314686063088880B20C7953
:10160000641E04EB8404A0401468646B20431468D7
:10161000606331E048680D2817D21068006B0C79C0
:10162000E41F04EB84051F24AC40A043146820632E
:10163000088880B20C79E41F04EB8404A04014688D
:10164000246B20431468206316E01068C06A0C798C
:101650000D3C04EB84051F24AC40A0431468E062F9
:10166000088880B20C790D3C04EB8404A040146817
:10167000E46A20431468E062194B1A4C1068A042D7
:1016800006D10868122803D1586840F480005860D9
:10169000144C1068A0421CD10868102802D00868B9
:1016A000112816D1586840F40000586008681028C6
:1016B0000FD10D4800680D4CB0FBF4F000EB80003A
:1016C0004000009002E00098401E00900098002822
:1016D000F9D100BF002082F83C0000BF00BF4BE7FB
:1016E00000230140002001400C00002040420F0078
:1016F000704770477047000070B5044600250CB96C
:10170000012070BD1549A06A884200D000BF206C3E
:1017100030B9204600F024F80020606484F83C00D2
:10172000206C00F0100088B9206C20F4885040F044
:10173000020020642046FFF717F900206064206C47
:1017400020F0020040F00100206400E0012500BF0D
:10175000002084F83C0000BF2846D2E70100000FBB
:1017600010B586B00446142101A8FEF775FD29497D
:10177000206888424BD100BF0020009026480068B6
:1017800040F48070244908600846006800F48070C6
:10179000009000BF00BF00BF002000901E4814381A
:1017A000006840F001001C491439086008460068D0
:1017B00000F00100009000BF00BF3F200190032017
:1017C00002900020039001A9144800F0E1FB1448A6
:1017D0001449086000204860002112488160C160FF
:1017E0004FF4806101618900416189008161891143
:1017F000C161490201620021416200F0F5FA08B1BD
:10180000FFF7EAFB00BF0748A063846300BF06B090
:1018100010BD00000020014044380240000002409A
:10182000106402408C030020F8B504460D461646AD
:101830000020009000BF94F83C00012801D1022054
:10184000F8BD012084F83C0000BF2068806800F0EB
:101850000100A0B92068806840F00100216888601C
:10186000494800684949B0FBF1F000EB40000090A6
:1018700002E00098401E009000980028F9D12068EE
:10188000806800F0010000287CD0206C40F20161EB
:10189000884340F4807020642068406800F48060D1
:1018A00028B1206C20F4005040F480502064206C5B
:1018B00000F48050B0F5805F04D1606C20F0060029
:1018C000606401E00020606400BF002084F83C00F8
:1018D00000BF2F4F2F48A16BC8632F48A16B08642E
:1018E0002E48A16BC8646FF0220021680860206850
:1018F000406840F08060216848602068806840F45B
:10190000807021688860226802F14C0133462A46C3
:10191000A06B00F0DFFA786800F01F0018BB2049C8
:101920002068884213D01F492068884204D1381D9E
:10193000006800F01F0050B11B492068884221D187
:101940001348001D006800F01F0010281AD22068FC
:10195000806800F0405028B92068806840F08040DE
:10196000216888600EE00E49206888420AD120680C
:10197000806800F0405028B92068806840F08040BE
:101980002168886000205BE70C00002040420F00C7
:1019900000230140C30800085B0900084109000852
:1019A00000200140002101400022014070B50446A2
:1019B0000CB9012070BD94F8200010B9204600F049
:1019C000AFF82068006820F002002168086000F08D
:1019D000E5FB05460DE000F0E1FB401B0A2808D9B5
:1019E000606A40F400306062052084F82000012025
:1019F000E0E72068406800F002000028EBD1206892
:101A0000006840F001002168086000F0C7FB05464F
:101A10000DE000F0C3FB401B0A2808D9606A40F4BF
:101A200000306062052084F820000120C2E72068B1
:101A3000406800F001000028EBD0207E012806D18C
:101A40002068006840F080002168086005E0206898
:101A5000006820F0800021680860607E012806D1BF
:101A60002068006840F040002168086005E02068B8
:101A7000006820F0400021680860A07E012806D19F
:101A80002068006840F020002168086005E02068B8
:101A9000006820F0200021680860E07E012806D15F
:101AA0002068006820F010002168086005E02068C8
:101AB000006840F0100021680860207F012806D1EE
:101AC0002068006840F008002168086005E0206890
:101AD000006820F0080021680860607F012806D1B6
:101AE0002068006840F004002168086005E0206874
:101AF000006820F0040021680860D4E9020108436E
:101B000021690843616908436168491E08432168E7
:101B1000C86100206062012084F82000002049E7AD
:101B200010B586B00446142101A8FEF795FB1B49A9
:101B30002068884230D100BF00200090184800681B
:101B400040F00070164908600846006800F0007018
:101B5000009000BF00BF00BF002000901048103868
:101B6000006840F001000E4910390860084600681E
:101B700000F00100009000BF00BF4FF4C050019082
:101B80000220029000200390032004900920059079
:101B900001A9044800F0FCF906B010BD0064004043
:101BA0004038024000000240F8B504460020009092
:101BB0008C4800684FF41651B0FBF1F7A56D2E6804
:101BC00094F85C1008208840304098B12068006884
:101BD00000F0040070B12068006820F00400216863
:101BE000086094F85C1008208840A860606D40F0A0
:101BF0000100606594F85C1001208840304068B1B5
:101C00002068406900F0800040B194F85C10012029
:101C10008840A860606D40F00200606594F85C1038
:101C200004208840304068B12068006800F002005D
:101C300040B194F85C1004208840A860606D40F0CA
:101C40000400606594F85C1010208840304078B340
:101C50002068006800F0080050B394F85C10102071
:101C60008840A8602068006800F4802080B1206867
:101C7000006800F4002028B9206CC8B12046216C0F
:101C8000884715E0A06C98B12046A16C88470FE00A
:101C90002068006800F4807028B92068006820F08F
:101CA000080021680860206C10B12046216C88472C
:101CB00094F85C10202088403040002865D02068CF
:101CC000006800F0100000285FD094F85C1020201D
:101CD0008840A86094F83500052828D1206800685D
:101CE00020F01600216808602068406920F080001C
:101CF00021684861206C08B9A06C28B12068006890
:101D000020F008002168086094F85C103F208840AB
:101D1000A86000BF002084F8340000BF012084F8D0
:101D20003500206D10B12046216D8847F8BD206830
:101D3000006800F4802080B12068006800F4002072
:101D400028B9606C10B12046616C88471DE0E06BDB
:101D5000D8B12046E16B884717E02068006800F49E
:101D6000807068B92068006820F010002168086061
:101D700000BF002084F8340000BF012084F8350043
:101D8000E06B10B12046E16B8847606D38B3606D41
:101D900000F00100F0B1052084F8350020680068EB
:101DA00020F001002168086000BF0098401C0090EE
:101DB000B84200D905E02068006800F00100002862
:101DC000F3D100BF00BF002084F8340000BF012021
:101DD00084F83500E06C10B12046E16C884700BF04
:101DE000A4E700000C0000202DE9F0410446002586
:101DF00000F0D4F9074614B90120BDE8F081606A0B
:101E000000B100BF00BF002084F8340000BF0220F2
:101E100084F835002068006820F00100216808601F
:101E20000AE000F0BBF9C01B052805D92020606539
:101E3000032084F83500E0E72068006800F0010026
:101E40000028EED12068056821480540D4E9010149
:101E50000843E16808432169084361690843A169AF
:101E60000843E1690843216A08430543606A04287E
:101E700003D1D4E90B0108430543206805602068BD
:101E8000456925F00705606A0543606A04280DD19D
:101E9000A06A0543E06A48B12046FFF731F828B14F
:101EA00040206065012084F83500A6E72068456180
:101EB0002046FFF70BF8064694F85C103F20884058
:101EC000B06000206065012084F83500002094E7B0
:101ED0003F8010F02DE9F04704460D4616461F4698
:101EE0004FF00008D4F8589000BF94F8340001284F
:101EF00002D10220BDE8F087012084F8340000BF41
:101F000094F83500012825D1022084F835000020FE
:101F100060653B46324629462046FFF746F894F86E
:101F20005C103F208840C9F808002068006840F035
:101F3000160021680860206C28B12068006840F015
:101F40000800216808602068006840F001002168EE
:101F5000086006E000BF002084F8340000BF4FF0A6
:101F600002084046C6E7000070B5044600F016F9C6
:101F700006462546681C10B104480078054400BF99
:101F800000F00CF9801BA842FAD370BD08000020B5
:101F9000F8B502460B460025002400200021DCE0B5
:101FA000012606FA01F51E6806EA0504AC4273D163
:101FB0005E68012E08D05E68022E05D05E68112E84
:101FC00002D05E68122E13D190684F000326BE40E7
:101FD000B0434F00DE68BE40304390605068012639
:101FE0008E40B0431E79C6F300168E4030435060D9
:101FF000D0684F000326BE40B0434F009E68BE40ED
:102000003043D0605E68022E02D05E68122E13D17B
:10201000CF0802F1200656F827004E07F70E0F26CC
:10202000BE40B0434F07FF0E1E69BE403043CF088D
:1020300002F1200646F8270010684F000326BE4034
:10204000B0431E7906F003064F00BE4030431060D7
:102050005E6806F08056B6F1805F7DD100BF002635
:102060000096404E366846F480463E4F3E603E46FF
:10207000366806F48046009600BF00BF3A4E8F08CF
:1020800056F827008E07370F0F26BE40B043374E55
:10209000B24202D1002624E05EE0354EB24201D1C8
:1020A00001261EE0334EB24201D1022619E0324E23
:1020B000B24201D1032614E0304EB24201D10426CF
:1020C0000FE02F4EB24201D105260AE02D4EB2425A
:1020D00001D1062605E02C4EB24201D1072600E0D0
:1020E00008268F073F0FBE4030431F4E8F0846F82B
:1020F0002700264E3068A0435E6806F48036B6F5A9
:10210000803F00D12043214E3060361D3068A0430F
:102110005E6806F40036B6F5003F00D120431B4E42
:10212000361D3060361D3068A0435E6806F48016A8
:10213000B6F5801F00D12043144E08363060361D9E
:102140003068A0435E6806F40016B6F5001F00D1A3
:1021500020430E4E0C363060491C1029FFF420AF8E
:10216000F8BD000044380240083801400000024039
:102170000004024000080240000C0240001002402F
:102180000014024000180240001C0240003C0140C4
:102190000AB1816101E00B04836170470148006866
:1021A00070470000000000200348006803490978D8
:1021B0000844014908607047000000200800002022
:1021C00010B50D48006840F400700B4908600846DF
:1021D000006840F4806008600846006840F4807041
:1021E0000860032000F0A2F8002000F007F800F0DB
:1021F0002BF8002010BD0000003C024070B50446E2
:102200000E4800784FF47A71B1FBF0F00C49096880
:10221000B1FBF0F5284600F057FF08B1012070BD72
:10222000102C07D200222146501E00F041F805482C
:10223000046001E00120F2E70020F0E70800002040
:102240000C0000200400002008B500BF0020009012
:102250000E48006840F480400C4908600846006859
:1022600000F48040009000BF00BF00BF002000903D
:10227000081F006840F08050091F08600846006889
:1022800000F08050009000BF00BF08BD44380240FD
:1022900001460846002809DB00F01F0301229A408E
:1022A00043099B0003F1E023C3F8002100BF7047FE
:1022B0002DE9F05F80460D461646002702F0D2FE5B
:1022C000074639462A46334601F00700C0F1070A9F
:1022D000BAF1040F02D94FF0040A01E0C0F1070A75
:1022E000D14600F1040ABAF1070F02D24FF0000AFA
:1022F00001E0A0F1030AD4464FF0010A0AFA09FAF4
:10230000AAF1010A0AEA020A0AFA0CFA4FF0010BD2
:102310000BFA0CFBABF1010B0BEA030B4AEA0B04C3
:102320002146404602F0A6FEBDE8F09F00BF00F047
:102330000702064B19684FF6FF031940044B0B4385
:1023400043EA0221014B196000BF70470CED00E029
:102350000000FA0570B504460D460CB9012070BDA9
:102360005848006800F00F00A84209D255490D7086
:102370000846006800F00F00A84201D00120EEE7F7
:10238000207800F0020002281DD1207800F004001F
:10239000042805D14C48006840F4E0504A490860E0
:1023A000207800F00800082805D14748006840F46C
:1023B0006040454908604448006820F0F000A1688A
:1023C000084341490860207800F00100A8B3606824
:1023D000012807D13C4808380068C0F34040B8B92C
:1023E0000120BCE76068022802D06068032807D19A
:1023F000354808380068C0F3406048B90120AEE7AE
:10240000314808380068C0F3400008B90120A6E749
:102410002D48006820F00300616808432A490860DD
:10242000FFF7BCFE064609E0FFF7B8FE801B41F24D
:102430008831884202D9032091E707E022480068EA
:1024400000F00C006168B0EB810FEDD11D48006811
:1024500000F00F00A84209D91A490D70084600681B
:1024600000F00F00A84201D0012078E7207800F0AA
:102470000400042807D11448006820F4E050E16803
:10248000084311490860207800F00800082808D1A6
:102490000D48006820F46040216940EAC1000A4903
:1024A000086000F019F808490968C1F30311074AE8
:1024B000515CC8400649086006480068FFF79EFE68
:1024C00000204CE7003C024008380240345B000822
:1024D0000C000020040000202DE9F0470024002516
:1024E0000026A1462548006800F00C0020B1042811
:1024F00005D008283AD105E0DFF8849039E0DFF80C
:10250000849036E01D48001F006800F03F041B481F
:10251000001F006800F4800078B11A481749091FAD
:102520000968C1F38811A0FB01700146224600230F
:102530003846FDF747FE05460EE011480F49091FD2
:102540000968C1F38811A0FB0170014622460023EF
:102550003846FDF737FE05460848001F0068C0F3FF
:102560000140401C4600B5FBF6F902E0DFF8109090
:1025700000BF00BF4846BDE8F087000008380240B1
:102580000024F40000127A00F8B504460CB90120CA
:10259000F8BD207800F00100002874D0F9480068E8
:1025A00000F00C0004280DD0F648006800F00C0084
:1025B000082813D1F348001F006800F48000B0F52C
:1025C000800F0BD1EF4808380068C0F34040002866
:1025D00059D06068002856D10120D9E700BF606853
:1025E000B0F5803F08D1E7480838006840F48030F3
:1025F000E449083908601EE06068B0F5A02F0DD1ED
:10260000E0480838006840F48020DE490839086056
:102610000846006840F4803008600CE0D94808386B
:10262000006820F48030D7490839086008460068FF
:1026300020F48020086000BF606890B1FFF7AEFD15
:10264000054606E0FFF7AAFD401B642801D90320D8
:102650009EE7CC4808380068C0F340400028F1D01D
:1026600011E0FFF79BFD054606E0FFF797FD401BD5
:10267000642801D903208BE7C24808380068C0F3FA
:1026800040400028F1D1207800F0020002285FD1FC
:10269000BC48006800F00C0058B1BA48006800F06F
:1026A0000C0008281CD1B748001F006800F4800007
:1026B000B0B9B44808380068C0F3400020B1E06801
:1026C000012801D0012063E7AE480838006820F0F7
:1026D000F800216940EAC100AA490839086037E0DA
:1026E000E06800B30120A8490860FFF757FD0546E0
:1026F00006E0FFF753FD401B022801D9032047E7FE
:10270000A04808380068C0F340000028F1D09D4878
:102710000838006820F0F800216940EAC1009949B2
:102720000839086014E0002097490860FFF736FD7B
:10273000054606E0FFF732FD401B022801D90320C1
:1027400026E7904808380068C0F340000028F1D11F
:10275000207800F0080008282CD16069A8B1012079
:102760008A490860FFF71AFD054606E0FFF716FDE7
:10277000401B022801D903200AE782486C30006818
:10278000C0F340000028F1D014E000207F49086029
:10279000FFF704FD054606E0FFF700FD401B022899
:1027A00001D90320F4E677486C300068C0F340009C
:1027B0000028F1D1207800F00400042870D100270F
:1027C00070483830006800F0805090B900BF002099
:1027D00000906C483830006840F0805069493831CA
:1027E00008600846006800F08050009000BF00BFFD
:1027F00001276748006800F48070B0B96448006839
:1028000040F4807062490860FFF7C8FC054606E0A6
:10281000FFF7C4FC401B022801D90320B8E65C483E
:10282000006800F480700028F2D000BFA068012882
:1028300008D154486830006840F0010051496831BF
:1028400008601DE0A06805280DD14E48683000687A
:1028500040F004004B49683108600846006840F0C9
:10286000010008600CE047486830006820F0010073
:102870004449683108600846006820F00400086098
:1028800000BFA068A8B1FFF789FC054609E0FFF783
:1028900085FC401B41F28831884202D9032077E64B
:1028A00026E0384868300068C0F340000028EED0C9
:1028B00013E0FFF773FC054608E0FFF76FFC401BD1
:1028C00041F28831884201D9032061E62D48683001
:1028D0000068C0F340000028EFD1012F07D129483C
:1028E0003830006820F0805026493831086000BF39
:1028F000A069002845D02348006800F00C00082893
:102900005DD0A069022845D100201F490866FFF765
:1029100045FC054606E0FFF741FC401B022801D9B3
:10292000032035E6174808380068C0F340600028E7
:10293000F1D1D4E907010843616A40EA811101221B
:10294000A06AC2EB500041EA00412C20005D41EA40
:1029500000600C49091F086001200B490866FFF759
:102960001DFC054606E0FFF719FC401B022801D9B3
:1029700003200DE6034808380068C0F340600028D3
:10298000F1D03FE00838024000004742800E474245
:102990000070004000201C490866FFF7FFFB054659
:1029A00006E0FFF7FBFB401B022801D90320EFE5FF
:1029B00016480068C0F340600028F2D122E0A06908
:1029C000012800D1E4E51148001D066806F48001E5
:1029D000E069814214D106F03F01206A81420FD1A3
:1029E00047F6C0703040616A884209D106F4403130
:1029F000A06A814204D106F07061E06A814201D090
:102A00000120C5E50020C3E5000047420038024030
:102A100010B504460CB9012010BD606A00B900BFB2
:102A20000021A16294F8510028B9002084F85000D8
:102A3000204600F033F8022084F851002068006836
:102A400020F0400021680860D4E901010843E168F2
:102A500008432169084361690843218B01F400712F
:102A60000843E1690843216A0843A16A08432168D1
:102A700008600421A06901EA1040616A08432168E6
:102A800048602068C06920F400602168C8610020A7
:102A90006065012084F851000020BDE710B586B0C4
:102AA0000446142101A8FDF7D7FB37492068884266
:102AB00030D100BF002000903448006840F48050BE
:102AC000324908600846006800F48050009000BF5A
:102AD00000BF00BF002000902C481438006840F070
:102AE00002002A49143908600846006800F0020014
:102AF000009000BF00BF382001900220029000200B
:102B00000390032004900520059001A92048FFF7B9
:102B10003FFA36E01F492068884232D100BF0020CA
:102B200000901A48001F006840F480401749091FB0
:102B300008600846006800F48040009000BF00BFB5
:102B400000BF0020009011481438006840F00200D7
:102B50000E49143908600846006800F00200009031
:102B600000BF00BF4FF4604001900220029000209F
:102B70000390032004900520059001A90448FFF765
:102B800007FA06B010BD0000003001404438024092
:102B900000040240003800402DE9F843044688460E
:102BA00016461D464FF000096068B0F5827F0DD1D2
:102BB000A06858B9042084F8510033464246414683
:102BC0002046009500F06BF9BDE8F88300BF94F84B
:102BD0005000012801D10220F6E7012084F85000BE
:102BE00000BFFFF7DBFA074694F85100012802D036
:102BF0004FF0020978E0B8F1000F00D016B94FF09D
:102C0000010971E0042084F8510000206065C4F8D7
:102C10003880A687E6872063A086E086206460640B
:102C2000A068B0F5004F05D12068006820F480400E
:102C3000216808602068006800F04000402805D046
:102C40002068006840F0400021680860E068F8B93A
:102C50001AE02068806800F0010050B12068007B15
:102C6000A16B0870A06B401CA063E08F401EE08742
:102C70000AE0FFF793FAC01BA84201D3681C00B911
:102C800015B94FF003092FE0E08F0028E1D11EE0D5
:102C90001AE02068806800F0010050B12068C06828
:102CA000A16B0880A06B801CA063E08F401EE087B2
:102CB0000AE0FFF773FAC01BA84201D3681C00B9F1
:102CC00015B94FF003090FE0E08F0028E1D13A4633
:102CD0002946204601F0E0FA08B120206065606DC9
:102CE00008B14FF0010900BF012084F8510000BF76
:102CF000002084F8500000BF484665E72DE9F84FF2
:102D00000446884616461D464FF0000A00BF94F858
:102D10005000012802D10220BDE8F88F012084F87C
:102D2000500000BFFFF73AFA0746B14694F8510049
:102D3000012802D04FF0020AA7E0B8F1000F00D03E
:102D400016B94FF0010AA0E0032084F851000020DA
:102D50006065C4F83080A686E686A063A087E08719
:102D600060642064A068B0F5004F05D12068006859
:102D700040F48040216808602068006800F040004E
:102D8000402805D02068006840F0400021680860B5
:102D9000E068B0F5006F2FD1606810B1B9F1010F94
:102DA00009D1206B00882168C860206B801C2063DB
:102DB000E08E401EE0861BE02068806800F0020084
:102DC00002280AD1206B00882168C860206B801C13
:102DD0002063E08E401EE0860AE0FFF7DFF9C01BAB
:102DE000A84201D3681C00B915B94FF0030A4CE0A2
:102DF000E08E0028E0D12EE0606810B1B9F1010F3B
:102E000009D1206B007821680873206B401C206377
:102E1000E08E401EE0861BE02068806800F0020023
:102E200002280AD1206B007821680873206B401CAF
:102E30002063E08E401EE0860AE0FFF7AFF9C01B7A
:102E4000A84201D3681C00B915B94FF0030A1CE071
:102E5000E08E0028E0D13A462946204601F066FA85
:102E600008B120206065A06850B900BF0020009024
:102E70002068C068009020688068009000BF00BF94
:102E8000606D08B14FF0010A00BF012084F85100C5
:102E900000BF002084F8500000BF50463CE72DE9F9
:102EA000FF5F0446884691461D460E9E0120029013
:102EB0000020019000BF94F85000012803D10220A7
:102EC00004B0BDE8F09F012084F8500000BFFFF778
:102ED00065F9074694F851B060680390AA46BBF1C3
:102EE000010F0BD00398B0F5827F04D1A06810B910
:102EF000BBF1040F02D002200190DBE0B8F1000F1B
:102F000003D0B9F1000F00D015B901200190D1E034
:102F100094F85100042802D0052084F851000020C4
:102F20006065C4F83890E587A587C4F83080E586E9
:102F3000A586206460642068006800F04000402896
:102F400005D02068006840F0400021680860E06813
:102F5000B0F5006F4AD1606810B1BAF1010F09D124
:102F6000206B00882168C860206B801C2063E08E85
:102F7000401EE08633E02068806800F002000228EE
:102F800010D1E08E70B1029801280BD1206B00881F
:102F90002168C860206B801C2063E08E401EE086A4
:102FA000002002902068806800F0010068B1E08F86
:102FB00058B12068C068A16B0880A06B801CA0631A
:102FC000E08F401EE08701200290FFF7E7F8C01B6A
:102FD000B04204D3701C10B1032001906AE0E08E6F
:102FE0000028C8D1E08F0028C5D14AE0606810B140
:102FF000BAF1010F09D1206B007821680873206BAA
:10300000401C2063E08E401EE08634E0206880682B
:1030100000F00200022810D1E08E70B10298012861
:103020000BD1206B007821680873206B401C206353
:10303000E08E401EE086002002902068806800F04C
:10304000010068B1E08F58B12068C068A16B0870BA
:10305000A06B401CA063E08F401EE087012002901F
:10306000FFF79CF8C01BB04201D3701C00B916B921
:10307000032001901EE0E08E0028C7D1E08F0028D9
:10308000C4D13A463146204601F050F920B1012022
:103090000190202060650DE0A06850B900BF0020BD
:1030A00000902068C068009020688068009000BF91
:1030B00000BF00BF012084F8510000BF002084F849
:1030C000500000BF0198FBE670B504462546681E17
:1030D000B0F1807F01D301200FE0681E4FF0E021A6
:1030E00048610F214FF0FF3001F0C4FF00204FF086
:1030F000E021886107200861002070BD704770479B
:1031000030B502460B4600BF92F83C00012801D1C1
:10311000022030BD012082F83C0000BF022082F86E
:103120003D00106844681068816824F070041868D5
:10313000044310684460184D1068A8421BD0106802
:10314000B0F1804F17D0154D1068A84213D0144D20
:103150001068A8420FD0134D1068A8420BD0124D32
:103160001068A84207D0114D1068A84203D0104D36
:103170001068A84205D121F0800158680143106809
:103180008160012082F83D0000BF002082F83C00F1
:1031900000BF00BFBDE70000000001400004004088
:1031A00000080040000C00400004014000400140C5
:1031B0000018004001460868C06840F001000B6834
:1031C000D8600868806800F00702062A05D0086801
:1031D000006840F001000B681860002070477047DD
:1031E00010B5044620680069C0F34000D8B12068DB
:1031F000C068C0F34000B0B16FF002002168086100
:10320000012020772068806900F0030018B1204673
:10321000FFF7E5FF05E0204600F026F9204600F024
:1032200005FA0020207720680069C0F38000D8B13B
:103230002068C068C0F38000B0B16FF0040021685E
:103240000861022020772068806900F4407018B17E
:103250002046FFF7C4FF05E0204600F005F92046B0
:1032600000F0E4F90020207720680069C0F3C00076
:10327000D8B12068C068C0F3C000B0B16FF00800DA
:1032800021680861042020772068C06900F00300ED
:1032900018B12046FFF7A3FF05E0204600F0E4F850
:1032A000204600F0C3F90020207720680069C0F3B1
:1032B0000010D8B12068C068C0F30010B0B16FF042
:1032C000100021680861082020772068C06900F498
:1032D000407018B12046FFF782FF05E0204600F05D
:1032E000C3F8204600F0A2F900202077206800698A
:1032F00000F0010058B12068C06800F0010030B152
:103300006FF0010021680861204600F0BDF92068D7
:103310000069C0F3C01058B12068C068C0F3C01085
:1033200030B16FF08000216808612046FFF7E6FEAB
:1033300020680069C0F3801058B12068C068C0F3ED
:10334000801030B16FF0400021680861204600F025
:10335000ADF920680069C0F3401058B12068C0681A
:10336000C0F3401030B16FF02000216808612046A2
:10337000FFF7C5FE10BD000010B586B0044614214D
:1033800001A8FCF769FF32492068884239D100BFA3
:10339000002000902F48006840F001002D4908608F
:1033A0000846006800F00100009000BF00BF00BFA9
:1033B000002000900846006840F0020008600846BF
:1033C000006800F00200009000BF00BFC020019024
:1033D000022002900020039004900220059001A991
:1033E0001D48FEF7D5FD012001900220029000202B
:1033F000039004900220059001A91848FEF7C8FD2B
:1034000024E017492068884220D100BF00200090A6
:103410001048006840F002000E4908600846006845
:1034200000F00200009000BF00BF4FF4E070019078
:10343000022002900020039004900220059001A930
:103440000648FEF7A5FD0748FFF7B4FE06B010BD1D
:1034500000040040303802400000024000040240F6
:103460000008004004050020704770B504460D4672
:10347000164600BF94F83C00012801D1022070BD1F
:10348000012084F83C0000BF022084F83D0036B1E2
:10349000042E1BD0082E31D00C2E5ED145E02946DB
:1034A000206801F0D7FC2068806940F0080021689E
:1034B00088612068806920F00400216888612068A4
:1034C0008069296908432168886147E029462068A6
:1034D00001F0F8FC2068806940F400602168886190
:1034E0002068806920F48060216888612068806994
:1034F000296940EA0120216888612FE02946206877
:1035000001F01EFD2068C06940F008002168C86114
:103510002068C06920F004002168C8612068C06983
:10352000296908432168C86118E02946206801F02C
:1035300043FD2068C06940F400602168C8612068CC
:10354000C06920F480602168C8612068C069296969
:1035500040EA01202168C86100E000BF00BF0120EF
:1035600084F83D0000BF002084F83C0000BF00BF8D
:1035700085E710B504460CB9012010BD94F83D0054
:1035800028B9002084F83C00204600F00DF8022005
:1035900084F83D00211D206801F0DEFB012084F845
:1035A0003D000020E9E7000038B504461C492068CA
:1035B000884218D100BF002000901A48006840F0EF
:1035C0000200184908600846006800F002000090F8
:1035D00000BF00BF002201211D20FEF769FE1D2053
:1035E000FEF756FE1BE010492068884217D100BF45
:1035F000002000900B48006840F004000949086072
:103600000846006800F00400009000BF00BF0022E0
:1036100002211E20FEF74CFE1E20FEF739FE38BDAB
:10362000000400404038024000080040704700009D
:1036300070B504460E4601223146206801F0F8FBC1
:103640000F492068884203D00E492068884201D182
:10365000012000E0002028B12068406C40F40040C8
:10366000216848642068806800F00705062D05D0B1
:103670002068006840F0010021680860002070BDEB
:10368000000001400004014010B504460548844292
:1036900002D1FDF7F9FC04E00348844201D100F0B7
:1036A000B7FA10BDC404002004050020704700BF15
:1036B000FEE7000010B52DED028B0446B0EE408A07
:1036C000B0EE480A2146034800F0FEFEBDEC028B36
:1036D00010BD00005C01002010B5B7EE000A02200A
:1036E000FFF7E8FF10BD000010B5024800F004F835
:1036F00010BD00005C01002010B504461049E068D0
:103700000968081A00EE100AB8EE400AD4ED010A62
:103710009FED0C1A60EE810AB4EEE00AF1EE10FAA9
:1037200001DB012000E0002040B105480068E060B6
:103730002078022802D1204600F006F810BD0000D3
:10374000B002002000007A4410B50446607808B941
:10375000012000E00020607060782169884710BD7A
:1037600010B501F0D1FA10BD704700001FB5002060
:1037700000900190029003902148224908604FF484
:103780008030486000211F488160012101610021D3
:10379000017680F82010C1621B4981620021C1605E
:1037A0000321C161012180F8301000214161FDF742
:1037B000A3FF08B1FDF710FC00200090012001904C
:1037C0000020029069460F48FDF7CCFE08B1FDF7D6
:1037D00003FC012000900220019069460948FDF792
:1037E000C1FE08B1FDF7F8FB022000900320019014
:1037F00069460448FDF7B6FE08B1FDF7EDFB1FBDB5
:1038000000200140440300200100000F10B50E48C5
:103810000E4908602A20486041070C488160002159
:10382000C1604FF4403101614FF4800141610021DA
:10383000017641768176C17601774177FEF7B6F859
:1038400008B1FDF7C9FB10BD00640040EC03002087
:1038500008B500BF002000900A48006840F48000CE
:10386000084908600846006800F48000009000BF26
:1038700000BF002211463820FEF71AFD3820FEF75F
:1038800007FD08BD3038024000B587B0142102A8FA
:10389000FCF7E2FC00BF002001903E48006840F0C9
:1038A00080003C4908600846006800F080000190F4
:1038B00000BF00BF00BF002001900846006840F034
:1038C000010008600846006800F00100019000BF98
:1038D00000BF00BF002001900846006840F00200D1
:1038E00008600846006800F00200019000BF00BFB9
:1038F00000BF002001900846006840F00800086002
:103900000846006800F00800019000BF00BF0022D8
:1039100009152148FEF73CFC0122D1021E48FEF7A2
:1039200037FC002250211D48FEF732FC0122802185
:103930001A48FEF72DFC4FF44060029001200390DE
:1039400004900220059002A91348FEF721FB0F20E6
:103950000290002003900120049002A90F48FEF776
:1039600017FB102002900120039004900020059086
:1039700002A90A48FEF70CFBC02002900120039028
:1039800004900220059002A90448FEF701FB07B04D
:1039900000BD00003038024000040240000C02402C
:1039A00010B51048104908604FF48270486000213B
:1039B0000D4881604FF40061C16000210161012167
:1039C0004161490281611821C161002101624162A6
:1039D00081620A21C162FFF71BF808B1FDF7FCFA0A
:1039E00010BD0000003001401404002010B5104844
:1039F000104908604FF48270486000210D488160D2
:103A00004FF40061C160002101610121416149025F
:103A100081611021C16100210162416281620A213C
:103A2000C162FEF7F5FF08B1FDF7D6FA10BD000040
:103A3000003800406C04002000B589B000200790D9
:103A400008901C216846FCF707FC214821490860C2
:103A50000020486040211F48816041F26701C16039
:103A60000021016180218161FFF783FD08B1FDF72D
:103A7000B3FA202007900020089007A91548FFF707
:103A80003FFB08B1FDF7A8FA6020009000200190EC
:103A900002900490002269460E48FFF7E6FC08B148
:103AA000FDF79AFA042269460A48FFF7DEFC08B1DE
:103AB000FDF792FA082269460648FFF7D6FC08B1DE
:103AC000FDF78AFA0348FFF757FC09B000BD000074
:103AD00000040040C404002000B589B00020079015
:103AE00008901C216846FCF7B7FB21482149086073
:103AF0000020486040211F48816041F26701C16099
:103B00000021016180218161FFF733FD08B1FDF7DC
:103B100063FA202007900020089007A91548FFF7B6
:103B2000EFFA08B1FDF758FA6020009000200190EC
:103B300002900490002269460E48FFF796FC08B1F7
:103B4000FDF74AFA042269460A48FFF78EFC08B1DD
:103B5000FDF742FA082269460648FFF786FC08B1DD
:103B6000FDF73AFA0348FFF707FC09B000BD000073
:103B7000000800400405002000BFFEE7012000F01F
:103B8000C3FC9FED160A00F047FD9FED150A00F0FB
:103B90006BFD9FED130A00F08FFD4FF4FA70FEF7F6
:103BA000E3F9002406E000F053FA6420FEF7DCF9A4
:103BB000601CC4B20A2CF6DB9FED0A0A00F02CFD53
:103BC0009FED080A00F050FD9FED060A00F074FD1D
:103BD000002000F099FC00BFFEE7000000008C42CE
:103BE000000020420000000010B52DED028BB0EE69
:103BF000408AF0EE608AF0EE680AB0EE480A0348A8
:103C000000F09AFEBDEC028B10BD00007001002098
:103C100010B5032202490348FDF706FE10BD00005F
:103C2000440500204403002010B501210A4800F09B
:103C30001EFCDFED0A1A9FED0A1ADFED0A0A9FED5E
:103C4000090A054800F0FDFBDFED050A9FED040AB7
:103C5000014800F007FC10BDC00000206991DD4064
:103C6000000000000AD7233C10B50248FDF7B5F963
:103C700010BD0000C000002010B52DED028BB0EE8D
:103C8000408AF0EE608AF0EE680AB0EE480A034817
:103C900000F0E8FBBDEC028B10BD0000C00000206E
:103CA00010B52DED028BB0EE408AF0EE608AF0EE9A
:103CB000680AB0EE480A034800F03EFEBDEC028BF5
:103CC00010BD0000BC010020704710B52DED028B27
:103CD0000446D4ED050AB0EE600A01F03FFED4EDD3
:103CE000170A20EE208AD4ED050AB0EE600A01F032
:103CF0007DFED4ED200A00EEC08A84ED0E8AD4ED5C
:103D0000050AB0EE600A01F071FED4ED170A20EE4C
:103D1000208AD4ED050AB0EE600A01F01FFED4ED52
:103D2000200A00EE808A84ED0F8ABDEC028B10BD64
:103D300010B52DED028B0446D4ED050AB0EE600AF5
:103D400001F00CFED4ED0A0A20EE208AD4ED050A1B
:103D5000B0EE600A01F04AFED4ED0B0A00EE808A54
:103D600084ED0D8AD4ED050AB0EE600A01F03EFE46
:103D7000D4ED0A0AF1EE600A20EE208AD4ED050A9D
:103D8000B0EE600A01F0EAFDD4ED0B0A00EE808A85
:103D900084ED0C8ABDEC028B10BD704710B5FFF7A7
:103DA0009BFCFFF741FF00F027FD00F041F810BD3C
:103DB00010B51B4804681B480068401C844203D3AC
:103DC00000F05AF81748046015480468164800685F
:103DD00000F57A7084421CD314480088801D00B21C
:103DE000124908800846B0F90000B0F5B47F01DB45
:103DF000002008800D48B0F90000C0F1B40000EECA
:103E0000900AF8EEE00AB0EE600A00F0AFFB064858
:103E10000460FFF769FC00F00DFD00F025F810BD0F
:103E2000100000201C0000202000002018000020AE
:103E300010B5B7EE000A094800F0A8FB9FED081A7C
:103E4000DFED080A9FED060A044800F0A5FB9FED90
:103E5000050A024800F0A7FB10BD00003002002058
:103E6000295C8F3D0000000010B5024800F09EF86C
:103E700010BD00003002002010B5024800F0BAF872
:103E800010BD00003002002010B50446606B804772
:103E900084ED060A94ED060AD4ED050A30EE600AB8
:103EA00084ED060A94ED060ADFED3C0AB4EEE00A62
:103EB000F1EE10FA08DD94ED060ADFED390A30EE76
:103EC000600A84ED060A10E094ED060ADFED350A7B
:103ED000B4EEE00AF1EE10FA07D294ED060ADFED37
:103EE000300A30EE200A84ED060A94ED060ADFED72
:103EF0002E0A30EEC00A84ED070A94ED020AD4EDD2
:103F0000070A20EE200AD4ED070A94ED081A70EE95
:103F1000C10A94ED031A01EE200AD4ED040A94EDCF
:103F2000091A00EE810A84ED0A0A94ED070A84ED6D
:103F3000080A94ED090AD4ED070A30EE200A84ED50
:103F4000090A94ED0A0AD4ED0B0AB4EEE00AF1EE88
:103F500010FA04DD94ED0B0A84ED0A0A10E094EDEA
:103F60000A0AD4ED0B0AF1EE600AB4EEE00AF1EEB3
:103F700010FA05D294ED0B0AB1EE400A84ED0A0A5C
:103F8000207818B99FED080A84ED0A0AD4ED0A0AD0
:103F9000B0EE600AA06B804710BD00000000344303
:103FA0000000B443000034C30000000010B5044614
:103FB0000E4960680968081A00EE100AB8EE400A57
:103FC000D4ED0C0A9FED0A1A60EE810AB4EEE00A05
:103FD000F1EE10FA01DB012000E0002028B10348D7
:103FE000006860602046FFF74FFF10BDC40200204C
:103FF00000007A4410B52DED028B044694ED060ABC
:1040000010EE101A0846FCF7B5F941EC180B53EC0A
:10401000182B0AA001F016F894ED050A10EE101AFC
:104020000846FCF7A7F941EC180B53EC182B05A038
:1040300001F008F8BDEC028B10BD0000353A256692
:104040000D0A0000363A25660D0A000070477047D9
:1040500010B5024800F028F810BD0000080200204A
:1040600010B5024800F020F810BD00001C0200202E
:1040700008B54FF47A73012269460348FEF78CFDB8
:10408000BDF8000008BD00001404002008B54FF47E
:104090007A73012269460348FEF77EFDBDF80000F1
:1040A00008BD00006C04002070B52DED028B0446A5
:1040B0004FF6FF7500206168884701202169884715
:1040C00048F22100A1688847E06880470546012042
:1040D00061688847C5F30E0500EE105AB8EE400A35
:1040E0009FED0F1AC0EE010A9FED0E0A20EE800A26
:1040F000B0EE408A94ED000A38EE400AB0EE408AF5
:10410000B5EEC08AF1EE10FA05D29FED060A38EE40
:10411000000AB0EE408AB0EE480ABDEC028B70BDDA
:1041200000FEFF460000B4432DE9F04704468946EF
:10413000164600F085FF04EB4401564800EBC10031
:10414000007D00F00300022827D004EB4401514811
:1041500000EBC100D0F8108004EB44014D4800EBA7
:10416000C100C068A8EB0000451E002D06DA04EB74
:104170004401484800EBC10080680544AE420CDDB4
:1041800004EB4401434800EBC100007D00F0030054
:1041900010B90020BDE8F0872E460EB90020F9E7DF
:1041A000002700BF04EB44013A4800EBC100D0F8FF
:1041B000108004EB4401374800EBC100C068A8EB55
:1041C0000000451E002D06DA04EB4401314800EBE7
:1041D000C1008068054404EB44012E4800EBC10097
:1041E00004EB440281682B4800EBC200C068081A47
:1041F000A84201DD28460CE004EB4401254800EB11
:10420000C10004EB44028168224800EBC200C06890
:10421000081A0546B54201DA284600E03046054650
:1042200004EB44021B4901EBC20104EB44034A685E
:10423000184901EBC301C96850182A464946FBF7E3
:10424000F2FF2F44A944761B04EB4401114800EB14
:10425000C100C068411904EB44020E4800EBC200E3
:10426000C16004EB44010B4800EBC100C16804EBE2
:104270004402084800EBC2008068814206D1002158
:1042800004EB4402034800EBC200C160002E89D158
:1042900038467FE7E0020020F8B504460E46154692
:1042A0006068B0F5827F0DD1A068B0F5004F03D0F3
:1042B000A068B0F5806F05D12068006820F040004C
:1042C000216808606068B0F5827F1FD1A068B0F5F2
:1042D000806F0DD03346002280212046009500F0EB
:1042E0005BF808B3606D40F0200060650320F8BD06
:1042F0003346002201212046009500F04DF898B188
:10430000606D40F0200060650320F0E73346002236
:1043100001212046009500F03FF828B1606D40F083
:10432000200060650320E2E70020E0E77CB504465A
:104330000D461646164800681821B0FBF1F01549E5
:10434000B0FBF1F04FF47A71484301906068B0F52A
:10435000827F0DD12B46002280212046009600F05E
:104360001BF898B1606D40F02000606503207CBDB3
:1043700000BF019800B908E00198401E0190206834
:104380008068C0F3C0100028F3D100BF0020EEE722
:104390000C00002040420F002DE9F04104460E467B
:1043A00017461D46DDF818803EE0681CD8B3FDF7BF
:1043B000F5FEA0EB0800A84200D2A5BB206840682B
:1043C00020F0E000216848606068B0F5827F0DD180
:1043D000A068B0F5004F03D0A068B0F5806F05D19C
:1043E0002068006820F0400021680860A06AB0F5ED
:1043F000005F0DD100BF2068006820F400502168E4
:1044000008602068006840F400502168086000BF20
:10441000012084F8510000BF002084F8500000BF44
:104420000320BDE8F081FFE7206880683040B0429B
:1044300001D1012000E00020B842B6D10020F0E711
:10444000704780ED100AC0ED110A80ED121AC0ED20
:10445000181A80ED190AC0ED1A0A80ED1B1AC0ED7A
:10446000211A704780ED020AC0ED010A704770B54D
:1044700004460D4625702078D4F88810884770BD12
:104480000221017080ED010A704710B5044600203A
:104490002070227A0AB9012200E000221046216928
:1044A000884710BD10B5044601202070207A21698C
:1044B000884710BD10B50446224610210148FDF77B
:1044C00067FE10BD000C024070B52DED028B054655
:1044D0000C46B0EE408A24B1012C06D0022C0ED13D
:1044E00007E02846FFF7D1FF09E02846FFF7DAFF8B
:1044F00005E0B0EE480A2846FFF7C2FF00BF00BF44
:10450000BDEC028B70BD000010B5044622464FF48E
:1045100080610248FDF73CFE10BD0000000402402F
:1045200010B50446224640210148FDF731FE10BD7A
:10453000000C024010B52DED028BB0EE408AF0EE7B
:10454000480A9FED030AFFF797FBBDEC028B10BDF5
:104550000000000010B52DED028BB0EE408AB0EEE9
:10456000480A00F039F8BDEC028B10BD10B52DEDF6
:10457000028BB0EE408AB0EE480A034800F013F810
:10458000BDEC028B10BD000030020020FCEEC00A22
:1045900010EE901A0170704780ED020AC0ED040A17
:1045A00080ED031A704780ED050A704710B5044688
:1045B00022464FF400610248FDF7EAFD10BD0000FD
:1045C0000004024010B50446224680210148FDF750
:1045D000DFFD10BD000C024010B52DED028BB0EEDA
:1045E000408AB0EE480A034800F013F8BDEC028B95
:1045F00010BD00006C020020FCEEC00A10EE901A04
:104600000170704780ED020AC0ED040A80ED031AC4
:10461000704780ED050A7047B5EEC00AF1EE10FA5A
:1046200003D2DFED0D0AB0EE600ADFED0C0AB4EE46
:10463000E00AF1EE10FA03DDDFED080AB0EE600AE1
:10464000DFED070A60EE200AFCEEE00A10EE900AA9
:104650000449096848637047000000000000C84230
:1046600000002842C4040020B5EEC00AF1EE10FAA2
:1046700003D2DFED0D0AB0EE600ADFED0C0AB4EEF6
:10468000E00AF1EE10FA03DDDFED080AB0EE600A91
:10469000DFED070A60EE200AFCEEE00A10EE900A59
:1046A0000449096888637047000000000000C842A0
:1046B00000002842C4040020B5EEC00AF1EE10FA52
:1046C00003D2DFED0D0AB0EE600ADFED0C0AB4EEA6
:1046D000E00AF1EE10FA03DDDFED080AB0EE600A41
:1046E000DFED070A60EE200AFCEEE00A10EE900A09
:1046F00004490968C8637047000000000000C84210
:1047000000002842C4040020B5EEC00AF1EE10FA01
:1047100003D2DFED0D0AB0EE600ADFED0C0AB4EE55
:10472000E00AF1EE10FA03DDDFED080AB0EE600AF0
:10473000DFED070A60EE200AFCEEE00A10EE900AB8
:104740000449096848637047000000000000C8423F
:104750000000284204050020B5EEC00AF1EE10FA70
:1047600003D2DFED0D0AB0EE600ADFED0C0AB4EE05
:10477000E00AF1EE10FA03DDDFED080AB0EE600AA0
:10478000DFED070A60EE200AFCEEE00A10EE900A68
:104790000449096888637047000000000000C842AF
:1047A0000000284204050020B5EEC00AF1EE10FA20
:1047B00003D2DFED0D0AB0EE600ADFED0C0AB4EEB5
:1047C000E00AF1EE10FA03DDDFED080AB0EE600A50
:1047D000DFED070A60EE200AFCEEE00A10EE900A18
:1047E00004490968C8637047000000000000C8421F
:1047F000000028420405002010B5B7EE000A094861
:10480000FFF7FAFE9FED081ADFED080A9FED080A90
:104810000448FFF7F7FE9FED040A0248FFF7F9FE90
:1048200010BD00006C020020000000006F12033B6E
:10483000CDCCCC3D10B5024800F05AF810BD0000B8
:104840006C02002010B50446606B804784ED060AB8
:1048500094ED050AD4ED060A30EE600A84ED070AED
:1048600094ED070AD4ED080A30EE600AD4ED020A8E
:1048700020EE200AD4ED040A94ED071A00EE810A16
:10488000D4ED0A0A30EE200A84ED0A0A94ED070AF4
:1048900084ED080A94ED0A0AD4ED0B0AB4EEE00A9E
:1048A000F1EE10FA04DD94ED0B0A84ED0A0A10E033
:1048B00094ED0A0AD4ED0B0AF1EE600AB4EEE00AB8
:1048C000F1EE10FA05D294ED0B0AB1EE400A84ED38
:1048D0000A0A207818B99FED050A84ED0A0AD4ED7A
:1048E0000A0AB0EE600AA06B804710BD000000000D
:1048F00010B504460E4960680968081A00EE100AEF
:10490000B8EE400AD4ED0C0A9FED0A1A60EE810A57
:10491000B4EEE00AF1EE10FA01DB012000E0002025
:1049200028B10348006860602046FFF78BFF10BD88
:10493000C002002000007A4410B52DED028B044621
:10494000F0EE408AB0EE608AC4ED008A84ED018A00
:10495000204600F0D5F82046FCF7BCFC204600F0CD
:1049600003F8BDEC028B10BD10B5044694F83C0072
:10497000072820D2DFE800F0AC04203C58749000F7
:1049800094ED090AD4ED0B0A30EE200AD4ED0C0A9E
:1049900030EE200A574880ED000A94ED0B0AD4ED62
:1049A0000C0A30EE200A544880ED000A94ED0C0AFF
:1049B000524880ED000A8BE094ED0B0AD4ED0C0A0E
:1049C00030EE200A4B4880ED000A94ED070AD4ED42
:1049D0000B0A30EE200AD4ED0C0A30EE200A4648CD
:1049E00080ED000A94ED0C0A444880ED000A6FE067
:1049F00094ED0C0A3F4880ED000A94ED070AD4EDCF
:104A0000080A30EE200AD4ED0C0A30EE200A3A48AB
:104A100080ED000A94ED080AD4ED0C0A30EE200A6D
:104A2000364880ED000A53E094ED0C0A314880EDE1
:104A3000000A94ED080AD4ED0C0A30EE200A2E4844
:104A400080ED000A94ED060AD4ED080A30EE200A43
:104A5000D4ED0C0A30EE200A284880ED000A37E039
:104A600094ED0A0AD4ED0C0A30EE200A214880EDBC
:104A7000000A94ED0C0A204880ED000A94ED060A25
:104A8000D4ED0A0A30EE200AD4ED0C0A30EE200AEA
:104A90001A4880ED000A1BE094ED090AD4ED0A0AD9
:104AA00030EE200AD4ED0C0A30EE200A114880EDD9
:104AB000000A94ED0C0A104880ED000A94ED0A0AF1
:104AC000D4ED0C0A30EE200A0C4880ED000A00BF3D
:104AD00000BF0849206C91ED000A80470649606CD0
:104AE00091ED000A80470549A06C91ED000A8047CE
:104AF00010BD0000B4020020B8020020BC0200205B
:104B000070B590ED010A80ED020AD0ED010AB0EE19
:104B1000001A80EE810AD0ED000A9FED2E1A10EEE9
:104B2000810A80ED030AD0ED010AB0EE001A80EE92
:104B3000810AD0ED000AF1EE600A9FED261A10EE10
:104B4000810A80ED040A90ED020AB5EEC00AF1EE8A
:104B500010FA01DD012100E0002190ED030AB5EE1D
:104B6000C00AF1EE10FA01DD012200E0002290ED12
:104B7000040AB5EEC00AF1EE10FA01DD012300E0EF
:104B800000239D00022606FB02550D44ECB2072CC3
:104B90001DD2DFE804F01C081804100C14000125D5
:104BA00080F83C5013E0022580F83C500FE00325CC
:104BB00080F83C500BE0042580F83C5007E00525C8
:104BC00080F83C5003E0062580F83C5000BF00BF51
:104BD00070BD00002DB25D3F10B50B480068401C51
:104BE0000949086009480068401C084908600848ED
:104BF0000068401C0649086006480068401C0549DA
:104C00000860FDF7D1FA10BD10000020B0020020AE
:104C1000C0020020C402002000B593B0302107A8D4
:104C2000FBF71AFB142102A8FBF716FB00BF0020BC
:104C300001902448006840F08050224908600846EE
:104C4000006800F08050019000BF00BF00BF00204E
:104C500001901D48006840F480401B4908600846E8
:104C6000006800F48040019000BF00BF0120079061
:104C70000004089002200D9041050E9104210F912F
:104C8000A8211091022111910421129107A8FDF78A
:104C90007BFC08B1FCF7A0F90F20029002200390E2
:104CA000002004904FF4A05005904FF480500690DF
:104CB000052102A8FDF74EFB08B1FCF78DF913B0F2
:104CC00000BD000040380240007000400548006808
:104CD00040F47000034908604FF0006001498039DA
:104CE0000860704788ED00E010B50248FEF778FADA
:104CF00010BD0000C404002010B50248FEF770FA91
:104D000010BD00000405002010B500211048FEF77A
:104D10008FFC04210E48FEF78BFC08210C48FEF79F
:104D200087FC00200A4909684863094909688863C3
:104D300007490968C8639FED070AFFF7E5FC9FED87
:104D4000050AFFF709FD9FED030AFFF72DFD10BDD2
:104D5000040500200000000010B50268294B9842AD
:104D60000ED0B0F1804F0BD0274B984208D0274B84
:104D7000984205D0264B984202D0264B984203D148
:104D800022F070024B681A431E4B984220D0B0F1BB
:104D9000804F1DD01C4B98421AD01C4B984217D004
:104DA0001B4B984214D01B4B984211D01A4B98427F
:104DB0000ED01A4B98420BD0194B984208D0194B81
:104DC000984205D0184B984202D0184B984203D114
:104DD00022F44072CB681A4322F080034C6943EA04
:104DE000040202608B68C3620B688362054B9842C1
:104DF00002D0084B984201D10B6903630123436140
:104E000010BD000000000140000400400008004008
:104E1000000C0040000401400040014000440140FB
:104E20000048014000180040001C004000200040E5
:104E300030B501F01F05012404FA05F3046A9C4310
:104E40000462046A01F01F0502FA05F52C430462AE
:104E500030BD000030B5056A25F001050562026A23
:104E60004368846924F0700424F003040D682C4323
:104E700022F002028D682A43104DA84200D103E0BF
:104E80000F4DA84206D100BF22F00802CD682A4388
:104E900022F00402094DA84202D0094DA84207D1D0
:104EA00023F4807323F400734D692B438D692B43E6
:104EB000436084614D684563026230BD000001407B
:104EC0000004014030B5056A25F010050562026A4C
:104ED0004368846924F4E04424F440740D6844EA8F
:104EE000052422F020028D6842EA0512124DA842E4
:104EF00000D103E0114DA84207D100BF22F080028B
:104F0000CD6842EA051222F040020B4DA84202D0C1
:104F10000A4DA84209D123F4806323F400634D694C
:104F200043EA85038D6943EA8503436084614D68E4
:104F30008563026230BD00000000014000040140B2
:104F400030B5056A25F480750562026A4368C46954
:104F500024F0700424F003040D682C4322F4007242
:104F60008D6842EA0522124DA84200D103E0114D9E
:104F7000A84207D100BF22F40062CD6842EA0522B0
:104F800022F480620A4DA84202D00A4DA84209D1FB
:104F900023F4805323F400534D6943EA05138D69CC
:104FA00043EA05134360C4614D68C563026230BDC6
:104FB000000001400004014030B5056A25F4805529
:104FC0000562036A4468C26922F4E04222F4407236
:104FD0000D6842EA052223F400538D6843EA053345
:104FE000084DA84202D0084DA84204D124F48044C0
:104FF0004D6944EA85144460C2614D6805640362EA
:1050000030BD0000000001400004014000BFFEE789
:1050100001B54FF47A73012269460248FDF76EFE2E
:1050200008BD00001404002001B54FF47A7301227A
:1050300069460248FDF762FE08BD00006C040020CE
:10504000704700000FB4054B10B503A9044A02983D
:1050500000F000F910BC5DF814FB00009D5A000838
:105060004003002002480068C0F30220704700009F
:105070000CED00E010B5002804DB0A07130E054A0A
:10508000135406E00A07140E034A00F00F031B1F17
:10509000D45410BD00E400E018ED00E02DED020B4B
:1050A000019820F0004001909DED000B02B0704788
:1050B00002E008C8121F08C1002AFAD170477047E1
:1050C000002001E001C1121F002AFBD1704700003F
:1050D0002DE9FF5F82B00021DDE90430020DDDF82B
:1050E00040B0034318D044F61050A2F2FF324243BE
:1050F0001514119801281FD0A5EB0B00401C5FEA86
:10510000000A4FF000064E4FDFF83891B046504687
:1051100015D5CAF1000413E0119801244AA301280F
:1051200001D16FEA0B010298119AC0E90031C0E980
:10513000024206B0BDE8F09FCBF10000DFE7044675
:105140000021404A491842EB0450CDE9001012E01A
:10515000E00707D032463B4640464946FBF787F812
:105160008046894632463B4610461946FBF77FF893
:1051700006460F466410002CEAD1DDE90401DDE9A2
:105180000023BAF1000F06DAFBF771F842464B46EE
:10519000FBF76DF805E0FBF7BDFA42464B46FBF71F
:1051A000B9FA04460E460022284BFBF70FF903D844
:1051B0004FF0FF30014607E00022254B20463146E4
:1051C000FBF701FAFBF715FB102409E0002C0ADBC2
:1051D0000A220023FAF7F6FF039B30321A55641EA9
:1051E00050EA0102F2D1641C039AC4F11103144481
:1051F000119A012A03D0012208430DD10AE0084385
:1052000004D000204FF0110B119072E7A3EB0B05B7
:105210006D1E0DE05B4504DD4FF0000205F1010558
:1052200004E003DA4FF00002A5F10105002AECD0FA
:1052300002981199C0E90231C0E9004579E7000000
:10524000000014400000F03F300000000000F04378
:105250000000E03F2DE9FF4F95B09A46884606468C
:105260000025EEE1252877D100242746F94A0121BF
:10527000039400E0044316F8013F203B01FA03F0D9
:105280001042F7D130782A2811D06FF02F033078F0
:10529000A0F13002092A16D8039A44F0020402EB66
:1052A000820203EB42021044761C0390EFE758F8A9
:1052B000042B0392002A03DA504244F40054039072
:1052C00044F00204761C30782E2816D116F8010F0F
:1052D00044F004042A280DD06FF02F023078A0F19A
:1052E0003003092B09D807EB870302EB4303C718E8
:1052F000761CF3E758F8047B761C30786C280FD0C6
:1053000006DC4C2817D068280DD06A2814D104E098
:10531000742810D07A280FD10DE044F400140AE06C
:1053200044F4801401E044F440147278824202D1C3
:1053300004F58014761C761C307866280BD013DCBC
:10534000582877D009DC002875D04528F6D04628A3
:10535000F4D047281AD193E118E0632835D06428A7
:1053600079D0652812D18BE1702873D008DC6728CA
:10537000F1D069286FD06E280DD06F2806D1ACE02F
:1053800073282CD0752874D0782853D0524617999A
:1053900090476D1C54E1C4F30250022809D0032841
:1053A0000DD0D8F8001004280DD00D6008F10408C5
:1053B00046E1D8F80010EA17C1E90052F6E7D8F83C
:1053C00000100D80F2E70D70F0E718F8041B8DF85F
:1053D000001000208DF80100EB46012003E058F892
:1053E00004BB4FF0FF3061074FF0000102D40DE025
:1053F00009F101018946B9420FDA8145F8DB1BF852
:1054000009100029F4D108E009F10101894681421F
:10541000FADB1BF809100029F6D103985346A0EBDC
:10542000090721463846179A00F080FA284400EB15
:10543000090507E044E008E10DE01BF8010B5246C6
:1054400017999047B9F10109F7D2534621463846DA
:10545000179AF2E039E00A21C4F302524FF0000B30
:105460000091022A06D058F8040BC117032A09D06C
:105470000AE023E008F1070020F00702F2E8020149
:10548000904605E000B2C117042A01D140B2C1170D
:10549000002906DA0A460021404261EB02012D2272
:1054A00002E0220504D52B228DF80420012203E01E
:1054B000E20701D02022F7E7914657E00A2100E0F9
:1054C00010214FF0000B00910BE010214FF0000B6A
:1054D00044F004040827009103E008204FF0000B7B
:1054E0000090C4F30252022A05D058F8040B0021A0
:1054F000032A08D008E008F1070020F00702F2E8CC
:105500000201904603E080B2042A00D1C0B24FF0FD
:10551000000922072AD53278702A07D0DDF800C0AA
:105520008CF0100C5CEA0B0C05D00EE040228DF8DC
:105530000420012208E050EA010306D030238DF850
:1055400004308DF8052002229146009B83F0080369
:1055500053EA0B030AD150EA010201D1620705D5D3
:1055600030228DF804204FF001097F1E3278582A2E
:1055700004D039A20C920CAA02920BE03BA2F9E7EC
:105580005B46009AFAF71EFE0C9B9B5C029A521E29
:105590000292137050EA0102F2D1029804A9081A8B
:1055A00000F1200B600702D524F4803400E00127CD
:1055B0005F4502DDA7EB0B0000E0002000EB0B01D4
:1055C000009003984944401A0390E00306D45346E0
:1055D0002146179A039800F0A9F90544002706E030
:1055E00001A85246C05D179990476D1C7F1C4F451E
:1055F000F6DBE0030CD553462146179A039800F0DA
:1056000095F9054404E030205246179990476D1CE7
:105610000099481E00900029F5DC08E002980299E4
:1056200052460078491C0291179990476D1CBBF1B6
:105630000001ABF1010BF1DC5BE100F065F9054421
:10564000761C307800287FF40DAE19B02846BDE8EE
:10565000F08F0000092801003031323334353637FD
:1056600038396162636465660000000030313233AE
:10567000343536373839414243444546000000004E
:10568000600700D4062708F1070020F00700F0E8C3
:105690000223804603F0004C5FEA0C0001D097A083
:1056A00009E0200501D596A005E0E00701D095A00E
:1056B00001E0AFF24C001390307823F000436528EE
:1056C0000CD006DC452809D046281DD047287FD1BC
:1056D0003BE0662818D067287AD136E00021112FE8
:1056E00001DB112000E0781CCDE9000104A90CA821
:1056F000FFF7EEFCDDE90D010C9A4FF0000B07F10E
:105700000109109200914EE04FF000400097CDE962
:10571000011004A90CA8FFF7DBFCDDE90D020C9BCE
:105720000F994FF0000B91461093009211B9791C1C
:1057300000EB0109B7EB090003D4C0F1FF3B07F10F
:105740000109A9EB0700019042E0012F00DA0127CF
:105750000021112F01DD112000E03846CDE90001C4
:1057600004A90CA8FFF7B4FCDDE90D010C9A009127
:105770004FF0000BB946109221070FD4009A4A450A
:1057800003DA914601E0A9F10109B9F1010F05DD44
:10579000109AA9F10101515C3029F4D0B84202DA23
:1057A00010F1040F03DA0121CDE9011010E0002807
:1057B00003DC8344A9EB000102E0411C494500DD04
:1057C0008946A0EB0B00401C01904FF00040029076
:1057D000200705D40198484502DB4FF0FF300190C7
:1057E00000208DF84B0002980DF14B07B0F1004FEF
:1057F00025D002200C902B200D90029800280CDA66
:10580000404202902D200D9007E00A210298FAF7FD
:1058100011FE3031029007F8011D0C99481E0C90C2
:105820000029F2DC02980028EFD1791E0D9808704B
:10583000307800F0200040F0450007F8020D11A874
:10584000C01BC01D02901398007800B1012000EB2E
:105850000901019801EBE071029801440398401A94
:10586000401E0390E00306D453462146179A03983E
:1058700000F05CF805441398007818B15246179967
:1058800090476D1CE00323D553462146179A039891
:1058900000F04CF805441BE0BBF1000F07DB00985B
:1058A000584504DD1098179910F80B0001E017997E
:1058B00030205246904701980BF1010B401E05F134
:1058C0000105019004D12E205246179990476D1C76
:1058D000B9F10001A9F10109DEDC05E017F8010BBF
:1058E0005246179990476D1C0299481E0290002954
:1058F000F4DC53462146179A03989EE62D000000DB
:105900002B000000200000002DE9F0410446002596
:105910001E461746880404D405E039462020B047C7
:105920006D1C641EF9D52846BDE8F0812DE9F041D3
:10593000044600251E469046C80301D5302700E0E6
:105940002027880404D505E041463846B0476D1C41
:10595000641EF9D52846BDE8F0810000B0EE402A6B
:105960009FED1F4AF5EE003A42EE043AF0EE630A6C
:10597000FDEEE03A13EE901AF5EEC00AF1EE10FAE1
:1059800000D2491E03EE901AF8EEE33A70EEE33AC5
:10599000F0EE630ADFED133A60EEA31AFCEEE13A93
:1059A00013EE902AC2F3080003EE900AF8EE633A71
:1059B00031EEE31A0C4A02EB8002D2ED002A0A4BC8
:1059C000421C03EB820292ED003AF7EE003A73EECE
:1059D000C13A63EEA23AB0EE630A01EE030A7047E1
:1059E00083F9223E000000444C5B0008F0EE400AC0
:1059F000F5EEC00AF1EE10FA09D29FED240AF4EE9A
:105A0000C00AF1EE10FA02DBB0EE600A70479FEDBB
:105A1000200A20EE801ABDEEC10A10EE101AF5EE33
:105A2000C00AF1EE10FA00D2491E00EE101AB8EECC
:105A3000C00A31EE400AB0EE401A9FED160A21EE80
:105A4000002ABCEEC20A10EE102AC2F3080000EED3
:105A5000100AB8EE400A72EE401A0F4A02EB8002BA
:105A600092ED003A0C4B421C03EB8202D2ED003A5D
:105A7000B7EE000A30EE610A20EE030AF0EE402A8B
:105A800041EEA32AB0EE620AC0E70000CD024CB49A
:105A900083F9223E000000444C5B000838B5044600
:105AA0000D46E0B20090012269460020FEF73CFB63
:105AB0009DF8000038BDFCF783FBFFF7ADF8FDF75C
:105AC000E3FEFDF7C5FEFDF751FEFDF769FFFDF7AB
:105AD0008DFFFDF79BFEFDF7AFFFFDF7FDFFFAF72A
