:020000040800F2
:10000000D00B0020A1010008A12D00081D2A000826
:10001000852D00080D0B0008053A000800000000BF
:100020000000000000000000000000001D3000087B
:10003000650D000800000000A32D000851350008E0
:10004000BB010008BB010008BB010008BB010008A0
:10005000BB010008BB010008BB010008BB01000890
:10006000BB010008BB010008BB010008BB01000880
:10007000BB010008BB010008BB010008BB01000870
:10008000BB010008BB010008BB010008BB01000860
:10009000BB010008BB010008BB010008670D000898
:1000A000BB010008BB010008BB01000819360008AD
:1000B000BB010008BB010008BB010008BB01000830
:1000C000BB010008BB010008BB010008BB01000820
:1000D000BB010008BB010008BB010008BB01000810
:1000E000BB010008BB010008BB010008BB01000800
:1000F000BB010008BB010008BB010008BB010008F0
:10010000BB010008BB010008BB010008BB010008DF
:10011000BB010008BB010008BB010008BB010008CF
:10012000A90C0008BB010008BB010008BB010008C6
:10013000BB0100080000000000000000BB01000837
:10014000BB010008BB010008BB010008BB0100089F
:10015000BB010008BB010008BB010008BB0100088F
:10016000BB010008BB010008BB010008BB0100087F
:10017000BB010008BB0100080000000000000000F7
:10018000BB010008BB010008DFF810D000F00EFB37
:100190000048004709430008AFF30080D00B00205F
:1001A0000648804706480047FEE7FEE7FEE7FEE711
:1001B000FEE7FEE7FEE7FEE7FEE7FEE7FD350008A7
:1001C000890100089FED1A1AF5EE000A40EE010AB7
:1001D000BDEEE00AF5EEC00A10EE100AF1EE10FADC
:1001E00038BF401E00EE100A1349F7EE001AB8EEB1
:1001F000C00A30EEC00ADFED0F0A20EE200AFCEE46
:10020000C00A10EE900AC0F3080000EE900A01EB5D
:100210008000F8EE600A90ED011A70EE600A90ED31
:10022000000A71EEE01A21EE800A00EE810A7047A2
:1002300083F9223E000000444C430008B5EEC00A9A
:10024000F1EE10FA07D2DFED1E0AB4EEE00AF1EE8D
:1002500010FAA8BF7047DFED1B0AB5EEC00A60EECA
:10026000200ABDEEE01A11EE100AF1EE10FA38BFC6
:10027000401E00EE100A1549F7EE001AB8EEC00A4B
:1002800030EEC00ADFED100A60EE200ABCEEE00A94
:1002900010EE100AC0F3080000EE100A01EB800017
:1002A000B8EE400A90ED011A70EEC00A90ED000A17
:1002B00071EEE01A21EE800A00EE810A704700001C
:1002C000CD024CB483F9223E000000444C430008A8
:1002D0002DE9F05F0546002092469B46884606467B
:1002E000814640241BE0284641464746224600F00E
:1002F00094F853465A46C01A914110D311461846F5
:10030000224600F07BF82D1A67EB01084F46224683
:100310000120002100F072F817EB00094E41201E69
:10032000A4F10104DFDC484631462A464346BDE8D5
:10033000F09F40EA01039B0703D009E008C9121FA0
:1003400008C0042AFAD203E011F8013B00F8013B8F
:10035000521EF9D27047D2B201E000F8012B491EBB
:10036000FBD270470022F6E710B513460A46044652
:100370001946FFF7F0FF204610BD00F0004230F0B4
:1003800000400AD0C10D01F56071C0F3160042EAC9
:100390000151C208400711437047002001467047D1
:1003A00030B5041E71F1000404DB4FF000444042FC
:1003B00064EB0101141E73F1000405DB1C464FF0D1
:1003C0000043524263EB04038B4208BF824230BDBC
:1003D00030B50B46014600202022012409E021FA15
:1003E00002F59D4205D303FA02F5491B04FA02F512
:1003F0002844151EA2F10102F1DC30BD202A04DBE5
:10040000203A00FA02F1002070479140C2F1200327
:1004100020FA03F3194390407047202A04DB203A66
:1004200021FA02F00021704721FA02F3D040C2F114
:10043000200291400843194670472DE9FE4F80463F
:1004400081EA0300C00F0C46009021F0004123F028
:100450000045B8EB0200A94105D24046214690462E
:100460001C460B46024623F00040104347D0270DA0
:10047000C7F30A00C3F30A510290401A01904028C2
:100480006BDAC3F3130040F4801B0098924620B14E
:100490000023D2EB030A63EB0B0B01985946C0F122
:1004A00040025046FFF7AAFF06460D465046594601
:1004B000019A00F08DF910EB08006141002487EAF1
:1004C000115284EAE7731A4340D0009A62B3019A4A
:1004D000012A4FEA075215DC001B61EB02014FF0C5
:1004E000004202EA0752CDE90042001C41F58011AA
:1004F00032462B4600F08DF903B0BDE8F08F404640
:100500002146F9E7001B61EB0201001C41F5801355
:1005100000185B412018A2F5001747EB030140EAE1
:10052000D570B6196D4111E06D084FEA360645EAFF
:10053000C0754FEA0752001B61EB0201001C41F538
:10054000801149084FEA30000019514132462B46CC
:1005500003B0BDE8F04F00F04DB900980122400013
:100560000023D0EB020263EBE073009821464FEAD0
:10057000E074B8EB000061EB0401E9E783F00043AD
:100580005BE781F0004158E72DE9FE4F81EA030463
:1005900004F0004421F0004100944FF0000B23F0E0
:1005A000004350EA01045ED052EA03045BD0C3F377
:1005B0000A54C1F30A552C44A4F2F3340194A0FB6D
:1005C0000254C1F3130141F48011C3F3130343F444
:1005D000801301FB024400FB034E840A970A44EA9D
:1005E000815447EA8357A4FB076802958D0A05FBEF
:1005F00007854FEA932C04FB0C542705029D4FEA14
:10060000065847EA1637B5EB08056EEB070C870E60
:10061000920E47EA811742EA8312A7FB0201B6EB6A
:100620000B0164EB00042B0D43EA0C335E1844EB22
:100630001C50DA465146E7FB0201C5F313044FEAAA
:100640000B3343EA14534FEA0432019C43EA060396
:10065000A4F10C040294009CCDE900B400F0D9F898
:1006600003B0BDE8F08F00200146F9E72DE9F04D19
:1006700081EA030404F0004B21F0004514464FF0DA
:10068000000A23F0004150EA050220D054EA01029A
:100690001DD0C5F30A570246C5F31303C1F3130077
:1006A000C1F30A5640F4801543F48013A7EB060803
:1006B000101BD64608F2FD3873EB050002D308F193
:1006C000010801E092185B41B8F1000F03DA002045
:1006D0000146BDE8F08D00204FF4801106468446A7
:1006E0000EE0171B73EB050705D3121B63EB050325
:1006F00006434CEA010C49084FEA300092185B416E
:1007000050EA0107EDD152EA030012D082EA040058
:1007100083EA0501084305D0101BAB4106D2012234
:10072000002306E000224FF0004302E06FF00102D8
:1007300053101AEB06004CEB085110EB0A0041EB8A
:100740000B01BDE8F04D00F055B8C1F30A52C1F3FA
:10075000130140F2FF3341F480119A4202DA002083
:100760000146704740F233439A42A2F2334202DC20
:100770005242FFF752BEFFF741BE000030B5041EE3
:1007800071F1000404DB4FF00044404264EB0101CE
:10079000141E73F1000405DB1C464FF00043524267
:1007A00063EB0403994208BF904230BD064C074DED
:1007B00006E0E06840F0010394E807009847103431
:1007C000AC42F6D3FFF7E4FC5C4B00087C4B00081E
:1007D000202A06DBCB17203A41FA02F043EAE07305
:1007E00006E041FA02F3D040C2F1200291400843F2
:1007F0001946704710B5141E73F1000408DA401C46
:1008000041F1000192185B411A4301D120F001002F
:1008100010BD2DE9F04D92469B4611B1B1FA81F21F
:1008200002E0B0FA80F220329046FFF7E7FD04467E
:100830000F4640EA0A0041EA0B0153465A46084374
:1008400013D0114653EA010019D0C8F140025046B6
:10085000FFF7E3FD05460E46504659464246FFF770
:10086000CDFD084305D0012004E020463946BDE80F
:10087000F08D0020054346EAE0762C4337430A9882
:100880006305E40AA0EB08000022FD0A44EA47548D
:100890000A3002D500200146E9E701051019694137
:1008A000DDE9084500196941BDE8F04DA2E770B5E2
:1008B0008C1810F8015B15F0070301D110F8013B0B
:1008C0002A1106D110F8012B03E010F8016B01F892
:1008D000016B5B1EF9D12B0705D40023521E0DD4EA
:1008E00001F8013BFAE710F8013BCB1A921C03E038
:1008F00013F8015B01F8015B521EF9D5A142D8D370
:10090000002070BD04480168A1F2DE718160416879
:10091000A1F2CC71C1607047A403002002220249F9
:10092000024800F0B1BD0000A40300202402002012
:1009300010B50146806B026C12F0500F05D0026CAE
:10094000D20626D500F028FD10BD016C41F40071DF
:10095000016401688A6812F0405F17D1027EAAB96B
:10096000CA6A12F4700F02D08A6852050ED44A681F
:1009700022F020024A60016C21F480710164016C54
:10098000C90403D4016C41F00101016400F002FDCF
:1009900010BD806BC26CBDE810400846104710B512
:1009A000806B40210164416C41F00401416400F01E
:1009B000F3FC10BD10B5806B00F0EDFC10BD000025
:1009C000464910B54A6822F440324A604A68436892
:1009D0001A434A6001684A6822F480724A600168DA
:1009E0004A68036942EA03224A6001684A6822F0C1
:1009F00040724A6001684A6883681A434A60016825
:100A00008A6822F400628A6001688A68C3681A43AF
:100A10008A60816A6FF07062D14201688A6822F050
:100A200070628A6001688A680CD0836A1A438A609F
:100A300001688A6822F040528A6001688A68C36A45
:100A40001A4301E022F040528A6001688A6822F06D
:100A500002028A6001688A68037E42EA43028A6071
:100A600090F82010002901684A680FD042F4006213
:100A70004A6001684A6822F460424A6001684A6834
:100A8000174C436A04EB43331A4301E022F400623B
:100A90004A600168CA6A22F47002CA620168CA6ABE
:100AA000838B104C04EB03531A43CA6201688A68B3
:100AB00022F400728A6001688A6890F8303042EA55
:100AC00043228A6001688A6822F480628A60016831
:100AD0008A68406942EA8020886010BD0023014096
:100AE00000E0FFFF0000F0FF10B501F098FF02F0FA
:100AF00059F9BDE8104000F023BA10B501F096FF97
:100B000002F05EF9BDE8104000F01BBAFEE710B538
:100B100004462DED028B90ED0C0A80ED120AD0ED0B
:100B2000020AC0ED130A30EEC00A80ED140AD0EDBF
:100B3000150A90ED0F1A70EE600A60EE810A90EDD2
:100B4000101A41EE000A90ED161A70EE810AC0EDFF
:100B5000160A80ED150A94ED170AB0EEC00AB4EE3D
:100B6000E00AF1EE10FA01D284ED160A10EE100A36
:100B7000FFF703FC81F0004141EC180BA06DFFF77B
:100B8000FCFB53EC182BFFF70BFC07D294ED170A74
:100B9000B0EEC00AB1EE400A84ED160ABDEC028B3D
:100BA00010BD10B504462DED028B90ED0B0A80EDC3
:100BB0001B0AD0ED010AC0ED1C0A30EEC00A80ED20
:100BC0001D0AD0ED1E0A90ED181A70EE600A60EE54
:100BD000810A90ED191A41EE000A90ED1F1A70EE8D
:100BE000810AC0ED1F0A80ED1E0A94ED200AB0EEC6
:100BF000C00AB4EEE00AF1EE10FA01D284ED1F0A49
:100C000010EE100AFFF7B9FB81F0004141EC180B20
:100C1000E06FFFF7B2FB53EC182BFFF7C1FB07D2D5
:100C200094ED200AB0EEC00AB1EE400A84ED1F0A2E
:100C3000BDEC028B10BD10B500F120020446111F5F
:100C4000D0F8903018309847207D032814D3D4F87A
:100C50008C00804707280FD2DFE800F00E040F0F4A
:100C60001A1A040094ED070AD4ED080AB1EE400AFE
:100C700030EE600A84ED060A10BD94ED060AD4ED4C
:100C8000080AB1EE400A30EE600A84ED070A10BD92
:100C900094ED060AD4ED070AB1EE400A30EE600A80
:100CA00084ED080A10BD000010B5044800F084FC73
:100CB000FFF728FEBDE8104002F066B86C02002085
:100CC00001681823CAB2103AB2FBF3F2054B6FF376
:100CD0000901032A9B5CC36500D9091D816508468B
:100CE000704700003243000810B5014600208B69B0
:100CF0008A6A4FF0C07453B1B3F5005F15D072B17A
:100D0000012A0CD0022A0AD0032A09D104E01AB120
:100D1000012A06D0022A03D1C96AC90100D50120DF
:100D200010BDC96AA142FAD010BD002AF7D0012A2D
:100D3000F2D0022AF3D0032AF3D010BD30B50468F4
:100D4000256825F480252560046863608368402B4E
:100D5000036803D099600068C26030BD9A60006883
:100D6000C16030BD70474FF4007000F0BDBD7047EA
:100D700010B501202DED028B02F07AF99FED260AC5
:100D800002F0ACF99FED258AB0EE480A02F0CCF9EA
:100D9000B0EE480A02F0EEF94FF4FA7000F07EFD72
:100DA0005FF0000402F01AFE322000F077FD641CB0
:100DB000E4B20A2CF6D39FED1A8AB0EE480A02F08C
:100DC0008DF9B0EE480A02F0AFF9B0EE480A02F031
:100DD000D1F9002002F04CF900F0B4F84FF4FA60B9
:100DE00000F05CFDDFED0F1AB0EE481ADFED0E0AE1
:100DF0009FED0E0A0E4802F012F901210C4802F094
:100E00001FF9F0EE480AB0EE480ABDEC028BBDE8CF
:100E1000104002F0FBB900000000704200002042C8
:100E2000000000006991DD40ACC5A737ACC527388C
:100E30008800002010B504462DED028BD0F8880004
:100E40008047607800EE900A2046F8EE600A20EEB7
:100E5000200ADFED390A84ED030A20EE200A84ED32
:100E6000040AFFF7E8FE94ED060AB0EE001A84EDDE
:100E7000090AD4ED070A00EE810ADFED300A80EEA0
:100E8000201A84ED0A1A94ED040AFFF79BF9D4EDB9
:100E9000090A20EE208A94ED040AFFF7CFF9D4ED79
:100EA0000A0A00EE808A84ED0C8A94ED040AFFF7AA
:100EB00089F9D4ED0A0A20EE208A94ED040AFFF79E
:100EC000BDF9D4ED090A204600EEC08A84ED0B8AF4
:100ED000FFF71DFE2046FFF764FE94ED040AFFF7BE
:100EE00071F9D4ED160A20EE208A94ED040AFFF77A
:100EF000A5F9D4ED1F0A00EEC08A84ED0D8A94EDA9
:100F0000040AFFF79BF9D4ED160A20EE208A94ED2F
:100F1000040AFFF757F9D4ED1F0A00EE808A84ED2A
:100F20000E8A94ED0D0AD4F89400F0EE480ABDEC58
:100F3000028BBDE8104000474DF38E3CD0B3DD3F3F
:100F4000704770470248002101600171704700003E
:100F50001C0000200C49DFED0D0A01EB80019FED24
:100F60000C1A91ED020AB8EEC00A20EE200AD1ED6B
:100F7000040AF8EEE00A00EE810ABDEEC00A10EEA7
:100F8000100A086170470000A4030020CDCC4C3F3C
:100F9000CCCC4C3E00F06CB870B5064615460C46FD
:100FA0000020FFF7D7FF00EE100A0120B8EEC00ABC
:100FB00084ED000AFFF7CEFF00EE100AB8EEC00A7B
:100FC00085ED000AD4ED000AF1EE600A70EEC00A69
:100FD0009FED0D0A20EE801AF7EE080A21EE201A86
:100FE00086ED001A94ED001A21EE001A21EE201A67
:100FF00084ED001A95ED001A21EE000A20EE200A79
:1010000085ED000A70BD0000D578093F10B500F0ED
:101010002FF80E49F0EE400A0D4A81ED000A91EDDD
:10102000011A30EE410A9FED0B1A10EE100A9042A1
:1010300001D930EE010A084A10EE100A904201DD93
:1010400030EE410AC1ED010A10BD00002001002070
:10105000000034C30000B44300003443014800F0F2
:1010600003B800003000002090F8440070470000F2
:1010700000B500F01FF800EE100ADFED0B0A0C4877
:10108000B8EEC00A20EE200ADFED080A20EE200AA2
:1010900080ED010AB5EEC00AF1EE10FA03D230EE8F
:1010A000200A80ED010A00BD000000390000B443B1
:1010B000100000200E480D4902680B68506A184461
:1010C000A0F5E260B0F5005042F210730860536280
:1010D00001D4086802E000F500500860C21700EB78
:1010E000D2426FF30C02801A086070471000002093
:1010F0006403002090F844109FED511AB6EE000AE8
:10110000DFED500A07297BD2DFE801F099041B3399
:101110004A617B00D0ED0D1A90ED102A21EE811A64
:10112000C1EE020A90ED031A20EE811A80ED091A31
:1011300090ED022A31EEC11A60EE820AC0ED0B0A70
:1011400014E090ED0D1A90ED102A61EE201AC1EE18
:10115000820AD0ED031A60EEA11AC0ED071A90EDD5
:10116000042A60EE820AC0ED0B0A2DE071EE600ADF
:101170005FE0D0ED0D0A90ED102A20EE811AC1EE4D
:10118000021A90ED021A21EE811A80ED071A90EDF5
:10119000042A70EEC10A61EE821AC0ED081A46E018
:1011A00090ED0D1A90ED102A61EE201AC1EE820A20
:1011B000D0ED021A60EEA11AC0ED061A90ED032AD6
:1011C00060EE820AC0ED080A31EE611ACEE7D0ED7A
:1011D0000D1A90ED102A61EE810A80EE821AD0ED90
:1011E000040A61EE200AC0ED060A90ED032A71EEB2
:1011F000E00A21EE021A80ED0A1A70EEC10A18E028
:101200001DE090ED0D1A90ED102A61EE200AC0EE5F
:10121000821AD0ED040A61EEA00AC0ED090A90ED31
:10122000022A71EE600A61EE821AC0ED0A1A70EEAF
:10123000E10A20EE800A80ED0C0A80ED050A704775
:101240002DB2DD3F2DB2DDBF78B50024009490F8BB
:101250003C20012A19D0012280F83C200A6807238B
:101260000568092A13D9EE680A3A02EB4202934054
:101270009E43EE600B788A680A3B03EB43039A4077
:101280000368DD682A43DA6010E0022078BD2E6929
:1012900002EB420293409E432E610B788A6803EB77
:1012A00043039A4003681D692A431A614A681F2351
:1012B000072A13D205686E6B521E02EB820293401E
:1012C0009E436E630B790A885B1E92B203EB830325
:1012D0009A4003685D6B2A435A6327E005680D2A2C
:1012E00012D22E6BD21F02EB820293409E432E63DA
:1012F0000B790A88DB1F92B203EB83039A400368E1
:101300001D6B2A431A6311E0EE6A0D3A02EB82026A
:1013100093409E43EE620B790A880D3B92B203EB39
:1013200083039A400368DD6A2A43DA62164B056834
:10133000144A9D4206D10D68122D03D1556845F41B
:101340008005556005689D4218D10B68102B01D0AF
:10135000112B13D1536843F400035360096810291B
:101360000CD10A490A4A0968B1FBF2F101EB81018B
:10137000490000E0491E00910029FBD180F83C4063
:10138000002078BD00230140002001400C00002017
:1013900040420F0070477047704770B504004FF02F
:1013A000000503D0206C002610B107E0012070BDBD
:1013B000204600F01DF8666484F83C60206CC0068E
:1013C00010D4206C20F4885040F0020020642046A5
:1013D000FFF7F6FA6664206C20F0020040F001008E
:1013E000206400E0012584F83C60284670BD0000C0
:1013F00070B586B0064614216846FEF7B3FF1D4956
:101400003068884234D11C480025016841F480715D
:101410000160006800F48070059017481438016876
:1014200041F0040101600068694600F00400059085
:1014300003200090CDE90105104800F061FA114C3D
:101440000F48C4E900050015A560C4E903508000F9
:1014500060618000A0618011E0614002C4E908057C
:10146000204600F079F908B1FFF781FCB463A66368
:1014700006B070BD00200140443802400008024020
:10148000106402406C020020F8B50E4600210446AC
:10149000009190F83C00012807D0012084F83C001E
:1014A00020688368DB0702D011E00220F8BD836862
:1014B00043F0010383603748374B0068B0FBF3F01B
:1014C00000EB400000E0401E00900028FBD12068A7
:1014D0008368DB075CD0236C40F20165AB4343F4C7
:1014E000807323644068400505D5206C20F40050CB
:1014F00040F480502064206CC00404D5606C20F05F
:101500000600606400E0616484F83C10A16B24482C
:10151000224DC863A16B23480864A16B2248C864AC
:1015200021686FF0220008602068416841F0806106
:1015300041602068816841F48071816021681346B0
:1015400032464C31A06B00F071F968681749C0064B
:10155000206806D088421BD1816811F0405F13D00B
:1015600016E08842F8D0124A904203D1D1F8042301
:10157000D206F1D00F4A90420AD1D1F8041301F0FB
:101580001F011029E8D303E0816841F080418160A8
:101590000020F8BD0C00002040420F000023014055
:1015A00031090008B50900089F0900080020014022
:1015B00000210140002201402DE9F84304464FF08C
:1015C0000009CDF8009063484FF41651A56D0068EE
:1015D000B0FBF1F72E6894F85C10082000FA01F1D6
:1015E00031420FD021680A6852070BD50A6822F0F1
:1015F00004020A6094F85C108840A860606D40F0B6
:101600000100606594F85C104FF0010808FA01F0E1
:10161000304208D021684969090604D5A860606D88
:1016200040F00200606594F85C100420884030426D
:1016300008D021680968890704D5A860606D40F06A
:101640000400606594F85C1010208840304218D087
:1016500021680968090714D5A86020680168490352
:1016600004D50068000308D5A16C07E00168C9052E
:1016700003D4016821F008010160216C09B1204602
:10168000884794F85C1020208840304231D021688F
:101690000968C9062DD5A86094F83500052820688A
:1016A000016806D0490347D5006800031DD4616C6A
:1016B0001CE021F0160101602068416921F08001E1
:1016C0004161206C08B9A06C20B12068016821F04C
:1016D0000801016094F85C103F208840A86084F8FD
:1016E000349084F83580216D1FE0E16B09B120460C
:1016F0008847606D00282BD0606DC00714D005208E
:1017000084F835002068016821F00101016000982B
:10171000401C0090B84203D820680068C007F6D18A
:1017200084F8349084F83580E16C002910D001B041
:101730002046BDE8F04308470168C905D5D40168D3
:1017400021F01001016084F8349084F83580CCE7F2
:10175000BDE8F8830C0000202DE9F041044600F0BC
:10176000B1F906465CB1002584F83450022084F8B3
:1017700035002068016821F0010101600DE00120C1
:10178000BDE8F08100F09EF9801B052805D92020D6
:101790006065032084F83500F2E720680068C00720
:1017A000F0D12268116820480140D4E901031843B0
:1017B000D4E903363343184363691843A3691843D4
:1017C000E3691843236A18430843616A042903D173
:1017D000D4E90B1319430843106020684069666A16
:1017E00020F0070130460E43012704280CD1A06ADF
:1017F0000643E06A40B12046FFF776FA20B1402068
:10180000606584F83570BAE7206846612046FFF7C6
:1018100057FA94F85C203F2191408160656584F817
:1018200035700020ACE700003F8010F02DE9F0415A
:101830000446866D90F83400002501280DD0012063
:1018400084F8340094F835700020012F07D084F814
:10185000340002252846BDE8F0810220FBE702277C
:1018600084F8357060652046FFF768FA94F85C10DC
:101870003F208840B0602068016841F01601016097
:10188000206C20B12068016841F0080101602068E7
:10189000016841F001010160DCE7000070B5044619
:1018A00000F010F90546601C02D00448007804449A
:1018B00000F008F9401BA042FAD370BD00000020E0
:1018C00010B5B0F5007F0CD1064C207920B120680E
:1018D000BDE8104001F0A0BCFFF7ECFB2060012048
:1018E000207110BD1C000020044910B50A68024296
:1018F00002D00860FFF7E4FF10BD0000143C014077
:101900002DE9F84F00224FF0010803254FF00F0E8C
:101910000B6808FA02F42340A3426ED14E68012EF0
:1019200005D0022E03D0112E01D0122E12D18668BE
:101930004FEA420C05FA0CF7BE43CF6807FA0CF7E2
:10194000374387604668A6430C79C4F3001494407B
:1019500034434460C668570005FA07FC8C6826EAE1
:101960000C06BC403443C4604C68022C01D0122CDD
:1019700013D1D40800EB8404A346D4F82090540774
:101980004FEAD46A0EFA0AF629EA06090E6906FA3F
:101990000AF646EA0906CBF8206006680C7926EAC2
:1019A0000C0604F00304BC40344304604C68E400BB
:1019B00065D5364C266846F480462660246822F0B9
:1019C000030604F480440094314C3444A446D4F813
:1019D00008489607370F0EFA07F6B4432D4EB0426B
:1019E00001D1002624E02C4EB04201D101261FE097
:1019F0002A4EB04202D102261AE040E0284EB04200
:101A000001D1032614E0274EB04201D104260FE095
:101A1000254EB04201D105260AE0244EB04201D144
:101A2000062605E0224EB04201D1072600E0082636
:101A3000BE402643CCF808681E4E34684F689C436D
:101A4000FF0300D51C4334601A4C241D26684F68E0
:101A50009E43BF0300D51E432660164E08363468E9
:101A60004F689C43FF0200D51C433460114E0C3676
:101A700034684F689C43BF0200D51C433460521C3D
:101A8000102AFFF445AFBDE8F88F0000443802404B
:101A90000030014000000240000402400008024003
:101AA000000C0240001002400014024000180240E6
:101AB000001C0240003C01400AB1816170470904EA
:101AC000FBE700000148806870470000000000202C
:101AD000024881680278114481607047000000204C
:101AE0000B4810B5016841F400710160016841F4D0
:101AF00080610160016841F480710160032000F0A1
:101B00006FF8002000F006F800F024F8002010BD67
:101B1000003C024070B50D4D04464FF47A712878B0
:101B2000B1FBF0F00A490968B1FBF0F000F058FB96
:101B300048B9102C07D200222146501E00F030F880
:101B400000206C6070BD012070BD0000000000200E
:101B50000C0000200A4808B5016841F4804101608A
:101B6000006800F4804000900548001F016841F0C3
:101B700080510160006800F08050009008BD0000B6
:101B800044380240002809DB00F01F020121914087
:101B90004009800000F1E020C0F80011704700000B
:101BA000F0B40E4B1B680C46C3F30223C3F10705C8
:101BB000042D00D90425191D072901D2002300E0B6
:101BC000DB1E012606FA05F1491E214099409E4080
:101BD000761E16403143F0BC01F026BF0CED00E04C
:101BE000064900F0070208684FF6FF03184040EA74
:101BF0000220034A10430860704700000CED00E02B
:101C00000000FA052DE9F0470E46050065D0DFF823
:101C10001481D8F80000F7B200F00F00B04207D2EC
:101C200088F80070D8F8000000F00F00B04254D1DE
:101C300028683D4C810712D5400703D5206840F441
:101C4000E05020602878000703D5206840F4604009
:101C500020602068A96820F0F00008432060287800
:101C6000C0072DD0304968680839012812D00228F1
:101C700013D0032811D00968890700292DDA2168BB
:101C800021F0030101432160FFF71CFF814641F26F
:101C9000883A0EE009688903EFE709688901ECE7F3
:101CA000FFF710FFA0EB0901514502D90320BDE861
:101CB000F0872068696800F00C00B0EB810FEFD16D
:101CC000D8F80010404601F00F01B14207D9077063
:101CD000006800F00F00B04201D00120E7E728784B
:101CE000400705D52068E96820F4E05008432060EB
:101CF0002878000706D52068296920F4604040EA6A
:101D0000C100206000F018F82168084AC1F30311EF
:101D1000515CC8400649086006480068FFF7FAFEB3
:101D20000020C4E7003C0240083802403A43000863
:101D30000C00002004000020154810B5006810F0C9
:101D40000C02144813D04110042A0FD0082A0ED1D7
:101D50000F4C241F2268236802F03F025B0207D564
:101D60002068C0F38810A0FB010106E0084610BD02
:101D70002168C1F38811A1FB00010023FEF7A8FA36
:101D80002168C1F30141491C4900B0FBF1F010BDCD
:101D9000083802400024F4002DE9F84F04006ED00A
:101DA0002078DFF83C93C007A9F104054AD009F177
:101DB00004000168C1F38101012908D00068C0F363
:101DC000810002280AD1D9F80000400206D528680F
:101DD000800337D560680028E1D033E06068B0F553
:101DE000803F10D0B0F5A02F286810D020F48030AC
:101DF0002860286820F4802028606068A8B1FFF778
:101E000061FE06460DE0286840F48030F4E740F4B7
:101E100080202860F7E700BFFFF754FE801B64288E
:101E200073D828688003F7D50CE0FFF74BFE064611
:101E300005E000BFFFF746FE801B6428F0D8286845
:101E40008003F7D42078DFF89C8280074FF0000AE7
:101E50003ED5A348001D016811F00C0F08D00068A2
:101E6000C0F3810002280BD1D9F80000400207D44A
:101E70002868800716D5E068012800D112E02BE120
:101E8000E068B8B10120C8F80000FFF71BFE064665
:101E900005E000BFFFF716FE801B0228C0D82868A7
:101EA0008007F7D52868216920F0F80040EAC100D2
:101EB00028600DE0C8F800A0FFF704FE064604E025
:101EC000FFF700FE801B02281FD828688007F7D480
:101ED0002078000722D5824E83486169703671B13F
:101EE00001210160FFF7EEFD074604E0FFF7EAFD80
:101EF000C01B022809D830688007F7D50EE0C0F86B
:101F000000A0FFF7DFFD074605E082E0FFF7DAFDFE
:101F1000C01B02287DD830688007F7D4207840079E
:101F200068D5DFF8BCB100270BF13C0BDBF80000F3
:101F3000C0000BD4DBF8001041F08051CBF800104A
:101F4000DBF80000012700F080500090674E3068F9
:101F5000C00510D4306840F480703060FFF7B2FDE7
:101F6000009005E0FFF7AEFD0099401A022850D816
:101F70003068C005F6D55A4EA0686C3601280FD0DF
:101F80000528306810D020F001003060306820F063
:101F900004003060A068B8B1FFF794FD00900FE036
:101FA000306840F00100F4E740F004003060F7E7EB
:101FB000FFF788FD0099411A41F28830814266D8C6
:101FC00030688007F4D50EE0FFF77CFD009007E055
:101FD000FFF778FD0099411A41F28830814256D8C6
:101FE00030688007F4D42FB1DBF8001021F0805165
:101FF000CBF80010A069C8B33949091D0968C1F3BD
:10200000810102294AD00228504607D0C8F8600052
:1020100000E03CE0FFF756FD04463BE04746C8F8C9
:102020006000FFF74FFD064605E000BFFFF74AFDE1
:10203000801B02282BD828688001F7D4D4E9070137
:102040000843A16A2A4A490802EB0141626A41EA4F
:102050008211084394F82C1040EA0161C9F800107D
:1020600001203866FFF72EFD044606E036E000BF8B
:10207000FFF728FD001B022809D828688001F7D542
:102080002CE000BFFFF71EFD001B022802D9032031
:10209000BDE8F88F28688001F4D41FE00128F7D04C
:1020A000D9F80000E26900F48001914214D1226A5B
:1020B00000F03F0191420FD147F6C071626A0140C2
:1020C000914209D1A26A00F44031914204D1E16AFF
:1020D00000F07060884201D00120D9E70020D7E7E6
:1020E0000438024000004742800E47420070004022
:1020F0000000FFFF70B5040005D00025A56294F82C
:10210000510010B106E0012070BD84F85050204607
:1021100000F030F8022084F851002068016821F0B6
:1021200040010160D4E901010843D4E903121143DD
:10213000084361690843218B01F400710843E16998
:102140000843216A0843A16A084321680860A0691E
:10215000042101EA1040616A084321684860206850
:10216000C16921F40061C1616565012084F85100F5
:10217000002070BD10B586B0044614216846FEF7F5
:10218000F1F814492068884221D1134800210268DF
:1021900042F400420260006800F4004005900E48DE
:1021A0001038026842F004020260006800F0040087
:1021B00005904FF4E05000900220CDE9010103208A
:1021C00003900620049069460448FFF799FB06B087
:1021D00010BD0000003C00404038024000080240B2
:1021E00010B5401EB0F1807F01D3012010BD4FF02B
:1021F000E02460610F21601701F016FC0020A0614F
:1022000007202061002010BD7047704710B590F87E
:102210003C20012A22D0012280F83C20CA688C6828
:1022200022F4407222434C6822F4806222430C68FC
:1022300022F4006222430C6922F4805222434C694A
:1022400022F400522243C969002322F480420A4347
:1022500001684A6480F83C30002010BD022010BDA7
:1022600070B590F83C20012A32D0012480F83C401F
:10227000022280F83D2003685A689D6822F07006AB
:102280000A6832435A60134B02689A4214D0B2F182
:10229000804F11D0104B9A420ED0104B9A420BD067
:1022A0000F4B9A4208D00F4B9A4205D00E4B9A42E0
:1022B00002D00E4B9A4204D1496825F0800319439D
:1022C000916080F83D40002180F83C10084670BDC8
:1022D000022070BD000001400004004000080040E2
:1022E000000C004000040140004001400018004084
:1022F00010B504460068042201F03DFA2068416CE4
:1023000041F4004141642068816801F00701062919
:1023100003D0016841F001010160002010BD10B53B
:10232000040003D094F83D0010B107E0012010BD77
:10233000002084F83C00204600F00CF8022084F8CD
:102340003D00211D206801F0A5F9012084F83D0021
:10235000002010BD08B500680B49884212D10B4817
:10236000016841F0010101600068002200F00100F5
:10237000009002211B20FFF713FCBDE808401B2042
:10238000FFF700BC08BD00000000014044380240D7
:102390000168CA6842F00102CA600068816801F001
:1023A0000701062903D0016841F001010160002006
:1023B00070470168CA6822F00102CA600068016AB9
:1023C00041F21112114207D1016A9210114203D158
:1023D000016821F0010101600020704770B50446DA
:1023E00090F83C00012817D0012584F83C500220C9
:1023F00084F83D002068826822F0770222F47F4250
:1024000082600868502830D00DDC20284DD005DCD3
:1024100098B310283BD148E0022070BD302844D04A
:10242000402834D139E0602828D0702806D0B0F593
:10243000805F2CD0B0F5005F29D10AE0CB68D1E9EC
:102440000121206801F0A4F92068816841F077013A
:1024500009E0CB68D1E90121206801F099F92068F1
:10246000816841F48041816011E0CA684968206850
:1024700001F062FA5021206807E016E0CA68496856
:10248000206801F06AFA6021206801F08BF984F875
:102490003D50002084F83C0070BDCA68496820683F
:1024A00001F04AFA40212068EFE722680146104611
:1024B000EBE72DE9F0410D46040003D094F83D0010
:1024C00018B108E00120BDE8F081002084F83C004C
:1024D000204600F03BF8022084F83D002068816827
:1024E00044F2070291438160211D206801F0D2F877
:1024F000226890689169166A2B68AF69034340F2BD
:102500000330814341EA0721A868EF6908434FF689
:10251000FC418843E96840EA0720014328692F6AA3
:10252000000140EA0730084369686D6926F0AA0691
:1025300046EA05152943936022689061206801628C
:10254000012084F83D000020BDE7000010B586B0F2
:10255000044614216846FDF705FF124920688842A9
:102560001ED111480021026842F002020260006898
:1025700000F0020005900C481038026842F0020298
:102580000260006800F002000590302000900220F8
:10259000CDE90101CDE9031069460448FFF7B0F920
:1025A00006B010BD00040040403802400004024064
:1025B00010B50446006891B1042904D0012200211D
:1025C00001F0CCF8206801225FF0040101F0C6F8A8
:1025D0002068016841F001010160002010BD012266
:1025E0000021F3E7704770B50446006801694FF0B9
:1025F0000005C943890715D4C168C943890711D4A7
:10260000E91E01610120207720688069800720464B
:1026100002D0FFF7E7FF04E000F0D8F8204600F012
:102620005AF9257720680169C943490717D4C16859
:10263000C943490713D46FF00401016102202077D8
:102640002068806910F4407F204602D0FFF7CAFF5F
:1026500004E000F0BBF8204600F03DF92577206843
:102660000169C943090716D4C168C943090712D4CF
:102670006FF008010161042020772068C06980079D
:10268000204602D0FFF7AEFF04E000F09FF820469E
:1026900000F021F9257720680169C943C90617D4DC
:1026A000C168C943C90613D46FF010010161082045
:1026B00020772068C06910F4407F204602D0FFF7E1
:1026C00091FF04E000F082F8204600F004F925773D
:1026D00020680169C943C90708D1C168C943C9074E
:1026E00004D1891E0161204600F096F92068016935
:1026F000C943090609D4C168C943090605D46FF066
:10270000800101612046FFF77FFD20680169C94310
:10271000490609D4C168C943490605D46FF0400190
:102720000161204600F079F920680169C9438906F2
:102730000BD4C168C943890607D46FF02001016139
:102740002046BDE87040FFF760BD70BD70B586B033
:10275000044614216846FDF705FE184920688842A2
:1027600029D117480024016841F002010160016885
:1027700001F002010591016841F00101016000686A
:10278000022500F0010005904FF460400090CDE973
:1027900001540126CDE9034669460A48FFF7B0F81F
:1027A0004FF4E0600090CDE90154CDE9034669465D
:1027B0000548FFF7A5F806B070BD00000000014015
:1027C000303802400004024000000240704770B5FB
:1027D000044690F83C000D4601280DD0012684F8EF
:1027E0003C60022084F83D0042B1042A18D0082A37
:1027F0002AD00C2A4DD139E0022070BD206800F0AB
:10280000D9FF2068816941F00801816120688169F0
:1028100021F004018161206881692A69114311E076
:10282000206800F0F7FF2068816941F40061816150
:102830002068816921F480618161206881692A6949
:1028400041EA0221816124E0206801F019F8206842
:10285000C16941F00801C1612068C16921F004012A
:10286000C1612068C1692A69114311E0206801F043
:102870003BF82068C16941F40061C1612068C16909
:1028800021F48061C1612068C1692A6941EA02219D
:10289000C16184F83D60002084F83C0070BD10B533
:1028A000040003D094F83D0010B107E0012010BDF2
:1028B000002084F83C00204600F00CF8022084F848
:1028C0003D00211D206800F0E5FE012084F83D0058
:1028D000002010BD7047704710B504460068012203
:1028E00000F03CFF0B492068884202D00A49884228
:1028F00003D1416C41F4004141642068816801F0DA
:102900000701062903D0016841F0010101600020A0
:1029100010BD0000000001400004014010B5026835
:10292000044631B1042908D0082925D00C2908D142
:1029300026E0D06840F0020002E0D06840F00400D9
:10294000D0600122206800F009FF0F49206888420A
:1029500002D00E49884203D1416C41F400414164E8
:102960002068816801F00701062903D0016841F061
:1029700001010160002010BDD06840F00800DFE7D1
:10298000D06840F01000DBE7000001400004014087
:1029900010B50268044631B1042908D008292FD0A7
:1029A0000C2908D130E0D06820F0020002E0D068A5
:1029B00020F00400D0600022206800F0CFFE144810
:1029C00041F2111321689A10814202D011488142CC
:1029D00009D1086A184206D1086A104203D1486C2E
:1029E00020F4004048642068016A194206D1016A57
:1029F000114203D1016821F001010160002010BDE6
:102A0000D06820F00800D5E7D06820F01000D1E7AA
:102A1000000001400004014070477047FEE710B518
:102A200000F004FEBDE8104000F0C0BF7047000099
:102A30007FB500241B480094019402941849039424
:102A4000016001254FF480310561C0E9011404766D
:102A500080F820401449C0E90A140226C661C46007
:102A600080F830504461FEF798FC08B1FEF77FF91A
:102A70000A20CDE90005694602940A48FEF7E4FB06
:102A800008B1FEF774F90B20CDE900066946054848
:102A9000FEF7DAFB002801D0FEF769F97FBD0000E0
:102AA00000200140240200200100000F094808B561
:102AB000016841F4800101600068002200F4800098
:102AC000009001213820FFF76BF8BDE8084038205E
:102AD000FFF758B8303802402DE9F04186B0142194
:102AE0006846FDF73FFC32480024016841F00401CC
:102AF0000160016801F004010591016841F0800165
:102B00000160016801F080010591016841F0020156
:102B10000160016801F002010591016841F00101C5
:102B20000160016801F001010591016841F00801AF
:102B300001600068012200F00800DFF8788055038A
:102B4000059029464046FEF7B7FF1B4F6E10002246
:102B500031463846FEF7B0FF00950125CDE9015416
:102B6000694640460394FEF7CBFECDE90065CDE90A
:102B7000025469463846FEF7C3FE680200900F48CB
:102B8000CDE9010469464046FEF7BAFE04208DE80F
:102B9000310069460A48FEF7B3FE002211461720AD
:102BA000FEF7FEFF1720FEF7EDFF06B0BDE8F0814F
:102BB00030380240000802400004024000001110BA
:102BC000000C0240114810B50F4901604FF48271AA
:102BD000416000214FF40062C0E902120122C0E905
:102BE0000412520282611822C0E907214162816207
:102BF0000A21C162FFF77EFA002803D0BDE8104029
:102C0000FEF7B5B810BD0000003C0040CC0200202B
:102C100010B596B000240F9410941194129413944C
:102C20001C2168461494FDF79DFB202107A8FDF7A1
:102C300099FB38483649016001214160402181609B
:102C400041F26701C0E903148021C0E90541FFF7A3
:102C500066FB08B1FEF78BF84FF480500F900FA978
:102C60002C48FFF7BBFB08B1FEF781F82948FFF7B6
:102C700016FE08B1FEF77BF87020CDE9130413A906
:102C80002448FFF7EDFA08B1FEF771F86020CDE9AE
:102C900000040294039404940594002269461D489C
:102CA0000694FFF794FD08B1FEF761F80422694627
:102CB0001848FFF78CFD08B1FEF759F8082269465D
:102CC0001448FFF784FD08B1FEF751F80C2269465D
:102CD0001048FFF77CFD08B1FEF749F84FF400609B
:102CE00007904010CDE908046420CDE90A044FF4B0
:102CF00000500C9007A90E940648FFF787FA08B118
:102D0000FEF735F80348FFF721FD16B010BD0000AF
:102D1000000001402403002010B58CB02421684637
:102D2000FDF720FB00241648099414490A94C0E9D1
:102D3000001444F62061C0E902410461846103206B
:102D4000CDE900040120CDE9020404210491CDE97C
:102D50000540CDE9074169460948FFF7AAFB08B1DC
:102D6000FEF705F8099409A905480A94FFF778FACF
:102D7000002801D0FDF7FBFF0CB010BD000400409F
:102D800064030020FEE700000148FEF753B800008E
:102D900088000020014800F0F1BA00003000002057
:102DA0007047704710B54FF4FA60FEF777FDFDF7F6
:102DB000DFFF00F037FABDE8104000F033B8000044
:102DC00070B5154C134E60683568401D854204D3BC
:102DD00000F052FA00F050F86560A068356800F520
:102DE0007A60854210D3206810B1012805D00AE02E
:102DF00001209FED0A0A206003E000209FED080AF1
:102E0000206000F03FF9A56000F030F8BDE87040A8
:102E100000F02CBA18000020240000200000B4426A
:102E20000000344310B5B7EE000A2DED028B0B48BD
:102E300000F02EF99FED0B8A9FED091A9FED0A0A0B
:102E4000F0EE480A054800F029F9B0EE480ABDEC5A
:102E5000028B0248BDE8104000F027B96401002051
:102E6000BC74933C000000000AD7233D014800F0E9
:102E70004FB8000064010020014800F065B8000070
:102E80006401002010B50446406B804784ED060ABB
:102E9000D4ED050A70EEC00AC4ED070A94ED020AEB
:102EA00094ED081AD4ED031A20EE200A30EEC11A70
:102EB00001EE810AD4ED041A94ED091A01EE810A9B
:102EC00084ED0A0AC4ED080A71EE200AC4ED090A6D
:102ED000D4ED0B0AB4EEE00AF1EE10FA06DCF1EEE6
:102EE000600AB4EEE00AF1EE10FA01D2C4ED0A0A6B
:102EF000207810B194ED0A0A03E09FED040A84EDF6
:102F00000A0AA06BBDE81040004700000000000066
:102F10000B4942680B68D0ED0C0A9A1A00EE102A91
:102F20009FED081AB8EE400A60EE810AB4EEE00A9E
:102F3000F1EE10FA03DB09684160FFF7A3BF7047A9
:102F4000A401002000007A4410B504468069FDF712
:102F500014FA41EC100B08A053EC102B00F054FDB8
:102F60006069FDF70AFA41EC100BBDE8104053EC24
:102F7000102B03A000F048BD353A25660D0A00006D
:102F8000363A25660D0A00002DE9F041884600EB2F
:102F900040012148164600EBC104E16A01F003003C
:102FA00002280BD0A06A626A801A401E01D5226AEC
:102FB0001044864202DD89072BD006464EB3002717
:102FC000A06A616A451A6D1E01D5206A0544D4E9DC
:102FD0000801411AA94201DC616A451AB54200DBC9
:102FE0003546616AE0692A4608444146FDF7A1F981
:102FF000606A2F44A844761B28446062606A216A94
:10300000884201D100206062002ED9D13846BDE847
:10301000F0810020FBE70000A80100207047C0ED10
:10302000171A00F13C0181EC030AC0ED201A603050
:1030300080EC030A704780ED020AC0ED010A704778
:10304000024601700846D2F88410084710B50446BD
:1030500000F00EF82046BDE8104000F091BC0000E2
:10306000F0EE400A9FED010A00F0D0B80000000029
:1030700002464FF480510148FEF71EBD0004024095
:1030800000F016B8014800F010B8000064010020FC
:10309000BCEEC00A10EE101A0170704780ED020AF3
:1030A000C0ED040A80ED031A704780ED050A7047F1
:1030B000014800F010B8000028010020BCEEC00A52
:1030C00010EE101A0170704780ED020AC0ED040A7C
:1030D00080ED031A704780ED050A7047B5EEC00A0F
:1030E0000C49F1EE10FA02D29FED0B0A05E010EE4A
:1030F000100A884201DD9FED090ADFED090A09493E
:1031000020EE200A0968BCEEC00A10EE100A4863DF
:10311000704700000000C842000000000000C842E4
:103120000000284224030020B5EEC00A0C49F1EE4D
:1031300010FA02D29FED0B0A05E010EE100A884249
:1031400001DD9FED090ADFED090A094920EE200A99
:103150000968BCEEC00A10EE100A886370470000D0
:103160000000C842000000000000C84200002842E1
:1031700024030020B5EEC00A0C49F1EE10FA02D289
:103180009FED0B0A05E010EE100A884201DD9FED6D
:10319000090ADFED090A094920EE200A0968BCEE98
:1031A000C00A10EE100AC863704700000000C84251
:1031B000000000000000C842000028422403002054
:1031C000B5EEC00A0C49F1EE10FA02D29FED0B0ADF
:1031D00005E010EE100A884201DD9FED090ADFEDDF
:1031E000090A094920EE200A0968BCEEC00A10EE5F
:1031F000100A0864704700000000C8420000000088
:103200000000C84200002842240300200148FFF7C4
:1032100012BF0000880000200149086070470000CC
:103220001000002010B5B7EE000A2DED028B0B4800
:10323000FFF744FF9FED0A8ADFED0A0A9FED0A0AB5
:10324000B0EE481A0548FFF73FFFB0EE480ABDEC64
:10325000028B0248BDE81040FFF73DBF2801002067
:10326000000000009A99193F00002042014800F038
:1032700049B8000028010020014800F05FB80000B4
:103280002801002010B50446406B804784ED060AF3
:10329000D4ED050A70EEC00AC4ED070A94ED080AE1
:1032A00094ED021A30EEC00A20EE010A94ED041AE1
:1032B00001EE200A94ED0A1A30EE010A84ED0A0AA2
:1032C000C4ED080AD4ED0B0AB4EEE00AF1EE10FAF0
:1032D00006DCF1EE600AB4EEE00AF1EE10FA01D27B
:1032E000C4ED0A0A207810B194ED0A0A03E09FEDBC
:1032F000040A84ED0A0AA06BBDE8104000470000F4
:10330000000000000B4942680B68D0ED0C0A9A1AC5
:1033100000EE102A9FED081AB8EE400A60EE810A0E
:10332000B4EEE00AF1EE10FA03DB09684160FFF742
:10333000A9BF7047A001002000007A4410B50446E0
:103340008069FDF71AF841EC100B08A053EC102B24
:1033500000F05AFB6069FDF710F841EC100BBDE876
:10336000104053EC102B03A000F04EBB323A256600
:103370000D0A0000333A25660D0A000010B5044618
:1033800080EC020A00F096F82046FDF7B3FE2046D6
:10339000BDE81040AFF3008010B504462DED048B5E
:1033A00090F8440007284CD2DFE800F04B040F1CD3
:1033B00027343F0094ED090AD4ED0B0A94ED0C8AF2
:1033C00030EE200A30EE080A09E0D4ED0B0A94ED45
:1033D0000C8A94ED071A30EE880A71EE200A70EE1E
:1033E000888A2EE094ED071AD4ED080A94ED0C0AB1
:1033F00031EE201A71EE008A09E094ED0C0AD4ED4A
:10340000080A94ED061A70EE808A71EE200A30EEFA
:10341000808A16E0D4ED0A0AD4ED0C8A94ED061ADF
:1034200030EEA80A71EE200A09E094ED090AD4ED05
:103430000A0AD4ED0C8A30EE200A30EE280A30EE6B
:10344000A88AB0EE409AB4EEE89AF1EE10FA01D2F2
:10345000B0EE689AB4EEC89AF1EE10FA01D2B0EE6E
:10346000489AD4ED0E0AF4EEC90AF1EE10FA0FD222
:1034700020EE091A81EE200A28EE891AC1EE208A70
:1034800028EE091A81EE208A94ED0F1A30EE819A07
:10349000A06C8047E06CB0EE680A8047206DB0EE0B
:1034A000480A8047606DB0EE490ABDEC048BBDE868
:1034B0001040004790ED010ADFED230A80ED020A7B
:1034C00090ED001A9FED212AF6EE001A61EE200A17
:1034D00021EE021AB5EEC00A40EE610A00EE611A52
:1034E000C0ED030AF1EE10FA80ED041A01DD0123AC
:1034F00000E00023F5EEC00AF1EE10FA01DD012232
:1035000000E00022B5EEC01AF1EE10FA01DD012153
:1035100000E00021890001EB42011944072912D281
:10352000DFE801F011060E040A080C00012108E092
:10353000022106E0032104E0042102E0052100E06D
:10354000062180F8441070472DB25D3F2DB25DBF5B
:1035500006480168491C016005480168491C016072
:1035600004480168491C0160FEF7B2BA1800002047
:10357000A0010020A401002030B593B0302168469E
:10358000FCF7F0FE14210CA8FCF7ECFE194800250E
:10359000016841F080510160006800F08050119096
:1035A0001548016841F4804101600068022400F47C
:1035B0008040119001200390102004900094069404
:1035C0000820CDE90750A820CDE9090404200B907C
:1035D0006846FEF7E1FB0CA90F2081E831004FF4AB
:1035E000A0500F90E002109005210CA8FEF70AFBF6
:1035F00013B030BD403802400070004005480168FB
:1036000041F47001016003494FF0006080390860A7
:103610007047000088ED00E010B50348FEF7E3FFB7
:10362000BDE81040FDF77AB92403002010B5002151
:103630001648FFF751F904211448FFF74DF9082106
:103640001248FFF749F900211048FEF751FE042106
:103650000E48FEF74DFE08210C48FEF749FE9FED8F
:103660000C1AB0EE410AFFF739FDB0EE410AFFF740
:103670005BFDB0EE410AFFF77DFDB0EE410AFFF7BA
:103680009FFDBDE81040002000F07AB9240300201F
:1036900000000000F0B50268254C264D264E274F4D
:1036A000274B4FF0804CA04209D0604507D0A8427C
:1036B00005D0B04203D0B84201D0984204D122F0E4
:1036C000700E4A6842EA0E02A0421BD0604519D033
:1036D000A84217D0B04215D0B84213D0984211D0AA
:1036E000184DA8420ED0184DA8420BD0174DA84235
:1036F00008D0174DA84205D0164DA84202D0164D4D
:10370000A84203D122F44075CA682A434D6922F0C9
:1037100080022A4302608A68C2620A688262A0420A
:1037200001D0984201D10969016301214161F0BDD5
:10373000000001400004004000080040000C004070
:1037400000040140004001400044014000480140A5
:1037500000180040001C00400020004010B501F09F
:103760001F030121046A99408C430462016A9A4054
:103770001143016210BD10B501F01F030421046A5A
:1037800099408C430462016A9A401143016210BD62
:1037900010B5846842EA032224F47F440A4322439A
:1037A000826010BD826822F070020A4342F0070175
:1037B00081607047F0B5026A22F001020262036A7A
:1037C00042688469124E24F073050C682C4323F080
:1037D00002058B682B430D4DA84201D0B04205D1A4
:1037E00023F00807CB683B4323F00403A84201D031
:1037F000B04205D14D6922F4407215438A692A43CB
:1038000042608461496841630362F0BD0000014089
:1038100000040140F0B5026A22F010020262026A5E
:10382000436884690D6824F4E64444EA05248D68FD
:1038300022F0200242EA05120F4D104EA84201D09C
:10384000B04206D1CF6822F0800242EA071222F08D
:103850004002A84201D0B04207D14D6923F4406331
:1038600043EA85038D6943EA8503436084614968BF
:1038700081630262F0BD00000000014000040140CD
:10388000F0B5026A22F480720262026A4368C46977
:1038900022F4007224F073050C68124E2C438D68DC
:1038A00042EA05220E4DA84201D0B04206D1CF68AF
:1038B00022F4006242EA072222F48062A84201D088
:1038C000B04207D14D6923F4405343EA05138D6993
:1038D00043EA05134360C4614968C1630262F0BDF5
:1038E000000001400004014030B5026A22F4805219
:1038F0000262046A4268C3690D6823F4E64343EA3E
:1039000005238D6824F4005444EA0534084DA84288
:1039100002D0084DA84204D14D6922F4804242EA07
:1039200085124260C36149680164046230BD0000D1
:10393000000001400004014010B5036A046A24F04D
:1039400001040462846924F0F00444EA021423F0C0
:103950000A020A438461026210BD10B5036A23F0B3
:10396000100303628369046A23F4704343EA02325A
:1039700024F0A00343EA01118261016210BD00003E
:10398000012810B508484FF00C0106D0FFF700F8E9
:10399000BDE810400448FEF70CBDFEF7BFFFBDE8D0
:1039A00010400148FEF7F4BC2403002010B50421A8
:1039B0000748FEF7FDFD064942F2107009684862AB
:1039C00005489FED040A002180ED010A016010BD49
:1039D000640300200000000010000020064942F2AD
:1039E00010700968486206489FED040A002180EDC6
:1039F000010A01607047000064030020000000001D
:103A000010000020FEE700000FB4054B10B503A91D
:103A1000044A029800F0EAF810BC5DF814FB0000BC
:103A2000F3420008200200200907090E002804DBE9
:103A300000F1E02080F80014704700F00F0000F162
:103A4000E02080F8141D704702E008C8121F08C16A
:103A5000002AFAD170477047002001E001C1121F0F
:103A6000002AFBD1704700002DE9FF5F82B00021E2
:103A7000DDE90430020DDDF840B0034318D044F610
:103A80001050A2F2FF3242431514119801281FD0A2
:103A9000A5EB0B00401C5FEA000A4FF000064E4FFA
:103AA000DFF83891B046504615D5CAF1000413E04E
:103AB000119801244AA3012801D16FEA0B01029851
:103AC000119AC0E90031C0E9024206B0BDE8F09F9A
:103AD000CBF10000DFE704460021404A491842EBE1
:103AE0000450CDE9001012E0E00707D032463B4613
:103AF00040464946FCF748FD8046894632463B46EB
:103B000010461946FCF740FD06460F466410002C8F
:103B1000EAD1DDE90401DDE90023BAF1000F06DA9C
:103B2000FCF732FD42464B46FCF72EFD05E0FCF764
:103B30009DFD42464B46FCF799FD04460E46002289
:103B4000284BFCF71BFE03D84FF0FF30014607E07F
:103B50000022254B20463146FCF76FFCFCF7F5FDB3
:103B6000102409E0002C0ADB0A220023FCF7B0FB3A
:103B7000039B30321A55641E50EA0102F2D1641CD4
:103B8000039AC4F111031444119A012A03D00122AB
:103B900008430DD10AE0084304D000204FF0110B78
:103BA000119072E7A3EB0B056D1E0DE05B4504DD84
:103BB0004FF0000205F1010504E003DA4FF00002C6
:103BC000A5F10105002AECD002981199C0E9023153
:103BD000C0E9004579E70000000014400000F03F14
:103BE000300000000000F0430000E03F2DE9FF4FEF
:103BF00095B09A46884606460025EEE1252877D1FD
:103C000000242746F94A0121039400E0044316F8F2
:103C1000013F203B01FA03F01042F7D130782A2807
:103C200011D06FF02F033078A0F13002092A16D896
:103C3000039A44F0020402EB820203EB42021044B6
:103C4000761C0390EFE758F8042B0392002A03DA5E
:103C5000504244F40054039044F00204761C30783F
:103C60002E2816D116F8010F44F004042A280DD08E
:103C70006FF02F023078A0F13003092B09D807EB41
:103C8000870302EB4303C718761CF3E758F8047B5D
:103C9000761C30786C280FD006DC4C2817D06828AA
:103CA0000DD06A2814D104E0742810D07A280FD1DE
:103CB0000DE044F400140AE044F4801401E044F4FC
:103CC00040147278824202D104F58014761C761C6E
:103CD000307866280BD013DC582877D009DC002810
:103CE00075D04528F6D04628F4D047281AD193E15C
:103CF00018E0632835D0642879D0652812D18BE18B
:103D0000702873D008DC6728F1D069286FD06E283E
:103D10000DD06F2806D1ACE073282CD0752874D054
:103D2000782853D05246179990476D1C54E1C4F33C
:103D30000250022809D003280DD0D8F8001004281A
:103D40000DD00D6008F1040846E1D8F80010EA171C
:103D5000C1E90052F6E7D8F800100D80F2E70D70C7
:103D6000F0E718F8041B8DF8001000208DF8010012
:103D7000EB46012003E058F804BB4FF0FF30610729
:103D80004FF0000102D40DE009F101018946B9426A
:103D90000FDA8145F8DB1BF809100029F4D108E09F
:103DA00009F1010189468142FADB1BF8091000295B
:103DB000F6D103985346A0EB090721463846179AD7
:103DC00000F080FA284400EB090507E044E008E130
:103DD0000DE01BF8010B524617999047B9F1010904
:103DE000F7D2534621463846179AF2E039E00A21C5
:103DF000C4F302524FF0000B0091022A06D058F88B
:103E0000040BC117032A09D00AE023E008F10700D8
:103E100020F00702F2E80201904605E000B2C11767
:103E2000042A01D140B2C117002906DA0A4600214E
:103E3000404261EB02012D2202E0220504D52B2233
:103E40008DF80420012203E0E20701D02022F7E7E9
:103E5000914657E00A2100E010214FF0000B00913D
:103E60000BE010214FF0000B44F0040408270091F0
:103E700003E008204FF0000B0090C4F30252022A26
:103E800005D058F8040B0021032A08D008E008F1F7
:103E9000070020F00702F2E80201904603E080B23A
:103EA000042A00D1C0B24FF0000922072AD5327887
:103EB000702A07D0DDF800C08CF0100C5CEA0B0C07
:103EC00005D00EE040228DF80420012208E050EADF
:103ED000010306D030238DF804308DF8052002222E
:103EE0009146009B83F0080353EA0B030AD150EA82
:103EF000010201D1620705D530228DF804204FF070
:103F000001097F1E3278582A04D039A20C920CAADB
:103F100002920BE03BA2F9E75B46009AFCF7D8F966
:103F20000C9B9B5C029A521E0292137050EA010293
:103F3000F2D1029804A9081A00F1200B600702D5FB
:103F400024F4803400E001275F4502DDA7EB0B007D
:103F500000E0002000EB0B01009003984944401A58
:103F60000390E00306D453462146179A039800F0C5
:103F7000A9F90544002706E001A85246C05D17993B
:103F800090476D1C7F1C4F45F6DBE0030CD5534674
:103F90002146179A039800F095F9054404E0302073
:103FA0005246179990476D1C0099481E00900029B1
:103FB000F5DC08E00298029952460078491C02910B
:103FC000179990476D1CBBF10001ABF1010BF1DCBF
:103FD0005BE100F065F90544761C307800287FF439
:103FE0000DAE19B02846BDE8F08F00000928010089
:103FF000303132333435363738396162636465665F
:104000000000000030313233343536373839414220
:104010004344454600000000600700D4062708F12D
:10402000070020F00700F0E80223804603F0004C70
:104030005FEA0C0001D097A009E0200501D596A009
:1040400005E0E00701D095A001E0AFF24C0013902D
:10405000307823F0004365280CD006DC452809D0D1
:1040600046281DD047287FD13BE0662818D0672816
:104070007AD136E00021112F01DB112000E0781CFD
:10408000CDE9000104A90CA8FFF7EEFCDDE90D0164
:104090000C9A4FF0000B07F10109109200914EE0CD
:1040A0004FF000400097CDE9011004A90CA8FFF7DC
:1040B000DBFCDDE90D020C9B0F994FF0000B9146E4
:1040C0001093009211B9791C00EB0109B7EB0900BC
:1040D00003D4C0F1FF3B07F10109A9EB07000190F0
:1040E00042E0012F00DA01270021112F01DD11200C
:1040F00000E03846CDE9000104A90CA8FFF7B4FCA4
:10410000DDE90D010C9A00914FF0000BB9461092B9
:1041100021070FD4009A4A4503DA914601E0A9F13C
:104120000109B9F1010F05DD109AA9F10101515CF6
:104130003029F4D0B84202DA10F1040F03DA012179
:10414000CDE9011010E0002803DC8344A9EB000155
:1041500002E0411C494500DD8946A0EB0B00401CF4
:1041600001904FF000400290200705D40198484587
:1041700002DB4FF0FF30019000208DF84B000298D9
:104180000DF14B07B0F1004F25D002200C902B20F1
:104190000D90029800280CDA404202902D200D90DC
:1041A00007E00A210298FCF713F93031029007F872
:1041B000011D0C99481E0C900029F2DC0298002881
:1041C000EFD1791E0D980870307800F0200040F093
:1041D000450007F8020D11A8C01BC01D02901398DE
:1041E000007800B1012000EB0901019801EBE071BA
:1041F000029801440398401A401E0390E00306D43D
:1042000053462146179A039800F05CF8054413982A
:10421000007818B15246179990476D1CE00323D5DA
:1042200053462146179A039800F04CF805441BE0CA
:10423000BBF1000F07DB0098584504DD1098179973
:1042400010F80B0001E01799302052469047019872
:104250000BF1010B401E05F10105019004D12E2048
:104260005246179990476D1CB9F10001A9F1010957
:10427000DEDC05E017F8010B5246179990476D1CDC
:104280000299481E02900029F4DC53462146179AF1
:1042900003989EE62D0000002B0000002000000087
:1042A0002DE9F041044600251E461746880404D433
:1042B00005E039462020B0476D1C641EF9D528461C
:1042C000BDE8F0812DE9F041044600251E469046E8
:1042D000C80301D5302700E02027880404D505E075
:1042E00041463846B0476D1C641EF9D52846BDE8E6
:1042F000F08108B501228DF8000069460020FEF724
:1043000043FE9DF8000008BDFDF7EAFBFFF734F916
:10431000FEF7E2FBFEF7CAFBFEF77AFCFEF7FCFCB9
:10432000FEF786FBFEF74EFCFCF7DEFBFCF7E5FB39
:10433000FCE7000610160006101600000000000042
:104340000000010203040607080900000000000045
:10435000920E493CB10AC93C2BC3163D2EFB483D89
:10436000752B7B3D04A9963D80B6AF3D36BDC83D5B
:104370002FBCE13D73B2FA3D87CF093E8340163E24
:10438000B5AB223EA2102F3ECF6E3B3EC2C5473E8C
:104390000115543E135C603E7F9A6C3ECCCF783E54
:1043A000C07D823E938E883E229A8E3E32A0943EFD
:1043B00086A09A3EE59AA03E128FA63ED47CAC3EE3
:1043C000EF63B23E2A44B83E491DBE3E15EFC33EE0
:1043D00053B9C93ECA7BCF3E4136D53E80E8DA3E6E
:1043E0004F92E03E7533E63EBBCBEB3EEA5AF13EE0
:1043F000CBE0F63E275DFC3EE4E7003F3D9C033FFB
:10440000824B063F9BF5083F6B9A0B3FDA390E3F14
:10441000CDD3103F2A68133FD9F6153FC07F183F10
:10442000C6021B3FD17F1D3FCBF61F3F9967223F3E
:1044300025D2243F5636273F1594293F4AEB2B3F80
:10444000DE3B2E3FBB85303FC9C8323FF304353FCA
:10445000233A373F4268393F3B8F3B3FF9AE3D3F00
:1044600067C73F3F70D8413F01E2433F03E4453F08
:1044700065DE473F12D1493FF8BB4B3F029F4D3F9E
:10448000207A4F3F3D4D513F4918533F31DB543F58
:10449000E595563F5348583F6AF2593F1A945B3F9F
:1044A000532D5D3F05BE5E3F2146603F97C5613F8E
:1044B0005A3C633F59AA643F880F663FD86B673FF9
:1044C0003CBF683FA7096A3F0C4B6B3F5E836C3F64
:1044D00093B26D3F9ED86E3F73F56F3F0809713FF1
:1044E0005213723F4714733FDD0B743F0BFA743F56
:1044F000C6DE753F07BA763FC58B773FF853783FE6
:104500009812793F9DC7793F02737A3FBE147B3F73
:10451000CDAC7B3F283B7C3FC9BF7C3FAC3A7D3F65
:10452000CCAB7D3F23137E3FB0707E3F6DC47E3F9A
:10453000580E7F3F6D4E7F3FAB847F3F0FB17F3F73
:1045400097D37F3F43EC7F3F11FB7F3F0000803FCD
:1045500011FB7F3F43EC7F3F97D37F3F0FB17F3FFE
:10456000AB847F3F6D4E7F3F580E7F3F6DC47E3FD3
:10457000B0707E3F23137E3FCCAB7D3FAC3A7D3F96
:10458000C9BF7C3F283B7C3FCDAC7B3FBE147B3F0B
:1045900002737A3F9DC7793F9812793FF853783F6D
:1045A000C58B773F07BA763FC6DE753F0BFA743F7F
:1045B000DD0B743F4714733F5213723F0809713F7C
:1045C00073F56F3F9ED86E3F93B26D3F5E836C3F35
:1045D0000C4B6B3FA7096A3F3CBF683FD86B673FF6
:1045E000880F663F59AA643F5A3C633F97C5613FB5
:1045F0002146603F05BE5E3F532D5D3F1A945B3FF1
:104600006AF2593F5348583FE595563F31DB543FD6
:104610004918533F3D4D513F207A4F3F029F4D3F38
:10462000F8BB4B3F12D1493F65DE473F03E4453FAE
:1046300001E2433F70D8413F67C73F3FF9AE3D3F7E
:104640003B8F3B3F4268393F233A373FF304353FC6
:10465000C9C8323FBB85303FDE3B2E3F4AEB2B3F84
:104660001594293F5636273F25D2243F9967223F8C
:10467000CBF61F3FD17F1D3FC6021B3FC07F183FB7
:10468000D9F6153F2A68133FCDD3103FDA390E3FD4
:104690006B9A0B3F9BF5083F824B063F3D9C033FC7
:1046A000E4E7003F275DFC3ECBE0F63EEA5AF13EF0
:1046B000BBCBEB3E7533E63E4F92E03E80E8DA3E00
:1046C0004136D53ECA7BCF3E53B9C93E15EFC33EF6
:1046D000491DBE3E2A44B83EEF63B23ED47CAC3E98
:1046E000128FA63EE59AA03E86A09A3E32A0943E46
:1046F000229A8E3E938E883EC07D823ECCCF783EFD
:104700007F9A6C3E135C603E0115543EC2C5473E25
:10471000CF6E3B3EA2102F3EB5AB223E8340163EED
:1047200087CF093E73B2FA3D2FBCE13D36BDC83D8F
:1047300080B6AF3D04A9963D752B7B3D2EFB483DD1
:104740002BC3163DB10AC93C920E493C0000000043
:10475000920E49BCB10AC9BC2BC316BD2EFB48BD85
:10476000752B7BBD04A996BD80B6AFBD36BDC8BD57
:104770002FBCE1BD73B2FABD87CF09BE834016BE20
:10478000B5AB22BEA2102FBECF6E3BBEC2C547BE88
:10479000011554BE135C60BE7F9A6CBECCCF78BE50
:1047A000C07D82BE938E88BE229A8EBE32A094BEF9
:1047B00086A09ABEE59AA0BE128FA6BED47CACBEDF
:1047C000EF63B2BE2A44B8BE491DBEBE15EFC3BEDC
:1047D00053B9C9BECA7BCFBE4136D5BE80E8DABE6A
:1047E0004F92E0BE7533E6BEBBCBEBBEEA5AF1BEDC
:1047F000CBE0F6BE275DFCBEE4E700BF3D9C03BFF7
:10480000824B06BF9BF508BF6B9A0BBFDA390EBF10
:10481000CDD310BF2A6813BFD9F615BFC07F18BF0C
:10482000C6021BBFD17F1DBFCBF61FBF996722BF3A
:1048300025D224BF563627BF159429BF4AEB2BBF7C
:10484000DE3B2EBFBB8530BFC9C832BFF30435BFC6
:10485000233A37BF426839BF3B8F3BBFF9AE3DBFFC
:1048600067C73FBF70D841BF01E243BF03E445BF04
:1048700065DE47BF12D149BFF8BB4BBF029F4DBF9A
:10488000207A4FBF3D4D51BF491853BF31DB54BF54
:10489000E59556BF534858BF6AF259BF1A945BBF9B
:1048A000532D5DBF05BE5EBF214660BF97C561BF8A
:1048B0005A3C63BF59AA64BF880F66BFD86B67BFF5
:1048C0003CBF68BFA7096ABF0C4B6BBF5E836CBF60
:1048D00093B26DBF9ED86EBF73F56FBF080971BFED
:1048E000521372BF471473BFDD0B74BF0BFA74BF52
:1048F000C6DE75BF07BA76BFC58B77BFF85378BFE2
:10490000981279BF9DC779BF02737ABFBE147BBF6F
:10491000CDAC7BBF283B7CBFC9BF7CBFAC3A7DBF61
:10492000CCAB7DBF23137EBFB0707EBF6DC47EBF96
:10493000580E7FBF6D4E7FBFAB847FBF0FB17FBF6F
:1049400097D37FBF43EC7FBF11FB7FBF000080BFC9
:1049500011FB7FBF43EC7FBF97D37FBF0FB17FBFFA
:10496000AB847FBF6D4E7FBF580E7FBF6DC47EBFCF
:10497000B0707EBF23137EBFCCAB7DBFAC3A7DBF92
:10498000C9BF7CBF283B7CBFCDAC7BBFBE147BBF07
:1049900002737ABF9DC779BF981279BFF85378BF69
:1049A000C58B77BF07BA76BFC6DE75BF0BFA74BF7B
:1049B000DD0B74BF471473BF521372BF080971BF78
:1049C00073F56FBF9ED86EBF93B26DBF5E836CBF31
:1049D0000C4B6BBFA7096ABF3CBF68BFD86B67BFF2
:1049E000880F66BF59AA64BF5A3C63BF97C561BFB1
:1049F000214660BF05BE5EBF532D5DBF1A945BBFED
:104A00006AF259BF534858BFE59556BF31DB54BFD2
:104A1000491853BF3D4D51BF207A4FBF029F4DBF34
:104A2000F8BB4BBF12D149BF65DE47BF03E445BFAA
:104A300001E243BF70D841BF67C73FBFF9AE3DBF7A
:104A40003B8F3BBF426839BF233A37BFF30435BFC2
:104A5000C9C832BFBB8530BFDE3B2EBF4AEB2BBF80
:104A6000159429BF563627BF25D224BF996722BF88
:104A7000CBF61FBFD17F1DBFC6021BBFC07F18BFB3
:104A8000D9F615BF2A6813BFCDD310BFDA390EBFD0
:104A90006B9A0BBF9BF508BF824B06BF3D9C03BFC3
:104AA000E4E700BF275DFCBECBE0F6BEEA5AF1BEEC
:104AB000BBCBEBBE7533E6BE4F92E0BE80E8DABEFC
:104AC0004136D5BECA7BCFBE53B9C9BE15EFC3BEF2
:104AD000491DBEBE2A44B8BEEF63B2BED47CACBE94
:104AE000128FA6BEE59AA0BE86A09ABE32A094BE42
:104AF000229A8EBE938E88BEC07D82BECCCF78BEF9
:104B00007F9A6CBE135C60BE011554BEC2C547BE21
:104B1000CF6E3BBEA2102FBEB5AB22BE834016BEE9
:104B200087CF09BE73B2FABD2FBCE1BD36BDC8BD8B
:104B300080B6AFBD04A996BD752B7BBD2EFB48BDCD
:104B40002BC316BDB10AC9BC920E49BC000000803F
:104B50005465726D696E616C000000007C4B00084A
:104B60000000002024020000AE080008F84B0008F6
:104B700024020020AC090000583A000832018210DB
:104B8000035724F423C8421AA00423803F43404122
:104B900013DD30140829311B0875041AC1041102F1
:104BA0001204026F031A4D941371101B085D041355
:104BB000990F1C08952D980135180848436F12036A
:104BC0003B0D481A6154012E1808C8420AD7A33B6E
:104BD00095809A813C600B5345474745522052547B
:104BE000545A020413504B1408BC0312200226042A
:084BF00039301207032B2010DD
:040000050800018965
:00000001FF
