:020000040800F2
:10000000D8130020A1010008015300087541000821
:100010008D490008010C00082D690008000000004F
:100020000000000000000000000000002958000847
:10003000D711000800000000D35300082D5E00080F
:10004000BB010008BB010008BB010008BB010008A0
:10005000BB010008BB010008BB010008BB01000890
:10006000E9110008BB010008BB010008BB01000842
:10007000BB010008BB010008BB010008BB01000870
:10008000BB010008BB010008BB010008BB01000860
:10009000050C0008BB010008BB010008BB010008FB
:1000A000BB0100083D5F0008BB010008BB01000860
:1000B000BB0100085D5F0008BB010008BB01000830
:1000C000BB010008BB010008BB010008BB01000820
:1000D000BB01000889680008BB010008BB010008DB
:1000E000D9110008BB010008BB010008BB010008D2
:1000F000BB010008BB010008BB010008BB010008F0
:10010000BB010008BB010008BB010008BB010008DF
:10011000BB010008BB010008BB010008BB010008CF
:100120009D100008BB010008B5100008BB010008C5
:10013000BB010008BB010008BB010008BB010008AF
:10014000BB010008BB010008BB010008BB0100089F
:10015000BB010008BB010008BB010008BB0100088F
:10016000BB010008BB010008BB010008BB0100087F
:10017000BB010008BB010008BB0100080000000033
:10018000BB010008BB010008DFF810D000F0D0FB75
:100190000048004765720008AFF30080D8130020C4
:1001A0000648804706480047FEE7FEE7FEE7FEE711
:1001B000FEE7FEE7FEE7FEE7FEE7FEE7215F000859
:1001C000890100089FED1A1AF5EE000A40EE010AB7
:1001D000BDEEE00AF5EEC00A10EE100AF1EE10FADC
:1001E00038BF401E00EE100A1349F7EE001AB8EEB1
:1001F000C00A30EEC00ADFED0F0A20EE200AFCEE46
:10020000C00A10EE900AC0F3080000EE900A01EB5D
:100210008000F8EE600A90ED011A70EE600A90ED31
:10022000000A71EEE01A21EE800A00EE810A7047A2
:1002300083F9223E00000044C8720008B5EEC00AEF
:10024000F1EE10FA07D2DFED1E0AB4EEE00AF1EE8D
:1002500010FAA8BF7047DFED1B0AB5EEC00A60EECA
:10026000200ABDEEE01A11EE100AF1EE10FA38BFC6
:10027000401E00EE100A1549F7EE001AB8EEC00A4B
:1002800030EEC00ADFED100A60EE200ABCEEE00A94
:1002900010EE100AC0F3080000EE100A01EB800017
:1002A000B8EE400A90ED011A70EEC00A90ED000A17
:1002B00071EEE01A21EE800A00EE810A704700001C
:1002C000CD024CB483F9223E00000044C8720008FD
:1002D0002DE9F05F0546002092469B46884606467B
:1002E000814640241BE0284641464746224600F00E
:1002F0004CF953465A46C01A914110D3114618463C
:10030000224600F033F92D1A67EB01084F462246CA
:100310000120002100F02AF917EB00094E41201EB0
:10032000A4F10104DFDC484631462A464346BDE8D5
:10033000F09F40EA01039B0703D009E008C9121FA0
:1003400008C0042AFAD203E011F8013B00F8013B8F
:10035000521EF9D27047D2B201E000F8012B491EBB
:10036000FBD270470022F6E710B513460A46044652
:100370001946FFF7F0FF204610BD2DE9FE4F81EA38
:10038000030404F0004421F0004100944FF0000BFE
:1003900023F0004350EA01045ED052EA03045BD02C
:1003A000C3F30A54C1F30A552C44A4F2F334019464
:1003B000A0FB0254C1F3130141F48011C3F31303F2
:1003C00043F4801301FB024400FB034E840A970AA6
:1003D00044EA815447EA8357A4FB076802958D0AD3
:1003E00005FB07854FEA932C04FB0C542705029D5F
:1003F0004FEA065847EA1637B5EB08056EEB070CCF
:10040000870E920E47EA811742EA8312A7FB020188
:10041000B6EB0B0164EB00042B0D43EA0C335E18C2
:1004200044EB1C50DA465146E7FB0201C5F31304C6
:100430004FEA0B3343EA14534FEA0432019C43EA78
:100440000603A4F10C040294009CCDE900B400F072
:10045000F2F803B0BDE8F08F00200146F9E70EB5D1
:10046000C10F80EAE0700844CA07002140F233431C
:100470008DE80E000A460B4600F0DDF803B000BD23
:1004800000F0004230F000400AD0C10D01F560716B
:10049000C0F3160042EA0151C208400711437047F9
:1004A000002001467047000030B5041E71F10004C1
:1004B00004DB4FF00044404264EB0101141E73F171
:1004C000000405DB1C464FF00043524263EB04037B
:1004D0008B4208BF824230BD30B5041E71F100046A
:1004E00004DB4FF00044404264EB0101141E73F141
:1004F000000405DB1C464FF00043524263EB04034B
:10050000994208BF904230BD01F0004330B421F061
:10051000004150EA010206D00A0DA2F56072C1F353
:100520001301002A02DC30BC00207047440F44EA6B
:10053000C104C100E01830BC00EBC25000F035B877
:1005400030B50B46014600202022012409E021FAA3
:1005500002F59D4205D303FA02F5491B04FA02F5A0
:100560002844151EA2F10102F1DC30BD202A04DB73
:10057000203A00FA02F1002070479140C2F12003B6
:1005800020FA03F3194390407047202A04DB203AF5
:1005900021FA02F00021704721FA02F3D040C2F1A3
:1005A000200291400843194670470029A8BF7047B0
:1005B000401C490008BF20F00100704710B4B0FA99
:1005C00080FC00FA0CF050EA010404BF10BC704734
:1005D00049B1CCF1200421FA04F411FA0CF118BF4E
:1005E000012121430843A3EB0C01CB1D4FEA00611D
:1005F0004FEA102042BF002010BC704700EBC350F0
:1006000010440029A4BF10BC7047401C490008BF1B
:1006100020F0010010BC704710B5141E73F10004E7
:1006200008DA401C41F1000192185B411A4301D1E4
:1006300020F0010010BD2DE9F04D92469B4611B10E
:10064000B1FA81F202E0B0FA80F220329046FFF770
:100650008DFF04460F4640EA0A0041EA0B0153466B
:100660005A46084313D0114653EA010019D0C8F185
:1006700040025046FFF789FF05460E465046594650
:100680004246FFF773FF084305D0012004E02046EF
:100690003946BDE8F08D0020054346EAE0762C435C
:1006A00037430A986305E40AA0EB08000022FD0A1C
:1006B00044EA47540A3002D500200146E9E7010523
:1006C00010196941DDE9084500196941BDE8F04D9F
:1006D000A2E72DE9FE4F804681EA0300C00F0C46D9
:1006E000009021F0004123F00045B8EB0200A94141
:1006F00005D24046214690461C460B46024623F052
:100700000040104347D0270DC7F30A00C3F30A5136
:100710000290401A019040286BDAC3F3130040F4B2
:10072000801B0098924620B10023D2EB030A63EBB2
:100730000B0B01985946C0F140025046FFF716FFD7
:1007400006460D4650465946019A00F003F910EB53
:1007500008006141002487EA115284EAE7731A43D2
:1007600040D0009A62B3019A012A4FEA075215DC81
:10077000001B61EB02014FF0004202EA0752CDE993
:100780000042001C41F5801132462B46FFF753FF13
:1007900003B0BDE8F08F40462146F9E7001B61EB4E
:1007A0000201001C41F5801300185B412018A2F5DE
:1007B000001747EB030140EAD570B6196D4111E00F
:1007C0006D084FEA360645EAC0754FEA0752001B2E
:1007D00061EB0201001C41F5801149084FEA30002D
:1007E0000019514132462B4603B0BDE8F04FFFF7E8
:1007F00013BF0098012240000023D0EB020263EBFC
:10080000E073009821464FEAE074B8EB000061EB1A
:100810000401E9E783F000435BE781F0004158E71A
:100820002DE9F04D81EA030404F0004B21F000456E
:1008300014464FF0000A23F0004150EA050220D090
:1008400054EA01021DD0C5F30A570246C5F313034B
:10085000C1F31300C1F30A5640F4801543F480132A
:10086000A7EB0608101BD64608F2FD3873EB05000F
:1008700002D308F1010801E092185B41B8F1000FC2
:1008800003DA00200146BDE8F08D00204FF480110E
:10089000064684460EE0171B73EB050705D3121BB3
:1008A00063EB050306434CEA010C49084FEA3000AC
:1008B00092185B4150EA0107EDD152EA030012D0D1
:1008C00082EA040083EA0501084305D0101BAB410E
:1008D00006D20122002306E000224FF0004302E08E
:1008E0006FF0010253101AEB06004CEB085110EBAD
:1008F0000A0041EB0B01BDE8F04DFFF78DBEC1F3DF
:100900000A52C1F3130140F2FF3341F480119A42BD
:1009100002DA00200146704740F233439A42A2F2C5
:10092000334202DC5242FFF730BEFFF71FBE000029
:10093000064C074D06E0E06840F0010394E807002C
:1009400098471034AC42F6D3FFF722FCD87A00085F
:10095000F87A0008202A06DBCB17203A41FA02F089
:1009600043EAE07306E041FA02F3D040C2F120020C
:10097000914008431946704770B58C1810F8015B18
:1009800015F0070301D110F8013B2A1106D110F828
:10099000012B03E010F8016B01F8016B5B1EF9D12C
:1009A0002B0705D40023521E0DD401F8013BFAE7B2
:1009B00010F8013BCB1A921C03E013F8015B01F81D
:1009C000015B521EF9D5A142D8D3002070BD70B58D
:1009D0000546AC6B206C00F0500050BB206C40F41E
:1009E000007020642068806800F04050E8B9207EE4
:1009F000D8B92068C06A00F4700020B1206880680F
:100A000000F4806088B92068406820F020002168E8
:100A10004860206C20F480702064206C00F48050CA
:100A200018B9206C40F001002064204600F064FFFB
:100A30000BE0206C00F0100018B1204600F05EFFC3
:100A400003E0A06BC16C2846884770BD70B50546B1
:100A5000AC6B40202064606C40F004006064204671
:100A600000F04CFF70BD70B50446A56B284600F041
:100A700044FF70BD55494A6822F440324A604A68D2
:100A800043681A434A600268526822F4807203681D
:100A90005A6002685368026943EA022203685A6096
:100AA0000268526822F0407203685A600268526815
:100AB00083681A4303685A600268926822F40062ED
:100AC00003689A6002689268C3681A4303689A6070
:100AD0003F4B826A9A4218D00268926822F0706294
:100AE00003689A6002689268836A1A4303689A608E
:100AF0000268926822F0405203689A600268926825
:100B0000C36A1A4303689A600BE00268926822F095
:100B1000706203689A600268926822F0405203682B
:100B20009A600268926822F0020203689A60026882
:100B30009368027E43EA420203689A602022125CB4
:100B4000A2B10268526842F4006203685A60026807
:100B5000526822F4604203685A6002685368426A2D
:100B6000521E43EA423203685A6005E00268526846
:100B700022F4006203685A600268D26A22F47002AA
:100B80000368DA620268D36A828B521E43EA025219
:100B90000368DA620268926822F4007203689A605D
:100BA0000268936890F8302043EA422203689A6012
:100BB0000268926822F4806203689A60026893680F
:100BC000426943EA822203689A6070470023014029
:100BD0000100000F10B503F025FB00F034FB04F01A
:100BE000F9FB10BD10B503F031FB04F003FC00F07D
:100BF0002EFB10BD10B503F0EBFE04F045F910BD5F
:100C000000BFFEE710B5024801F054FA10BD000025
:100C10004C05002030B58BB005460C4601200990EC
:100C20000020069001200790002008900590019474
:100C300002940394049401A9284601F0EBF808B14A
:100C400000F0D9FA0BB030BD3EB505460C464FF466
:100C500080500A490860486000208860C8600846E3
:100C600004612246294601A8FFF763FB6B4601AAEF
:100C70000249034801F023F83EBD0000940B002018
:100C80004C05002010B500210548FFF7C3FF0448BC
:100C900001F077FC0221024800F0FCFF10BD0000CB
:100CA0004C0500201CB56B208DF8000079208DF8D4
:100CB000010073208DF8020067208DF80300642086
:100CC0008DF8040073208DF8050062208DF8060071
:100CD00021208DF8070008216846FFF7B5FF1CBDED
:100CE00090ED070A80ED0A0A90ED070AD0ED080A98
:100CF000B0EE001A01EE200ADFED030A80EE201AA2
:100D000080ED0B1A70470000D0B3DD3F10B52DED1C
:100D1000088B044694ED0D0A84ED130A94ED020A43
:100D200084ED140A94ED140AD4ED130A30EE600A2F
:100D300084ED150A94ED150AD4ED160A30EE600A1A
:100D4000D4ED100A20EE200AD4ED110A94ED151A04
:100D500000EE810AD4ED170A30EE200A84ED170A5E
:100D600094ED150A84ED160A94ED180A10EE101A87
:100D70000846FFF785FB41EC1A0BB0EE4A0AF0EE8D
:100D80006A0A05F003FEB0EE408AF0EE608A94ED48
:100D9000170A10EE101A0846FFF772FB41EC190B08
:100DA00053EC182BFFF798FB17D294ED180A10EEAE
:100DB000101A0846FFF764FB41EC190BB0EE490A24
:100DC000F0EE690A05F0E2FDB0EE408AF0EE608ACE
:100DD00051EC180BFFF798FBE06594ED180A10EE44
:100DE000101A0846FFF74CFB41EC1B0BB0EE4B0A08
:100DF000F0EE6B0A05F0CAFDB0EE40AAF0EE60AA74
:100E000051EC1A0B81F0004141EC180B94ED170ADC
:100E100010EE101A0846FFF733FB41EC190B53ECA8
:100E2000182BFFF741FB1BD294ED180A10EE101A95
:100E30000846FFF725FB41EC1A0BB0EE4A0AF0EE2C
:100E40006A0A05F0A3FDB0EE409AF0EE609A51EC0C
:100E5000190B81F0004141EC180BFFF755FBE065E1
:100E6000BDEC088B10BD10B52DED088B044694ED3C
:100E70000C0A84ED1C0A94ED010A84ED1D0A94ED20
:100E80001D0AD4ED1C0A30EE600A84ED1E0A94EDB2
:100E90001E0AD4ED1F0A30EE600AD4ED190A20EEC6
:100EA000200AD4ED1A0A94ED1E1A00EE810AD4ED40
:100EB000200A30EE200A84ED200A94ED1E0A84ED0B
:100EC0001F0A94ED210A10EE101A0846FFF7D8FA0F
:100ED00041EC1A0BB0EE4A0AF0EE6A0A05F056FD34
:100EE000B0EE408AF0EE608A94ED200A10EE101AFF
:100EF0000846FFF7C5FA41EC190B53EC182BFFF726
:100F0000EBFA18D294ED210A10EE101A0846FFF7FA
:100F1000B7FA41EC190BB0EE490AF0EE690A05F098
:100F200035FDB0EE408AF0EE608A51EC180BFFF709
:100F3000EBFA8021085194ED210A10EE101A0846B0
:100F4000FFF79EFA41EC1B0BB0EE4B0AF0EE6B0A7A
:100F500005F01CFDB0EE40AAF0EE60AA51EC1A0BB1
:100F600081F0004141EC180B94ED200A10EE101AAC
:100F70000846FFF785FA41EC190B53EC182BFFF7E5
:100F800093FA1CD294ED210A10EE101A0846FFF7CE
:100F900077FA41EC1A0BB0EE4A0AF0EE6A0A05F055
:100FA000F5FCB0EE409AF0EE609A51EC190B81F02E
:100FB000004141EC180BFFF7A7FA80210851BDEC66
:100FC000088B10BD10B5044604F12402111F081F40
:100FD000D4F894309847207E032800DA10BDD4F866
:100FE00090008047072853D2DFE800F05204111E1A
:100FF0002B38450094ED080ADFED270A30EEC00AD1
:10100000D4ED090A30EE600A84ED070A41E094ED60
:10101000070ADFED210A30EEC00AD4ED090A30EEEE
:10102000600A84ED080A34E094ED070ADFED1A0A3D
:1010300030EEC00AD4ED090A30EE600A84ED080AE9
:1010400027E094ED070ADFED140A30EEC00AD4ED74
:10105000080A30EE600A84ED090A1AE094ED070AE6
:10106000DFED0D0A30EEC00AD4ED080A30EE600A5A
:1010700084ED090A0DE094ED080ADFED070A30EE71
:10108000C00AD4ED090A30EE600A84ED070A00E0D8
:1010900000BF00BF00BFA1E70000000010B503F0D3
:1010A00083FC03F001FD024801F0B6FA10BD000018
:1010B0008C04002010B503F0D3FE03F051FF02486A
:1010C00001F0AAFA10BD0000EC04002001460878E7
:1010D00010381823B0FBF3F20848805CC865032A77
:1010E00005D908686FF30900001D886503E00868EA
:1010F0006FF309008865886D70470000A8720008CA
:10110000014600208A6A8B69CBB932B1012A0DD021
:10111000022A03D0032A10D10EE000BFCB6A03F0ED
:101120008073B3F1807F00D1012007E0CB6AB3F177
:10113000C07F00D1012001E000E000BF34E08B69F6
:10114000B3F5005F1AD132B1012A07D0022A03D0C9
:10115000032A11D10AE000BF01200EE0CB6A03F0A0
:101160008073B3F1807F00D1012006E0CB6AB3F138
:10117000C07F00D1012000E000BF15E032B1012A9C
:1011800005D0022A04D0032A0CD103E000BF00BF1F
:10119000012008E0CB6A03F08073B3F1807F00D1B7
:1011A000012000E000BF00BF704730B5046824682C
:1011B00024F4802405682C60046863608468402CF3
:1011C00004D10468A2600468E16003E00468A160DF
:1011D0000468E26030BD704710B503F087FE4FF43D
:1011E000006001F00FFC10BD10B503F023FC0420DB
:1011F00001F008FC10BD704710B50446207800B916
:1012000010BD204600F024F82046FFF7DBFE204604
:10121000FFF766FD204604F0A7F82046FFF776FDAD
:101220002046FFF720FE204604F06BF894ED0F1ADD
:10123000F0EE410A94ED0E1AB0EE410AD4F898008F
:10124000804700BFDCE710B5FFF7D4FC10BD704746
:1012500010B50446D4F88C00804784ED030AD4ED21
:10126000030A607800EE100AB8EE400A20EE800A09
:1012700084ED040A94ED040ADFED030A20EE200A4F
:1012800084ED050A10BD00004DF38E3C90ED030A7D
:10129000704700000146032901DB00207047104819
:1012A00050F8210000EE100AB8EEC00ADFED0D0A7A
:1012B00020EE200A0A480C3050F8210000EE900A77
:1012C000F8EEE00A9FED081A01EE200ABDEEC00A12
:1012D00010EE102A02480C3040F821201046DDE7BD
:1012E000700700206666663FD0CCCC3D2DE9F0410A
:1012F0002DED068B04460D4616460020FFF7CAFF6B
:101300000746FFF7ACF841EC1A0B9FED260B53ECA8
:10131000102BFFF732F841EC190B9FED240B53EC27
:10132000102BFFF72AF841EC180BFFF7EDF82060BF
:101330000120FFF7AFFF0746FFF791F841EC1A0BCA
:101340009FED180B53EC102BFFF717F841EC190B1E
:101350009FED160B53EC102BFFF70FF841EC180B19
:10136000FFF7D2F828600220FFF794FF0746FFF747
:1013700076F841EC1A0B9FED0B0B53EC102BFEF79C
:10138000FCFF41EC190B9FED090B53EC102BFEF702
:10139000F4FF41EC180BFFF7B7F83060BDEC068B9B
:1013A000BDE8F081F168E388B5F8343F0000000043
:1013B0000000F83F0146032901DB00207047104878
:1013C00050F8210000EE100AB8EEC00ADFED0D0A59
:1013D00020EE200A0A480C3050F8210000EE900A56
:1013E000F8EEE00A9FED081A01EE200ABDEEC00AF1
:1013F00010EE102A02480C3040F821201046DDE79C
:10140000940700206666663FD0CCCC3D2DE9F041C4
:101410002DED068B04460D4616460020FFF7CAFF49
:101420000746FFF71CF841EC1A0B9FED260B53EC17
:10143000102BFEF7A2FF41EC190B9FED240B53EC90
:10144000102BFEF79AFF41EC180BFFF75DF82060B8
:101450000120FFF7AFFF0746FFF701F841EC1A0B39
:101460009FED180B53EC102BFEF787FF41EC190B87
:101470009FED160B53EC102BFEF77FFF41EC180B82
:10148000FFF742F828600220FFF794FF0746FEF7B7
:10149000E6FF41EC1A0B9FED0B0B53EC102BFEF704
:1014A0006CFF41EC190B9FED090B53EC102BFEF771
:1014B00064FF41EC180BFFF727F83060BDEC068B9A
:1014C000BDE8F081F168E388B5F8343F0000000022
:1014D0000000F83F014691F83C00704790F83C103E
:1014E00007297CD2DFE801F07B04376A9FD2FD0038
:1014F00090ED0D0ADFED9B0A20EE200AD0ED0E0ADA
:1015000080EE201A90ED030A21EE000A80ED090A10
:1015100090ED0D0ADFED930A20EE200AD0ED0E0AC1
:1015200080EE201A90ED020A21EE000A80ED0B0AEF
:1015300090ED0D0AD0ED090A30EE600AD0ED0B0AED
:1015400030EE600AF0EE000A80EE201A80ED0C1AF0
:1015500080ED051A03E190ED0D0ADFED830A20EE20
:10156000200AD0ED0E0A80EE201A90ED030A21EE3B
:10157000000A80ED070A90ED0D0ADFED7B0A20EEF0
:10158000200AD0ED0E0A80EE201A90ED040A21EE1A
:10159000000A80ED0B0A90ED0D0AD0ED070A30EE3F
:1015A000600AD0ED0B0A30EE600AF0EE000A80EE21
:1015B000201A80ED0C1A80ED051AD0E090ED0D0A8E
:1015C000DFED680A60EE200A90ED0E1A80EE810AC7
:1015D000D0ED020A20EE200A80ED070A00E0BDE00F
:1015E00090ED0D0ADFED5F0A20EE200AD0ED0E0A25
:1015F00080EE201A90ED040A21EE000A80ED080A20
:1016000090ED0D0AD0ED070A30EE600AD0ED080A21
:1016100030EE600AF0EE000A80EE201A80ED0C1A1F
:1016200080ED051A9BE090ED0D0ADFED4F0A20EEEC
:10163000200A90ED0E1AC0EE010A90ED020A20EE8B
:10164000800A80ED060A90ED0D0ADFED470A20EED4
:10165000200A90ED0E1AC0EE010A90ED030A20EE6A
:10166000800A80ED080A90ED0D0AD0ED060A30EEF2
:10167000600AD0ED080A30EE600AF0EE000A80EE53
:10168000201A80ED0C1A80ED051A68E090ED0D0A25
:10169000DFED340A60EE200A90ED0E1A80EE810A2A
:1016A000D0ED040A20EE200A80ED060A90ED0D0A26
:1016B000DFED2C0A60EE200A90ED0E1A80EE810A12
:1016C000D0ED030A20EE200A80ED0A0A90ED0D0A03
:1016D000D0ED060A30EE600AD0ED0A0A30EE600A5C
:1016E00000E008E0F0EE000A80EE201A80ED0C1A0F
:1016F00080ED051A33E090ED0D0ADFED1B0A60EE78
:10170000200A90ED0E1A80EE810AD0ED040A20EE38
:10171000200A80ED090A90ED0D0ADFED130A20EE94
:10172000200AD0ED0E0A80EE201A90ED020A21EE7A
:10173000000A80ED0A0A90ED0D0AD0ED090A30EE9C
:10174000600AD0ED0A0A30EE600AF0EE000A80EE80
:10175000201A80ED0C1A80ED051A00E000BF00BFD2
:10176000704700002DB2DD3F2DB2DDBF38B5024617
:101770000020009000BF92F83C00012801D1022017
:1017800038BD012082F83C0000BF0868092816D93E
:101790001068C0680C780A3C04EB44050724AC4090
:1017A000A0431468E0600C780A3C04EB44048868A9
:1017B000A0401468E46820431468E06013E01068F7
:1017C00000690C7804EB44050724AC40A04314687E
:1017D00020610C7804EB44048868A04014682469F4
:1017E0002043146820614868072817D21068406BAE
:1017F0000C79641E04EB84051F24AC40A0431468DC
:101800006063088880B20C79641E04EB8404A040F5
:101810001468646B20431468606331E048680D28E5
:1018200017D21068006B0C79E41F04EB84051F24A9
:10183000AC40A04314682063088880B20C79E41F90
:1018400004EB8404A0401468246B204314682063D4
:1018500016E01068C06A0C790D3C04EB84051F2467
:10186000AC40A0431468E062088880B20C790D3C5B
:1018700004EB8404A0401468E46A20431468E06226
:10188000194B1A4C1068A04206D10868122803D1DF
:10189000586840F480005860144C1068A0421CD175
:1018A0000868102802D00868112816D1586840F43A
:1018B00000005860086810280FD10D4800680D4CD2
:1018C000B0FBF4F000EB80004000009002E00098D4
:1018D000401E009000980028F9D100BF002082F837
:1018E0003C0000BF00BF4BE7002301400020014047
:1018F0000C00002040420F00704770477047000006
:1019000070B5044600250CB9012070BD1549A06AC8
:10191000884200D000BF206C30B9204600F024F887
:101920000020606484F83C00206C00F0100088B94E
:10193000206C20F4885040F0020020642046FFF71D
:1019400099F800206064206C20F0020040F0010053
:10195000206400E0012500BF002084F83C0000BFA7
:101960002846D2E70100000F10B586B004461421C6
:1019700001A8FEF7F7FC5E492068884264D100BFE9
:10198000002000905B48006840F48070594908606E
:101990000846006800F48070009000BF00BF00BFE0
:1019A0000020009053481438006840F0040051496A
:1019B000143908600846006800F00400009000BF79
:1019C00000BF00BF002000900846006840F0020001
:1019D00008600846006800F00200009000BF00BFE9
:1019E00030200190032002900020039001A942487A
:1019F00001F016F8012001900320029000200390CE
:101A000001A93E4801F00CF83D483E49086000201D
:101A1000486000213B488160C1604FF480610161F2
:101A200089004161890081618911C16149020162B6
:101A30000021416200F010FF08B1FFF7DCFB00BF9E
:101A40003048A063846351E02F49206888424DD11B
:101A500000BF002000902748006840F4007025492E
:101A600008600846006800F40070009000BF00BFE6
:101A700000BF002000901F481438006840F00400A8
:101A80001C49143908600846006800F00400009002
:101A900000BF00BF072001900320029000200390A8
:101AA00001A9154800F0BCFF1548303017490860FF
:101AB0004FF000704860002114488160C1604FF40D
:101AC0008061016189004161890081618911C16181
:101AD000490201620021416200F0BEFE08B1FFF739
:101AE0008AFB00BF0948A063846300BF06B010BD35
:101AF0000020014044380240000802400004024037
:101B0000106402408C04002000210140EC040020FD
:101B1000F8B504460D4616460020009000BF94F824
:101B20003C00012801D10220F8BD012084F83C00CE
:101B300000BF2068806800F00100A0B920688068BC
:101B400040F0010021688860494800684949B0FBBD
:101B5000F1F000EB4000009002E00098401E009081
:101B600000980028F9D12068806800F00100002862
:101B70007CD0206C40F20161884340F48070206486
:101B80002068406800F4806028B1206C20F4005088
:101B900040F480502064206C00F48050B0F5805FE9
:101BA00004D1606C20F00600606401E000206064F5
:101BB00000BF002084F83C0000BF2F4F2F48A16BCE
:101BC000C8632F48A16B08642E48A16BC8646FF0EE
:101BD0002200216808602068406840F08060216829
:101BE00048602068806840F48070216888602268BE
:101BF00002F14C0133462A46A06B00F0A3FE786840
:101C000000F01F0018BB20492068884213D01F49EC
:101C10002068884204D1381D006800F01F0050B1D0
:101C20001B492068884221D11348001D006800F03C
:101C30001F0010281AD22068806800F0405028B990
:101C40002068806840F08040216888600EE00E497E
:101C5000206888420AD12068806800F0405028B986
:101C60002068806840F080402168886000205BE741
:101C70000C00002040420F0000230140CF09000863
:101C8000670A00084D0A00080020014000210140B9
:101C90000022014010B5024692F82030012B01D0FD
:101CA000022B06D110684069084314686061002067
:101CB00010BD506A40F4802050620120F8E7F0B572
:101CC00004460D461E4694F8207020688368A86874
:101CD00000B900E000BF012F01D0022F7CD103F03A
:101CE000806030B903F0006018B903F0805000281C
:101CF00073D0C3F30161022905D9606A40F4000082
:101D000060620120F0BD012088403060A86860B9A1
:101D1000B5F800C0E86840EA4C5C206800F5C07087
:101D200000EB0110C0F800C00FE0D5E901C040EAA7
:101D3000CC00D5F80CC040EA0C00D4F800C00CF57B
:101D4000C07C0CEB011CCCF80000D5F810C020685A
:101D500000F5C07000EB0110C0F804C0287D012818
:101D60000ED1206800F5C07000EB0110406840F40F
:101D7000807C206800F5C07000EB0110C0F804C042
:101D8000D079000692F806C040EA0C4092F805C0EF
:101D900040EA0C2C10794CEA000C206800F5C07069
:101DA00000EB0110C0F80CC0D078000692F802C019
:101DB00040EA0C4092F801C040EA0C2092F800C0C2
:101DC00040EA0C00D4F800C00CF5C07C0CEB011C00
:101DD000CCF80800206801E016E00FE000F5C070C4
:101DE00000EB0110006840F0010C206800F5C070A5
:101DF00000EB0110C0F800C0002083E7606A40F4E7
:101E00000010606201207DE7606A40F4802060621B
:101E1000012077E7F0B504460A46216894F820507F
:101E2000012D01D0022D7ED1424901F500710868D3
:101E300040F001000860086820F47C5008600868E1
:101E4000566A40EA06200860107D00F01F06012057
:101E500000FA06F3C8699843C861A1F50071D0691A
:101E6000C8B9D1F80C029843C1F80C02908880B22E
:101E7000968940EA064601F51070576940F83760C8
:101E8000108880B2168940EA064601F5107057693D
:101E900000EBC7004660D069012819D1D1F80C02C7
:101EA0001843C1F80C02908880B2168840EA0646B2
:101EB00001F51070576940F83760908980B2168933
:101EC00040EA064601F51070576900EBC70046600E
:101ED000906928B9D1F804029843C1F8040204E0DB
:101EE000D1F804021843C1F80402106928B9D1F8E6
:101EF00014029843C1F8140204E0D1F81402184304
:101F0000C1F81402106A012804D1D1F81C02184348
:101F1000C1F81C02D1F8000220F00100C1F8000253
:101F20000020F0BDFFE7606A40F48020606201207D
:101F3000F7E7000000640040704770B5044694F86D
:101F40002050012D01D0022D7DD151B92068C068EB
:101F500000F0030080B9606A40F400106062012064
:101F600070BD2068006900F0030028B9606A40F481
:101F7000001060620120F3E7206800F5D87000EBE4
:101F80000110006800F004009060906840B920687B
:101F900000F5D87000EB01100068400D106007E0FC
:101FA000206800F5D87000EB01100068C008506090
:101FB000206800F5D87000EB0110006800F0020006
:101FC000D060206800F5D87000EB0110406800F088
:101FD0000F001061206800F5D87000EB0110406818
:101FE00000F47F40000A9061206800F5D87000EB93
:101FF00001104068000C5061206800F5D87000EBBB
:10200000011080681870206800F5D87000EB01108E
:10201000806800F47F40000A5870206800F5D8708E
:1020200000EB0110806800F47F00000C98702068BD
:1020300000F5D87000EB01108068000ED8702068A1
:1020400000F5D87000E02FE000EB0110C0681871B7
:10205000206800F5D87000EB0110C06800F47F40E4
:10206000000A5871206800F5D87000EB0110C068B4
:1020700000F47F00000C9871206800F5D87000EB28
:102080000110C068000ED87131B92068C06840F0F6
:1020900020002668F06005E02068006940F020001C
:1020A0002668306100205BE7606A40F4802060624F
:1020B000012055E72DE9F05F0446002520684669B8
:1020C0002068D0F80490206887682068D0F80CA0B9
:1020D0002068D0F810B02068D0F8188006F0010011
:1020E000002855D007F00100C0B1012021688860A8
:1020F00007F0020018B1204600F073FA0EE007F076
:10210000040010B145F4006508E007F0080010B1C4
:1021100045F4805502E0204600F062FA07F4807032
:10212000C8B14FF480702168886007F4007018B15E
:10213000204600F058FA0EE007F4806010B145F434
:10214000005508E007F4006010B145F4804502E056
:10215000204600F047FA07F48030C8B14FF48030D1
:102160002168886007F4003018B1204600F03DFA7D
:102170000EE007F4802010B145F4004508E007F4B4
:10218000002010B145F4803502E0204600F02CFA22
:1021900006F0080038B10AF0100020B145F40075CF
:1021A00010202168C86006F0040040B10AF0080061
:1021B00028B108202168C860204600F0A9F906F07F
:1021C000020038B12068C06800F0030010B120465A
:1021D00000F0A0F906F0400038B10BF0100020B17B
:1021E00045F4806510202168086106F0200040B1A8
:1021F0000BF0080028B1082021680861204600F093
:10220000BDF906F0100038B12068006900F0030045
:1022100010B1204600F0B3F906F4003040B109F0E7
:10222000100028B1102021684860204600F0A8F96D
:1022300006F4803040B109F0080028B10820216878
:102240004860204600F0D2F906F4004088B309F057
:10225000040078B306F4807020B108F0010008B1E2
:1022600045F0010506F4007020B108F0020008B145
:1022700045F0020506F4806020B108F0040008B1C2
:1022800045F0040506F40060A0B108F0700088B1C4
:1022900008F07000402817D006DC10280BD020284A
:1022A0000CD0302819D10CE0502810D0602814D15F
:1022B00010E01DE019E045F008050FE045F01005BD
:1022C0000CE045F0200509E045F0400506E045F04A
:1022D000800503E045F4807500E000BF00BF206882
:1022E000806920F0700021688861042021684860BE
:1022F0002DB1606A284360622046FFF71DFEBDE8ED
:10230000F09F70B504460CB9012070BD94F8200010
:1023100010B9204600F0B0F82068006820F00200F4
:102320002168086000F082FC05460DE000F07EFCAC
:10233000401B0A2808D9606A40F40030606205201A
:1023400084F820000120E0E72068406800F00200E7
:102350000028EBD12068006840F001002168086087
:1023600000F064FC05460DE000F060FC401B0A280C
:1023700008D9606A40F400306062052084F82000CB
:102380000120C2E72068406800F001000028EBD07F
:10239000207E012806D12068006840F08000216876
:1023A000086005E02068006820F08000216808606F
:1023B000607E012806D12068006840F04000216856
:1023C000086005E02068006820F04000216808608F
:1023D000A07E012806D12068006840F02000216816
:1023E000086005E02068006820F02000216808608F
:1023F000E07E012806D12068006820F010002168E6
:10240000086005E02068006840F01000216808605E
:10241000207F012806D12068006840F0080021686C
:10242000086005E02068006820F008002168086066
:10243000607F012806D12068006840F00400216810
:10244000086005E02068006820F00400216808604A
:10245000D4E90201084321690843616908436168BE
:10246000491E08432168C86100206062012084F889
:102470002000002049E7000010B586B00446142172
:1024800001A8FDF76FFF1F492068884238D100BFBF
:10249000002000901C48006840F000701A49086055
:1024A0000846006800F00070009000BF00BF00BF49
:1024B0000020009014481038006840F001001249D4
:1024C000103908600846006800F00100009000BF65
:1024D00000BF4FF4C05001900220029000200390F2
:1024E000032004900920059001A9084800F098FAFB
:1024F00000220721142000F023FC142000F010FC1F
:1025000006B010BD006400404038024000000240A8
:10251000704700007CB505460E492868884218D1EE
:1025200000266B460C4A00210C48FFF706FD0C48BC
:10253000067C002407E01DF80420214609A004F0D1
:10254000F9F9601CC4B2B442F5DB0BA004F0F2F957
:1025500000BF7CBD00640040AC0B00204C05002097
:10256000940B0020646174615B25645D203D20252F
:1025700063202020200000000D0A000070477047F3
:10258000704770B5044694F82000012822D102203B
:1025900084F820002068006820F0010021680860AD
:1025A00000F044FB05460DE000F040FB401B0A280C
:1025B00008D9606A40F400306062052084F8200089
:1025C000012070BD2068406800F001000028EBD1B8
:1025D0006062F6E7606A40F4002060620120F0E784
:1025E00070477047704770477047704770470146A3
:1025F00091F83500022803D08020486501207047FB
:10260000052081F835000868006820F001000A689C
:1026100010600020F3E70000F8B5044600200090A9
:102620008C4800684FF41651B0FBF1F7A56D2E6889
:1026300094F85C1008208840304098B12068006809
:1026400000F0040070B12068006820F004002168E8
:10265000086094F85C1008208840A860606D40F025
:102660000100606594F85C1001208840304068B13A
:102670002068406900F0800040B194F85C100120AF
:102680008840A860606D40F00200606594F85C10BE
:1026900004208840304068B12068006800F00200E3
:1026A00040B194F85C1004208840A860606D40F050
:1026B0000400606594F85C1010208840304078B3C6
:1026C0002068006800F0080050B394F85C101020F7
:1026D0008840A8602068006800F4802080B12068ED
:1026E000006800F4002028B9206CC8B12046216C95
:1026F000884715E0A06C98B12046A16C88470FE090
:102700002068006800F4807028B92068006820F014
:10271000080021680860206C10B12046216C8847B1
:1027200094F85C10202088403040002865D0206854
:10273000006800F0100000285FD094F85C102020A2
:102740008840A86094F83500052828D120680068E2
:1027500020F01600216808602068406920F08000A1
:1027600021684861206C08B9A06C28B12068006815
:1027700020F008002168086094F85C103F20884031
:10278000A86000BF002084F8340000BF012084F856
:102790003500206D10B12046216D8847F8BD2068B6
:1027A000006800F4802080B12068006800F40020F8
:1027B00028B9606C10B12046616C88471DE0E06B61
:1027C000D8B12046E16B884717E02068006800F424
:1027D000807068B92068006820F0100021680860E7
:1027E00000BF002084F8340000BF012084F83500C9
:1027F000E06B10B12046E16B8847606D38B3606DC7
:1028000000F00100F0B1052084F835002068006870
:1028100020F001002168086000BF0098401C009073
:10282000B84200D905E02068006800F001000028E7
:10283000F3D100BF00BF002084F8340000BF0120A6
:1028400084F83500E06C10B12046E16C884700BF89
:10285000A4E700000C0000202DE9F041044600250B
:1028600000F0E4F9074614B90120BDE8F081606A80
:1028700000B100BF00BF002084F8340000BF022078
:1028800084F835002068006820F0010021680860A5
:102890000AE000F0CBF9C01B052805D920206065AF
:1028A000032084F83500E0E72068006800F00100AC
:1028B0000028EED12068056821480540D4E90101CF
:1028C0000843E16808432169084361690843A16935
:1028D0000843E1690843216A08430543606A042804
:1028E00003D1D4E90B010843054320680560206843
:1028F000456925F00705606A0543606A04280DD123
:10290000A06A0543E06A48B12046FEF7F9FB28B10A
:1029100040206065012084F83500A6E72068456105
:102920002046FEF7D3FB064694F85C103F20884013
:10293000B06000206065012084F83500002094E735
:102940003F8010F02DE9F04704460D4616461F461D
:102950004FF00008D4F8589000BF94F834000128D4
:1029600002D10220BDE8F087012084F8340000BFC6
:1029700094F83500012825D1022084F83500002084
:1029800060653B46324629462046FEF70EFC94F829
:102990005C103F208840C9F808002068006840F0BB
:1029A000160021680860206C28B12068006840F09B
:1029B0000800216808602068006840F00100216874
:1029C000086006E000BF002084F8340000BF4FF02C
:1029D00002084046C6E7000070B5044600F026F93C
:1029E00006462546681C10B104480078054400BF1F
:1029F00000F01CF9801BA842FAD370BD080000202B
:102A00007047000010B5044604480068204020B11B
:102A1000024804602046FFF7F3FF10BD143C01405C
:102A2000F8B502460B460025002400200021DCE01A
:102A3000012606FA01F51E6806EA0504AC4273D1C8
:102A40005E68012E08D05E68022E05D05E68112EE9
:102A500002D05E68122E13D190684F000326BE404C
:102A6000B0434F00DE68BE4030439060506801269E
:102A70008E40B0431E79C6F300168E40304350603E
:102A8000D0684F000326BE40B0434F009E68BE4052
:102A90003043D0605E68022E02D05E68122E13D1E1
:102AA000CF0802F1200656F827004E07F70E0F2632
:102AB000BE40B0434F07FF0E1E69BE403043CF08F3
:102AC00002F1200646F8270010684F000326BE409A
:102AD000B0431E7906F003064F00BE40304310603D
:102AE0005E6806F08056B6F1805F7DD100BF00269B
:102AF0000096404E366846F480463E4F3E603E4665
:102B0000366806F48046009600BF00BF3A4E8F0834
:102B100056F827008E07370F0F26BE40B043374EBA
:102B2000B24202D1002624E05EE0354EB24201D12D
:102B300001261EE0334EB24201D1022619E0324E88
:102B4000B24201D1032614E0304EB24201D1042634
:102B50000FE02F4EB24201D105260AE02D4EB242BF
:102B600001D1062605E02C4EB24201D1072600E035
:102B700008268F073F0FBE4030431F4E8F0846F890
:102B80002700264E3068A0435E6806F48036B6F50E
:102B9000803F00D12043214E3060361D3068A04375
:102BA0005E6806F40036B6F5003F00D120431B4EA8
:102BB000361D3060361D3068A0435E6806F480160E
:102BC000B6F5801F00D12043144E08363060361D04
:102BD0003068A0435E6806F40016B6F5001F00D109
:102BE00020430E4E0C363060491C1029FFF420AFF4
:102BF000F8BD00004438024008380140000002409F
:102C00000004024000080240000C02400010024094
:102C10000014024000180240001C0240003C014029
:102C20000AB1816101E00B048361704701480068CB
:102C3000704700000000002003480068034909783D
:102C40000844014908607047000000200800002087
:102C500010B50D48006840F400700B490860084644
:102C6000006840F4806008600846006840F48070A6
:102C70000860032000F0A2F8002000F007F800F040
:102C80002BF8002010BD0000003C024070B5044647
:102C90000E4800784FF47A71B1FBF0F00C490968E6
:102CA000B1FBF0F5284600F0E7FC08B1012070BD4B
:102CB000102C07D200222146501E00F041F8054892
:102CC000046001E00120F2E70020F0E708000020A6
:102CD0000C0000200400002008B500BF0020009078
:102CE0000E48006840F480400C49086008460068BF
:102CF00000F48040009000BF00BF00BF00200090A3
:102D0000081F006840F08050091F086008460068EE
:102D100000F08050009000BF00BF08BD4438024062
:102D200001460846002809DB00F01F0301229A40F3
:102D300043099B0003F1E023C3F8002100BF704763
:102D40002DE9F05F80460D461646002703F002FE8F
:102D5000074639462A46334601F00700C0F1070A04
:102D6000BAF1040F02D94FF0040A01E0C0F1070ADA
:102D7000D14600F1040ABAF1070F02D24FF0000A5F
:102D800001E0A0F1030AD4464FF0010A0AFA09FA59
:102D9000AAF1010A0AEA020A0AFA0CFA4FF0010B38
:102DA0000BFA0CFBABF1010B0BEA030B4AEA0B0429
:102DB0002146404603F0D6FDBDE8F09F00BF00F07D
:102DC0000702064B19684FF6FF031940044B0B43EB
:102DD00043EA0221014B196000BF70470CED00E08F
:102DE0000000FA0570B504460D460CB9012070BD0F
:102DF0005848006800F00F00A84209D255490D70EC
:102E00000846006800F00F00A84201D00120EEE75C
:102E1000207800F0020002281DD1207800F0040084
:102E2000042805D14C48006840F4E0504A49086045
:102E3000207800F00800082805D14748006840F4D1
:102E40006040454908604448006820F0F000A168EF
:102E5000084341490860207800F00100A8B3606889
:102E6000012807D13C4808380068C0F34040B8B991
:102E70000120BCE76068022802D06068032807D1FF
:102E8000354808380068C0F3406048B90120AEE713
:102E9000314808380068C0F3400008B90120A6E7AF
:102EA0002D48006820F00300616808432A49086043
:102EB000FFF7BCFE064609E0FFF7B8FE801B41F2B3
:102EC0008831884202D9032091E707E02248006850
:102ED00000F00C006168B0EB810FEDD11D48006877
:102EE00000F00F00A84209D91A490D700846006881
:102EF00000F00F00A84201D0012078E7207800F010
:102F00000400042807D11448006820F4E050E16868
:102F1000084311490860207800F00800082808D10B
:102F20000D48006820F46040216940EAC1000A4968
:102F3000086000F03FF808490968C1F30311074A27
:102F4000515CC8400649086006480068FFF79EFECD
:102F500000204CE7003C024008380240B0720008F4
:102F60000C000020040000200148006870470000A9
:102F70000C00002000B5FFF7F7FF04490968C1F312
:102F80008221034A515CC84000BD0000083802405D
:102F9000C072000800B5FFF7E7FF04490968C1F3F4
:102FA0004231034A515CC84000BD0000083802406D
:102FB000C07200082DE9F047002400250026A14634
:102FC0002548006800F00C0020B1042805D008282E
:102FD0003AD105E0DFF8849039E0DFF8849036E0FC
:102FE0001D48001F006800F03F041B48001F0068D8
:102FF00000F4800078B11A481749091F0968C1F325
:103000008811A0FB01700146224600233846FDF7D7
:103010005FF905460EE011480F49091F0968C1F321
:103020008811A0FB01700146224600233846FDF7B7
:103030004FF905460848001F0068C0F30140401CD6
:103040004600B5FBF6F902E0DFF8109000BF00BFC4
:103050004846BDE8F0870000083802400024F4002C
:1030600000127A00F8B504460CB90120F8BD2078AA
:1030700000F00100002874D0F948006800F00C004E
:1030800004280DD0F648006800F00C00082813D181
:10309000F348001F006800F48000B0F5800F0BD1EA
:1030A000EF4808380068C0F34040002859D06068F5
:1030B000002856D10120D9E700BF6068B0F5803FF5
:1030C00008D1E7480838006840F48030E4490839FE
:1030D00008601EE06068B0F5A02F0DD1E048083808
:1030E000006840F48020DE4908390860084600681E
:1030F00040F4803008600CE0D9480838006820F4BB
:103100008030D749083908600846006820F48020DC
:10311000086000BF606890B1FFF788FD054606E0D3
:10312000FFF784FD401B642801D903209EE7CC48AB
:1031300008380068C0F340400028F1D011E0FFF7E4
:1031400075FD054606E0FFF771FD401B642801D9B7
:1031500003208BE7C24808380068C0F340400028CD
:10316000F1D1207800F0020002285FD1BC4800684D
:1031700000F00C0058B1BA48006800F00C000828B4
:103180001CD1B748001F006800F48000B0B9B448F3
:1031900008380068C0F3400020B1E068012801D081
:1031A000012063E7AE480838006820F0F800216984
:1031B00040EAC100AA490839086037E0E06800B376
:1031C0000120A8490860FFF731FD054606E0FFF73A
:1031D0002DFD401B022801D9032047E7A0480838ED
:1031E0000068C0F340000028F1D09D48083800680E
:1031F00020F0F800216940EAC100994908390860C7
:1032000014E0002097490860FFF710FD054606E02E
:10321000FFF70CFD401B022801D9032026E7904848
:1032200008380068C0F340000028F1D1207800F091
:10323000080008282CD16069A8B101208A490860DB
:10324000FFF7F4FC054606E0FFF7F0FC401B022800
:1032500001D903200AE782486C300068C0F34000BF
:103260000028F1D014E000207F490860FFF7DEFC61
:10327000054606E0FFF7DAFC401B022801D90320CF
:10328000F4E677486C300068C0F340000028F1D1C4
:10329000207800F00400042870D1002770483830EE
:1032A000006800F0805090B900BF002000906C488A
:1032B0003830006840F0805069493831086008466D
:1032C000006800F08050009000BF00BF01276748F1
:1032D000006800F48070B0B96448006840F4807001
:1032E00062490860FFF7A2FC054606E0FFF79EFC76
:1032F000401B022801D90320B8E65C48006800F4AE
:1033000080700028F2D000BFA068012808D154487E
:103310006830006840F001005149683108601DE0E4
:10332000A06805280DD14E486830006840F00400C0
:103330004B49683108600846006840F001000860A9
:103340000CE047486830006820F0010044496831CB
:1033500008600846006820F00400086000BFA0680C
:10336000A8B1FFF763FC054609E0FFF75FFC401BCF
:1033700041F28831884202D9032077E626E03848B6
:1033800068300068C0F340000028EED013E0FFF77B
:103390004DFC054608E0FFF749FC401B41F288312F
:1033A000884201D9032061E62D4868300068C0F3E7
:1033B00040000028EFD1012F07D12948383000689C
:1033C00020F0805026493831086000BFA0690028ED
:1033D00045D02348006800F00C0008285DD0A069A3
:1033E000022845D100201F490866FFF71FFC05464B
:1033F00006E0FFF71BFC401B022801D9032035E63D
:10340000174808380068C0F340600028F1D1D4E9BB
:1034100007010843616A40EA81110122A06AC2EBF8
:10342000500041EA00412C20005D41EA00600C4957
:10343000091F086001200B490866FFF7F7FB0546E6
:1034400006E0FFF7F3FB401B022801D903200DE63D
:10345000034808380068C0F340600028F1D03FE01E
:103460000838024000004742800E4742007000408A
:1034700000201C490866FFF7D9FB054606E0FFF768
:10348000D5FB401B022801D90320EFE51648006850
:10349000C0F340600028F2D122E0A069012800D1E9
:1034A000E4E51148001D066806F48001E0698142E8
:1034B00014D106F03F01206A81420FD147F6C07057
:1034C0003040616A884209D106F44031A06A8142E5
:1034D00004D106F07061E06A814201D00120C5E5A7
:1034E0000020C3E5000047420038024010B5044602
:1034F0000CB9012010BD606A00B900BF0021A162B3
:1035000094F8510028B9002084F85000204600F0BB
:1035100033F8022084F851002068006820F0400051
:1035200021680860D4E901010843E1680843216982
:10353000084361690843218B01F400710843E16984
:103540000843216A0843A16A0843216808600421EE
:10355000A06901EA1040616A084321684860206858
:10356000C06920F400602168C86100206065012006
:1035700084F851000020BDE710B586B00446142140
:1035800001A8FCF7EFFE37492068884230D100BF20
:10359000002000903448006840F4805032490860B0
:1035A0000846006800F48050009000BF00BF00BFD4
:1035B000002000902C481438006840F001002A498F
:1035C000143908600846006800F00100009000BF50
:1035D00000BFE02001900220029000200390032011
:1035E00004900520059001A92048FFF719FA36E05C
:1035F0001F492068884232D100BF002000901A483D
:10360000001F006840F480401749091F0860084601
:10361000006800F48040009000BF00BF00BF0020A1
:10362000009011481438006840F002000E49143927
:1036300008600846006800F00200009000BF00BF6C
:103640004FF460400190022002900020039003207C
:1036500004900520059001A90648FFF7E1F906B09E
:1036600010BD00000030014044380240000002401C
:10367000003800400004024070B504462546681E2C
:10368000B0F1807F01D301200FE0681E4FF0E021F0
:1036900048610F214FF0FF3003F064F900204FF034
:1036A000E021886107200861002070BD70477047E5
:1036B00010B50346002200BF93F83C00012801D159
:1036C000022010BD012083F83C0000BF22F0FF0063
:1036D000CC6840EA040222F440708C6840EA04029C
:1036E00022F480604C6840EA040222F400600C6816
:1036F00040EA040222F480500C6940EA040222F4F9
:1037000000504C6940EA040222F48040CC6940EA4F
:1037100004021868426400BF002083F83C0000BF28
:1037200000BFCEE730B502460B4600BF92F83C0022
:10373000012801D1022030BD012082F83C0000BFE9
:10374000022082F83D00106844681068816824F007
:1037500070041868044310684460184D1068A8424B
:103760001BD01068B0F1804F17D0154D1068A842DB
:1037700013D0144D1068A8420FD0134D1068A84202
:103780000BD0124D1068A84207D0114D1068A84206
:1037900003D0104D1068A84205D121F0800158686F
:1037A000014310688160012082F83D0000BF0020C5
:1037B00082F83C0000BF00BFBDE7000000000140F0
:1037C0000004004000080040000C004000040140DC
:1037D000004001400018004010B504460CB901201B
:1037E00010BD94F83D0028B9002084F83C00204624
:1037F00000F00CF8022084F83D00211D206802F042
:10380000BDFB012084F83D000020E9E738B50446FF
:103810000E492068884217D100BF002000900C4854
:10382000006840F002000A4908600846006800F09D
:103830000200009000BF00BF002206211D20FFF7FC
:103840007FFA1D20FFF76CFA38BD0000000400402D
:103850004038024001460868C06840F001000B682B
:10386000D8600868806800F00702062A05D008685A
:10387000006840F001000B681860002070472DE9D7
:10388000F04104460D4614B90120BDE8F08194F8DA
:103890003D0028B9002084F83C00204600F046F89E
:1038A000022084F83D002068806844F207018843C4
:1038B00021688860211D206802F060FB2068D0F834
:1038C0000880206886692068076A286840EA080836
:1038D00040F203308643A969A86840EA0120064304
:1038E00040F60C4086434FF2F0008643E969E868F1
:1038F00040EA0120064328690001296A40EA0130B4
:10390000064327F0220727F088076969686840EABC
:10391000011007432068C0F808802068866120688D
:103920000762012084F83D000020AEE710B586B0A4
:103930000446142101A8FCF715FD2068B0F1804F62
:103940002FD100BF002000903148006840F00100F6
:103950002F4908600846006800F00100009000BF91
:1039600000BF00BF0020009029481038006840F0D8
:1039700001002749103908600846006800F001007E
:10398000009000BF00BF03200190022002900020A1
:10399000039004900120059001A91E48FFF740F80C
:1039A00033E01D49206888422FD100BF00200090DD
:1039B0001748006840F00400154908600846006890
:1039C00000F00400009000BF00BF00BF0020009086
:1039D0000F481038006840F008000D4910390860A1
:1039E0000846006800F00800009000BF00BF4FF4D8
:1039F0004050019002200290002003900490022089
:103A0000059001A90548FFF70BF806B010BD0000AE
:103A1000403802400000024000080040000C024014
:103A200030B504460D4615B1042D0CD105E0012238
:103A30000021206802F00EFB10E001220421206822
:103A400002F008FB0AE001220021206802F002FBDC
:103A500001220421206802F0FDFA00BF00BF2068A7
:103A6000006840F0010021680860002030BD704708
:103A700010B5044620680069C0F34000D8B1206842
:103A8000C068C0F34000B0B16FF002002168086167
:103A9000012020772068806900F0030018B12046DB
:103AA000FFF7E5FF05E0204600F006F9204600F0AC
:103AB000C7F90020207720680069C0F38000D8B1E2
:103AC0002068C068C0F38000B0B16FF004002168C6
:103AD0000861022020772068806900F4407018B1E6
:103AE0002046FFF7C4FF05E0204600F0E5F8204639
:103AF00000F0A6F90020207720680069C0F3C0001C
:103B0000D8B12068C068C0F3C000B0B16FF0080041
:103B100021680861042020772068C06900F0030054
:103B200018B12046FFF7A3FF05E0204600F0C4F8D7
:103B3000204600F085F90020207720680069C0F356
:103B40000010D8B12068C068C0F30010B0B16FF0A9
:103B5000100021680861082020772068C06900F4FF
:103B6000407018B12046FFF782FF05E0204600F0C4
:103B7000A3F8204600F064F900202077206800694F
:103B800000F0010058B12068C06800F0010030B1B9
:103B90006FF0010021680861204600F07FF920687D
:103BA0000069C0F3C01058B12068C068C0F3C010ED
:103BB00030B16FF08000216808612046FFF776FD84
:103BC00020680069C0F3801058B12068C068C0F355
:103BD000801030B16FF0400021680861204600F08D
:103BE00094F920680069C0F3401058B12068C0689B
:103BF000C0F3401030B16FF020002168086120460A
:103C0000FFF755FD10BD000010B586B00446142125
:103C100001A8FCF7A7FB2349206888421ED100BFFA
:103C2000002000902048006840F010001E49086005
:103C30000846006800F01000009000BF00BF4FF47D
:103C4000285001900220029000200390049001204F
:103C5000059001A91548FEF7E3FE21E0144920680C
:103C600088421DD100BF002000900F48006840F03E
:103C700004000D4908600846006800F00400009048
:103C800000BF00BF4FF4E0700190022002900020BE
:103C9000039004900220059001A90648FEF7C0FE9B
:103CA00006B010BD00000140303802400010024054
:103CB0000004004000080240704770B504460D46FD
:103CC000164600BF94F83C00012801D1022070BDC7
:103CD000012084F83C0000BF022084F83D0036B18A
:103CE000042E1BD0082E31D00C2E5ED145E0294683
:103CF000206802F0CBF92068806940F00800216854
:103D000088612068806920F004002168886120684B
:103D10008069296908432168886147E0294620684D
:103D200002F0ECF92068806940F400602168886145
:103D30002068806920F4806021688861206880693B
:103D4000296940EA0120216888612FE0294620681E
:103D500002F012FA2068C06940F008002168C861CA
:103D60002068C06920F004002168C8612068C0692B
:103D7000296908432168C86118E02946206802F0D3
:103D800037FA2068C06940F400602168C861206883
:103D9000C06920F480602168C8612068C069296911
:103DA00040EA01202168C86100E000BF00BF012097
:103DB00084F83D0000BF002084F83C0000BF00BF35
:103DC00085E710B504460CB9012010BD94F83D00FC
:103DD00028B9002084F83C00204600F00DF80220AD
:103DE00084F83D00211D206802F0C8F8012084F805
:103DF0003D000020E9E7000038B504460E49206880
:103E0000884217D100BF002000900C48006840F0A5
:103E100001000A4908600846006800F001000090AF
:103E200000BF00BF002204211920FEF789FF1920DE
:103E3000FEF776FF38BD0000000001404438024024
:103E40007047000070B504460E46012231462068D6
:103E500002F000F90F492068884203D00E4920681B
:103E6000884201D1012000E0002028B12068406C88
:103E700040F40040216848642068806800F007052D
:103E8000062D05D02068006840F001002168086018
:103E9000002070BD0000014000040140704770B573
:103EA00004460D4600BF94F83C00012801D10220D1
:103EB00070BD012084F83C0000BF022084F83D0062
:103EC0002946204602F0BEF948B1012084F83D00A1
:103ED00000BF002084F83C0000BF0120E8E7206814
:103EE000C06820F040002168C8602068C06820F4E5
:103EF00080402168C860012084F83D0000BF002098
:103F000084F83C0000BF00BFD2E770477047000054
:103F10002DE9F0470446206805682068C6682068D7
:103F200047694FF00008C14605F00F08B8F1000FCF
:103F30000AD105F0200038B106F0200020B120465B
:103F400002F026FABDE8F087B8F1000F72D007F052
:103F5000010018B906F4907000286BD005F001003C
:103F600030B106F4807018B1E06B40F00100E063FE
:103F700005F0040030B107F0010018B1E06B40F02B
:103F80000200E06305F0020030B107F0010018B153
:103F9000E06B40F00400E06305F0080048B106F073
:103FA000200010B907F0010018B1E06B40F00800E4
:103FB000E063E06B70B305F0200028B106F020004C
:103FC00010B1204602F0E4F920684069C0F380197E
:103FD000E06B00F0080010B9B9F1000F23D02046C3
:103FE00002F0B6F92068406900F04000402816D180
:103FF0002068406920F0400021684861606B50B142
:104000001748616B0865606BFEF7F1FA10B1606BE1
:10401000016D88470CE02046FFF778FF08E0204656
:10402000FFF774FF04E02046FFF770FF0020E06315
:1040300088E7FFE705F0800030B106F0800018B196
:10404000204602F0EDFB7DE705F0400030B106F0C0
:10405000400018B1204602F08BF973E700BF71E70A
:104060003D63000810B504460CB9012010BDA069DD
:1040700000B100E000BF94F8390028B9002084F8AE
:104080003800204600F028F8242084F83900206801
:10409000C06820F400502168C860204602F0CCF9C6
:1040A0002068006920F49040216808612068406918
:1040B00020F02A00216848612068C06840F4005060
:1040C0002168C8600020E063202084F8390084F86B
:1040D0003A000020CAE7000010B586B0044614215B
:1040E00001A8FCF73FF91F492068884238D100BF7A
:1040F000002000901C48006840F010001A49086039
:104100000846006800F01000009000BF00BF00BF2C
:104110000020009014481438006840F00100124953
:10412000143908600846006800F00100009000BFE4
:1041300000BF4FF4C0600190022002900020039065
:10414000032004900720059001A90848FEF768FCA9
:10415000002208212520FEF7F3FD2520FEF7E0FDD3
:1041600006B010BD0010014044380240000002407B
:104170007047704700BFFEE710B52DED028B044677
:10418000B0EE408AB0EE480A2146034801F090FBA9
:10419000BDEC028B10BD00009000002010B5B7EE02
:1041A000000A0220FFF7E8FF10BD000010B502482A
:1041B00000F004F810BD00009000002010B5044687
:1041C0001049E0680968081A00EE100AB8EE400AC3
:1041D000D4ED010A9FED0C1A60EE810AB4EEE00AFC
:1041E000F1EE10FA01DB012000E0002040B10548AB
:1041F0000068E0602078022802D1204600F006F82E
:1042000010BD00007403002000007A4410B504467D
:10421000607808B9012000E00020607060782169B2
:10422000884710BD10B51E2400F056FD00F0B0FF09
:1042300000F012FC00F06CFE00F0D2FD01F02CF852
:1042400002F068FBFCF71EFD10BD000010B506482B
:1042500004680648006800F5FA70844203D3FCF74E
:1042600021FD0248046010BD340000201000002031
:104270001FB5002000900190029003902148224930
:1042800008604FF48030486000211F4881600121A0
:1042900001610021017680F82010C1621B49816212
:1042A0000021C1600321C161012180F8301000218B
:1042B0004161FDF725FB08B1FCF79DFF0E20009042
:1042C000012001900020029069460F48FDF74EFA48
:1042D00008B1FCF790FF0F20009002200190694682
:1042E0000948FDF743FA08B1FCF785FF0820009064
:1042F0000320019069460448FDF738FA08B1FCF73D
:104300007AFF1FBD00200140FC0300200100000FC8
:104310001FB500200090019002900390214822498F
:1043200008604FF48030486000211F4881600121FF
:1043300001610021017680F82010C1621B49816271
:104340000021C1600321C161012180F830100021EA
:104350004161FDF7D5FA08B1FCF74DFF0A20009046
:10436000012001900020029069460F48FDF7FEF9F8
:1043700008B1FCF740FF0B20009002200190694635
:104380000948FDF7F3F908B1FCF735FF0C20009060
:104390000320019069460448FDF7E8F908B1FCF7ED
:1043A0002AFF1FBD00210140440400200100000F2E
:1043B00010B50F480F490860072048604FF0804152
:1043C0000C4881600021C1604FF4802101614FF4ED
:1043D000A00141610021017641768176C1760177A5
:1043E0004177FDF78EFF08B1FCF705FF10BD000017
:1043F000006400404C05002008B500BF002000907C
:104400000E48006840F480000C49086008460068C7
:1044100000F48000009000BF00BF0022032138207C
:10442000FEF78EFC3820FEF77BFC002205213A20A7
:10443000FEF786FC3A20FEF773FC08BD30380240D8
:1044400000B587B0142102A8FBF78CFF00BF002045
:1044500001906F48006840F080006D490860084690
:10446000006800F08000019000BF00BF00BF002086
:1044700001900846006840F00400086008460068A3
:1044800000F00400019000BF00BF00BF00200190B9
:104490000846006840F0010008600846006800F027
:1044A0000100019000BF00BF00BF0020019008463E
:1044B000006840F0020008600846006800F0020052
:1044C000019000BF00BF00BF0020019008460068B7
:1044D00040F0100008600846006800F010000190ED
:1044E00000BF00BF00BF002001900846006840F0F8
:1044F000080008600846006800F00800019000BF4E
:1045000000BF012210214348FEF78AFB00224FF42E
:1045100080714148FEF784FB012211033F48FEF7FA
:104520007FFB00224FF400713D48FEF779FB00222B
:1045300010213C48FEF774FB042002903A48039097
:104540000020049002A93348FEF76AFA1020029076
:104550000120039004900220059002A92D48FEF747
:104560005FFA4FF4807002900120039000200490C5
:10457000059002A92848FEF753FA4FF480500290A4
:104580000120039004900220059002A92348FEF721
:1045900047FA4FF4006002902348039000200490F3
:1045A00002A92048FEF73CFA4FF400700290012067
:1045B000039000200490059002A91948FEF730FAF4
:1045C0000F200290002003900120049002A91548BA
:1045D000FEF726FA1020029001200390002004909C
:1045E000059002A90F48FEF71BFA002201210820BE
:1045F000FEF7A6FB0820FEF793FB002202212820ED
:10460000FEF79EFB2820FEF78BFB07B000BD0000E5
:104610003038024000000240001002400004024016
:1046200000080240000C02400000111010B51048B4
:10463000104908604FF48270486000210D48816085
:104640004FF40061C1600021016101214161490213
:1046500081611821C16100210162416281620A21E8
:10466000C162FEF743FF08B1FCF7C5FD10BD0000B5
:10467000003001407405002010B510481049086052
:104680004FF48270486000210D4881604FF4006152
:10469000C160002101610121416149028161102154
:1046A000C16100210162416281620A21C162FEF79B
:1046B0001DFF08B1FCF79FFD10BD00000038004051
:1046C000CC05002000B591B000200F9010901C2167
:1046D00008A8FBF747FE20216846FBF743FE2C485D
:1046E0002C4908600120486040212A48816041F23D
:1046F0006701C16000210161416180218161FFF793
:1047000060FB08B1FCF777FD20200F90802010900F
:104710000FA92048FFF706F808B1FCF76CFD6020F0
:104720000890002009900A900B900C900D900E902C
:10473000002208A91748FFF7C0FA08B1FCF75BFD93
:10474000042208A91348FFF7B8FA08B1FCF753FD93
:10475000082208A90F48FFF7B0FA08B1FCF74BFD93
:104760000020009001900290039004904FF40050BC
:1047700005900020079069460648FEF799FF08B1AA
:10478000FCF739FD0348FFF73FFA11B000BD000008
:10479000000001402406002000B58BB0242102A8AF
:1047A000FBF7E0FD0020009001904FF0804017499A
:1047B00008600020486000211448816044F62061B0
:1047C000C1600021016181610120029000200390FD
:1047D0000120049000200590069007900120089089
:1047E000002009900A9002A90848FFF748F808B18C
:1047F000FCF701FD00200090019069460348FEF798
:1048000091FF08B1FCF7F7FC0BB000BD6406002077
:1048100000B58FB014210AA8FBF7A4FD0020089072
:1048200009901C2101A8FBF79DFD29482949086032
:104830000020486040212748816041F26701C16043
:104840000021016180218161FEF7C6FF08B1FCF7FC
:10485000D2FC2048FFF7B5FA08B1FCF7CCFC0620E3
:104860000A9000200B900AA91A48FFF718FB08B11C
:10487000FCF7C1FC202008900020099008A91548E9
:10488000FEF750FF08B1FCF7B6FC60200190002055
:10489000029003900590002201A90E48FFF70DFA3F
:1048A00008B1FCF7A8FC042201A90A48FFF705FAA1
:1048B00008B1FCF7A0FC082201A90648FFF7FDF9A2
:1048C00008B1FCF798FC0348FFF79EF90FB000BD54
:1048D00000040040A406002000B58BB0242102A8EB
:1048E000FBF740FD0020009001901848184908602F
:1048F0000020486000211648816044F62061C160B4
:1049000000210161816101200290002003900120BB
:104910000490002005900690079001200890002048
:1049200009900A9002A90A48FEF7A9FF08B1FCF70E
:1049300062FC00200090019069460548FEF7F2FEF7
:1049400008B1FCF758FC0BB000BD000000080040A7
:10495000E406002010B50B480B4908604FF4E13025
:104960004860002108488160C16001610C214161FB
:1049700000218161C161FFF775FB08B1FCF73BFCC9
:1049800010BD0000001001402407002000BFFEE71A
:1049900010B5032202490348FDF7BAF810BD000024
:1049A00064070020FC03002008480068A0F50060B0
:1049B0000649C86008464068A0F5006008610846DE
:1049C0008068A0F50060486170470000640700201F
:1049D00010B5012000F00CF99FED130A00F088FFDC
:1049E0009FED120A00F0ACFF9FED100A00F0D0FF1F
:1049F0004FF4FA70FDF7F0FF002406E00A20FDF7FF
:104A0000EBFF00F007FA601CC4B20A2CF6DB9FED46
:104A1000080A00F06DFF9FED060A00F091FF9FED80
:104A2000040A00F0B5FF10BD0000A04200002042C3
:104A30000000000010B50748007930B900F0A4F973
:104A4000044908600120087103E00249086800F089
:104A5000F5F910BD1400002000200249086008711B
:104A6000704700001400002010B501210A4800F032
:104A7000F2FEDFED0A1A9FED0A1ADFED0A0A9FED3A
:104A8000090A054800F0D1FEDFED050A9FED040A92
:104A9000014800F0DBFE10BDF00000206991DD4010
:104AA00000000000BC74933C10B50248FCF7A4FB66
:104AB00010BD0000F000002010B50248FCF7E6FB36
:104AC00010BD0000F000002010B5FFF7F5FFDFED8E
:104AD000020A30EE600A10BD0000344310B52DED1F
:104AE000028BFFF7E9FF184880ED000A90ED000AFD
:104AF0001648D0ED000A30EE600AB0EE408A9FED15
:104B0000140AB4EEC08AF1EE10FA05D29FED110A34
:104B100038EE000AB0EE408A9FED0F0AB4EEC08A6C
:104B2000F1EE10FA05DD9FED0B0A38EE400AB0EE0B
:104B3000408A054890ED000A044880ED000AB0EE76
:104B4000480ABDEC028B10BDC8010020CC0100203A
:104B5000000034C30000B4430000344310B50248E1
:104B6000FCF7B8FC10BD0000A400002010B52DED2E
:104B7000028BB0EE408AB0EE480A034800F0B5FF61
:104B8000BDEC028B10BD0000D001002010B5B7EEC7
:104B9000000A084800F09CFF9FED071ADFED070AA6
:104BA0009FED050A034800F099FF9FED040AFFF707
:104BB000DDFF10BDD00100208FC2753D0000000058
:104BC00010B5024800F0FCFC10BD0000D001002030
:104BD00010B52DED028BB0EE408AF0EE480A9FED45
:104BE000030A00F01DF8BDEC028B10BD00000000B0
:104BF00010B5044622464FF480710248FEF710F8C3
:104C000010BD00000010024010B52DED028BB0EE7B
:104C1000408AB0EE480A00F017F8BDEC028B10BDD8
:104C200010B52DED028BB0EE408AF0EE608AF0EE0A
:104C3000680AB0EE480A034800F008FEBDEC028B9B
:104C400010BD0000F000002010B52DED028BB0EE7D
:104C5000408AB0EE480A034800F057FFBDEC028BD3
:104C600010BD00008C01002010B5B7EE000A094805
:104C700000F03EFF9FED081ADFED080AB5EE000ACE
:104C8000044800F03BFF9FED040A024800F03DFF9E
:104C900010BD00008C0100200000000017B7513A41
:104CA00010B5024800F08AFF10BD00008C01002002
:104CB00010B52DED028BB0EE408AF0EE608AF0EE7A
:104CC000680AB0EE480A034800F09CFFBDEC028B76
:104CD00010BD0000A400002010B51348FEF7BAFD77
:104CE00000211148FFF7AEF804210F48FFF7AAF89A
:104CF00008210D48FFF7A6F800200B490968486312
:104D000009490968886308490968C8639FED070A6B
:104D100000F0EEFD9FED050A00F012FE9FED030A84
:104D200000F036FE10BD0000240600200000000048
:104D300000B500F029F800EE100AF8EEC00A9FED69
:104D40000F1A80EE810ADFED0E0A20EE200A0D48D0
:104D500080ED010A90ED010AB5EEC00AF1EE10FAFD
:104D600007D290ED010ADFED060A30EE200A80ED51
:104D7000010A044890ED010A00BD00000000004651
:104D80000000B4431C000020134801681348006869
:104D9000406AA0F51C50103808440F49086042F2E0
:104DA00010700E49096848620B480068002805DA4F
:104DB0000948006800F5005007490860064908687E
:104DC000C11700EBD1414913A0EB4131024A1160F8
:104DD00010460068704700001C0000206406002098
:104DE00010B504210848FEF71BFE42F21070064978
:104DF000096848629FED050A054880ED010A002018
:104E00000349086010BD0000640600200000000097
:104E10001C00002042F210700549096848629FEDAD
:104E2000050A054880ED010A002003490860704723
:104E300064060020000000001C00002001490860FA
:104E4000704700001C00002010B5032202490348EF
:104E5000FCF75EFE10BD000088070020440400201F
:104E600008480068A0F500600649C8600846406828
:104E7000A0F50060086108468068A0F50060486100
:104E8000704700008807002010B5012000F00CF9E1
:104E90009FED130A00F0A4FD9FED120A00F0C8FD7B
:104EA0009FED100A00F0ECFD4FF4FA70FDF794FD51
:104EB000002406E000F00AFA0A20FDF78DFD601CD0
:104EC000C4B20A2CF6DB9FED080A00F089FD9FEDC5
:104ED000060A00F0ADFD9FED040A00F0D1FD10BD03
:104EE0000000A042000020420000000010B507486A
:104EF000007930B900F0A4F9044908600120087174
:104F000003E00249086800F0F5F910BD2400002014
:104F1000002002490860087170470000240000204A
:104F200010B501210A4800F096FCDFED0A1A9FED4A
:104F30000A1ADFED0A0A9FED090A054800F075FC20
:104F4000DFED050A9FED040A014800F07FFC10BD6B
:104F5000580200206991DD4000000000BC74933CC1
:104F600010B50248FCF748F910BD000058020020B7
:104F700010B50248FCF78AF910BD00005802002065
:104F800010B5FFF7F5FFDFED020A30EE600A10BD45
:104F90000000344310B52DED028BFFF7E9FF1848F0
:104FA00080ED000A90ED000A1648D0ED000A30EEC0
:104FB000600AB0EE408A9FED140AB4EEC08AF1EEAA
:104FC00010FA05D29FED110A38EE000AB0EE408AC1
:104FD0009FED0F0AB4EEC08AF1EE10FA05DD9FEDE9
:104FE0000B0A38EE400AB0EE408A054890ED000A00
:104FF000044880ED000AB0EE480ABDEC028B10BDFB
:105000003003002034030020000034C30000B44308
:105010000000344310B50248FCF75CFA10BD0000F4
:105020000C02002010B52DED028BB0EE408AB0EEE0
:10503000480A034800F059FDBDEC028B10BD00008A
:105040003803002010B5B7EE000A084800F040FD14
:105050009FED071ADFED070A9FED050A034800F0F0
:105060003DFD9FED040AFFF7DDFF10BD3803002072
:105070008FC2753D0000000010B5024800F0A0FA94
:1050800010BD00003803002010B52DED028BB0EEEE
:10509000408AF0EE480A9FED030A00F01DF8BDECCF
:1050A000028B10BD0000000010B5044622464FF4EC
:1050B00000710248FDF7B4FD10BD00000008024079
:1050C00010B52DED028BB0EE408AB0EE480A00F02C
:1050D00017F8BDEC028B10BD10B52DED028BB0EEB4
:1050E000408AF0EE608AF0EE680AB0EE480A0348A3
:1050F00000F0ACFBBDEC028B10BD0000580200209C
:1051000010B52DED028BB0EE408AB0EE480A034890
:1051100000F0FBFCBDEC028B10BD0000F40200208F
:1051200010B5B7EE000A094800F0E2FC9FED081A3E
:10513000DFED080AB5EE000A044800F0DFFC9FED41
:10514000040A024800F0E1FC10BD0000F402002057
:105150000000000017B7513A10B5024800F02EFDCC
:1051600010BD0000F402002010B52DED028BB0EE52
:10517000408AF0EE608AF0EE680AB0EE480A034812
:1051800000F040FDBDEC028B10BD00000C020020C1
:1051900010B51348FEF75EFB00211148FEF752FEE2
:1051A00004210F48FEF74EFE08210D48FEF74AFE87
:1051B00000200B4909684863094909688863084960
:1051C0000968C8639FED070A00F00AFC9FED050A15
:1051D00000F02EFC9FED030A00F052FC10BD000011
:1051E000A40600200000000000B500F029F800EE41
:1051F000100AF8EEC00A9FED0F1A80EE810ADFED6B
:105200000E0A20EE200A0D4880ED010A90ED010AF9
:10521000B5EEC00AF1EE10FA07D290ED010ADFED0B
:10522000060A30EE200A80ED010A044890ED010ADA
:1052300000BD0000000000460000B4432C00002028
:105240001348016813480068406AA0F51C501038E4
:1052500008440F49086042F210700E49096848621C
:105260000B480068002805DA0948006800F500507E
:105270000749086006490868C11700EBD141491386
:10528000A0EB4131024A11601046006870470000EF
:105290002C000020E406002010B504210848FEF789
:1052A000BFFB42F210700649096848629FED050A8B
:1052B000054880ED010A00200349086010BD000088
:1052C000E4060020000000002C00002042F21070D4
:1052D0000549096848629FED050A054880ED010A05
:1052E0000020034908607047E40600200000000029
:1052F0002C00002001490860704700002C000020AD
:10530000704710B52DED028B0446D4ED050AB0EEC2
:10531000600AFAF757FFD4ED170A20EE208AD4ED81
:10532000050AB0EE600AFAF789FFD4ED200A00EE14
:10533000C08A84ED0E8AD4ED050AB0EE600AFAF751
:105340007DFFD4ED170A20EE208AD4ED050AB0EED9
:10535000600AFAF737FFD4ED200A00EE808A84ED68
:105360000F8ABDEC028B10BD10B52DED028B0446EB
:10537000D4ED050AB0EE600AFAF724FFD4ED0A0A6C
:1053800020EE208AD4ED050AB0EE600AFAF756FF47
:10539000D4ED0B0A00EE808A84ED0D8AD4ED050A67
:1053A000B0EE600AFAF74AFFD4ED0A0AF1EE600A9D
:1053B00020EE208AD4ED050AB0EE600AFAF702FF6B
:1053C000D4ED0B0A00EE808A84ED0C8ABDEC028BD2
:1053D00010BD704710B5FEF7E1FEFFF745FBFFF784
:1053E00043FCFFF7D3FBFFF79BFDFFF799FEFFF7A9
:1053F00029FE10BD10B52549086825490968491DD1
:10540000884201D322490860204804682148006886
:1054100000F5FA6084422DD31F4890ED000AF3EEA8
:105420000E0A30EE200A80ED000A90ED000ADFED52
:105430001B0AB4EEE00AF1EE10FA03DB9FED180A46
:1054400080ED000A1448D0ED000A9FED161A71EEA7
:10545000600AB0EE600AFFF789FB0F48D0ED000A42
:105460009FED101A71EE600AB0EE600AFFF7DAFDE8
:1054700008480460FEF79AFEFFF712FCFFF7A0FB56
:10548000FFF76AFEFFF7F8FD10BD000034000020B2
:10549000880000208C000020740000200000B4432D
:1054A000000000000000344310B52DED028B0446CF
:1054B000606B804784ED060A94ED060AD4ED050A78
:1054C00030EE600AB0EE408A9FED390AB4EEC08A31
:1054D000F1EE10FA06DD9FED370A38EE400AB0EE25
:1054E000408A0CE09FED340AB4EEC08AF1EE10FA67
:1054F00005D29FED300A38EE000AB0EE408A9FEDEB
:105500002F0A30EE480A84ED070A94ED020AD4ED22
:10551000070A20EE200AD4ED070A94ED081A70EE6F
:10552000C10A94ED031A01EE200AD4ED040A94EDA9
:10553000091A00EE810A84ED0A0A94ED070A84ED47
:10554000080A94ED090AD4ED070A30EE200A84ED2A
:10555000090A94ED0A0AD4ED0B0AB4EEE00AF1EE62
:1055600010FA04DD94ED0B0A84ED0A0A10E094EDC4
:105570000A0AD4ED0B0AF1EE600AB4EEE00AF1EE8D
:1055800010FA05D294ED0B0AB1EE400A84ED0A0A36
:10559000207818B99FED090A84ED0A0AD4ED0A0AA9
:1055A000B0EE600AA06B8047BDEC028B10BD00001E
:1055B000000034430000B443000034C30000000086
:1055C00010B504460E4960680968081A00EE100A12
:1055D000B8EE400AD4ED0C0A9FED0A1A60EE810A7B
:1055E000B4EEE00AF1EE10FA01DB012000E0002049
:1055F00028B10348006860602046FFF755FF10BDE2
:105600007803002000007A4470B504460D46204619
:1056100000F03AF808B1012070BD45B12068E36898
:10562000A66803FB060132462846FAF782FEE068C8
:10563000401C6168B0FBF1F201FB1200E0606069A0
:10564000401C60610020E7E770B504460D46204627
:1056500000F023F808B1012070BD45B1216823692D
:10566000A66803FB061032462946FAF762FE206957
:10567000401C6168B0FBF1F201FB12002061A069DF
:10568000401CA0610020E7E701460869CA68904213
:1056900001D1012070470020FCE701460869401C49
:1056A0004A68B0FBF2F302FB1300CA68904201D1D2
:1056B000012070470020FCE72DE9F04704468946A9
:1056C000164601F035F904EB4401564800EBC100E1
:1056D000007D00F00300022827D004EB440151486C
:1056E00000EBC100D0F8108004EB44014D4800EB02
:1056F000C100C068A8EB0000451E002D06DA04EBCF
:105700004401484800EBC10080680544AE420CDD0E
:1057100004EB4401434800EBC100007D00F00300AE
:1057200010B90020BDE8F0872E460EB90020F9E739
:10573000002700BF04EB44013A4800EBC100D0F859
:10574000108004EB4401374800EBC100C068A8EBAF
:105750000000451E002D06DA04EB4401314800EB41
:10576000C1008068054404EB44012E4800EBC100F1
:1057700004EB440281682B4800EBC200C068081AA1
:10578000A84201DD28460CE004EB4401254800EB6B
:10579000C10004EB44028168224800EBC200C068EB
:1057A000081A0546B54201DA284600E030460546AB
:1057B00004EB44021B4901EBC20104EB44034A68B9
:1057C000184901EBC301C96850182A464946FAF73F
:1057D000B0FD2F44A944761B04EB4401114800EBB3
:1057E000C100C068411904EB44020E4800EBC2003E
:1057F000C16004EB44010B4800EBC100C16804EB3D
:105800004402084800EBC2008068814206D10021B2
:1058100004EB4402034800EBC200C160002E89D1B2
:1058200038467FE798030020704780ED100AC0EDEE
:10583000110A80ED121AC0ED181A80ED190AC0ED98
:105840001A0A80ED1B1AC0ED211A704780ED020A7A
:10585000C0ED010A704770B504460D4625702078EA
:10586000D4F88810884770BD0221017080ED010ACC
:10587000704710B5044600202070227A0AB9012230
:1058800000E0002210462169884710BD10B504468B
:1058900001202070207A2169884710BD10B5044688
:1058A000224610210148FDF7BBF910BD000C024053
:1058B00070B52DED028B05460C46B0EE408A24B142
:1058C000012C06D0022C0ED107E02846FFF7D1FFAD
:1058D00009E02846FFF7DAFF05E0B0EE480A28465F
:1058E000FFF7C2FF00BF00BFBDEC028B70BD000020
:1058F000B5EEC00AF1EE10FA03D2DFED0D0AB0EEFC
:10590000600ADFED0C0AB4EEE00AF1EE10FA03DDF6
:10591000DFED080AB0EE600ADFED070A60EE200A4C
:10592000FCEEE00A10EE900A0449096848637047EB
:10593000000000000000C8420000284224060020A9
:10594000B5EEC00AF1EE10FA03D2DFED0D0AB0EEAB
:10595000600ADFED0C0AB4EEE00AF1EE10FA03DDA6
:10596000DFED080AB0EE600ADFED070A60EE200AFC
:10597000FCEEE00A10EE900A04490968886370475B
:10598000000000000000C842000028422406002059
:10599000B5EEC00AF1EE10FA03D2DFED0D0AB0EE5B
:1059A000600ADFED0C0AB4EEE00AF1EE10FA03DD56
:1059B000DFED080AB0EE600ADFED070A60EE200AAC
:1059C000FCEEE00A10EE900A04490968C8637047CB
:1059D000000000000000C842000028422406002009
:1059E000B5EEC00AF1EE10FA03D2DFED0D0AB0EE0B
:1059F000600ADFED0C0AB4EEE00AF1EE10FA03DD06
:105A0000DFED080AB0EE600ADFED070A60EE200A5B
:105A1000FCEEE00A10EE900A0449096848637047FA
:105A2000000000000000C84200002842A406002038
:105A3000B5EEC00AF1EE10FA03D2DFED0D0AB0EEBA
:105A4000600ADFED0C0AB4EEE00AF1EE10FA03DDB5
:105A5000DFED080AB0EE600ADFED070A60EE200A0B
:105A6000FCEEE00A10EE900A04490968886370476A
:105A7000000000000000C84200002842A4060020E8
:105A8000B5EEC00AF1EE10FA03D2DFED0D0AB0EE6A
:105A9000600ADFED0C0AB4EEE00AF1EE10FA03DD65
:105AA000DFED080AB0EE600ADFED070A60EE200ABB
:105AB000FCEEE00A10EE900A04490968C8637047DA
:105AC000000000000000C84200002842A406002098
:105AD000FCEEC00A10EE901A0170704780ED020AC9
