:020000040800F2
:10000000180F0020A1010008814C0008193B0008CE
:100010000D430008550900083D610008000000007C
:10002000000000000000000000000000395000083F
:10003000B30E000800000000534D00083D560008B4
:10004000BB010008BB010008BB010008BB010008A0
:10005000BB010008BB010008BB010008BB01000890
:10006000C50E0008BB010008BB010008BB01000869
:10007000BB010008BB010008BB010008BB01000870
:10008000BB010008BB010008BB010008BB01000860
:1000900059090008BB010008BB010008BB010008AA
:1000A000BB0100084D570008BB010008BB01000858
:1000B000BB0100086D570008BB010008BB01000828
:1000C000BB010008BB010008BB010008BB01000820
:1000D000BB01000899600008BB010008BB010008D3
:1000E000B50E0008BB010008BB010008BB010008F9
:1000F000BB010008BB010008BB010008BB010008F0
:10010000BB010008BB010008BB010008BB010008DF
:10011000BB010008BB010008BB010008BB010008CF
:10012000790D0008BB010008910D0008BB01000813
:10013000BB010008BB010008BB010008BB010008AF
:10014000BB010008BB010008BB010008BB0100089F
:10015000BB010008BB010008BB010008BB0100088F
:10016000BB010008BB010008BB010008BB0100087F
:10017000BB010008BB010008BB0100080000000033
:10018000BB010008BB010008DFF810D000F08CFABA
:1001900000480047AB610008AFF30080180F002053
:1001A0000648804706480047FEE7FEE7FEE7FEE711
:1001B000FEE7FEE7FEE7FEE7FEE7FEE73157000851
:1001C000890100089FED1A1AF5EE000A40EE010AB7
:1001D000BDEEE00AF5EEC00A10EE100AF1EE10FADC
:1001E00038BF401E00EE100A1349F7EE001AB8EEB1
:1001F000C00A30EEC00ADFED0F0A20EE200AFCEE46
:10020000C00A10EE900AC0F3080000EE900A01EB5D
:100210008000F8EE600A90ED011A70EE600A90ED31
:10022000000A71EEE01A21EE800A00EE810A7047A2
:1002300083F9223E0000004410620008B5EEC00AB7
:10024000F1EE10FA07D2DFED1E0AB4EEE00AF1EE8D
:1002500010FAA8BF7047DFED1B0AB5EEC00A60EECA
:10026000200ABDEEE01A11EE100AF1EE10FA38BFC6
:10027000401E00EE100A1549F7EE001AB8EEC00A4B
:1002800030EEC00ADFED100A60EE200ABCEEE00A94
:1002900010EE100AC0F3080000EE100A01EB800017
:1002A000B8EE400A90ED011A70EEC00A90ED000A17
:1002B00071EEE01A21EE800A00EE810A704700001C
:1002C000CD024CB483F9223E0000004410620008C5
:1002D0002DE9F05F0546002092469B46884606467B
:1002E000814640241BE0284641464746224600F00E
:1002F00036F953465A46C01A914110D31146184652
:10030000224600F01DF92D1A67EB01084F462246E0
:100310000120002100F014F917EB00094E41201EC6
:10032000A4F10104DFDC484631462A464346BDE8D5
:10033000F09F40EA01039B0703D009E008C9121FA0
:1003400008C0042AFAD203E011F8013B00F8013B8F
:10035000521EF9D27047D2B201E000F8012B491EBB
:10036000FBD270470022F6E710B513460A46044652
:100370001946FFF7F0FF204610BD2DE9FE4F81EA38
:10038000030404F0004421F0004100944FF0000BFE
:1003900023F0004350EA01045ED052EA03045BD02C
:1003A000C3F30A54C1F30A552C44A4F2F334019464
:1003B000A0FB0254C1F3130141F48011C3F31303F2
:1003C00043F4801301FB024400FB034E840A970AA6
:1003D00044EA815447EA8357A4FB076802958D0AD3
:1003E00005FB07854FEA932C04FB0C542705029D5F
:1003F0004FEA065847EA1637B5EB08056EEB070CCF
:10040000870E920E47EA811742EA8312A7FB020188
:10041000B6EB0B0164EB00042B0D43EA0C335E18C2
:1004200044EB1C50DA465146E7FB0201C5F31304C6
:100430004FEA0B3343EA14534FEA0432019C43EA78
:100440000603A4F10C040294009CCDE900B400F072
:10045000DCF803B0BDE8F08F00200146F9E70EB5E7
:10046000C10F80EAE0700844CA07002140F233431C
:100470008DE80E000A460B4600F0C7F803B000BD39
:1004800000F0004230F000400AD0C10D01F560716B
:10049000C0F3160042EA0151C208400711437047F9
:1004A000002001467047000030B5041E71F10004C1
:1004B00004DB4FF00044404264EB0101141E73F171
:1004C000000405DB1C464FF00043524263EB04037B
:1004D0008B4208BF824230BD30B5041E71F100046A
:1004E00004DB4FF00044404264EB0101141E73F141
:1004F000000405DB1C464FF00043524263EB04034B
:10050000994208BF904230BD01F0004330B421F061
:10051000004150EA010206D00A0DA2F56072C1F353
:100520001301002A02DC30BC00207047440F44EA6B
:10053000C104C100E01830BC00EBC25000F01FB88D
:10054000202A04DB203A00FA02F100207047914093
:10055000C2F1200320FA03F3194390407047202A88
:1005600004DB203A21FA02F00021704721FA02F35D
:10057000D040C2F12002914008431946704700293B
:10058000A8BF7047401C490008BF20F00100704719
:1005900010B4B0FA80FC00FA0CF050EA010404BF79
:1005A00010BC704749B1CCF1200421FA04F411FACF
:1005B0000CF118BF012121430843A3EB0C01CB1D13
:1005C0004FEA00614FEA102042BF002010BC704784
:1005D00000EBC35010440029A4BF10BC7047401C5E
:1005E000490008BF20F0010010BC704710B5141E70
:1005F00073F1000408DA401C41F1000192185B41DC
:100600001A4301D120F0010010BD2DE9F04D9246B2
:100610009B4611B1B1FA81F202E0B0FA80F22032C9
:100620009046FFF78DFF04460F4640EA0A0041EA74
:100630000B0153465A46084313D0114653EA0100B2
:1006400019D0C8F140025046FFF789FF05460E4613
:10065000504659464246FFF773FF084305D0012034
:1006600004E020463946BDE8F08D0020054346EA07
:10067000E0762C4337430A986305E40AA0EB0800B0
:100680000022FD0A44EA47540A3002D50020014600
:10069000E9E7010510196941DDE9084500196941DB
:1006A000BDE8F04DA2E70000064C074D06E0E0680B
:1006B00040F0010394E8070098471034AC42F6D3A9
:1006C000FFF766FD146A0008346A000870B58C18DC
:1006D00010F8015B15F0070301D110F8013B2A1156
:1006E00006D110F8012B03E010F8016B01F8016B43
:1006F0005B1EF9D12B0705D40023521E0DD401F83F
:10070000013BFAE710F8013BCB1A921C03E013F807
:10071000015B01F8015B521EF9D5A142D8D300203C
:1007200070BD70B50546AC6B206C00F0500050BB3E
:10073000206C40F4007020642068806800F0405015
:10074000E8B9207ED8B92068C06A00F4700020B1F2
:100750002068806800F4806088B92068406820F0D4
:10076000200021684860206C20F480702064206C98
:1007700000F4805018B9206C40F00100206420463D
:1007800000F028FF0BE0206C00F0100018B12046AC
:1007900000F022FF03E0A06BC16C2846884770BDC3
:1007A00070B50546AC6B40202064606C40F00400DE
:1007B0006064204600F010FF70BD70B50446A56B64
:1007C000284600F008FF70BD55494A6822F44032BF
:1007D0004A604A6843681A434A600268526822F4D1
:1007E000807203685A6002685368026943EA022211
:1007F00003685A600268526822F0407203685A60C7
:100800000268526883681A4303685A6002689268F3
:1008100022F4006203689A6002689268C3681A430F
:1008200003689A603F4B826A9A4218D002689268C5
:1008300022F0706203689A6002689268836A1A43C1
:1008400003689A600268926822F0405203689A60D6
:1008500002689268C36A1A4303689A600BE00268F0
:10086000926822F0706203689A600268926822F0CF
:10087000405203689A600268926822F0020203689C
:100880009A6002689368027E43EA420203689A60B3
:100890002022125CA2B10268526842F4006203682E
:1008A0005A600268526822F4604203685A60026823
:1008B0005368426A521E43EA423203685A6005E0B6
:1008C0000268526822F4006203685A600268D26AC1
:1008D00022F470020368DA620268D36A828B521EC5
:1008E00043EA02520368DA620268926822F40072F4
:1008F00003689A600268936890F8302043EA4222C5
:1009000003689A600268926822F4806203689A60C1
:1009100002689368426943EA822203689A607047DA
:10092000002301400100000F10B503F04DF900F065
:10093000F8FA04F00FFA10BD10B503F058F904F0FE
:1009400019FA00F0F2FA10BD10B503F001FD03F042
:100950005BFF10BD00BFFEE710B5024801F0B1F823
:1009600010BD0000CC04002030B58BB005460C460D
:100970000120099000200690012007900890002097
:100980000590019002940390049401A9284601F077
:1009900005F808B100F09DFA0BB030BD10B500218C
:1009A0000548FFF7E1FF044801F0BDFA02210248C3
:1009B00000F0DEFF10BD0000CC04002090ED070A1F
:1009C00080ED0A0A90ED070AD0ED080AB0EE001A91
:1009D00001EE200ADFED030A80EE201A80ED0B1AEB
:1009E00070470000D0B3DD3F10B52DED088B0446F5
:1009F00094ED0D0A84ED130A94ED020A84ED140AB5
:100A000094ED140AD4ED130A30EE600A84ED150A51
:100A100094ED150AD4ED160A30EE600AD4ED100AF2
:100A200020EE200AD4ED110A94ED151A00EE810A89
:100A3000D4ED170A30EE200A84ED170A94ED150A5A
:100A400084ED160A94ED180A10EE101A0846FFF706
:100A500017FD41EC1A0BB0EE4A0AF0EE6A0A05F0F7
:100A60008BFBB0EE408AF0EE608A94ED170A10EE30
:100A7000101A0846FFF704FD41EC190B53EC182B34
:100A8000FFF72AFD17D294ED180A10EE101A084647
:100A9000FFF7F6FC41EC190BB0EE490AF0EE690ADB
:100AA00005F06AFBB0EE408AF0EE608A51EC180B5C
:100AB000FFF72AFDE06594ED180A10EE101A0846BB
:100AC000FFF7DEFC41EC1B0BB0EE4B0AF0EE6B0ABD
:100AD00005F052FBB0EE40AAF0EE60AA51EC1A0B02
:100AE00081F0004141EC180B94ED170A10EE101A3A
:100AF0000846FFF7C5FC41EC190B53EC182BFFF728
:100B0000D3FC1BD294ED180A10EE101A0846FFF71A
:100B1000B7FC41EC1A0BB0EE4A0AF0EE6A0A05F097
:100B20002BFBB0EE409AF0EE609A51EC190B81F07D
:100B3000004141EC180BFFF7E7FCE065BDEC088BCA
:100B400010BD10B52DED088B044694ED0C0A84ED14
:100B50001C0A94ED010A84ED1D0A94ED1D0AD4EDE2
:100B60001C0A30EE600A84ED1E0A94ED1E0AD4EDD4
:100B70001F0A30EE600AD4ED190A20EE200AD4EDE7
:100B80001A0A94ED1E1A00EE810AD4ED200A30EE06
:100B9000200A84ED200A94ED1E0A84ED1F0A94EDCC
:100BA000210A10EE101A0846FFF76AFC41EC1A0BF6
:100BB000B0EE4A0AF0EE6A0A05F0DEFAB0EE408ABC
:100BC000F0EE608A94ED200A10EE101A0846FFF746
:100BD00057FC41EC190B53EC182BFFF77DFC18D296
:100BE00094ED210A10EE101A0846FFF749FC41EC7B
:100BF000190BB0EE490AF0EE690A05F0BDFAB0EE45
:100C0000408AF0EE608A51EC180BFFF77DFC8021E2
:100C1000085194ED210A10EE101A0846FFF730FC37
:100C200041EC1B0BB0EE4B0AF0EE6B0A05F0A4FA98
:100C3000B0EE40AAF0EE60AA51EC1A0B81F0004130
:100C400041EC180B94ED200A10EE101A0846FFF73D
:100C500017FC41EC190B53EC182BFFF725FC1CD2A9
:100C600094ED210A10EE101A0846FFF709FC41EC3A
:100C70001A0BB0EE4A0AF0EE6A0A05F07DFAB0EE01
:100C8000409AF0EE609A51EC190B81F0004141EC72
:100C9000180BFFF739FC80210851BDEC088B10BD03
:100CA00010B5044604F12402111F081FD4F8943033
:100CB0009847207E032800DA10BDD4F890008047C2
:100CC000072853D2DFE800F05204111E2B384500EC
:100CD00094ED080ADFED270A30EEC00AD4ED090AC8
:100CE00030EE600A84ED070A41E094ED070ADFED7B
:100CF000210A30EEC00AD4ED090A30EE600A84ED14
:100D0000080A34E094ED070ADFED1A0A30EEC00A53
:100D1000D4ED090A30EE600A84ED080A27E094ED6C
:100D2000070ADFED140A30EEC00AD4ED080A30EEEF
:100D3000600A84ED090A1AE094ED070ADFED0D0A56
:100D400030EEC00AD4ED080A30EE600A84ED090ADC
:100D50000DE094ED080ADFED070A30EEC00AD4ED8D
:100D6000090A30EE600A84ED070A00E000BF00BF08
:100D700000BFA1E70000000010B503F0D5FA03F0B2
:100D800053FB024801F01AF910BD00000C040020CA
:100D900010B503F025FD03F0A3FD024801F00EF9A4
:100DA00010BD00006C04002001460878103818239C
:100DB000B0FBF3F20848805CC865032A05D90868CF
:100DC0006FF30900001D886503E008686FF30900F0
:100DD0008865886D70470000EE61000801460020BC
:100DE0008A6A8B69CBB932B1012A0DD0022A03D0AD
:100DF000032A10D10EE000BFCB6A03F08073B3F179
:100E0000807F00D1012007E0CB6AB3F1C07F00D121
:100E1000012001E000E000BF34E08B69B3F5005F22
:100E20001AD132B1012A07D0022A03D0032A11D1E4
:100E30000AE000BF01200EE0CB6A03F08073B3F13B
:100E4000807F00D1012006E0CB6AB3F1C07F00D1E2
:100E5000012000E000BF15E032B1012A05D0022ACE
:100E600004D0032A0CD103E000BF00BF012008E03A
:100E7000CB6A03F08073B3F1807F00D1012000E0E2
:100E800000BF00BF704730B50468246824F4802494
:100E900005682C60046863608468402C04D1046891
:100EA000A2600468E16003E00468A1600468E26095
:100EB00030BD704710B503F0D9FC4FF4006001F06D
:100EC00073FA10BD10B503F075FA042001F06CFA46
:100ED00010BD704710B50446207800B910BD2046FB
:100EE00000F024F82046FFF7DBFE2046FFF766FD02
:100EF000204603F0F9FE2046FFF776FD2046FFF777
:100F000020FE204603F0BDFE94ED0F1AF0EE410ADC
:100F100094ED0E1AB0EE410AD4F89800804700BF55
:100F2000DCE710B5FFF710FD10BD704710B50446A3
:100F3000D4F88C00804784ED030AD4ED030A60786E
:100F400000EE100AB8EE400A20EE800A84ED040A92
:100F500094ED040ADFED030A20EE200A84ED050A71
:100F600010BD00004DF38E3C90ED030A7047000069
:100F70000146032901DB00207047104850F821008A
:100F800000EE100AB8EEC00ADFED0D0A20EE200ACE
:100F90000A480C3050F8210000EE900AF8EEE00A02
:100FA0009FED081A01EE200ABDEEC00A10EE102ACD
:100FB00002480C3040F821201046DDE7F006002002
:100FC0006666663FD0CCCC3D2DE9F0412DED068B19
:100FD00004460D4616460020FFF7CAFF0746FFF7F6
:100FE0003EFA41EC1A0B9FED260B53EC102BFFF74A
:100FF000C4F941EC190B9FED240B53EC102BFFF7B8
:10100000BCF941EC180BFFF77FFA20600120FFF7D5
:10101000AFFF0746FFF723FA41EC1A0B9FED180BC1
:1010200053EC102BFFF7A9F941EC190B9FED160BB0
:1010300053EC102BFFF7A1F941EC180BFFF764FA02
:1010400028600220FFF794FF0746FFF708FA41ECFB
:101050001A0B9FED0B0B53EC102BFFF78EF941ECA5
:10106000190B9FED090B53EC102BFFF786F941ECA0
:10107000180BFFF749FA3060BDEC068BBDE8F08134
:10108000F168E388B5F8343F000000000000F83F45
:101090000146032901DB00207047104850F8210069
:1010A00000EE100AB8EEC00ADFED0D0A20EE200AAD
:1010B0000A480C3050F8210000EE900AF8EEE00AE1
:1010C0009FED081A01EE200ABDEEC00A10EE102AAC
:1010D00002480C3040F821201046DDE714070020BC
:1010E0006666663FD0CCCC3D2DE9F0412DED068BF8
:1010F00004460D4616460020FFF7CAFF0746FFF7D5
:10110000AEF941EC1A0B9FED260B53EC102BFFF7B9
:1011100034F941EC190B9FED240B53EC102BFFF726
:101120002CF941EC180BFFF7EFF920600120FFF7D5
:10113000AFFF0746FFF793F941EC1A0B9FED180B31
:1011400053EC102BFFF719F941EC190B9FED160B1F
:1011500053EC102BFFF711F941EC180BFFF7D4F902
:1011600028600220FFF794FF0746FFF778F941EC6B
:101170001A0B9FED0B0B53EC102BFFF7FEF841EC15
:10118000190B9FED090B53EC102BFFF7F6F841EC10
:10119000180BFFF7B9F93060BDEC068BBDE8F081A4
:1011A000F168E388B5F8343F000000000000F83F24
:1011B000014691F83C00704790F83C1007297CD21A
:1011C000DFE801F07B04376A9FD2FD0090ED0D0A45
:1011D000DFED9B0A20EE200AD0ED0E0A80EE201AE9
:1011E00090ED030A21EE000A80ED090A90ED0D0A48
:1011F000DFED930A20EE200AD0ED0E0A80EE201AD1
:1012000090ED020A21EE000A80ED0B0A90ED0D0A26
:10121000D0ED090A30EE600AD0ED0B0A30EE600A1C
:10122000F0EE000A80EE201A80ED0C1A80ED051A0F
:1012300003E190ED0D0ADFED830A20EE200AD0EDE8
:101240000E0A80EE201A90ED030A21EE000A80EDCE
:10125000070A90ED0D0ADFED7B0A20EE200AD0EDA3
:101260000E0A80EE201A90ED040A21EE000A80EDAD
:101270000B0A90ED0D0AD0ED070A30EE600AD0EDB2
:101280000B0A30EE600AF0EE000A80EE201A80EDC4
:101290000C1A80ED051AD0E090ED0D0ADFED680A1A
:1012A00060EE200A90ED0E1A80EE810AD0ED020A5F
:1012B00020EE200A80ED070A00E0BDE090ED0D0A67
:1012C000DFED5F0A20EE200AD0ED0E0A80EE201A34
:1012D00090ED040A21EE000A80ED080A90ED0D0A57
:1012E000D0ED070A30EE600AD0ED080A30EE600A51
:1012F000F0EE000A80EE201A80ED0C1A80ED051A3F
:101300009BE090ED0D0ADFED4F0A20EE200A90EDF4
:101310000E1AC0EE010A90ED020A20EE800A80ED5E
:10132000060A90ED0D0ADFED470A20EE200A90ED47
:101330000E1AC0EE010A90ED030A20EE800A80ED3D
:10134000080A90ED0D0AD0ED060A30EE600AD0EDE5
:10135000080A30EE600AF0EE000A80EE201A80EDF6
:101360000C1A80ED051A68E090ED0D0ADFED340AE5
:1013700060EE200A90ED0E1A80EE810AD0ED040A8C
:1013800020EE200A80ED060A90ED0D0ADFED2C0A12
:1013900060EE200A90ED0E1A80EE810AD0ED030A6D
:1013A00020EE200A80ED0A0A90ED0D0AD0ED060A23
:1013B00030EE600AD0ED0A0A30EE600A00E008E084
:1013C000F0EE000A80EE201A80ED0C1A80ED051A6E
:1013D00033E090ED0D0ADFED1B0A60EE200A90ED80
:1013E0000E1A80EE810AD0ED040A20EE200A80ED6C
:1013F000090A90ED0D0ADFED130A20EE200AD0ED68
:101400000E0A80EE201A90ED020A21EE000A80ED0D
:101410000A0A90ED0D0AD0ED090A30EE600AD0ED0F
:101420000A0A30EE600AF0EE000A80EE201A80ED23
:101430000C1A80ED051A00E000BF00BF70470000E5
:101440002DB2DD3F2DB2DDBF38B502460020009041
:1014500000BF92F83C00012801D1022038BD0120D4
:1014600082F83C0000BF0868092816D91068C068D7
:101470000C780A3C04EB44050724AC40A0431468F4
:10148000E0600C780A3C04EB44048868A0401468CF
:10149000E46820431468E06013E0106800690C7889
:1014A00004EB44050724AC40A043146820610C7889
:1014B00004EB44048868A04014682469204314683D
:1014C00020614868072817D21068406B0C79641EA9
:1014D00004EB84051F24AC40A043146860630888B3
:1014E00080B20C79641E04EB8404A0401468646B21
:1014F00020431468606331E048680D2817D21068F3
:10150000006B0C79E41F04EB84051F24AC40A0435E
:1015100014682063088880B20C79E41F04EB84040B
:10152000A0401468246B20431468206316E0106800
:10153000C06A0C790D3C04EB84051F24AC40A04329
:101540001468E062088880B20C790D3C04EB8404D6
:10155000A0401468E46A20431468E062194B1A4CF6
:101560001068A04206D10868122803D1586840F4D8
:1015700080005860144C1068A0421CD108681028E4
:1015800002D00868112816D1586840F4000058604D
:10159000086810280FD10D4800680D4CB0FBF4F01E
:1015A00000EB80004000009002E00098401E009098
:1015B00000980028F9D100BF002082F83C0000BF4D
:1015C00000BF4BE700230140002001400C00002039
:1015D00040420F00704770477047000070B50446E6
:1015E00000250CB9012070BD1549A06A884200D0C1
:1015F00000BF206C30B9204600F024F80020606461
:1016000084F83C00206C00F0100088B9206C20F4B5
:10161000885040F0020020642046FFF7D5F80020F3
:101620006064206C20F0020040F00100206400E0C3
:10163000012500BF002084F83C0000BF2846D2E707
:101640000100000F10B586B00446142101A8FEF772
:1016500089FE5E492068884264D100BF0020009066
:101660005B48006840F4807059490860084600688B
:1016700000F48070009000BF00BF00BF0020009009
:1016800053481438006840F0040051491439086088
:101690000846006800F00400009000BF00BF00BFD3
:1016A000002000900846006840F0020008600846EC
:1016B000006800F00200009000BF00BF30200190E1
:1016C000032002900020039001A9424800F07AFE16
:1016D00001200190032002900020039001A93E48C0
:1016E00000F070FE3D483E4908600020486000213F
:1016F0003B488160C1604FF48061016189004161B4
:10170000890081618911C161490201620021416240
:1017100000F074FD08B1FFF7DCFB00BF3048A063A8
:10172000846351E02F49206888424DD100BF0020DA
:1017300000902748006840F400702549086008467A
:10174000006800F40070009000BF00BF00BF0020E0
:1017500000901F481438006840F004001C491439F8
:1017600008600846006800F00400009000BF00BF59
:1017700007200190032002900020039001A9154842
:1017800000F020FE15483030174908604FF0007017
:101790004860002114488160C1604FF4806101619C
:1017A00089004161890081618911C1614902016239
:1017B0000021416200F022FD08B1FFF78AFB00BF63
:1017C0000948A063846300BF06B010BD002001403B
:1017D0004438024000080240000402401064024005
:1017E0000C040020002101406C040020F8B50446E0
:1017F0000D4616460020009000BF94F83C000128DA
:1018000001D10220F8BD012084F83C0000BF20680F
:10181000806800F00100A0B92068806840F00100F5
:1018200021688860494800684949B0FBF1F000EB45
:101830004000009002E00098401E009000980028B0
:10184000F9D12068806800F0010000287CD0206C6D
:1018500040F20161884340F4807020642068406851
:1018600000F4806028B1206C20F4005040F48050D7
:101870002064206C00F48050B0F5805F04D1606C6F
:1018800020F00600606401E00020606400BF0020DA
:1018900084F83C0000BF2F4F2F48A16BC8632F482E
:1018A000A16B08642E48A16BC8646FF02200216808
:1018B00008602068406840F08060216848602068C7
:1018C000806840F4807021688860226802F14C01D1
:1018D00033462A46A06B00F007FD786800F01F0031
:1018E00018BB20492068884213D01F4920688842CD
:1018F00004D1381D006800F01F0050B11B4920685A
:10190000884221D11348001D006800F01F001028F4
:101910001AD22068806800F0405028B9206880689A
:1019200040F08040216888600EE00E4920688842BF
:101930000AD12068806800F0405028B9206880688B
:1019400040F080402168886000205BE70C000020A8
:1019500040420F000023014023070008BB07000896
:10196000A1070008002001400021014000220140A1
:1019700010B5024692F82030012B01D0022B06D17F
:1019800010684069084314686061002010BD506A07
:1019900040F4802050620120F8E70000F0B50446D2
:1019A0000A46216894F82050012D01D0022D7ED1E5
:1019B000424901F50071086840F0010008600868BC
:1019C00020F47C5008600868566A40EA06200860E7
:1019D000107D00F01F06012000FA06F3C869984345
:1019E000C861A1F50071D069C8B9D1F80C0298435B
:1019F000C1F80C02908880B2968940EA064601F54B
:101A00001070576940F83760108880B2168940EA34
:101A1000064601F51070576900EBC7004660D069B3
:101A2000012819D1D1F80C021843C1F80C02908892
:101A300080B2168840EA064601F51070576940F8F2
:101A40003760908980B2168940EA064601F5107029
:101A5000576900EBC7004660906928B9D1F80402C5
:101A60009843C1F8040204E0D1F804021843C1F815
:101A70000402106928B9D1F814029843C1F814027D
:101A800004E0D1F814021843C1F81402106A0128C6
:101A900004D1D1F81C021843C1F81C02D1F800028D
:101AA00020F00100C1F800020020F0BDFFE7606AED
:101AB00040F4802060620120F7E7000000640040ED
:101AC00070472DE9F05F04460025206846692068CC
:101AD000D0F80490206887682068D0F80CA02068AF
:101AE000D0F810B02068D0F8188006F00100002867
:101AF00055D007F00100C0B101202168886007F0CF
:101B0000020018B1204600F03EFA0EE007F0040093
:101B100010B145F4006508E007F0080010B145F485
:101B2000805502E0204600F02DFA07F48070C8B11D
:101B30004FF480702168886007F4007018B1204667
:101B400000F023FA0EE007F4806010B145F4005570
:101B500008E007F4006010B145F4804502E020463B
:101B600000F012FA07F48030C8B14FF480302168D9
:101B7000886007F4003018B1204600F008FA0EE043
:101B800007F4802010B145F4004508E007F4002078
:101B900010B145F4803502E0204600F0F7F906F078
:101BA000080038B10AF0100020B145F4007510208B
:101BB0002168C86006F0040040B10AF0080028B1AE
:101BC00008202168C860204600F0A8F906F002004D
:101BD00038B12068C06800F0030010B1204600F062
:101BE0009EF906F0400038B10BF0100020B145F42A
:101BF000806510202168086106F0200040B10BF0DC
:101C0000080028B1082021680861204600F088F902
:101C100006F0100038B12068006900F0030010B130
:101C2000204600F07EF906F4003040B109F01000C3
:101C300028B1102021684860204600F073F906F4AE
:101C4000803040B109F0080028B1082021684860C0
:101C5000204600F09DF906F4004088B309F0040026
:101C600078B306F4807020B108F0010008B145F0A7
:101C7000010506F4007020B108F0020008B145F03B
:101C8000020506F4806020B108F0040008B145F0B8
:101C9000040506F40060A0B108F0700088B108F0F7
:101CA0007000402817D006DC10280BD020280CD05C
:101CB000302819D10CE0502810D0602814D110E041
:101CC0001DE019E045F008050FE045F010050CE0B7
:101CD00045F0200509E045F0400506E045F08005A7
:101CE00003E045F4807500E000BF00BF2068806914
:101CF00020F07000216888610420216848602DB1BF
:101D0000606A284360622046FFF7DAFEBDE8F09F74
:101D100070B504460CB9012070BD94F8200010B9CC
:101D2000204600F0AFF82068006820F0020021682B
:101D3000086000F04DFC05460DE000F049FC401B3A
:101D40000A2808D9606A40F400306062052084F8EF
:101D500020000120E0E72068406800F00200002831
:101D6000EBD12068006840F001002168086000F0B5
:101D70002FFC05460DE000F02BFC401B0A2808D97B
:101D8000606A40F400306062052084F82000012081
:101D9000C2E72068406800F001000028EBD0207EF8
:101DA000012806D12068006840F0800021680860A2
:101DB00005E02068006820F0800021680860607EEF
:101DC000012806D12068006840F0400021680860C2
:101DD00005E02068006820F0400021680860A07ECF
:101DE000012806D12068006840F0200021680860C2
:101DF00005E02068006820F0200021680860E07E8F
:101E0000012806D12068006820F0100021680860D1
:101E100005E02068006840F0100021680860207F1D
:101E2000012806D12068006840F008002168086099
:101E300005E02068006820F0080021680860607FE5
:101E4000012806D12068006840F00400216808607D
:101E500005E02068006820F0040021680860D4E9EB
:101E60000201084321690843616908436168491E0A
:101E700008432168C86100206062012084F82000C6
:101E8000002049E710B586B00446142101A8FEF7EA
:101E900069FA1F492068884238D100BF00200090AD
:101EA0001C48006840F000701A4908600846006845
:101EB00000F00070009000BF00BF00BF0020009045
:101EC00014481038006840F00100124910390860C9
:101ED0000846006800F00100009000BF00BF4FF40A
:101EE000C050019002200290002003900320049033
:101EF0000920059001A9084800F064FA0022072192
:101F0000142000F0EFFB142000F0DCFB06B010BD45
:101F100000640040403802400000024070477047B3
:101F200070477047704770B5044694F82000012848
:101F300022D1022084F820002068006820F00100EF
:101F40002168086000F044FB05460DE000F040FB0E
:101F5000401B0A2808D9606A40F4003060620520FE
:101F600084F82000012070BD2068406800F0010066
:101F70000028EBD16062F6E7606A40F400206062FE
:101F80000120F0E77047704770477047704770470F
:101F90007047014691F83500022803D0802048653B
:101FA00001207047052081F835000868006820F09E
:101FB00001000A6810600020F3E70000F8B504464D
:101FC000002000908C4800684FF41651B0FBF1F7E8
:101FD000A56D2E6894F85C1008208840304098B1B8
:101FE0002068006800F0040070B12068006820F0EC
:101FF00004002168086094F85C1008208840A860FC
:10200000606D40F00100606594F85C10012088402C
:10201000304068B12068406900F0800040B194F819
:102020005C1001208840A860606D40F0020060658F
:1020300094F85C1004208840304068B12068006843
:1020400000F0020040B194F85C1004208840A860C1
:10205000606D40F00400606594F85C1010208840CA
:10206000304078B32068006800F0080050B394F85E
:102070005C1010208840A8602068006800F4802070
:1020800080B12068006800F4002028B9206CC8B135
:102090002046216C884715E0A06C98B12046A16CC1
:1020A00088470FE02068006800F4807028B9206835
:1020B000006820F0080021680860206C10B12046FC
:1020C000216C884794F85C1020208840304000281C
:1020D00065D02068006800F0100000285FD094F8F8
:1020E0005C1020208840A86094F83500052828D18D
:1020F0002068006820F016002168086020684069A8
:1021000020F0800021684861206C08B9A06C28B1DB
:102110002068006820F008002168086094F85C10CE
:102120003F208840A86000BF002084F8340000BF32
:10213000012084F83500206D10B12046216D8847BC
:10214000F8BD2068006800F4802080B12068006835
:1021500000F4002028B9606C10B12046616C8847FB
:102160001DE0E06BD8B12046E16B884717E020689E
:10217000006800F4807068B92068006820F01000E2
:102180002168086000BF002084F8340000BF0120EF
:1021900084F83500E06B10B12046E16B8847606D34
:1021A00038B3606D00F00100F0B1052084F835000F
:1021B0002068006820F001002168086000BF0098D6
:1021C000401C0090B84200D905E02068006800F08B
:1021D00001000028F3D100BF00BF002084F83400C4
:1021E00000BF012084F83500E06C10B12046E16C9E
:1021F000884700BFA4E700000C0000202DE9F04153
:102200000446002500F0E4F9074614B90120BDE8B2
:10221000F081606A00B100BF00BF002084F8340084
:1022200000BF022084F835002068006820F001001B
:10223000216808600AE000F0CBF9C01B052805D929
:1022400020206065032084F83500E0E720680068FE
:1022500000F001000028EED1206805682148054003
:10226000D4E901010843E168084321690843616931
:102270000843A1690843E1690843216A084305430B
:10228000606A042803D1D4E90B01084305432068A0
:1022900005602068456925F00705606A0543606AA6
:1022A00004280DD1A06A0543E06A48B12046FEF734
:1022B00095FD28B140206065012084F83500A6E72F
:1022C000206845612046FEF76FFD064694F85C10D5
:1022D0003F208840B06000206065012084F8350010
:1022E000002094E73F8010F02DE9F04704460D46AA
:1022F00016461F464FF00008D4F8589000BF94F8D7
:102300003400012802D10220BDE8F087012084F8C2
:10231000340000BF94F83500012825D1022084F84C
:102320003500002060653B46324629462046FEF7D0
:10233000AAFD94F85C103F208840C9F80800206886
:10234000006840F0160021680860206C28B1206801
:10235000006840F00800216808602068006840F0CC
:1023600001002168086006E000BF002084F8340006
:1023700000BF4FF002084046C6E7000070B50446B3
:1023800000F026F906462546681C10B1044800787E
:10239000054400BF00F01CF9801BA842FAD370BDB1
:1023A000080000207047000010B50446044800688B
:1023B000204020B1024804602046FFF7F3FF10BD23
:1023C000143C0140F8B502460B46002500240020CD
:1023D0000021DCE0012606FA01F51E6806EA050484
:1023E000AC4273D15E68012E08D05E68022E05D023
:1023F0005E68112E02D05E68122E13D190684F00D5
:102400000326BE40B0434F00DE68BE4030439060BC
:10241000506801268E40B0431E79C6F300168E40E8
:1024200030435060D0684F000326BE40B0434F0099
:102430009E68BE403043D0605E68022E02D05E6867
:10244000122E13D1CF0802F1200656F827004E07AE
:10245000F70E0F26BE40B0434F07FF0E1E69BE4069
:102460003043CF0802F1200646F8270010684F00DD
:102470000326BE40B0431E7906F003064F00BE405F
:10248000304310605E6806F08056B6F1805F7DD103
:1024900000BF00260096404E366846F480463E4F08
:1024A0003E603E46366806F48046009600BF00BF98
:1024B0003A4E8F0856F827008E07370F0F26BE407A
:1024C000B043374EB24202D1002624E05EE0354EE2
:1024D000B24201D101261EE0334EB24201D10226A2
:1024E00019E0324EB24201D1032614E0304EB2421E
:1024F00001D104260FE02F4EB24201D105260AE099
:102500002D4EB24201D1062605E02C4EB24201D139
:10251000072600E008268F073F0FBE4030431F4EBE
:102520008F0846F82700264E3068A0435E6806F400
:102530008036B6F5803F00D12043214E3060361DF5
:102540003068A0435E6806F40036B6F5003F00D15F
:1025500020431B4E361D3060361D3068A0435E6838
:1025600006F48016B6F5801F00D12043144E0836BD
:102570003060361D3068A0435E6806F40016B6F57C
:10258000001F00D120430E4E0C363060491C10292C
:10259000FFF420AFF8BD0000443802400838014085
:1025A000000002400004024000080240000C02400B
:1025B000001002400014024000180240001C0240BB
:1025C000003C01400AB1816101E00B048361704766
:1025D00001480068704700000000002003480068C0
:1025E0000349097808440149086070470000002049
:1025F0000800002010B50D48006840F400700B4939
:1026000008600846006840F480600860084600687A
:1026100040F480700860032000F0A2F8002000F071
:1026200007F800F02BF8002010BD0000003C02402D
:1026300070B504460E4800784FF47A71B1FBF0F0A3
:102640000C490968B1FBF0F5284600F0E7FC08B139
:10265000012070BD102C07D200222146501E00F030
:1026600041F80548046001E00120F2E70020F0E7AE
:10267000080000200C0000200400002008B500BF66
:10268000002000900E48006840F480400C4908602B
:102690000846006800F48040009000BF00BF00BF03
:1026A00000200090081F006840F08050091F08605B
:1026B0000846006800F08050009000BF00BF08BDD1
:1026C0004438024001460846002809DB00F01F0399
:1026D00001229A4043099B0003F1E023C3F8002143
:1026E00000BF70472DE9F05F80460D461646002773
:1026F00003F026FD074639462A46334601F0070017
:10270000C0F1070ABAF1040F02D94FF0040A01E040
:10271000C0F1070AD14600F1040ABAF1070F02D24C
:102720004FF0000A01E0A0F1030AD4464FF0010A7D
:102730000AFA09FAAAF1010A0AEA020A0AFA0CFAE2
:102740004FF0010B0BFA0CFBABF1010B0BEA030B87
:102750004AEA0B042146404603F0FAFCBDE8F09F2C
:1027600000BF00F00702064B19684FF6FF0319403F
:10277000044B0B4343EA0221014B196000BF704731
:102780000CED00E00000FA0570B504460D460CB9EA
:10279000012070BD5848006800F00F00A84209D21F
:1027A00055490D700846006800F00F00A84201D09E
:1027B0000120EEE7207800F0020002281DD12078E9
:1027C00000F00400042805D14C48006840F4E050B3
:1027D0004A490860207800F00800082805D14748D9
:1027E000006840F46040454908604448006820F0B3
:1027F000F000A168084341490860207800F001001A
:10280000A8B36068012807D13C4808380068C0F3C5
:102810004040B8B90120BCE76068022802D0606877
:10282000032807D1354808380068C0F3406048B92C
:102830000120AEE7314808380068C0F3400008B90D
:102840000120A6E72D48006820F0030061680843D6
:102850002A490860FFF7BCFE064609E0FFF7B8FE0C
:10286000801B41F28831884202D9032091E707E0BA
:102870002248006800F00C006168B0EB810FEDD1D8
:102880001D48006800F00F00A84209D91A490D70D0
:102890000846006800F00F00A84201D0012078E748
:1028A000207800F00400042807D11448006820F4C0
:1028B000E050E168084311490860207800F0080002
:1028C000082808D10D48006820F46040216940EADA
:1028D000C1000A49086000F03FF808490968C1F3DF
:1028E0000311074A515CC840064908600648006861
:1028F000FFF79EFE00204CE7003C024008380240F3
:10290000F66100080C000020040000200148006867
:10291000704700000C00002000B5FFF7F7FF0449E6
:102920000968C1F38221034A515CC84000BD000020
:10293000083802400662000800B5FFF7E7FF0449C7
:102940000968C1F34231034A515CC84000BD000030
:1029500008380240066200082DE9F04700240025EF
:102960000026A1462548006800F00C0020B104288C
:1029700005D008283AD105E0DFF8849039E0DFF887
:10298000849036E01D48001F006800F03F041B489B
:10299000001F006800F4800078B11A481749091F29
:1029A0000968C1F38811A0FB01700146224600238B
:1029B0003846FDF78DFC05460EE011480F49091F0A
:1029C0000968C1F38811A0FB01700146224600236B
:1029D0003846FDF77DFC05460848001F0068C0F337
:1029E0000140401C4600B5FBF6F902E0DFF810900C
:1029F00000BF00BF4846BDE8F0870000083802402D
:102A00000024F40000127A00F8B504460CB9012045
:102A1000F8BD207800F00100002874D0F948006863
:102A200000F00C0004280DD0F648006800F00C00FF
:102A3000082813D1F348001F006800F48000B0F5A7
:102A4000800F0BD1EF4808380068C0F340400028E1
:102A500059D06068002856D10120D9E700BF6068CE
:102A6000B0F5803F08D1E7480838006840F480306E
:102A7000E449083908601EE06068B0F5A02F0DD168
:102A8000E0480838006840F48020DE4908390860D2
:102A90000846006840F4803008600CE0D9480838E7
:102AA000006820F48030D74908390860084600687B
:102AB00020F48020086000BF606890B1FFF788FDB7
:102AC000054606E0FFF784FD401B642801D903207A
:102AD0009EE7CC4808380068C0F340400028F1D099
:102AE00011E0FFF775FD054606E0FFF771FD401B9D
:102AF000642801D903208BE7C24808380068C0F376
:102B000040400028F1D1207800F0020002285FD177
:102B1000BC48006800F00C0058B1BA48006800F0EA
:102B20000C0008281CD1B748001F006800F4800082
:102B3000B0B9B44808380068C0F3400020B1E0687C
:102B4000012801D0012063E7AE480838006820F072
:102B5000F800216940EAC100AA490839086037E055
:102B6000E06800B30120A8490860FFF731FD054681
:102B700006E0FFF72DFD401B022801D9032047E79F
:102B8000A04808380068C0F340000028F1D09D48F4
:102B90000838006820F0F800216940EAC10099492E
:102BA0000839086014E0002097490860FFF710FD1D
:102BB000054606E0FFF70CFD401B022801D9032063
:102BC00026E7904808380068C0F340000028F1D19B
:102BD000207800F0080008282CD16069A8B10120F5
:102BE0008A490860FFF7F4FC054606E0FFF7F0FCB1
:102BF000401B022801D903200AE782486C30006894
:102C0000C0F340000028F1D014E000207F490860A4
:102C1000FFF7DEFC054606E0FFF7DAFC401B022862
:102C200001D90320F4E677486C300068C0F3400017
:102C30000028F1D1207800F00400042870D100278A
:102C400070483830006800F0805090B900BF002014
:102C500000906C483830006840F080506949383145
:102C600008600846006800F08050009000BF00BF78
:102C700001276748006800F48070B0B964480068B4
:102C800040F4807062490860FFF7A2FC054606E048
:102C9000FFF79EFC401B022801D90320B8E65C48E0
:102CA000006800F480700028F2D000BFA0680128FE
:102CB00008D154486830006840F00100514968313B
:102CC00008601DE0A06805280DD14E4868300068F6
:102CD00040F004004B49683108600846006840F045
:102CE000010008600CE047486830006820F00100EF
:102CF0004449683108600846006820F00400086014
:102D000000BFA068A8B1FFF763FC054609E0FFF724
:102D10005FFC401B41F28831884202D9032077E6EC
:102D200026E0384868300068C0F340000028EED044
:102D300013E0FFF74DFC054608E0FFF749FC401B98
:102D400041F28831884201D9032061E62D4868307C
:102D50000068C0F340000028EFD1012F07D12948B7
:102D60003830006820F0805026493831086000BFB4
:102D7000A069002845D02348006800F00C0008280E
:102D80005DD0A069022845D100201F490866FFF7E1
:102D90001FFC054606E0FFF71BFC401B022801D97B
:102DA000032035E6174808380068C0F34060002863
:102DB000F1D1D4E907010843616A40EA8111012297
:102DC000A06AC2EB500041EA00412C20005D41EABC
:102DD00000600C49091F086001200B490866FFF7D5
:102DE000F7FB054606E0FFF7F3FB401B022801D97D
:102DF00003200DE6034808380068C0F3406000284F
:102E0000F1D03FE00838024000004742800E4742C0
:102E10000070004000201C490866FFF7D9FB0546FA
:102E200006E0FFF7D5FB401B022801D90320EFE5A0
:102E300016480068C0F340600028F2D122E0A06983
:102E4000012800D1E4E51148001D066806F4800160
:102E5000E069814214D106F03F01206A81420FD11E
:102E600047F6C0703040616A884209D106F44031AB
:102E7000A06A814204D106F07061E06A814201D00B
:102E80000120C5E50020C3E50000474200380240AC
:102E900010B504460CB9012010BD606A00B900BF2E
:102EA0000021A16294F8510028B9002084F8500054
:102EB000204600F033F8022084F8510020680068B2
:102EC00020F0400021680860D4E901010843E1686E
:102ED00008432169084361690843218B01F40071AB
:102EE0000843E1690843216A0843A16A084321684D
:102EF00008600421A06901EA1040616A0843216862
:102F000048602068C06920F400602168C861002022
:102F10006065012084F851000020BDE710B586B03F
:102F20000446142101A8FDF71DFA3749206888429C
:102F300030D100BF002000903448006840F4805039
:102F4000324908600846006800F48050009000BFD5
:102F500000BF00BF002000902C481438006840F0EB
:102F600001002A49143908600846006800F0010091
:102F7000009000BF00BFE0200190022002900020DE
:102F80000390032004900520059001A92048FFF735
:102F900019FA36E01F492068884232D100BF00206C
:102FA00000901A48001F006840F480401749091F2C
:102FB00008600846006800F48040009000BF00BF31
:102FC00000BF0020009011481438006840F0020053
:102FD0000E49143908600846006800F002000090AD
:102FE00000BF00BF4FF4604001900220029000201B
:102FF0000390032004900520059001A90648FFF7DF
:10300000E1F906B010BD0000003001404438024034
:1030100000000240003800400004024070B5044641
:103020002546681EB0F1807F01D301200FE0681EA5
:103030004FF0E02148610F214FF0FF3003F088F896
:1030400000204FF0E021886107200861002070BD5A
:103050007047704710B50346002200BF93F83C004C
:10306000012801D1022010BD012083F83C0000BFDF
:1030700022F0FF00CC6840EA040222F440708C6821
:1030800040EA040222F480604C6840EA040222F420
:1030900000600C6840EA040222F480500C6940EAA7
:1030A000040222F400504C6940EA040222F48040F9
:1030B000CC6940EA04021868426400BF002083F82B
:1030C0003C0000BF00BFCEE730B502460B4600BF54
:1030D00092F83C00012801D1022030BD012082F885
:1030E0003C0000BF022082F83D0010684468106870
:1030F000816824F070041868044310684460184D17
:103100001068A8421BD01068B0F1804F17D0154D41
:103110001068A84213D0144D1068A8420FD0134D68
:103120001068A8420BD0124D1068A84207D0114D6C
:103130001068A84203D0104D1068A84205D121F0B4
:1031400080015868014310688160012082F83D00C9
:1031500000BF002082F83C0000BF00BFBDE70000B8
:10316000000001400004004000080040000C004046
:1031700000040140004001400018004010B5044622
:103180000CB9012010BD94F83D0028B9002084F846
:103190003C00204600F00CF8022084F83D00211D80
:1031A000206802F0F3FA012084F83D000020E9E7EE
:1031B00038B504460E492068884217D100BF002068
:1031C00000900C48006840F002000A490860084678
:1031D000006800F00200009000BF00BF002206213E
:1031E0001D20FFF77FFA1D20FFF76CFA38BD0000A5
:1031F000000400404038024001460868C06840F0C2
:1032000001000B68D8600868806800F00702062A91
:1032100005D00868006840F001000B6818600020C5
:1032200070472DE9F04104460D4614B90120BDE870
:10323000F08194F83D0028B9002084F83C00204635
:1032400000F046F8022084F83D002068806844F2CF
:103250000701884321688860211D206802F096FAE2
:103260002068D0F80880206886692068076A286886
:1032700040EA080840F203308643A969A86840EA9A
:103280000120064340F60C4086434FF2F00086438F
:10329000E969E86840EA0120064328690001296AD3
:1032A00040EA0130064327F0220727F088076969C2
:1032B000686840EA011007432068C0F80880206869
:1032C000866120680762012084F83D000020AEE797
:1032D00010B586B00446142101A8FDF743F8206814
:1032E000B0F1804F2FD100BF00200090314800681E
:1032F00040F001002F4908600846006800F0010016
:10330000009000BF00BF00BF002000902948103887
:10331000006840F00100274910390860084600683D
:1033200000F00100009000BF00BF032001900220C8
:1033300002900020039004900120059001A91E48EE
:10334000FFF740F833E01D49206888422FD100BFC5
:10335000002000901748006840F0040015490860FC
:103360000846006800F00400009000BF00BF00BFE6
:10337000002000900F481038006840F008000D4908
:10338000103908600846006800F00800009000BF8F
:1033900000BF4FF4405001900220029000200390A3
:1033A00004900220059001A90548FFF70BF806B02C
:1033B00010BD0000403802400000024000080040FC
:1033C000000C024030B504460D4615B1042D0CD159
:1033D00005E001220021206802F044FA10E00122F9
:1033E0000421206802F03EFA0AE001220021206850
:1033F00002F038FA01220421206802F033FA00BFFB
:1034000000BF2068006840F00100216808600020CB
:1034100030BD704710B5044620680069C0F3400015
:10342000D8B12068C068C0F34000B0B16FF00200AE
:1034300021680861012020772068806900F003007E
:1034400018B12046FFF7E5FF05E0204600F006F939
:10345000204600F0C7F90020207720680069C0F3FB
:103460008000D8B12068C068C0F38000B0B16FF0B0
:10347000040021680861022020772068806900F438
:10348000407018B12046FFF7C4FF05E0204600F069
:10349000E5F8204600F0A6F90020207720680069B2
:1034A000C0F3C000D8B12068C068C0F3C000B0B19C
:1034B0006FF0080021680861042020772068C06947
:1034C00000F0030018B12046FFF7A3FF05E02046F7
:1034D00000F0C4F8204600F085F90020207720682D
:1034E0000069C0F30010D8B12068C068C0F30010B4
:1034F000B0B16FF0100021680861082020772068C3
:10350000C06900F4407018B12046FFF782FF05E063
:10351000204600F0A3F8204600F064F90020207750
:103520002068006900F0010058B12068C06800F010
:10353000010030B16FF0010021680861204600F001
:103540007FF920680069C0F3C01058B12068C068D6
:10355000C0F3C01030B16FF08000216808612046D0
:10356000FFF776FD20680069C0F3801058B120682D
:10357000C068C0F3801030B16FF04000216808616E
:10358000204600F094F920680069C0F3401058B15B
:103590002068C068C0F3401030B16FF0200021688F
:1035A00008612046FFF755FD10BD000010B586B03C
:1035B0000446142101A8FCF7D5FE2349206888425F
:1035C0001ED100BF002000902048006840F010008D
:1035D0001E4908600846006800F01000009000BF17
:1035E00000BF4FF428500190022002900020039069
:1035F00004900120059001A91548FEF7E3FE21E0A3
:103600001449206888421DD100BF002000900F4857
:10361000006840F004000D4908600846006800F0AA
:103620000400009000BF00BF4FF4E0700190022042
:1036300002900020039004900220059001A9064802
:10364000FEF7C0FE06B010BD000001403038024059
:10365000001002400004004000080240704770B5AE
:1036600004460D46164600BF94F83C00012801D1DF
:10367000022070BD012084F83C0000BF022084F8C5
:103680003D0036B1042E1BD0082E31D00C2E5ED159
:1036900045E02946206802F001F92068806940F081
:1036A0000800216888612068806920F00400216892
:1036B000886120688069296908432168886147E03A
:1036C0002946206802F022F92068806940F40060F1
:1036D000216888612068806920F4806021688861A1
:1036E00020688069296940EA0120216888612FE00B
:1036F0002946206802F048F92068C06940F00800B7
:103700002168C8612068C06920F004002168C86190
:103710002068C069296908432168C86118E0294602
:10372000206802F06DF92068C06940F400602168EB
:10373000C8612068C06920F480602168C861206881
:10374000C069296940EA01202168C86100E000BF22
:1037500000BF012084F83D0000BF002084F83C0039
:1037600000BF00BF85E710B504460CB9012010BDAD
:1037700094F83D0028B9002084F83C00204600F071
:103780000DF8022084F83D00211D206801F0FEFFA5
:10379000012084F83D000020E9E7000038B5044628
:1037A0000E492068884217D100BF002000900C48C5
:1037B000006840F001000A4908600846006800F00F
:1037C0000100009000BF00BF002204211920FEF775
:1037D00089FF1920FEF776FF38BD00000000014088
:1037E000443802407047000070B504460E4601227E
:1037F0003146206802F036F80F492068884203D02D
:103800000E492068884201D1012000E0002028B143
:103810002068406C40F4004021684864206880685B
:1038200000F00705062D05D02068006840F0010073
:1038300021680860002070BD0000014000040140C4
:10384000704770B504460D4600BF94F83C0001284F
:1038500001D1022070BD012084F83C0000BF02208D
:1038600084F83D002946204602F0F4F848B10120D2
:1038700084F83D0000BF002084F83C0000BF012018
:10388000E8E72068C06820F040002168C860206830
:10389000C06820F480402168C860012084F83D00A1
:1038A00000BF002084F83C0000BF00BFD2E7704793
:1038B000704700002DE9F04704462068056820683D
:1038C000C668206847694FF00008C14605F00F0838
:1038D000B8F1000F0AD105F0200038B106F0200041
:1038E00020B1204602F05CF9BDE8F087B8F1000F86
:1038F00072D007F0010018B906F4907000286BD060
:1039000005F0010030B106F4807018B1E06B40F0B2
:103910000100E06305F0040030B107F0010018B1C8
:10392000E06B40F00200E06305F0020030B107F008
:10393000010018B1E06B40F00400E06305F00800FE
:1039400048B106F0200010B907F0010018B1E06B93
:1039500040F00800E063E06B70B305F0200028B190
:1039600006F0200010B1204602F01AF920684069E4
:10397000C0F38019E06B00F0080010B9B9F1000F36
:1039800023D0204602F0ECF82068406900F04000A7
:10399000402816D12068406920F040002168486125
:1039A000606B50B11748616B0865606BFEF7F1FA08
:1039B00010B1606B016D88470CE02046FFF778FF7F
:1039C00008E02046FFF774FF04E02046FFF770FF91
:1039D0000020E06388E7FFE705F0800030B106F0E3
:1039E000800018B1204602F023FB7DE705F040007F
:1039F00030B106F0400018B1204602F0C1F873E77C
:103A000000BF71E74D5B000810B504460CB90120FA
:103A100010BDA06900B100E000BF94F8390028B9DA
:103A2000002084F83800204600F028F8242084F88C
:103A300039002068C06820F400502168C860204622
:103A400002F002F92068006920F4904021680861C2
:103A50002068406920F02A00216848612068C06819
:103A600040F400502168C8600020E063202084F802
:103A7000390084F83A000020CAE7000010B586B08B
:103A80000446142101A8FCF76DFC1F4920688842F8
:103A900038D100BF002000901C48006840F01000A2
:103AA0001A4908600846006800F01000009000BF46
:103AB00000BF00BF0020009014481438006840F098
:103AC00001001249143908600846006800F001003E
:103AD000009000BF00BF4FF4C06001900220029030
:103AE00000200390032004900720059001A90848B6
:103AF000FEF768FC002208212520FEF7F3FD2520B3
:103B0000FEF7E0FD06B010BD001001404438024051
:103B1000000002407047704700BFFEE710B52DED72
:103B2000028B0446B0EE408AB0EE480A21460348B4
:103B300001F0C6FABDEC028B10BD00008C00002025
:103B400010B5B7EE000A0220FFF7E8FF10BD000035
:103B500010B5024800F004F810BD00008C000020F1
:103B600010B504461049E0680968081A00EE100A0A
:103B7000B8EE400AD4ED010A9FED0C1A60EE810AFE
:103B8000B4EEE00AF1EE10FA01DB012000E00020C3
:103B900040B105480068E0602078022802D1204644
:103BA00000F006F810BD00007003002000007A4409
:103BB00010B50446607808B9012000E0002060706C
:103BC00060782169884710BD10B51E2400F044FDBF
:103BD00000F09EFF00F000FC00F05AFE00F0C0FD77
:103BE00001F01AF802F09EFAFCF7D8FE10BD7047FB
:103BF0001FB50020009001900290039021482249B7
:103C000008604FF48030486000211F488160012126
:103C100001610021017680F82010C1621B49816298
:103C20000021C1600321C161012180F83010002111
:103C30004161FDF7D3FC08B1FDF74BF90E20009070
:103C4000012001900020029069460F48FDF7FCFB1F
:103C500008B1FDF73EF90F2000900220019069465F
:103C60000948FDF7F1FB08B1FDF733F90820009092
:103C70000320019069460448FDF7E6FB08B1FDF713
:103C800028F91FBD002001407C0300200100000F27
:103C90001FB5002000900190029003902148224916
:103CA00008604FF48030486000211F488160012186
:103CB00001610021017680F82010C1621B498162F8
:103CC0000021C1600321C161012180F83010002171
:103CD0004161FDF783FC08B1FDF7FBF80A20009075
:103CE000012001900020029069460F48FDF7ACFBCF
:103CF00008B1FDF7EEF80B20009002200190694614
:103D00000948FDF7A1FB08B1FDF7E3F80C2000908E
:103D10000320019069460448FDF796FB08B1FDF7C2
:103D2000D8F81FBD00210140C40300200100000F8E
:103D300010B50F480F490860072048604FF08041D8
:103D40000C4881600021C1604FF4802101614FF473
:103D5000A00141610021017641768176C17601772B
:103D60004177FDF7D5FF08B1FDF7B3F810BD0000AE
:103D700000640040CC04002008B500BF0020009083
:103D80000E48006840F480000C490860084600684E
:103D900000F48000009000BF00BF00220321382003
:103DA000FEF7A0FC3820FEF78DFC002205213A200A
:103DB000FEF798FC3A20FEF785FC08BD303802403B
:103DC00000B587B0142102A8FCF7CCFA00BF002090
:103DD00001906F48006840F080006D490860084617
:103DE000006800F08000019000BF00BF00BF00200D
:103DF00001900846006840F004000860084600682A
:103E000000F00400019000BF00BF00BF002001903F
:103E10000846006840F0010008600846006800F0AD
:103E20000100019000BF00BF00BF002001900846C4
:103E3000006840F0020008600846006800F00200D8
:103E4000019000BF00BF00BF00200190084600683D
:103E500040F0100008600846006800F01000019073
:103E600000BF00BF00BF002001900846006840F07E
:103E7000080008600846006800F00800019000BFD4
:103E800000BF012210214348FEF79CFB00224FF4A3
:103E900080714148FEF796FB012211033F48FEF76F
:103EA00091FB00224FF400713D48FEF78BFB00228E
:103EB00010213C48FEF786FB042002903A4803900C
:103EC0000020049002A93348FEF77CFA10200290EB
:103ED0000120039004900220059002A92D48FEF7CE
:103EE00071FA4FF48070029001200390002004903A
:103EF000059002A92848FEF765FA4FF48050029019
:103F00000120039004900220059002A92348FEF7A7
:103F100059FA4FF400600290234803900020049067
:103F200002A92048FEF74EFA4FF4007002900120DB
:103F3000039000200490059002A91948FEF742FA68
:103F40000F200290002003900120049002A9154840
:103F5000FEF738FA10200290012003900020049010
:103F6000059002A90F48FEF72DFA00220121082032
:103F7000FEF7B8FB0820FEF7A5FB0022022128204F
:103F8000FEF7B0FB2820FEF79DFB07B000BD000048
:103F9000303802400000024000100240000402409D
:103FA00000080240000C02400000111010B510483B
:103FB000104908604FF48270486000210D4881600C
:103FC0004FF40061C160002101610121416149029A
:103FD00081611821C16100210162416281620A216F
:103FE000C162FEF755FF08B1FCF773FF10BD00007A
:103FF00000300140F404002010B51048104908605A
:104000004FF48270486000210D4881604FF40061D8
:10401000C1600021016101214161490281611021DA
:10402000C16100210162416281620A21C162FEF721
:104030002FFF08B1FCF74DFF10BD00000038004015
:104040004C05002000B591B000200F9010901C216D
:1040500008A8FCF787F920216846FCF783F92C486B
:104060002C4908600120486040212A48816041F2C3
:104070006701C16000210161416180218161FFF719
:1040800072FB08B1FCF725FF20200F9080201090D4
:104090000FA92048FFF718F808B1FCF71AFF6020B5
:1040A0000890002009900A900B900C900D900E90B3
:1040B000002208A91748FFF7D2FA08B1FCF709FF58
:1040C000042208A91348FFF7CAFA08B1FCF701FF58
:1040D000082208A90F48FFF7C2FA08B1FCF7F9FE59
:1040E0000020009001900290039004904FF4005043
:1040F00005900020079069460648FEF7ABFF08B11F
:10410000FCF7E7FE0348FFF751FA11B000BD0000CD
:1041100000000140A405002000B58BB0242102A8B6
:10412000FCF720F90020009001904FF080401749E3
:1041300008600020486000211448816044F6206136
:10414000C160002101618161012002900020039083
:10415000012004900020059006900790012008900F
:10416000002009900A9002A90848FFF75AF808B100
:10417000FCF7AFFE00200090019069460348FEF76F
:10418000A3FF08B1FCF7A5FE0BB000BDE4050020BD
:1041900000B58FB014210AA8FCF7E4F800200890BD
:1041A00009901C2101A8FCF7DDF82948294908607D
:1041B0000020486040212748816041F26701C160CA
:1041C0000021016180218161FEF7D8FF08B1FCF771
:1041D00080FE2048FFF7C7FA08B1FCF77AFE0620F8
:1041E0000A9000200B900AA91A48FFF72AFB08B191
:1041F000FCF76FFE202008900020099008A91548C0
:10420000FEF762FF08B1FCF764FE60200190002019
:10421000029003900590002201A90E48FFF71FFAB3
:1042200008B1FCF756FE042201A90A48FFF717FA65
:1042300008B1FCF74EFE082201A90648FFF70FFA65
:1042400008B1FCF746FE0348FFF7B0F90FB000BD18
:10425000000400402406002000B58BB0242102A8F1
:10426000FCF780F800200090019018481849086079
:104270000020486000211648816044F62061C1603A
:104280000021016181610120029000200390012042
:1042900004900020059006900790012008900020CF
:1042A00009900A9002A90A48FEF7BBFF08B1FCF783
:1042B00010FE00200090019069460548FEF704FFBB
:1042C00008B1FCF706FE0BB000BD0000000800407E
:1042D0006406002010B50B480B4908604FF4E1302C
:1042E0004860002108488160C16001610C21416182
:1042F00000218161C161FFF787FB08B1FCF7E9FD8F
:1043000010BD000000100140A406002000BFFEE721
:1043100010B5032202490348FDF768FA10BD0000FA
:10432000E40600207C03002008480068A0F5006037
:104330000649C86008464068A0F500600861084664
:104340008068A0F50060486170470000E406002026
:1043500010B5012000F00CF99FED130A00F0D0FE1B
:104360009FED120A00F0F4FE9FED100A00F018FF16
:104370004FF4FA70FEF702F8002406E00A20FDF779
:10438000FDFF00F007FA601CC4B20A2CF6DB9FEDBB
:10439000080A00F0B5FE9FED060A00F0D9FE9FED79
:1043A000040A00F0FDFE10BD0000A0420000204203
:1043B0000000000010B50748007930B900F0A4F9FA
:1043C000044908600120087103E00249086800F010
:1043D000F5F910BD100000200020024908600871A6
:1043E000704700001000002010B501210A4800F0BD
:1043F0003AFEDFED0A1A9FED0A1ADFED0A0A9FED79
:10440000090A054800F019FEDFED050A9FED040AD0
:10441000014800F023FE10BDEC0000206991DD4052
:1044200000000000BC74933C10B50248FCF752FD3C
:1044300010BD0000EC00002010B50248FCF794FD10
:1044400010BD0000EC00002010B5FFF7F5FFDFED18
:10445000020A30EE600A10BD0000344310B52DEDA5
:10446000028BFFF7E9FF184880ED000A90ED000A83
:104470001648D0ED000A30EE600AB0EE408A9FED9B
:10448000140AB4EEC08AF1EE10FA05D29FED110ABB
:1044900038EE000AB0EE408A9FED0F0AB4EEC08AF3
:1044A000F1EE10FA05DD9FED0B0A38EE400AB0EE92
:1044B000408A054890ED000A044880ED000AB0EEFD
:1044C000480ABDEC028B10BDC4010020C8010020C9
:1044D000000034C30000B4430000344310B5024868
:1044E000FCF766FE10BD0000A000002010B52DED09
:1044F000028BB0EE408AB0EE480A034800F0FDFEA1
:10450000BDEC028B10BD0000CC01002010B5B7EE51
:10451000000A084800F0E4FE9FED071ADFED070AE5
:104520009FED050A034800F0E1FE9FED040AFFF746
:10453000DDFF10BDCC0100208FC2753D00000000E2
:1045400010B5024800F0FCFC10BD0000CC010020BA
:1045500010B52DED028BB0EE408AF0EE480A9FEDCB
:10456000030A00F01DF8BDEC028B10BD0000000036
:1045700010B5044622464FF480710248FEF722F837
:1045800010BD00000010024010B52DED028BB0EE02
:10459000408AB0EE480A00F017F8BDEC028B10BD5F
:1045A00010B52DED028BB0EE408AF0EE608AF0EE91
:1045B000680AB0EE480A034800F050FDBDEC028BDB
:1045C00010BD0000EC00002010B52DED028BB0EE08
:1045D000408AB0EE480A034800F09FFEBDEC028B13
:1045E00010BD00008801002010B5B7EE000A094890
:1045F00000F086FE9FED081ADFED080AB5EE000A0E
:10460000044800F083FE9FED040A024800F085FE96
:1046100010BD0000880100200000000017B7513ACB
:1046200010B5024800F0D2FE10BD00008801002045
:1046300010B52DED028BB0EE408AF0EE608AF0EE00
:10464000680AB0EE480A034800F0E4FEBDEC028BB5
:1046500010BD0000A000002010B51348FEF7CCFDEF
:1046600000211148FFF7C0F804210F48FFF7BCF8FC
:1046700008210D48FFF7B8F800200B490968486386
:1046800009490968886308490968C8639FED070AF2
:1046900000F036FD9FED050A00F05AFD9FED030A7C
:1046A00000F07EFD10BD0000A40500200000000009
:1046B00000B500F029F800EE100AF8EEC00A9FEDF0
:1046C0000F1A80EE810ADFED0E0A20EE200A0D4857
:1046D00080ED010A90ED010AB5EEC00AF1EE10FA84
:1046E00007D290ED010ADFED060A30EE200A80EDD8
:1046F000010A044890ED010A00BD000000000046D8
:104700000000B443180000201348016813480068F3
:10471000406AA0F51C50103808440F49086042F266
:1047200010700E49096848620B480068002805DAD5
:104730000948006800F50050074908600649086804
:10474000C11700EBD1414913A0EB4131024A11607E
:10475000104600687047000018000020E4050020A3
:1047600010B504210848FEF72DFE42F210700649EC
:10477000096848629FED050A054880ED010A00209E
:104780000349086010BD0000E4050020000000009F
:104790001800002042F210700549096848629FED38
:1047A000050A054880ED010A0020034908607047AA
:1047B000E405002000000000180000200149086006
:1047C000704700001800002010B50322024903487A
:1047D000FDF70CF810BD000008070020C4030020FE
:1047E00008480068A0F500600649C86008464068AF
:1047F000A0F50060086108468068A0F50060486187
:10480000704700000807002010B5012000F00CF9E7
:104810009FED130A00F0ECFC9FED120A00F010FD72
:104820009FED100A00F034FD4FF4FA70FDF7A6FD7D
:10483000002406E000F00AFA0A20FDF79FFD601C44
:10484000C4B20A2CF6DB9FED080A00F0D1FC9FED04
:10485000060A00F0F5FC9FED040A00F019FD10BDFA
:104860000000A042000020420000000010B50748F0
:10487000007930B900F0A4F90449086001200871FA
:1048800003E00249086800F0F5F910BD200000209F
:1048900000200249086008717047000020000020D5
:1048A00010B501210A4800F0DEFBDFED0A1A9FED8A
:1048B0000A1ADFED0A0A9FED090A054800F0BDFB60
:1048C000DFED050A9FED040A014800F0C7FB10BDAB
:1048D000540200206991DD4000000000BC74933C4C
:1048E00010B50248FCF7F6FA10BD00005402002093
:1048F00010B50248FCF738FB10BD00005402002040
:1049000010B5FFF7F5FFDFED020A30EE600A10BDCB
:104910000000344310B52DED028BFFF7E9FF184876
:1049200080ED000A90ED000A1648D0ED000A30EE46
:10493000600AB0EE408A9FED140AB4EEC08AF1EE30
:1049400010FA05D29FED110A38EE000AB0EE408A47
:104950009FED0F0AB4EEC08AF1EE10FA05DD9FED6F
:104960000B0A38EE400AB0EE408A054890ED000A86
:10497000044880ED000AB0EE480ABDEC028B10BD81
:104980002C03002030030020000034C30000B44397
:104990000000344310B50248FCF70AFC10BD0000CB
:1049A0000802002010B52DED028BB0EE408AB0EE6B
:1049B000480A034800F0A1FCBDEC028B10BD0000CA
:1049C0003403002010B5B7EE000A084800F088FC58
:1049D0009FED071ADFED070A9FED050A034800F077
:1049E00085FC9FED040AFFF7DDFF10BD34030020B6
:1049F0008FC2753D0000000010B5024800F0A0FA1B
:104A000010BD00003403002010B52DED028BB0EE78
:104A1000408AF0EE480A9FED030A00F01DF8BDEC55
:104A2000028B10BD0000000010B5044622464FF472
:104A300000710248FDF7C6FD10BD000000080240ED
:104A400010B52DED028BB0EE408AB0EE480A00F0B2
:104A500017F8BDEC028B10BD10B52DED028BB0EE3A
:104A6000408AF0EE608AF0EE680AB0EE480A034829
:104A700000F0F4FABDEC028B10BD000054020020DF
:104A800010B52DED028BB0EE408AB0EE480A034817
:104A900000F043FCBDEC028B10BD0000F0020020D2
:104AA00010B5B7EE000A094800F02AFC9FED081A7D
:104AB000DFED080AB5EE000A044800F027FC9FED80
:104AC000040A024800F029FC10BD0000F00200209A
:104AD0000000000017B7513A10B5024800F076FC0C
:104AE00010BD0000F002002010B52DED028BB0EEDD
:104AF000408AF0EE608AF0EE680AB0EE480A034899
:104B000000F088FCBDEC028B10BD00000802002004
:104B100010B51348FEF770FB00211148FEF764FE44
:104B200004210F48FEF760FE08210D48FEF75CFEE9
:104B300000200B49096848630949096888630849E6
:104B40000968C8639FED070A00F052FB9FED050A54
:104B500000F076FB9FED030A00F09AFB10BD000009
:104B6000240600200000000000B500F029F800EE47
:104B7000100AF8EEC00A9FED0F1A80EE810ADFEDF1
:104B80000E0A20EE200A0D4880ED010A90ED010A80
:104B9000B5EEC00AF1EE10FA07D290ED010ADFED92
:104BA000060A30EE200A80ED010A044890ED010A61
:104BB00000BD0000000000460000B44328000020B3
:104BC0001348016813480068406AA0F51C5010386B
:104BD00008440F49086042F210700E4909684862A3
:104BE0000B480068002805DA0948006800F5005005
:104BF0000749086006490868C11700EBD14149130D
:104C0000A0EB4131024A1160104600687047000075
:104C1000280000206406002010B504210848FEF793
:104C2000D1FB42F210700649096848629FED050AFF
:104C3000054880ED010A00200349086010BD00000E
:104C400064060020000000002800002042F21070DE
:104C50000549096848629FED050A054880ED010A8B
:104C6000002003490860704764060020000000002F
:104C7000280000200149086070470000280000203B
:104C8000704710B52DED028B0446D4ED050AB0EE49
:104C9000600AFBF797FAD4ED170A20EE208AD4EDCC
:104CA000050AB0EE600AFBF7C9FAD4ED200A00EE5F
:104CB000C08A84ED0E8AD4ED050AB0EE600AFBF7D7
:104CC000BDFAD4ED170A20EE208AD4ED050AB0EE25
:104CD000600AFBF777FAD4ED200A00EE808A84EDB3
:104CE0000F8ABDEC028B10BD10B52DED028B044672
:104CF000D4ED050AB0EE600AFBF764FAD4ED0A0AB7
:104D000020EE208AD4ED050AB0EE600AFBF796FA91
:104D1000D4ED0B0A00EE808A84ED0D8AD4ED050AED
:104D2000B0EE600AFBF78AFAD4ED0A0AF1EE600AE7
:104D300020EE208AD4ED050AB0EE600AFBF742FAB5
:104D4000D4ED0B0A00EE808A84ED0C8ABDEC028B58
:104D500010BD704710B5FEF7F3FEFFF745FBFFF7F8
:104D600043FCFFF7D3FBFFF79BFDFFF799FEFFF72F
:104D700029FE10BD10B52549086825490968491D57
:104D8000884201D32249086020480468214800680D
:104D900000F5FA6084422DD31F4890ED000AF3EE2F
:104DA0000E0A30EE200A80ED000A90ED000ADFEDD9
:104DB0001B0AB4EEE00AF1EE10FA03DB9FED180ACD
:104DC00080ED000A1448D0ED000A9FED161A71EE2E
:104DD000600AB0EE600AFFF789FB0F48D0ED000AC9
:104DE0009FED101A71EE600AB0EE600AFFF7DAFD6F
:104DF00008480460FEF7ACFEFFF712FCFFF7A0FBCB
:104E0000FFF76AFEFFF7F8FD10BD0000300000203C
:104E10008400002088000020700000200000B443BF
:104E2000000000000000344310B52DED028B044655
:104E3000606B804784ED060A94ED060AD4ED050AFE
:104E400030EE600AB0EE408A9FED390AB4EEC08AB7
:104E5000F1EE10FA06DD9FED370A38EE400AB0EEAB
:104E6000408A0CE09FED340AB4EEC08AF1EE10FAED
:104E700005D29FED300A38EE000AB0EE408A9FED71
:104E80002F0A30EE480A84ED070A94ED020AD4EDA9
:104E9000070A20EE200AD4ED070A94ED081A70EEF6
:104EA000C10A94ED031A01EE200AD4ED040A94ED30
:104EB000091A00EE810A84ED0A0A94ED070A84EDCE
:104EC000080A94ED090AD4ED070A30EE200A84EDB1
:104ED000090A94ED0A0AD4ED0B0AB4EEE00AF1EEE9
:104EE00010FA04DD94ED0B0A84ED0A0A10E094ED4B
:104EF0000A0AD4ED0B0AF1EE600AB4EEE00AF1EE14
:104F000010FA05D294ED0B0AB1EE400A84ED0A0ABC
:104F1000207818B99FED090A84ED0A0AD4ED0A0A2F
:104F2000B0EE600AA06B8047BDEC028B10BD0000A4
:104F3000000034430000B443000034C3000000000C
:104F400010B504460E4960680968081A00EE100A98
:104F5000B8EE400AD4ED0C0A9FED0A1A60EE810A01
:104F6000B4EEE00AF1EE10FA01DB012000E00020CF
:104F700028B10348006860602046FFF755FF10BD68
:104F80007403002000007A4470B504460D462046A4
:104F900000F03AF808B1012070BD45B12068E3681F
:104FA000A66803FB060132462846FBF7C2F9E06813
:104FB000401C6168B0FBF1F201FB1200E060606927
:104FC000401C60610020E7E770B504460D462046AE
:104FD00000F023F808B1012070BD45B121682369B4
:104FE000A66803FB061032462946FBF7A2F92069A2
:104FF000401C6168B0FBF1F201FB12002061A06966
:10500000401CA0610020E7E701460869CA68904299
:1050100001D1012070470020FCE701460869401CCF
:105020004A68B0FBF2F302FB1300CA68904201D158
:10503000012070470020FCE7704780ED100AC0EDAA
:10504000110A80ED121AC0ED181A80ED190AC0ED90
:105050001A0A80ED1B1AC0ED211A704780ED020A72
:10506000C0ED010A704770B504460D4625702078E2
:10507000D4F88810884770BD0221017080ED010AC4
:10508000704710B5044600202070227A0AB9012228
:1050900000E0002210462169884710BD10B5044683
:1050A00001202070207A2169884710BD10B5044680
:1050B000224610210148FDF785FA10BD000C024080
:1050C00070B52DED028B05460C46B0EE408A24B13A
:1050D000012C06D0022C0ED107E02846FFF7D1FFA5
:1050E00009E02846FFF7DAFF05E0B0EE480A284657
:1050F000FFF7C2FF00BF00BFBDEC028B70BD000018
:10510000B5EEC00AF1EE10FA03D2DFED0D0AB0EEF3
:10511000600ADFED0C0AB4EEE00AF1EE10FA03DDEE
:10512000DFED080AB0EE600ADFED070A60EE200A44
:10513000FCEEE00A10EE900A0449096848637047E3
:10514000000000000000C84200002842A405002022
:10515000B5EEC00AF1EE10FA03D2DFED0D0AB0EEA3
:10516000600ADFED0C0AB4EEE00AF1EE10FA03DD9E
:10517000DFED080AB0EE600ADFED070A60EE200AF4
:10518000FCEEE00A10EE900A044909688863704753
:10519000000000000000C84200002842A4050020D2
:1051A000B5EEC00AF1EE10FA03D2DFED0D0AB0EE53
:1051B000600ADFED0C0AB4EEE00AF1EE10FA03DD4E
:1051C000DFED080AB0EE600ADFED070A60EE200AA4
:1051D000FCEEE00A10EE900A04490968C8637047C3
:1051E000000000000000C84200002842A405002082
:1051F000B5EEC00AF1EE10FA03D2DFED0D0AB0EE03
:10520000600ADFED0C0AB4EEE00AF1EE10FA03DDFD
:10521000DFED080AB0EE600ADFED070A60EE200A53
:10522000FCEEE00A10EE900A0449096848637047F2
:10523000000000000000C8420000284224060020B0
:10524000B5EEC00AF1EE10FA03D2DFED0D0AB0EEB2
:10525000600ADFED0C0AB4EEE00AF1EE10FA03DDAD
:10526000DFED080AB0EE600ADFED070A60EE200A03
:10527000FCEEE00A10EE900A044909688863704762
:10528000000000000000C842000028422406002060
:10529000B5EEC00AF1EE10FA03D2DFED0D0AB0EE62
:1052A000600ADFED0C0AB4EEE00AF1EE10FA03DD5D
:1052B000DFED080AB0EE600ADFED070A60EE200AB3
:1052C000FCEEE00A10EE900A04490968C8637047D2
:1052D000000000000000C842000028422406002010
:1052E000FCEEC00A10EE901A0170704780ED020AC1
:1052F000C0ED040A80ED031A704780ED050A70477F
:10530000FCEEC00A10EE901A0170704780ED020AA0
:10531000C0ED040A80ED031A704780ED050A70475E
:1053200010B50446606B804784ED060A94ED050ACB
:10533000D4ED060A30EE600A84ED070A94ED070A00
:10534000D4ED080A30EE600AD4ED020A20EE200AFD
:10535000D4ED040A94ED071A00EE810AD4ED0A0A8E
:1053600030EE200A84ED0A0A94ED070A84ED080A5B
:1053700094ED0A0AD4ED0B0AB4EEE00AF1EE10FA4D
:1053800004DD94ED0B0A84ED0A0A10E094ED0A0A9C
:10539000D4ED0B0AF1EE600AB4EEE00AF1EE10FA79
:1053A00005D294ED0B0AB1EE400A84ED0A0A20788A
:1053B00018B99FED050A84ED0A0AD4ED0A0AB0EE89
:1053C000600AA06B804710BD0000000010B50446C5
:1053D0000E4960680968081A00EE100AB8EE400A23
:1053E000D4ED0C0A9FED0A1A60EE810AB4EEE00AD1
:1053F000F1EE10FA01DB012000E0002028B10348A3
:10540000006860602046FFF78BFF10BD7803002026
:1054100000007A4410B52DED028B0446F0EE408A70
:10542000B0EE608AC4ED008A84ED018A204600F067
:1054300099F82046FBF7C0FE204600F003F8BDECCB
:10544000028B10BD10B52DED048B044694F83C0082
:10545000072877D2DFE800F07604172A3D50630072
:1054600094ED090AD4ED0B0A30EE200AD4ED0C0AB3
:1054700030EE208A94ED0B0AD4ED0C0A70EE208AEF
:1054800094ED0C9A5EE094ED0B0AD4ED0C0A30EE2C
:10549000208A94ED070AD4ED0B0A30EE200AD4EDF1
:1054A0000C0A70EE208A94ED0C9A4BE094ED0C8A75
:1054B00094ED070AD4ED080A30EE200AD4ED0C0A68
:1054C00070EE208A94ED080AD4ED0C0A30EE209A92
:1054D00038E094ED0C8A94ED080AD4ED0C0A70EED5
:1054E000208A94ED060AD4ED080A30EE200AD4EDA5
:1054F0000C0A30EE209A25E094ED0A0AD4ED0C0A4D
:1055000030EE208AD4ED0C8A94ED060AD4ED0A0A16
:1055100030EE200AD4ED0C0A30EE209A12E094ED21
:10552000090AD4ED0A0A30EE200AD4ED0C0A30EE56
:10553000208AD4ED0C8A94ED0A0AD4ED0C0A30EEE0
:10554000209A00BF00BFB0EE480A206C8047B0EE42
:10555000680A606C8047B0EE490AA06C8047BDECD9
:10556000048B10BD70B590ED010A80ED020AD0EDFC
:10557000010AB0EE001A80EE810AD0ED000A9FED1C
:105580002E1A10EE810A80ED030AD0ED010AB0EE6A
:10559000001A80EE810AD0ED000AF1EE600A9FED5C
:1055A000261A10EE810A80ED040A90ED020AB5EE8B
:1055B000C00AF1EE10FA01DD012100E0002190EDBA
:1055C000030AB5EEC00AF1EE10FA01DD012200E097
:1055D000002290ED040AB5EEC00AF1EE10FA01DDEA
:1055E000012300E000239D00022606FB02550D4426
:1055F000ECB2072C1DD2DFE804F01C081804100CD4
:105600001400012580F83C5013E0022580F83C503E
:105610000FE0032580F83C500BE0042580F83C5057
:1056200007E0052580F83C5003E0062580F83C5053
:1056300000BF00BF70BD00002DB25D3F10B50B482C
:105640000068401C0949086009480068401C084976
:10565000086008480068401C064908600648006861
:10566000401C05490860FCF7B9FF10BD3000002060
:1056700070030020780300207403002000B593B06D
:10568000302107A8FAF76EFE142102A8FAF76AFE85
:1056900000BF002001902448006840F0805022495B
:1056A00008600846006800F08050019000BF00BF0D
:1056B00000BF002001901D48006840F480401B4955
:1056C00008600846006800F48040019000BF00BFF9
:1056D000012007900004089002200D9041050E91D2
:1056E00004210F91A82110910221119104211291FE
:1056F00007A8FDF789F908B1FBF7EBFB0F20029033
:1057000002200390002004904FF4A05005904FF425
:1057100080500690052102A8FDF736F808B1FBF786
:10572000D8FB13B000BD00004038024000700040BC
:105730000548006840F47000034908604FF00060BD
:10574000014980390860704788ED00E010B50648CF
:105750000068006800F01000102801D1FEF7D8FDA5
:105760000148FDF757FE10BDA405002010B50648FE
:105770000068006800F01000102801D1FFF724F83D
:105780000148FDF747FE10BD2406002010B5026851
:10579000294B98420ED0B0F1804F0BD0274B984246
:1057A00008D0274B984205D0264B984202D0264B72
:1057B000984203D122F070024B681A431E4B984264
:1057C00020D0B0F1804F1DD01C4B98421AD01C4BFA
:1057D000984217D01B4B984214D01B4B984211D0C3
:1057E0001A4B98420ED01A4B98420BD0194B984244
:1057F00008D0194B984205D0184B984202D0184B4C
:10580000984203D122F44072CB681A4322F08003FD
:105810004C6943EA040202608B68C3620B688362CE
:10582000054B984202D0084B984201D10B690363A3
:105830000123436110BD000000000140000400404E
:1058400000080040000C00400004014000400140FE
:10585000004401400048014000180040001C004086
:105860000020004030B501F01F05012404FA05F3C3
:10587000046A9C430462046A01F01F0502FA05F5FC
:105880002C43046230BD30B50C46816821F47F4161
:1058900042EA032525432943816030BD30B5056ABE
:1058A00025F001050562026A4368846924F07004EA
:1058B00024F003040D682C4322F002028D682A4371
:1058C000104DA84200D103E00F4DA84206D100BF01
:1058D00022F00802CD682A4322F00402094DA842B2
:1058E00002D0094DA84207D123F4807323F400733A
:1058F0004D692B438D692B43436084614D6845633B
:10590000026230BD000001400004014030B5056A6C
:1059100025F010050562026A4368846924F4E044B6
:1059200024F440740D6844EA052422F020028D68B6
:1059300042EA0512124DA84200D103E0114DA842DF
:1059400007D100BF22F08002CD6842EA051222F0A2
:1059500040020B4DA84202D00A4DA84209D123F4BF
:10596000806323F400634D6943EA85038D6943EA4C
:105970008503436084614D688563026230BD000029
:10598000000001400004014030B5056A25F480752F
:105990000562026A4368C46924F0700424F00304B9
:1059A0000D682C4322F400728D6842EA0522124DE4
:1059B000A84200D103E0114DA84207D100BF22F454
:1059C0000062CD6842EA052222F480620A4DA842B4
:1059D00002D00A4DA84209D123F4805323F4005386
:1059E0004D6943EA05138D6943EA05134360C461B9
:1059F0004D68C563026230BD0000014000040140F3
:105A000030B5056A25F480550562036A4468C269A9
:105A100022F4E04222F440720D6842EA052223F4A7
:105A200000538D6843EA0533084DA84202D0084D63
:105A3000A84204D124F480444D6944EA85144460AA
:105A4000C2614D680564036230BD00000000014082
:105A5000000401402DE9F04105460C46286886689F
:105A600026F070066068064326F0070620680643A5
:105A700028688660606800F00F0100293BD10011A2
:105A8000082838D2DFE800F0333435360B272D04F0
:105A9000D4E90313A2682868FFF7F5FE2CE020681C
:105AA000052802D10120BDE8F0812868D0F82080C7
:105AB0002868006A20F00100296808622868876960
:105AC00027F0F007206947EA0017286887612868EF
:105AD000C0F8208010E02269A168286800F00FF863
