:020000040800F2
:10000000880F0020A1010008F14A0008253C0008E3
:1000100011440008F70B00084D61000800000000C3
:10002000000000000000000000000000D95100089E
:10003000F310000800000000C34B000855580008EA
:10004000BB010008BB010008BB010008BB010008A0
:10005000BB010008BB010008BB010008BB01000890
:10006000BB010008BB010008BB010008BB01000880
:10007000BB010008BB010008BB010008BB01000870
:10008000BB010008BB010008BB010008BB01000860
:10009000BB010008BB010008BB010008BB01000850
:1000A000BB01000865590008BB010008BB0100083E
:1000B000BB01000885590008BB010008BB0100080E
:1000C000BB010008BB010008BB010008BB01000820
:1000D000BB010008BB010008BB010008BB01000810
:1000E000BB010008BB010008BB010008BB01000800
:1000F000BB010008BB010008BB010008BB010008F0
:10010000BB010008BB010008BB010008BB010008DF
:10011000BB010008BB010008BB010008BB010008CF
:10012000B90F0008BB010008D10F0008BB0100088F
:10013000BB010008BB010008BB010008BB010008AF
:10014000BB010008BB010008BB010008BB0100089F
:10015000BB010008BB010008BB010008BB0100088F
:10016000BB010008BB010008BB010008BB0100087F
:10017000BB010008BB010008BB0100080000000033
:10018000BB010008BB010008DFF810D000F0D0FB75
:1001900000480047856A0008AFF30080880F002000
:1001A0000648804706480047FEE7FEE7FEE7FEE711
:1001B000FEE7FEE7FEE7FEE7FEE7FEE74959000837
:1001C000890100089FED1A1AF5EE000A40EE010AB7
:1001D000BDEEE00AF5EEC00A10EE100AF1EE10FADC
:1001E00038BF401E00EE100A1349F7EE001AB8EEB1
:1001F000C00A30EEC00ADFED0F0A20EE200AFCEE46
:10020000C00A10EE900AC0F3080000EE900A01EB5D
:100210008000F8EE600A90ED011A70EE600A90ED31
:10022000000A71EEE01A21EE800A00EE810A7047A2
:1002300083F9223E00000044286B0008B5EEC00A96
:10024000F1EE10FA07D2DFED1E0AB4EEE00AF1EE8D
:1002500010FAA8BF7047DFED1B0AB5EEC00A60EECA
:10026000200ABDEEE01A11EE100AF1EE10FA38BFC6
:10027000401E00EE100A1549F7EE001AB8EEC00A4B
:1002800030EEC00ADFED100A60EE200ABCEEE00A94
:1002900010EE100AC0F3080000EE100A01EB800017
:1002A000B8EE400A90ED011A70EEC00A90ED000A17
:1002B00071EEE01A21EE800A00EE810A704700001C
:1002C000CD024CB483F9223E00000044286B0008A4
:1002D0002DE9F05F0546002092469B46884606467B
:1002E000814640241BE0284641464746224600F00E
:1002F0004CF953465A46C01A914110D3114618463C
:10030000224600F033F92D1A67EB01084F462246CA
:100310000120002100F02AF917EB00094E41201EB0
:10032000A4F10104DFDC484631462A464346BDE8D5
:10033000F09F40EA01039B0703D009E008C9121FA0
:1003400008C0042AFAD203E011F8013B00F8013B8F
:10035000521EF9D27047D2B201E000F8012B491EBB
:10036000FBD270470022F6E710B513460A46044652
:100370001946FFF7F0FF204610BD2DE9FE4F81EA38
:10038000030404F0004421F0004100944FF0000BFE
:1003900023F0004350EA01045ED052EA03045BD02C
:1003A000C3F30A54C1F30A552C44A4F2F334019464
:1003B000A0FB0254C1F3130141F48011C3F31303F2
:1003C00043F4801301FB024400FB034E840A970AA6
:1003D00044EA815447EA8357A4FB076802958D0AD3
:1003E00005FB07854FEA932C04FB0C542705029D5F
:1003F0004FEA065847EA1637B5EB08056EEB070CCF
:10040000870E920E47EA811742EA8312A7FB020188
:10041000B6EB0B0164EB00042B0D43EA0C335E18C2
:1004200044EB1C50DA465146E7FB0201C5F31304C6
:100430004FEA0B3343EA14534FEA0432019C43EA78
:100440000603A4F10C040294009CCDE900B400F072
:10045000F2F803B0BDE8F08F00200146F9E70EB5D1
:10046000C10F80EAE0700844CA07002140F233431C
:100470008DE80E000A460B4600F0DDF803B000BD23
:1004800000F0004230F000400AD0C10D01F560716B
:10049000C0F3160042EA0151C208400711437047F9
:1004A000002001467047000030B5041E71F10004C1
:1004B00004DB4FF00044404264EB0101141E73F171
:1004C000000405DB1C464FF00043524263EB04037B
:1004D0008B4208BF824230BD30B5041E71F100046A
:1004E00004DB4FF00044404264EB0101141E73F141
:1004F000000405DB1C464FF00043524263EB04034B
:10050000994208BF904230BD01F0004330B421F061
:10051000004150EA010206D00A0DA2F56072C1F353
:100520001301002A02DC30BC00207047440F44EA6B
:10053000C104C100E01830BC00EBC25000F035B877
:1005400030B50B46014600202022012409E021FAA3
:1005500002F59D4205D303FA02F5491B04FA02F5A0
:100560002844151EA2F10102F1DC30BD202A04DB73
:10057000203A00FA02F1002070479140C2F12003B6
:1005800020FA03F3194390407047202A04DB203AF5
:1005900021FA02F00021704721FA02F3D040C2F1A3
:1005A000200291400843194670470029A8BF7047B0
:1005B000401C490008BF20F00100704710B4B0FA99
:1005C00080FC00FA0CF050EA010404BF10BC704734
:1005D00049B1CCF1200421FA04F411FA0CF118BF4E
:1005E000012121430843A3EB0C01CB1D4FEA00611D
:1005F0004FEA102042BF002010BC704700EBC350F0
:1006000010440029A4BF10BC7047401C490008BF1B
:1006100020F0010010BC704710B5141E73F10004E7
:1006200008DA401C41F1000192185B411A4301D1E4
:1006300020F0010010BD2DE9F04D92469B4611B10E
:10064000B1FA81F202E0B0FA80F220329046FFF770
:100650008DFF04460F4640EA0A0041EA0B0153466B
:100660005A46084313D0114653EA010019D0C8F185
:1006700040025046FFF789FF05460E465046594650
:100680004246FFF773FF084305D0012004E02046EF
:100690003946BDE8F08D0020054346EAE0762C435C
:1006A00037430A986305E40AA0EB08000022FD0A1C
:1006B00044EA47540A3002D500200146E9E7010523
:1006C00010196941DDE9084500196941BDE8F04D9F
:1006D000A2E72DE9FE4F804681EA0300C00F0C46D9
:1006E000009021F0004123F00045B8EB0200A94141
:1006F00005D24046214690461C460B46024623F052
:100700000040104347D0270DC7F30A00C3F30A5136
:100710000290401A019040286BDAC3F3130040F4B2
:10072000801B0098924620B10023D2EB030A63EBB2
:100730000B0B01985946C0F140025046FFF716FFD7
:1007400006460D4650465946019A00F003F910EB53
:1007500008006141002487EA115284EAE7731A43D2
:1007600040D0009A62B3019A012A4FEA075215DC81
:10077000001B61EB02014FF0004202EA0752CDE993
:100780000042001C41F5801132462B46FFF753FF13
:1007900003B0BDE8F08F40462146F9E7001B61EB4E
:1007A0000201001C41F5801300185B412018A2F5DE
:1007B000001747EB030140EAD570B6196D4111E00F
:1007C0006D084FEA360645EAC0754FEA0752001B2E
:1007D00061EB0201001C41F5801149084FEA30002D
:1007E0000019514132462B4603B0BDE8F04FFFF7E8
:1007F00013BF0098012240000023D0EB020263EBFC
:10080000E073009821464FEAE074B8EB000061EB1A
:100810000401E9E783F000435BE781F0004158E71A
:100820002DE9F04D81EA030404F0004B21F000456E
:1008300014464FF0000A23F0004150EA050220D090
:1008400054EA01021DD0C5F30A570246C5F313034B
:10085000C1F31300C1F30A5640F4801543F480132A
:10086000A7EB0608101BD64608F2FD3873EB05000F
:1008700002D308F1010801E092185B41B8F1000FC2
:1008800003DA00200146BDE8F08D00204FF480110E
:10089000064684460EE0171B73EB050705D3121BB3
:1008A00063EB050306434CEA010C49084FEA3000AC
:1008B00092185B4150EA0107EDD152EA030012D0D1
:1008C00082EA040083EA0501084305D0101BAB410E
:1008D00006D20122002306E000224FF0004302E08E
:1008E0006FF0010253101AEB06004CEB085110EBAD
:1008F0000A0041EB0B01BDE8F04DFFF78DBEC1F3DF
:100900000A52C1F3130140F2FF3341F480119A42BD
:1009100002DA00200146704740F233439A42A2F2C5
:10092000334202DC5242FFF730BEFFF71FBE000029
:10093000064C074D06E0E06840F0010394E807002C
:1009400098471034AC42F6D3FFF722FC3873000806
:1009500058730008202A06DBCB17203A41FA02F030
:1009600043EAE07306E041FA02F3D040C2F120020C
:10097000914008431946704770B58C1810F8015B18
:1009800015F0070301D110F8013B2A1106D110F828
:10099000012B03E010F8016B01F8016B5B1EF9D12C
:1009A0002B0705D40023521E0DD401F8013BFAE7B2
:1009B00010F8013BCB1A921C03E013F8015B01F81D
:1009C000015B521EF9D5A142D8D3002070BD70B58D
:1009D0000546AC6B206C00F0500050BB206C40F41E
:1009E000007020642068806800F04050E8B9207EE4
:1009F000D8B92068C06A00F4700020B1206880680F
:100A000000F4806088B92068406820F020002168E8
:100A10004860206C20F480702064206C00F48050CA
:100A200018B9206C40F001002064204600F0E0FE80
:100A30000BE0206C00F0100018B1204600F0DAFE48
:100A400003E0A06BC16C2846884770BD70B50546B1
:100A5000AC6B40202064606C40F004006064204671
:100A600000F0C8FE70BD70B50446A56B284600F0C6
:100A7000C0FE70BD55494A6822F440324A604A6857
:100A800043681A434A600268526822F4807203681D
:100A90005A6002685368026943EA022203685A6096
:100AA0000268526822F0407203685A600268526815
:100AB00083681A4303685A600268926822F40062ED
:100AC00003689A6002689268C3681A4303689A6070
:100AD0003F4B826A9A4218D00268926822F0706294
:100AE00003689A6002689268836A1A4303689A608E
:100AF0000268926822F0405203689A600268926825
:100B0000C36A1A4303689A600BE00268926822F095
:100B1000706203689A600268926822F0405203682B
:100B20009A600268926822F0020203689A60026882
:100B30009368027E43EA420203689A602022125CB4
:100B4000A2B10268526842F4006203685A60026807
:100B5000526822F4604203685A6002685368426A2D
:100B6000521E43EA423203685A6005E00268526846
:100B700022F4006203685A600268D26A22F47002AA
:100B80000368DA620268D36A828B521E43EA025219
:100B90000368DA620268926822F4007203689A605D
:100BA0000268936890F8302043EA422203689A6012
:100BB0000268926822F4806203689A60026893680F
:100BC000426943EA822203689A6070470023014029
:100BD0000100000F10B503F07DF803F0F3FF00F003
:100BE000ADFA10BD10B503F095F803F0FBFF00F06F
:100BF000A9FA10BD704700BFFEE7000090ED070A9C
:100C000080ED0A0A90ED070AD0ED080AB0EE001A4E
:100C100001EE200ADFED030A80EE201A80ED0B1AA8
:100C200070470000D0B3DD3F10B52DED088B0446B2
:100C300094ED0D0A84ED130A94ED020A84ED140A72
:100C400094ED140AD4ED130A30EE600A84ED150A0F
:100C500094ED150AD4ED160A30EE600AD4ED100AB0
:100C600020EE200AD4ED110A94ED151A00EE810A47
:100C7000D4ED170A30EE200A84ED170A94ED150A18
:100C800084ED160A94ED180A10EE101A0846FFF7C4
:100C9000F7FB41EC1A0BB0EE4A0AF0EE6A0A05F0D7
:100CA00085FAB0EE408AF0EE608A94ED170A10EEF5
:100CB000101A0846FFF7E4FB41EC190B53EC182B14
:100CC000FFF70AFC17D294ED180A10EE101A084626
:100CD000FFF7D6FB41EC190BB0EE490AF0EE690ABA
:100CE00005F064FAB0EE408AF0EE608A51EC180B21
:100CF000FFF70AFCE06594ED180A10EE101A08469A
:100D0000FFF7BEFB41EC1B0BB0EE4B0AF0EE6B0A9B
:100D100005F04CFAB0EE40AAF0EE60AA51EC1A0BC6
:100D200081F0004141EC180B94ED170A10EE101AF7
:100D30000846FFF7A5FB41EC190B53EC182BFFF706
:100D4000B3FB1BD294ED180A10EE101A0846FFF7F9
:100D500097FB41EC1A0BB0EE4A0AF0EE6A0A05F076
:100D600025FAB0EE409AF0EE609A51EC190B81F042
:100D7000004141EC180BFFF7C7FBE065BDEC088BA9
:100D800010BD10B52DED088B044694ED0C0A84EDD2
:100D90001C0A94ED010A84ED1D0A94ED1D0AD4EDA0
:100DA0001C0A30EE600A84ED1E0A94ED1E0AD4ED92
:100DB0001F0A30EE600AD4ED190A20EE200AD4EDA5
:100DC0001A0A94ED1E1A00EE810AD4ED200A30EEC4
:100DD000200A84ED200A94ED1E0A84ED1F0A94ED8A
:100DE000210A10EE101A0846FFF74AFB41EC1A0BD5
:100DF000B0EE4A0AF0EE6A0A05F0D8F9B0EE408A81
:100E0000F0EE608A94ED200A10EE101A0846FFF703
:100E100037FB41EC190B53EC182BFFF75DFB18D295
:100E200094ED210A10EE101A0846FFF729FB41EC59
:100E3000190BB0EE490AF0EE690A05F0B7F9B0EE09
:100E4000408AF0EE608A51EC180BFFF75DFB8021C1
:100E5000085194ED210A10EE101A0846FFF710FB16
:100E600041EC1B0BB0EE4B0AF0EE6B0A05F09EF95D
:100E7000B0EE40AAF0EE60AA51EC1A0B81F00041EE
:100E800041EC180B94ED200A10EE101A0846FFF7FB
:100E9000F7FA41EC190B53EC182BFFF705FB1CD2AA
:100EA00094ED210A10EE101A0846FFF7E9FA41EC1A
:100EB0001A0BB0EE4A0AF0EE6A0A05F077F9B0EEC6
:100EC000409AF0EE609A51EC190B81F0004141EC30
:100ED000180BFFF719FB80210851BDEC088B10BDE2
:100EE00010B5044604F12402111F081FD4F89430F1
:100EF0009847207E032800DA10BDD4F89000804780
:100F0000072853D2DFE800F05204111E2B384500A9
:100F100094ED080ADFED270A30EEC00AD4ED090A85
:100F200030EE600A84ED070A41E094ED070ADFED38
:100F3000210A30EEC00AD4ED090A30EE600A84EDD1
:100F4000080A34E094ED070ADFED1A0A30EEC00A11
:100F5000D4ED090A30EE600A84ED080A27E094ED2A
:100F6000070ADFED140A30EEC00AD4ED080A30EEAD
:100F7000600A84ED090A1AE094ED070ADFED0D0A14
:100F800030EEC00AD4ED080A30EE600A84ED090A9A
:100F90000DE094ED080ADFED070A30EEC00AD4ED4B
:100FA000090A30EE600A84ED070A00E000BF00BFC6
:100FB00000BFA1E70000000010B503F037FA03F00E
:100FC00069FA024800F0E0FE10BD00005404002061
:100FD00010B503F0DDFB03F00FFC024800F0D4FE77
:100FE00010BD0000B4040020014608781038182312
:100FF000B0FBF3F20848805CC865032A05D908688D
:101000006FF30900001D886503E008686FF30900AD
:101010008865886D70470000086B00080146002055
:101020008A6A8B69CBB932B1012A0DD0022A03D06A
:10103000032A10D10EE000BFCB6A03F08073B3F136
:10104000807F00D1012007E0CB6AB3F1C07F00D1DF
:10105000012001E000E000BF34E08B69B3F5005FE0
:101060001AD132B1012A07D0022A03D0032A11D1A2
:101070000AE000BF01200EE0CB6A03F08073B3F1F9
:10108000807F00D1012006E0CB6AB3F1C07F00D1A0
:10109000012000E000BF15E032B1012A05D0022A8C
:1010A00004D0032A0CD103E000BF00BF012008E0F8
:1010B000CB6A03F08073B3F1807F00D1012000E0A0
:1010C00000BF00BF704730B50468246824F4802452
:1010D00005682C60046863608468402C04D104684F
:1010E000A2600468E16003E00468A1600468E26053
:1010F00030BD7047704710B50446204600F024F814
:101100002046FFF7EDFE2046FFF778FD204603F06E
:1011100023FD2046FFF788FD2046FFF732FE2046DC
:1011200003F0E7FC94ED0F1AF0EE410A94ED0E1A6D
:10113000B0EE410AD4F89800804710BD10B5FFF713
:1011400059FD10BD7047000010B50446D4F88C005E
:10115000804784ED030AD4ED030A607800EE100A9C
:10116000B8EE400A20EE800A84ED040A94ED040AE9
:10117000DFED030A20EE200A84ED050A10BD000011
:101180004DF38E3C90ED030A7047000001460329A1
:1011900001DB00207047104850F8210000EE100AD3
:1011A000B8EEC00ADFED0D0A20EE200A0A480C3026
:1011B00050F8210000EE900AF8EEE00A9FED081AC0
:1011C00001EE200ABDEEC00A10EE102A02480C30D3
:1011D00040F821201046DDE7380700206666663FAC
:1011E000D0CCCC3D2DE9F0412DED068B04460D46CB
:1011F00016460020FFF7CAFF0746FFF730F941EC1B
:101200001A0B9FED260B53EC102BFFF7B6F841ECB1
:10121000190B9FED240B53EC102BFFF7AEF841ECAC
:10122000180BFFF771F920600120FFF7AFFF0746A9
:10123000FFF715F941EC1A0B9FED180B53EC102B2F
:10124000FFF79BF841EC190B9FED160B53EC102B9D
:10125000FFF793F841EC180BFFF756F928600220CE
:10126000FFF794FF0746FFF7FAF841EC1A0B9FEDE2
:101270000B0B53EC102BFFF780F841EC190B9FED93
:10128000090B53EC102BFFF778F841EC180BFFF724
:101290003BF93060BDEC068BBDE8F0812D431CEBC3
:1012A000E2364A3F000000000000F83F01460329F3
:1012B00001DB00207047104850F8210000EE100AB2
:1012C000B8EEC00ADFED0D0A20EE200A0A480C3005
:1012D00050F8210000EE900AF8EEE00A9FED081A9F
:1012E00001EE200ABDEEC00A10EE102A02480C30B2
:1012F00040F821201046DDE75C0700206666663F67
:10130000D0CCCC3D2DE9F0412DED068B04460D46A9
:1013100016460020FFF7CAFF0746FFF7A0F841EC8A
:101320001A0B9FED260B53EC102BFFF726F841EC20
:10133000190B9FED240B53EC102BFFF71EF841EC1B
:10134000180BFFF7E1F820600120FFF7AFFF074619
:10135000FFF785F841EC1A0B9FED180B53EC102B9F
:10136000FFF70BF841EC190B9FED160B53EC102B0C
:10137000FFF703F841EC180BFFF7C6F828600220CE
:10138000FFF794FF0746FFF76AF841EC1A0B9FED51
:101390000B0B53EC102BFEF7F0FF41EC190B9FEDFC
:1013A000090B53EC102BFEF7E8FF41EC180BFFF78D
:1013B000ABF83060BDEC068BBDE8F0812D431CEB33
:1013C000E2364A3F000000000000F83F014691F875
:1013D0003C00704790F83C1007297CD2DFE801F010
:1013E0007B04376A9FD2FD0090ED0D0ADFED9B0A6A
:1013F00020EE200AD0ED0E0A80EE201A90ED030AAE
:1014000021EE000A80ED090A90ED0D0ADFED930A46
:1014100020EE200AD0ED0E0A80EE201A90ED020A8E
:1014200021EE000A80ED0B0A90ED0D0AD0ED090ABD
:1014300030EE600AD0ED0B0A30EE600AF0EE000AE2
:1014400080EE201A80ED0C1A80ED051A03E190ED74
:101450000D0ADFED830A20EE200AD0ED0E0A80EEA1
:10146000201A90ED030A21EE000A80ED070A90EDA4
:101470000D0ADFED7B0A20EE200AD0ED0E0A80EE89
:10148000201A90ED040A21EE000A80ED0B0A90ED7F
:101490000D0AD0ED070A30EE600AD0ED0B0A30EEEF
:1014A000600AF0EE000A80EE201A80ED0C1A80ED42
:1014B000051AD0E090ED0D0ADFED680A60EE200A13
:1014C00090ED0E1A80EE810AD0ED020A20EE200A7D
:1014D00080ED070A00E0BDE090ED0D0ADFED5F0A48
:1014E00020EE200AD0ED0E0A80EE201A90ED040ABC
:1014F00021EE000A80ED080A90ED0D0AD0ED070AF2
:1015000030EE600AD0ED080A30EE600AF0EE000A14
:1015100080EE201A80ED0C1A80ED051A9BE090ED0C
:101520000D0ADFED4F0A20EE200A90ED0E1AC0EEF4
:10153000010A90ED020A20EE800A80ED060A90ED85
:101540000D0ADFED470A20EE200A90ED0E1AC0EEDC
:10155000010A90ED030A20EE800A80ED080A90ED62
:101560000D0AD0ED060A30EE600AD0ED080A30EE22
:10157000600AF0EE000A80EE201A80ED0C1A80ED71
:10158000051A68E090ED0D0ADFED340A60EE200ADE
:1015900090ED0E1A80EE810AD0ED040A20EE200AAA
:1015A00080ED060A90ED0D0ADFED2C0A60EE200AB0
:1015B00090ED0E1A80EE810AD0ED030A20EE200A8B
:1015C00080ED0A0A90ED0D0AD0ED060A30EE600AB1
:1015D000D0ED0A0A30EE600A00E008E0F0EE000A02
:1015E00080EE201A80ED0C1A80ED051A33E090EDA4
:1015F0000D0ADFED1B0A60EE200A90ED0E1A80EE58
:10160000810AD0ED040A20EE200A80ED090A90ED4F
:101610000D0ADFED130A20EE200AD0ED0E0A80EE4F
:10162000201A90ED020A21EE000A80ED0A0A90EDE0
:101630000D0AD0ED090A30EE600AD0ED0A0A30EE4C
:10164000600AF0EE000A80EE201A80ED0C1A80EDA0
:10165000051A00E000BF00BF704700002DB2DD3F5B
:101660002DB2DDBF38B502460020009000BF92F8D1
:101670003C00012801D1022038BD012082F83C0045
:1016800000BF0868092816D91068C0680C780A3CA1
:1016900004EB44050724AC40A0431468E0600C78D8
:1016A0000A3C04EB44048868A0401468E4682043C2
:1016B0001468E06013E0106800690C7804EB4405DE
:1016C0000724AC40A043146820610C7804EB440468
:1016D0008868A04014682469204314682061486821
:1016E000072817D21068406B0C79641E04EB840540
:1016F0001F24AC40A04314686063088880B20C7952
:10170000641E04EB8404A0401468646B20431468D6
:10171000606331E048680D2817D21068006B0C79BF
:10172000E41F04EB84051F24AC40A043146820632D
:10173000088880B20C79E41F04EB8404A04014688C
:10174000246B20431468206316E01068C06A0C798B
:101750000D3C04EB84051F24AC40A0431468E062F8
:10176000088880B20C790D3C04EB8404A040146816
:10177000E46A20431468E062194B1A4C1068A042D6
:1017800006D10868122803D1586840F480005860D8
:10179000144C1068A0421CD10868102802D00868B8
:1017A000112816D1586840F40000586008681028C5
:1017B0000FD10D4800680D4CB0FBF4F000EB800039
:1017C0004000009002E00098401E00900098002821
:1017D000F9D100BF002082F83C0000BF00BF4BE7FA
:1017E00000230140002001400C00002040420F0077
:1017F000704770477047000070B5044600250CB96B
:10180000012070BD1549A06A884200D000BF206C3D
:1018100030B9204600F024F80020606484F83C00D1
:10182000206C00F0100088B9206C20F4885040F043
:10183000020020642046FFF71DF900206064206C40
:1018400020F0020040F00100206400E0012500BF0C
:10185000002084F83C0000BF2846D2E70100000FBA
:1018600010B586B00446142101A8FEF77BFD5E4941
:101870002068884264D100BF002000905B48006867
:1018800040F48070594908600846006800F4807090
:10189000009000BF00BF00BF0020009053481438E4
:1018A000006840F004005149143908600846006897
:1018B00000F00400009000BF00BF00BF00200090B7
:1018C0000846006840F0020008600846006800F022
:1018D0000200009000BF00BF302001900320029062
:1018E0000020039001A9424800F02EFC0120019045
:1018F000032002900020039001A93E4800F024FC40
:101900003D483E4908600020486000213B48816016
:10191000C1604FF48061016189004161890081618A
:101920008911C161490201620021416200F04CFB52
:1019300008B1FFF7DFFB00BF3048A063846351E0CC
:101940002F49206888424DD100BF002000902748D1
:10195000006840F40070254908600846006800F4FB
:101960000070009000BF00BF00BF002000901F4823
:101970001438006840F004001C4914390860084617
:10198000006800F00400009000BF00BF0720019035
:10199000032002900020039001A9154800F0D4FB19
:1019A00015483030174908604FF00070486000213A
:1019B00014488160C1604FF4806101618900416118
:1019C000890081618911C16149020162002141627E
:1019D00000F0FAFA08B1FFF78DFB00BF0948A063D9
:1019E000846300BF06B010BD0020014044380240AF
:1019F0000008024000040240106402405404002029
:101A000000210140B4040020F8B504460D461646F6
:101A10000020009000BF94F83C00012801D1022072
:101A2000F8BD012084F83C0000BF2068806800F009
:101A30000100A0B92068806840F00100216888603A
:101A4000494800684949B0FBF1F000EB40000090C4
:101A500002E00098401E009000980028F9D120680C
:101A6000806800F0010000287CD0206C40F2016109
:101A7000884340F4807020642068406800F48060EF
:101A800028B1206C20F4005040F480502064206C79
:101A900000F48050B0F5805F04D1606C20F0060047
:101AA000606401E00020606400BF002084F83C0016
:101AB00000BF2F4F2F48A16BC8632F48A16B08644C
:101AC0002E48A16BC8646FF022002168086020686E
:101AD000406840F08060216848602068806840F479
:101AE000807021688860226802F14C0133462A46E2
:101AF000A06B00F0DFFA786800F01F0018BB2049E7
:101B00002068884213D01F492068884204D1381DBC
:101B1000006800F01F0050B11B492068884221D1A5
:101B20001348001D006800F01F0010281AD220681A
:101B3000806800F0405028B92068806840F08040FC
:101B4000216888600EE00E49206888420AD120682A
:101B5000806800F0405028B92068806840F08040DC
:101B60002168886000205BE70C00002040420F00E5
:101B700000230140CF090008670A00084D0A000849
:101B800000200140002101400022014070B50446C0
:101B90000CB9012070BD94F8200010B9204600F067
:101BA000AFF82068006820F002002168086000F0AB
:101BB000D1FB05460DE000F0CDFB401B0A2808D9FB
:101BC000606A40F400306062052084F82000012043
:101BD000E0E72068406800F002000028EBD12068B0
:101BE000006840F001002168086000F0B3FB054682
:101BF0000DE000F0AFFB401B0A2808D9606A40F4F2
:101C000000306062052084F820000120C2E72068CF
:101C1000406800F001000028EBD0207E012806D1AA
:101C20002068006840F080002168086005E02068B6
:101C3000006820F0800021680860607E012806D1DD
:101C40002068006840F040002168086005E02068D6
:101C5000006820F0400021680860A07E012806D1BD
:101C60002068006840F020002168086005E02068D6
:101C7000006820F0200021680860E07E012806D17D
:101C80002068006820F010002168086005E02068E6
:101C9000006840F0100021680860207F012806D10C
:101CA0002068006840F008002168086005E02068AE
:101CB000006820F0080021680860607F012806D1D4
:101CC0002068006840F004002168086005E0206892
:101CD000006820F0040021680860D4E9020108438C
:101CE00021690843616908436168491E0843216806
:101CF000C86100206062012084F82000002049E7CC
:101D000010B586B00446142101A8FEF72BFB1B4931
:101D10002068884230D100BF002000901848006839
:101D200040F00070164908600846006800F0007036
:101D3000009000BF00BF00BF002000901048103886
:101D4000006840F001000E4910390860084600683C
:101D500000F00100009000BF00BF4FF4C0500190A0
:101D60000220029000200390032004900920059097
:101D700001A9044800F0E8F906B010BD0064004075
:101D80004038024000000240F8B5044600200090B0
:101D90008C4800684FF41651B0FBF1F7A56D2E6822
:101DA00094F85C1008208840304098B120680068A2
:101DB00000F0040070B12068006820F00400216881
:101DC000086094F85C1008208840A860606D40F0BE
:101DD0000100606594F85C1001208840304068B1D3
:101DE0002068406900F0800040B194F85C10012048
:101DF0008840A860606D40F00200606594F85C1057
:101E000004208840304068B12068006800F002007B
:101E100040B194F85C1004208840A860606D40F0E8
:101E20000400606594F85C1010208840304078B35E
:101E30002068006800F0080050B394F85C1010208F
:101E40008840A8602068006800F4802080B1206885
:101E5000006800F4002028B9206CC8B12046216C2D
:101E6000884715E0A06C98B12046A16C88470FE028
:101E70002068006800F4807028B92068006820F0AD
:101E8000080021680860206C10B12046216C88474A
:101E900094F85C10202088403040002865D02068ED
:101EA000006800F0100000285FD094F85C1020203B
:101EB0008840A86094F83500052828D1206800687B
:101EC00020F01600216808602068406920F080003A
:101ED00021684861206C08B9A06C28B120680068AE
:101EE00020F008002168086094F85C103F208840CA
:101EF000A86000BF002084F8340000BF012084F8EF
:101F00003500206D10B12046216D8847F8BD20684E
:101F1000006800F4802080B12068006800F4002090
:101F200028B9606C10B12046616C88471DE0E06BF9
:101F3000D8B12046E16B884717E02068006800F4BC
:101F4000807068B92068006820F01000216808607F
:101F500000BF002084F8340000BF012084F8350061
:101F6000E06B10B12046E16B8847606D38B3606D5F
:101F700000F00100F0B1052084F835002068006809
:101F800020F001002168086000BF0098401C00900C
:101F9000B84200D905E02068006800F00100002880
:101FA000F3D100BF00BF002084F8340000BF01203F
:101FB00084F83500E06C10B12046E16C884700BF22
:101FC000A4E700000C0000202DE9F04104460025A4
:101FD00000F0C0F9074614B90120BDE8F081606A3D
:101FE00000B100BF00BF002084F8340000BF022011
:101FF00084F835002068006820F00100216808603E
:102000000AE000F0A7F9C01B052805D9202060656B
:10201000032084F83500E0E72068006800F0010044
:102020000028EED12068056821480540D4E9010167
:102030000843E16808432169084361690843A169CD
:102040000843E1690843216A08430543606A04289C
:1020500003D1D4E90B0108430543206805602068DB
:10206000456925F00705606A0543606A04280DD1BB
:10207000A06A0543E06A48B12046FEF7CFFF28B1C9
:1020800040206065012084F83500A6E7206845619E
:102090002046FEF7A9FF064694F85C103F208840D2
:1020A000B06000206065012084F83500002094E7CE
:1020B0003F8010F02DE9F04704460D4616461F46B6
:1020C0004FF00008D4F8589000BF94F8340001286D
:1020D00002D10220BDE8F087012084F8340000BF5F
:1020E00094F83500012825D1022084F8350000201D
:1020F00060653B46324629462046FEF7E4FF94F8E9
:102100005C103F208840C9F808002068006840F053
:10211000160021680860206C28B12068006840F033
:102120000800216808602068006840F0010021680C
:10213000086006E000BF002084F8340000BF4FF0C4
:1021400002084046C6E70000F8B502460B460025E7
:10215000002400200021DCE0012606FA01F51E68BB
:1021600006EA0504AC4273D15E68012E08D05E68B1
:10217000022E05D05E68112E02D05E68122E13D199
:1021800090684F000326BE40B0434F00DE68BE405B
:1021900030439060506801268E40B0431E79C6F3EC
:1021A00000168E4030435060D0684F000326BE407A
:1021B000B0434F009E68BE403043D0605E68022E40
:1021C00002D05E68122E13D1CF0802F1200656F815
:1021D00027004E07F70E0F26BE40B0434F07FF0EF5
:1021E0001E69BE403043CF0802F1200646F82700A2
:1021F00010684F000326BE40B0431E7906F0030668
:102200004F00BE40304310605E6806F08056B6F165
:10221000805F7DD100BF00260096404E366846F4B0
:1022200080463E4F3E603E46366806F48046009645
:1022300000BF00BF3A4E8F0856F827008E07370FB1
:102240000F26BE40B043374EB24202D1002624E0F2
:102250005EE0354EB24201D101261EE0334EB2425D
:1022600001D1022619E0324EB24201D1032614E018
:10227000304EB24201D104260FE02F4EB24201D1BE
:1022800005260AE02D4EB24201D1062605E02C4E6D
:10229000B24201D1072600E008268F073F0FBE405B
:1022A00030431F4E8F0846F82700264E3068A04363
:1022B0005E6806F48036B6F5803F00D12043214E9B
:1022C0003060361D3068A0435E6806F40036B6F50F
:1022D000003F00D120431B4E361D3060361D306854
:1022E000A0435E6806F48016B6F5801F00D1204337
:1022F000144E08363060361D3068A0435E6806F420
:102300000016B6F5001F00D120430E4E0C3630608B
:10231000491C1029FFF420AFF8BD000044380240EA
:10232000083801400000024000040240000802405A
:10233000000C02400010024000140240001802404D
:10234000001C0240003C01400AB1816101E00B0425
:10235000836170470148006870470000000000205A
:102360000348006803490978084401490860704738
:10237000000000200800002010B50D48006840F45F
:1023800000700B4908600846006840F480600860EF
:102390000846006840F480700860032000F0A2F84E
:1023A000002000F007F800F02BF8002010BD00001E
:1023B000003C024070B504460E4800784FF47A7134
:1023C000B1FBF0F00C490968B1FBF0F5284600F0CC
:1023D0007FFF08B1012070BD102C07D200222146DA
:1023E000501E00F041F80548046001E00120F2E7CA
:1023F0000020F0E7080000200C000020040000206E
:1024000008B500BF002000900E48006840F48040EE
:102410000C4908600846006800F48040009000BF46
:1024200000BF00BF00200090081F006840F08050EF
:10243000091F08600846006800F08050009000BF47
:1024400000BF08BD4438024001460846002809DBA9
:1024500000F01F0301229A4043099B0003F1E0238F
:10246000C3F8002100BF70472DE9F05F80460D469C
:102470001646002703F07EFE074639462A463346B5
:1024800001F00700C0F1070ABAF1040F02D94FF0BA
:10249000040A01E0C0F1070AD14600F1040ABAF1CA
:1024A000070F02D24FF0000A01E0A0F1030AD44660
:1024B0004FF0010A0AFA09FAAAF1010A0AEA020A25
:1024C0000AFA0CFA4FF0010B0BFA0CFBABF1010B03
:1024D0000BEA030B4AEA0B042146404603F052FE86
:1024E000BDE8F09F00BF00F00702064B19684FF6E9
:1024F000FF031940044B0B4343EA0221014B1960CF
:1025000000BF70470CED00E00000FA0570B504460E
:102510000D460CB9012070BD5848006800F00F004E
:10252000A84209D255490D700846006800F00F0016
:10253000A84201D00120EEE7207800F00200022836
:102540001DD1207800F00400042805D14C48006813
:1025500040F4E0504A490860207800F0080008285C
:1025600005D14748006840F4604045490860444848
:10257000006820F0F000A168084341490860207815
:1025800000F00100A8B36068012807D13C48083872
:102590000068C0F34040B8B90120BCE76068022879
:1025A00002D06068032807D1354808380068C0F3B6
:1025B000406048B90120AEE7314808380068C0F3F0
:1025C000400008B90120A6E72D48006820F003006C
:1025D000616808432A490860FFF7BCFE064609E027
:1025E000FFF7B8FE801B41F28831884202D90320F0
:1025F00091E707E02248006800F00C006168B0EB4A
:10260000810FEDD11D48006800F00F00A84209D9E4
:102610001A490D700846006800F00F00A84201D06A
:10262000012078E7207800F00400042807D114483E
:10263000006820F4E050E168084311490860207800
:1026400000F00800082808D10D48006820F4604018
:10265000216940EAC1000A49086000F03FF80849D2
:102660000968C1F30311074A515CC8400649086074
:1026700006480068FFF79EFE00204CE7003C024041
:1026800008380240106B00080C00002004000020F5
:1026900001480068704700000C00002000B5FFF7FB
:1026A000F7FF04490968C1F38221034A515CC8401D
:1026B00000BD000008380240206B000800B5FFF79D
:1026C000E7FF04490968C1F34231034A515CC8403D
:1026D00000BD000008380240206B00082DE9F047DB
:1026E000002400250026A1462548006800F00C00C3
:1026F00020B1042805D008283AD105E0DFF88490FD
:1027000039E0DFF8849036E01D48001F006800F0D3
:102710003F041B48001F006800F4800078B11A488D
:102720001749091F0968C1F38811A0FB0170014610
:10273000224600233846FDF7CBFD05460EE0114842
:102740000F49091F0968C1F38811A0FB01700146F8
:10275000224600233846FDF7BBFD05460848001F0A
:102760000068C0F30140401C4600B5FBF6F902E0EA
:10277000DFF8109000BF00BF4846BDE8F0870000BA
:10278000083802400024F40000127A00F8B504462C
:102790000CB90120F8BD207800F00100002874D0A9
:1027A000F948006800F00C0004280DD0F6480068D5
:1027B00000F00C00082813D1F348001F006800F453
:1027C0008000B0F5800F0BD1EF4808380068C0F3E7
:1027D0004040002859D06068002856D10120D9E730
:1027E00000BF6068B0F5803F08D1E748083800684E
:1027F00040F48030E449083908601EE06068B0F5B4
:10280000A02F0DD1E0480838006840F48020DE4950
:10281000083908600846006840F4803008600CE021
:10282000D9480838006820F48030D7490839086052
:102830000846006820F48020086000BF606890B1FE
:10284000FFF788FD054606E0FFF784FD401B64287E
:1028500001D903209EE7CC4808380068C0F3404007
:102860000028F1D011E0FFF775FD054606E0FFF7FF
:1028700071FD401B642801D903208BE7C24808384A
:102880000068C0F340400028F1D1207800F0020039
:1028900002285FD1BC48006800F00C0058B1BA486B
:1028A000006800F00C0008281CD1B748001F006821
:1028B00000F48000B0B9B44808380068C0F34000A4
:1028C00020B1E068012801D0012063E7AE48083854
:1028D000006820F0F800216940EAC100AA490839DF
:1028E000086037E0E06800B30120A8490860FFF7FE
:1028F00031FD054606E0FFF72DFD401B022801D9FA
:10290000032047E7A04808380068C0F340000028CB
:10291000F1D09D480838006820F0F800216940EAAD
:10292000C10099490839086014E0002097490860FF
:10293000FFF710FD054606E0FFF70CFD401B0228DF
:1029400001D9032026E7904808380068C0F340000A
:102950000028F1D1207800F0080008282CD1606907
:10296000A8B101208A490860FFF7F4FC054606E09B
:10297000FFF7F0FC401B022801D903200AE7824838
:102980006C300068C0F340000028F1D014E0002053
:102990007F490860FFF7DEFC054606E0FFF7DAFC3A
:1029A000401B022801D90320F4E677486C30006808
:1029B000C0F340000028F1D1207800F00400042882
:1029C00070D1002770483830006800F0805090B90E
:1029D00000BF002000906C483830006840F0805004
:1029E0006949383108600846006800F0805000905E
:1029F00000BF00BF01276748006800F48070B0B9CD
:102A00006448006840F4807062490860FFF7A2FCE7
:102A1000054606E0FFF79EFC401B022801D9032073
:102A2000B8E65C48006800F480700028F2D000BF6F
:102A3000A068012808D154486830006840F00100BF
:102A40005149683108601DE0A06805280DD14E4845
:102A50006830006840F004004B496831086008465F
:102A6000006840F0010008600CE0474868300068EA
:102A700020F001004449683108600846006820F0F1
:102A80000400086000BFA068A8B1FFF763FC05461A
:102A900009E0FFF75FFC401B41F28831884202D910
:102AA000032077E626E0384868300068C0F340002D
:102AB0000028EED013E0FFF74DFC054608E0FFF7D5
:102AC00049FC401B41F28831884201D9032061E66C
:102AD0002D4868300068C0F340000028EFD1012F76
:102AE00007D129483830006820F080502649383115
:102AF000086000BFA069002845D02348006800F0A6
:102B00000C0008285DD0A069022845D100201F498B
:102B10000866FFF71FFC054606E0FFF71BFC401B9D
:102B2000022801D9032035E6174808380068C0F3A9
:102B300040600028F1D1D4E907010843616A40EA06
:102B400081110122A06AC2EB500041EA00412C2011
:102B5000005D41EA00600C49091F086001200B4933
:102B60000866FFF7F7FB054606E0FFF7F3FB401B9F
:102B7000022801D903200DE6034808380068C0F395
:102B800040600028F1D03FE0083802400000474292
:102B9000800E47420070004000201C490866FFF785
:102BA000D9FB054606E0FFF7D5FB401B022801D9FB
:102BB0000320EFE516480068C0F340600028F2D11A
:102BC00022E0A069012800D1E4E51148001D066853
:102BD00006F48001E069814214D106F03F01206AC9
:102BE00081420FD147F6C0703040616A884209D1F6
:102BF00006F44031A06A814204D106F07061E06AB7
:102C0000814201D00120C5E50020C3E50000474214
:102C10000038024010B504460CB9012010BD606AAE
:102C200000B900BF0021A16294F8510028B900202A
:102C300084F85000204600F033F8022084F8510058
:102C40002068006820F0400021680860D4E9010194
:102C50000843E16808432169084361690843218BFF
:102C600001F400710843E1690843216A0843A16A3D
:102C70000843216808600421A06901EA1040616AE4
:102C80000843216848602068C06920F4006021681A
:102C9000C86100206065012084F851000020BDE774
:102CA00010B586B00446142101A8FDF75BFB374937
:102CB0002068884230D100BF00200090344800686E
:102CC00040F48050324908600846006800F48050A3
:102CD000009000BF00BF00BF002000902C481438B7
:102CE000006840F001002A4914390860084600686D
:102CF00000F00100009000BF00BFE0200190022022
:102D0000029000200390032004900520059001A963
:102D10002048FFF719FA36E01F492068884232D16F
:102D200000BF002000901A48001F006840F4804057
:102D30001749091F08600846006800F480400090A9
:102D400000BF00BF00BF0020009011481438006889
:102D500040F002000E49143908600846006800F08F
:102D60000200009000BF00BF4FF4604001900220BD
:102D7000029000200390032004900520059001A9F3
:102D80000648FFF7E1F906B010BD00000030014031
:102D90004438024000000240003800400004024075
:102DA0002DE9F8430446884616461D464FF00009B3
:102DB0006068B0F5827F0DD1A06858B9042084F80E
:102DC00051003346424641462046009500F06BF9DB
:102DD000BDE8F88300BF94F85000012801D102201B
:102DE000F6E7012084F8500000BFFFF7B3FA07466A
:102DF00094F85100012802D04FF0020978E0B8F1B0
:102E0000000F00D016B94FF0010971E0042084F8DA
:102E1000510000206065C4F83880A687E6872063EB
:102E2000A086E08620646064A068B0F5004F05D1FC
:102E30002068006820F480402168086020680068ED
:102E400000F04000402805D02068006840F04000B5
:102E500021680860E068F8B91AE02068806800F02E
:102E6000010050B12068007BA16B0870A06B401C72
:102E7000A063E08F401EE0870AE0FFF76BFAC01BFB
:102E8000A84201D3681C00B915B94FF003092FE01F
:102E9000E08F0028E1D11EE01AE02068806800F091
:102EA000010050B12068C068A16B0880A06B801C35
:102EB000A063E08F401EE0870AE0FFF74BFAC01BDB
:102EC000A84201D3681C00B915B94FF003090FE0FF
:102ED000E08F0028E1D13A462946204602F0A8F8C2
:102EE00008B120206065606D08B14FF0010900BF96
:102EF000012084F8510000BF002084F8500000BF7A
:102F0000484665E72DE9F84F0446884616461D46B3
:102F10004FF0000A00BF94F85000012802D10220AF
:102F2000BDE8F88F012084F8500000BFFFF712FAC7
:102F30000746B14694F85100012802D04FF0020A2A
:102F4000A7E0B8F1000F00D016B94FF0010AA0E0D9
:102F5000032084F8510000206065C4F83080A68604
:102F6000E686A063A087E08760642064A068B0F56F
:102F7000004F05D12068006840F480402168086057
:102F80002068006800F04000402805D020680068F4
:102F900040F0400021680860E068B0F5006F2FD174
:102FA000606810B1B9F1010F09D1206B0088216868
:102FB000C860206B801C2063E08E401EE0861BE012
:102FC0002068806800F0020002280AD1206B008887
:102FD0002168C860206B801C2063E08E401EE08664
:102FE0000AE0FFF7B7F9C01BA84201D3681C00B97B
:102FF00015B94FF0030A4CE0E08E0028E0D12EE036
:10300000606810B1B9F1010F09D1206B0078216817
:103010000873206B401C2063E08E401EE0861BE09E
:103020002068806800F0020002280AD1206B007836
:1030300021680873206B401C2063E08E401EE086F0
:103040000AE0FFF787F9C01BA84201D3681C00B94A
:1030500015B94FF0030A1CE0E08E0028E0D13A4693
:103060002946204602F02EF808B120206065A068AD
:1030700050B900BF002000902068C0680090206810
:103080008068009000BF00BF606D08B14FF0010A7A
:1030900000BF012084F8510000BF002084F85000D8
:1030A00000BF50463CE72DE9FF5F04468846914645
:1030B0001D460E9E012002900020019000BF94F852
:1030C0005000012803D1022004B0BDE8F09F012088
:1030D00084F8500000BFFFF73DF9074694F851B05F
:1030E00060680390AA46BBF1010F0BD00398B0F5BE
:1030F000827F04D1A06810B9BBF1040F02D0022076
:103100000190DBE0B8F1000F03D0B9F1000F00D05F
:1031100015B901200190D1E094F85100042802D0A3
:10312000052084F8510000206065C4F83890E587D8
:10313000A587C4F83080E586A58620646064206891
:10314000006800F04000402805D02068006840F08A
:10315000400021680860E068B0F5006F4AD16068FF
:1031600010B1BAF1010F09D1206B00882168C86045
:10317000206B801C2063E08E401EE08633E02068D8
:10318000806800F00200022810D1E08E70B1029831
:1031900001280BD1206B00882168C860206B801C3F
:1031A0002063E08E401EE086002002902068806848
:1031B00000F0010068B1E08F58B12068C068A16BD1
:1031C0000880A06B801CA063E08F401EE087012078
:1031D0000290FFF7BFF8C01BB04204D3701C10B1BF
:1031E000032001906AE0E08E0028C8D1E08F00281B
:1031F000C5D14AE0606810B1BAF1010F09D1206B66
:10320000007821680873206B401C2063E08E401E0C
:10321000E08634E02068806800F00200022810D1C7
:10322000E08E70B1029801280BD1206B00782168E4
:103230000873206B401C2063E08E401EE086002057
:1032400002902068806800F0010068B1E08F58B1FA
:103250002068C068A16B0870A06B401CA063E08F61
:10326000401EE08701200290FFF774F8C01BB042B7
:1032700001D3701C00B916B9032001901EE0E08E46
:103280000028C7D1E08F0028C4D13A4631462046F5
:1032900001F018FF20B101200190202060650DE0B1
:1032A000A06850B900BF002000902068C06800905E
:1032B00020688068009000BF00BF00BF012084F834
:1032C000510000BF002084F8500000BF0198FBE6C9
:1032D00070B504462546681EB0F1807F01D30120F9
:1032E0000FE0681E4FF0E02148610F214FF0FF30E2
:1032F00002F048FF00204FF0E021886107200861BC
:10330000002070BD7047704710B50346002200BF13
:1033100093F83C00012801D1022010BD012083F860
:103320003C0000BF22F0FF00CC6840EA040222F417
:1033300040708C6840EA040222F480604C6840EAE5
:10334000040222F400600C6840EA040222F4805077
:103350000C6940EA040222F400504C6940EA04027D
:1033600022F48040CC6940EA04021868426400BF3D
:10337000002083F83C0000BF00BFCEE730B5024616
:103380000B4600BF92F83C00012801D1022030BD5D
:10339000012082F83C0000BF022082F83D00106846
:1033A00044681068816824F0700418680443106849
:1033B0004460184D1068A8421BD01068B0F1804FCF
:1033C00017D0154D1068A84213D0144D1068A842AC
:1033D0000FD0134D1068A8420BD0124D1068A842B0
:1033E00007D0114D1068A84203D0104D1068A842B4
:1033F00005D121F0800158680143106881600120E7
:1034000082F83D0000BF002082F83C0000BF00BFF2
:10341000BDE700000000014000040040000800403B
:10342000000C004000040140004001400018004032
:1034300010B504460CB9012010BD94F83D0028B920
:10344000002084F83C00204600F00CF8022084F8AC
:103450003D00211D206802F0A5FA012084F83D00FE
:103460000020E9E738B504460E492068884217D1A4
:1034700000BF002000900C48006840F002000A499C
:1034800008600846006800F00200009000BF00BF1E
:10349000002204211D20FEF7E7FF1D20FEF7D4FFC8
:1034A00038BD000000040040403802400146086872
:1034B000C06840F001000B68D8600868806800F0C0
:1034C0000702062A05D00868006840F001000B6872
:1034D0001860002070472DE9F04104460D4614B9EC
:1034E0000120BDE8F08194F83D0028B9002084F85F
:1034F0003C00204600F046F8022084F83D00206899
:10350000806844F20701884321688860211D206893
:1035100002F048FA2068D0F80880206886692068A0
:10352000076A286840EA080840F203308643A96920
:10353000A86840EA0120064340F60C4086434FF25B
:10354000F0008643E969E86840EA012006432869FB
:103550000001296A40EA0130064327F0220727F0DC
:1035600088076969686840EA011007432068C0F865
:1035700008802068866120680762012084F83D0089
:103580000020AEE710B586B00446142101A8FCF770
:10359000E9FE2068B0F1804F2FD100BF00200090DD
:1035A0003148006840F001002F4908600846006873
:1035B00000F00100009000BF00BF00BF002000909D
:1035C00029481038006840F0010027491039086088
:1035D0000846006800F00100009000BF00BF032013
:1035E0000190022002900020039004900120059099
:1035F00001A91E48FEF7A8FD33E01D492068884256
:103600002FD100BF002000901748006840F0040050
:10361000154908600846006800F00400009000BFEB
:1036200000BF00BF002000900F481038006840F035
:1036300008000D49103908600846006800F00800CD
:10364000009000BF00BF4FF4405001900220029054
:103650000020039004900220059001A90548FEF780
:1036600073FD06B010BD000040380240000002406B
:1036700000080040000C0240704710B50446206866
:103680000069C0F34000D8B12068C068C0F34000B2
:10369000B0B16FF002002168086101202077206836
:1036A000806900F0030018B12046FFF7E5FF05E050
:1036B000204600F00FF9204600F0D0F900202077D6
:1036C00020680069C0F38000D8B12068C068C0F3EA
:1036D0008000B0B16FF004002168086102202077FB
:1036E0002068806900F4407018B12046FFF7C4FFDD
:1036F00005E0204600F0EEF8204600F0AFF900208B
:10370000207720680069C0F3C000D8B12068C06885
:10371000C0F3C000B0B16FF0080021680861042058
:1037200020772068C06900F0030018B12046FFF739
:10373000A3FF05E0204600F0CDF8204600F08EF90A
:103740000020207720680069C0F30010D8B12068FD
:10375000C068C0F30010B0B16FF0100021680861BC
:10376000082020772068C06900F4407018B1204616
:10377000FFF782FF05E0204600F0ACF8204600F09D
:103780006DF9002020772068006900F0010058B131
:103790002068C06800F0010030B16FF001002168BE
:1037A0000861204600F088F920680069C0F3C01065
:1037B00058B12068C068C0F3C01030B16FF080000D
:1037C000216808612046FFF79DFD20680069C0F36D
:1037D000801058B12068C068C0F3801030B16FF01D
:1037E000400021680861204600F09DF920680069CA
:1037F000C0F3401058B12068C068C0F3401030B129
:103800006FF02000216808612046FFF77CFD10BDA5
:1038100010B586B00446142101A8FCF7A3FD264983
:103820002068884221D100BF002000902348006812
:1038300040F01000214908600846006800F01000C0
:10384000009000BF00BF4FF428500190022002906A
:103850000020039004900120059001A91848FEF76C
:1038600073FC1848FFF722FE24E0174920688842BD
:1038700020D100BF002000901048006840F00400F4
:103880000E4908600846006800F00400009000BF80
:1038900000BF4FF4E07001900220029000200390DE
:1038A00004900220059001A90848FEF74DFC084845
:1038B000FFF7FCFD06B010BD0000014030380240AB
:1038C00000100240EC050020000400400008024007
:1038D0006C060020704770B504460D46164600BFC2
:1038E00094F83C00012801D1022070BD012084F829
:1038F0003C0000BF022084F83D0036B1042E1BD0EE
:10390000082E31D00C2E5ED145E02946206802F009
:10391000D1F82068806940F008002168886120683B
:10392000806920F004002168886120688069296925
:1039300008432168886147E02946206802F0F2F8D0
:103940002068806940F4006021688861206880698F
:1039500020F480602168886120688069296940EAD4
:103960000120216888612FE02946206802F018F9BB
:103970002068C06940F008002168C8612068C069FB
:1039800020F004002168C8612068C06929690843E3
:103990002168C86118E02946206802F03DF92068D6
:1039A000C06940F400602168C8612068C06920F4E3
:1039B00080602168C8612068C069296940EA0120E7
:1039C0002168C86100E000BF00BF012084F83D000D
:1039D00000BF002084F83C0000BF00BF85E710B5A1
:1039E00004460CB9012010BD94F83D0028B9002010
:1039F00084F83C00204600F00DF8022084F83D00D9
:103A0000211D206801F0CEFF012084F83D00002038
:103A1000E9E7000038B504460E492068884217D10E
:103A200000BF002000900C48006840F001000A49E7
:103A300008600846006800F00100009000BF00BF69
:103A4000002202211920FEF70FFD1920FEF7FCFCD1
:103A500038BD0000000001404438024070470000BB
:103A600070B504460E4601223146206802F006F881
:103A70000F492068884203D00E492068884201D14E
:103A8000012000E0002028B12068406C40F4004094
:103A9000216848642068806800F00705062D05D07D
:103AA0002068006840F0010021680860002070BDB7
:103AB0000000014000040140704770B504460D4607
:103AC00000BF94F83C00012801D1022070BD012004
:103AD00084F83C0000BF022084F83D0029462046BF
:103AE00002F0C4F848B1012084F83D0000BF002076
:103AF00084F83C0000BF0120E8E72068C06820F09F
:103B000040002168C8602068C06820F480402168B7
:103B1000C860012084F83D0000BF002084F83C000C
:103B200000BF00BFD2E7704710B504460CB90120B2
:103B300010BDA06900B100E000BF94F8390028B9B9
:103B4000002084F83800204600F028F8242084F86B
:103B500039002068C06820F400502168C860204601
:103B600002F000F92068006920F4904021680861A3
:103B70002068406920F02A00216848612068C068F8
:103B800040F400502168C8600020E063202084F8E1
:103B9000390084F83A000020CAE7000010B586B06A
:103BA0000446142101A8FCF7DDFB1B49206888426C
:103BB00030D100BF002000901848006840F010008D
:103BC000164908600846006800F01000009000BF29
:103BD00000BF00BF0020009010481438006840F07B
:103BE00001000E49143908600846006800F0010021
:103BF000009000BF00BF4FF4C0600190022002900F
:103C000000200390032004900720059001A9044898
:103C1000FEF79AFA06B010BD001001404438024089
:103C20000000024000BFFEE710B52DED028B0446F8
:103C3000B0EE408AB0EE480A2146034801F010FB7E
:103C4000BDEC028B10BD00001400002010B5B7EED3
:103C5000000A0220FFF7E8FF10BD000010B502487F
:103C600000F004F810BD00001400002010B5044658
:103C70001049E0680968081A00EE100AB8EE400A18
:103C8000D4ED010A9FED0C1A60EE810AB4EEE00A51
:103C9000F1EE10FA01DB012000E0002040B1054800
:103CA0000068E0602078022802D1204600F006F883
:103CB00010BD00003003002000007A4410B5044617
:103CC000607808B9012000E0002060706078216908
:103CD000884710BD10B500F01FFD00F0D9FE9FED24
:103CE0000C0A01F0DDFA9FED0A0A01F001FB9FEDDD
:103CF000080A01F025FB9FED060A01F049FB9FED44
:103D0000040A01F06DFB9FED020A01F091FB10BD6A
:103D100000004842704700001FB50020009001904D
:103D2000029003902148224908604FF48030486097
:103D300000211F488160012101610021017680F886
:103D40002010C1621B4981620021C1600321C16151
:103D5000012180F8301000214161FDF74DFD08B1CF
:103D6000FDF7C8F90E20009001200190002002907C
:103D700069460F48FDF776FC08B1FDF7BBF90F2047
:103D800000900220019069460948FDF76BFC08B1DC
:103D9000FDF7B0F90820009003200190694604481F
:103DA000FDF760FC08B1FDF7A5F91FBD002001403B
:103DB000C40300200100000F1FB5002000900190F7
:103DC000029003902148224908604FF480304860F7
:103DD00000211F488160012101610021017680F8E6
:103DE0002010C1621B4981620021C1600321C161B1
:103DF000012180F830104161FDF7FEFC08B1FDF7AC
:103E000079F90A2000900120019000200290694673
:103E10000F48FDF727FC08B1FDF76CF90B20009067
:103E20000220019069460A48FDF71CFC08B1FDF725
:103E300061F90C2000900320019069460448FDF7C9
:103E400011FC08B1FDF756F91FBD0000002101402B
:103E50000C0400200100000F10B50E480E49086048
:103E60002A20486041070C4881600021C1604FF45E
:103E7000403101614FF480014161002101764176BA
:103E80008176C17601774177FDF780FE08B1FDF7B5
:103E900031F910BD006400401405002008B500BFD2
:103EA000002000900E48006840F480000C49086033
:103EB0000846006800F48000009000BF00BF0022A8
:103EC00001213820FEF7D0FA3820FEF7BDFA002293
:103ED00003213A20FEF7C8FA3A20FEF7B5FA08BDEA
:103EE0003038024000B587B0142102A8FCF73AFA36
:103EF00000BF002001906748006840F080006549DD
:103F000008600846006800F08000019000BF00BF14
:103F100000BF002001900846006840F004000860DF
:103F20000846006800F00400019000BF00BF00BF19
:103F3000002001900846006840F001000860084633
:103F4000006800F00100019000BF00BF00BF00202A
:103F500001900846006840F00200086008460068CA
:103F600000F00200019000BF00BF00BF00200190E0
:103F70000846006840F0100008600846006800F03D
:103F80001000019000BF00BF00BF00200190084654
:103F9000006840F0080008600846006800F008006B
:103FA000019000BF00BF012210213B48FEF7CCF971
:103FB00000224FF480713948FEF7C6F9012211033F
:103FC0003748FEF7C1F900224FF400713548FEF77B
:103FD000BBF9002210213448FEF7B6F90420029004
:103FE000324803900020049002A92B48FEF7ACF859
:103FF000102002900120039004900220059002A955
:104000002548FEF7A1F84FF480700290012003903C
:1040100000200490059002A92048FEF795F84FF47F
:10402000805002900120039004900220059002A984
:104030001B48FEF789F84FF4006002901B4803907C
:104040000020049002A91848FEF77EF84FF4007093
:1040500002900120039000200490059002A91148CD
:10406000FEF772F80F2002900020039001200490C8
:1040700002A90D48FEF768F8102002900120039075
:1040800000200490059002A90748FEF75DF807B0EC
:1040900000BD000030380240000002400010024025
:1040A0000004024000080240000C02400000111011
:1040B00010B51048104908604FF482704860002124
:1040C0000D4881604FF40061C16000210161012150
:1040D0004161490281611821C1610021016241628F
:1040E00081620A21C162FEF795FD08B1FDF702F871
:1040F00010BD0000003001403C05002010B5104804
:10410000104908604FF48270486000210D488160BA
:104110004FF40061C1600021016101214161490248
:1041200081611021C16100210162416281620A2125
:10413000C162FEF76FFD08B1FCF7DCFF10BD0000A7
:10414000003800409405002000B591B000200F9089
:1041500010901C2108A8FCF705F920216846FCF7FF
:1041600001F92C482C4908600120486040212A4868
:10417000816041F26701C1600021016141618021DC
:104180008161FFF72CFC08B1FCF7B4FF20200F90F1
:10419000802010900FA92048FFF7F0F808B1FCF735
:1041A000A9FF60200890002009900A900B900C90C5
:1041B0000D900E90002208A91748FFF78CFB08B15C
:1041C000FCF798FF042208A91348FFF784FB08B105
:1041D000FCF790FF082208A90F48FFF77CFB08B105
:1041E000FCF788FF0020009001900290039004905B
:1041F0004FF4005005900020079069460648FFF7ED
:1042000083F808B1FCF776FF0348FFF701FB11B014
:1042100000BD000000000140EC05002000B58BB09F
:10422000242102A8FCF79EF80020009001904FF096
:1042300080401749086000204860002114488160D0
:10424000491EC160002101618161012002900020AE
:104250000390012004900020059006900790012013
:104260000890002009900A9002A90948FFF733F945
:1042700008B1FCF73FFF0020009001906946044818
:10428000FFF77CF808B1FCF735FF0BB000BD00006C
:104290002C06002000B58FB014210AA8FCF762F8A4
:1042A0000020089009901C2101A8FCF75BF8294820
:1042B000294908600020486040212748816041F278
:1042C0006701C1600021016180218161FFF7B0F8C1
:1042D00008B1FCF70FFF2048FFF781FB08B1FCF79E
:1042E00009FF06200A9000200B900AA91A48FFF740
:1042F000E4FB08B1FCF7FEFE2020089000200990A6
:1043000008A91548FFF73AF808B1FCF7F3FE60205A
:1043100001900020029003900590002201A90E4810
:10432000FFF7D9FA08B1FCF7E5FE042201A90A4813
:10433000FFF7D1FA08B1FCF7DDFE082201A9064813
:10434000FFF7C9FA08B1FCF7D5FE0348FFF760FA9A
:104350000FB000BD000400406C06002000B58BB01B
:10436000242102A8FBF7FEFF0020009001901848CE
:1043700018490860002048600021164881604FF607
:10438000FF71C16000210161816101200290002064
:1043900003900120049000200590069007900120D2
:1043A0000890002009900A9002A90A48FFF793F8A4
:1043B00008B1FCF79FFE0020009001906946054877
:1043C000FEF7DCFF08B1FCF795FE0BB000BD000066
:1043D00000080040AC06002010B50B480B490860EF
:1043E0004FF4E1304860002108488160C1600161FC
:1043F0000C21416100218161C161FFF795FB08B18A
:10440000FCF778FE10BD000000100140EC06002013
:1044100000BFFEE710B5032202490348FDF7F4FA96
:1044200010BD00002C070020C403002008480068CD
:10443000A0F500600649C86008464068A0F5006025
:10444000086108468068A0F5006048617047000078
:104450002C07002010B501210A4800F0D4FEDFED42
:104460000A1A9FED0A1ADFED0A0A9FED090A0548AC
:1044700000F0B3FEDFED050A9FED040A014800F0ED
:10448000BDFE10BD380000206991DD400000000035
:104490000AD7233C10B50248FCF72DFE10BD0000E2
:1044A0003800002010B50248FCF76CFE10BD00007B
:1044B0003800002010B5FFF7F5FFDFED020A30EEFF
:1044C000600A10BD0000344310B52DED028BFFF7DC
:1044D000E9FF184880ED000A90ED000A1648D0ED7B
:1044E000000A30EE600AB0EE408A9FED140AB4EE86
:1044F000C08AF1EE10FA05D29FED110A38EE000ADB
:10450000B0EE408A9FED0F0AB4EEC08AF1EE10FAC9
:1045100005DD9FED0B0A38EE400AB0EE408A0548F3
:1045200090ED000A044880ED000AB0EE480ABDECA8
:10453000028B10BD6C02002070020020000034C30A
:104540000000B4430000344310B50248FCF73EFFBE
:1045500010BD0000D400002010B52DED028BB0EE90
:10456000408AB0EE480A034800F097FFBDEC028B8A
:1045700010BD00007402002010B5B7EE000A094813
:1045800000F07EFF9FED081ADFED080A9FED080A94
:10459000044800F07BFF9FED050A024800F07DFF14
:1045A00010BD000074020020CDCCCC3D0000000006
:1045B0000AD7A33D10B5024800F0F2FB10BD000081
:1045C0007402002008B54FF47A730122694603484B
:1045D000FEF7E6FBBDF8000008BD00003C0500202A
:1045E00010B50446224610210148FDF7ADFE10BD6E
:1045F0000000024001B54FF47A7301226946024877
:10460000FEF780FC08BD00003C05002010B52DED34
:10461000028BB0EE408AF0EE480A9FED030A00F0EC
:104620001DF8BDEC028B10BD0000000010B5044663
:1046300022464FF480710248FDF786FE10BD00004F
:104640000010024010B52DED028BB0EE408AB0EEA6
:10465000480A00F017F8BDEC028B10BD10B52DED27
:10466000028BB0EE408AF0EE608AF0EE680AB0EE9F
:10467000480A034800F0C2FDBDEC028B10BD0000EB
:104680003800002010B52DED028BB0EE408AB0EE60
:10469000480A034800F011FFBDEC028B10BD00007A
:1046A0003002002010B5B7EE000A094800F0F8FE0D
:1046B0009FED081ADFED080A9FED080A044800F094
:1046C000F5FE9FED040A024800F0F7FE10BD000061
:1046D00030020020000000006F12833A0AD7A33D89
:1046E00010B5024800F042FF10BD0000300200206B
:1046F00010B52DED028BB0EE408AF0EE608AF0EE40
:10470000680AB0EE480A034800F054FFBDEC028B83
:1047100010BD0000D400002010B500211048FFF7A4
:104720009FF904210E48FFF79BF908210C48FFF779
:1047300097F900200A4909684863094909688863AC
:1047400007490968C8639FED070A00F0A9FD9FEDBE
:10475000050A00F0CDFD9FED030A00F0F1FD10BD4C
:10476000EC0500200000000010B5024800F068FBD6
:1047700010BD00002001002010B5032202490348AB
:10478000FDF742F910BD0000500700200C04002086
:1047900008480068A0F500600649C86008464068FF
:1047A000A0F50060086108468068A0F500604861D7
:1047B000704700005007002010B501210A4800F0A2
:1047C00022FDDFED0A1A9FED0A1ADFED0A0A9FEDBE
:1047D000090A054800F001FDDFED050A9FED040A16
:1047E000014800F00BFD10BD480100206991DD403B
:1047F000000000000AD7233C10B50248FCF77BFC00
:1048000010BD00004801002010B50248FCF7BAFCBA
:1048100010BD00004801002010B5FFF7F5FFDFEDE7
:10482000020A30EE600A10BD0000344310B52DEDD1
:10483000028BFFF7E9FF184880ED000A90ED000AAF
:104840001648D0ED000A30EE600AB0EE408A9FEDC7
:10485000140AB4EEC08AF1EE10FA05D29FED110AE7
:1048600038EE000AB0EE408A9FED0F0AB4EEC08A1F
:10487000F1EE10FA05DD9FED0B0A38EE400AB0EEBE
:10488000408A054890ED000A044880ED000AB0EE29
:10489000480ABDEC028B10BD280300202C03002029
:1048A000000034C30000B4430000344310B5024894
:1048B000FCF78CFD10BD0000E401002010B52DEDCB
:1048C000028BB0EE408AB0EE480A034800F0E5FDE6
:1048D000BDEC028B10BD0000B002002010B5B7EE99
:1048E000000A094800F0CCFD9FED081ADFED080A28
:1048F0009FED080A044800F0C9FD9FED050A024833
:1049000000F0CBFD10BD0000B00200209A99993E46
:10491000000000000AD7A33D10B5024800F040FA9D
:1049200010BD0000B002002010B5024800F05CFA93
:1049300010BD0000B002002008B54FF47A730122C8
:1049400069460348FEF72CFABDF8000008BD0000D8
:104950009405002010B5044622464FF480510248C9
:10496000FDF7F2FC10BD00000004024001B54FF459
:104970007A73012269460248FEF7C4FA08BD0000B6
:104980009405002010B52DED028BB0EE408AF0EEBC
:10499000480A9FED030A00F01DF8BDEC028B10BD24
:1049A0000000000010B5044622464FF40071024892
:1049B000FDF7CAFC10BD00000008024010B52DED47
:1049C000028BB0EE408AB0EE480A00F017F8BDEC5A
:1049D000028B10BD10B52DED028BB0EE408AF0EECB
:1049E000608AF0EE680AB0EE480A034800F006FC60
:1049F000BDEC028B10BD00004801002010B52DED6C
:104A0000028BB0EE408AB0EE480A034800F055FD34
:104A1000BDEC028B10BD0000EC02002010B5B7EE1B
:104A2000000A094800F03CFD9FED081ADFED080A76
:104A30009FED080A044800F039FD9FED040A024882
:104A400000F03BFD10BD0000EC0200200000000063
:104A50006F12833A0AD7A33D10B5024800F086FDD5
:104A600010BD0000EC02002010B52DED028BB0EE61
:104A7000408AF0EE608AF0EE680AB0EE480A034819
:104A800000F098FDBDEC028B10BD0000E401002099
:104A900010B500211048FEF7E3FF04210E48FEF791
:104AA000DFFF08210C48FEF7DBFF00200A490968F8
:104AB000486309490968886307490968C8639FED25
:104AC000070A00F065FC9FED050A00F089FC9FEDE8
:104AD000030A00F0ADFC10BD6C06002000000000D1
:104AE00010B5024800F0ACF910BD00003401002000
:104AF000704710B52DED028B0446D4ED050AB0EEDB
:104B0000600AFBF75FFBD4ED170A20EE208AD4ED94
:104B1000050AB0EE600AFBF791FBD4ED200A00EE27
:104B2000C08A84ED0E8AD4ED050AB0EE600AFBF768
:104B300085FBD4ED170A20EE208AD4ED050AB0EEED
:104B4000600AFBF73FFBD4ED200A00EE808A84ED7B
:104B50000F8ABDEC028B10BD10B52DED028B044603
:104B6000D4ED050AB0EE600AFBF72CFBD4ED0A0A7F
:104B700020EE208AD4ED050AB0EE600AFBF75EFB5A
:104B8000D4ED0B0A00EE808A84ED0D8AD4ED050A7F
:104B9000B0EE600AFBF752FBD4ED0A0AF1EE600AB0
:104BA00020EE208AD4ED050AB0EE600AFBF70AFB7E
:104BB000D4ED0B0A00EE808A84ED0C8ABDEC028BEA
:104BC00010BD704710B5FFF741F8FFF743FCFFF742
:104BD00069FDFFF7D1FCFFF7EFFDFFF71FFFFFF7C0
:104BE0007DFE10BD10B52448046824480068401CB0
:104BF000844203D3FFF798FE204804601E480468EF
:104C00001F48006800F57A70844229D31D48008847
:104C10001E3000B21B4908800846B0F90000B0F50C
:104C2000B47F01DB002008801648B0F90000C0F115
:104C3000B40000EE900AF8EEE00AB0EE600AFFF76A
:104C40008BFC1048B0F90000C0F1B40000EE900AEF
:104C5000F8EEE00AB0EE600AFFF730FE08480460A4
:104C6000FEF7FCFFFFF73CFDFFF7A4FCFFF7F4FEA7
:104C7000FFF752FE10BD00001000002030000020A1
:104C8000340000202C00002010B52DED028B0446CE
:104C9000606B804784ED060A94ED060AD4ED050AA0
:104CA00030EE600AB0EE408A9FED390AB4EEC08A59
:104CB000F1EE10FA06DD9FED370A38EE400AB0EE4D
:104CC000408A0CE09FED340AB4EEC08AF1EE10FA8F
:104CD00005D29FED300A38EE000AB0EE408A9FED13
:104CE0002F0A30EE480A84ED070A94ED020AD4ED4B
:104CF000070A20EE200AD4ED070A94ED081A70EE98
:104D0000C10A94ED031A01EE200AD4ED040A94EDD1
:104D1000091A00EE810A84ED0A0A94ED070A84ED6F
:104D2000080A94ED090AD4ED070A30EE200A84ED52
:104D3000090A94ED0A0AD4ED0B0AB4EEE00AF1EE8A
:104D400010FA04DD94ED0B0A84ED0A0A10E094EDEC
:104D50000A0AD4ED0B0AF1EE600AB4EEE00AF1EEB5
:104D600010FA05D294ED0B0AB1EE400A84ED0A0A5E
:104D7000207818B99FED090A84ED0A0AD4ED0A0AD1
:104D8000B0EE600AA06B8047BDEC028B10BD000046
:104D9000000034430000B443000034C300000000AE
:104DA00010B504460E4960680968081A00EE100A3A
:104DB000B8EE400AD4ED0C0A9FED0A1A60EE810AA3
:104DC000B4EEE00AF1EE10FA01DB012000E0002071
:104DD00028B10348006860602046FFF755FF10BD0A
:104DE0003403002000007A4410B52DED028B0446F8
:104DF00094ED060A10EE101A0846FBF741FB41EC51
:104E0000180B53EC182B0AA001F0A4F994ED050A35
:104E100010EE101A0846FBF733FB41EC180B53EC6D
:104E2000182B05A001F096F9BDEC028B10BD000017
:104E3000353A25660D0A0000363A25660D0A00004F
:104E400070B52DED028B04464FF6FF7500206168AA
:104E5000884701202169884748F22100A1688847D6
:104E6000E06880470546012061688847C5F30E0564
:104E700000EE105AB8EE400A9FED0F1AC0EE010A7C
:104E80009FED0E0A20EE800AB0EE408A94ED000AF3
:104E900038EE400AB0EE408AB5EEC08AF1EE10FA64
:104EA00005D29FED060A38EE000AB0EE408AB0EE59
:104EB000480ABDEC028B70BD00FEFF460000B44303
:104EC0002DE9F04704468946164601F041F904EB06
:104ED0004401564800EBC100007D00F003000228A9
:104EE00027D004EB4401514800EBC100D0F81080FA
:104EF00004EB44014D4800EBC100C068A8EB000082
:104F0000451E002D06DA04EB4401484800EBC100C1
:104F100080680544AE420CDD04EB4401434800EBDD
:104F2000C100007D00F0030010B90020BDE8F0874B
:104F30002E460EB90020F9E7002700BF04EB44011C
:104F40003A4800EBC100D0F8108004EB4401374828
:104F500000EBC100C068A8EB0000451E002D06DA7A
:104F600004EB4401314800EBC1008068054404EBC8
:104F700044012E4800EBC10004EB440281682B4839
:104F800000EBC200C068081AA84201DD28460CE008
:104F900004EB4401254800EBC10004EB44028168A6
:104FA000224800EBC200C068081A0546B54201DA83
:104FB000284600E03046054604EB44021B4901EB5D
:104FC000C20104EB44034A68184901EBC301C968F4
:104FD00050182A464946FBF7ACF92F44A944761BE2
:104FE00004EB4401114800EBC100C068411904EB17
:104FF00044020E4800EBC200C16004EB44010B48C0
:1050000000EBC100C16804EB4402084800EBC20099
:105010008068814206D1002104EB4402034800EB82
:10502000C200C160002E89D138467FE760030020AE
:10503000F8B504460E4615466068B0F5827F0DD17E
:10504000A068B0F5004F03D0A068B0F5806F05D11F
:105050002068006820F04000216808606068B0F5B2
:10506000827F1FD1A068B0F5806F0DD0334600223B
:1050700080212046009500F05BF808B3606D40F099
:10508000200060650320F8BD334600220121204640
:10509000009500F04DF898B1606D40F0200060651B
:1050A0000320F0E73346002201212046009500F05E
:1050B0003FF828B1606D40F0200060650320E2E712
:1050C0000020E0E77CB504460D4616461648006809
:1050D0001821B0FBF1F01549B0FBF1F04FF47A71F3
:1050E000484301906068B0F5827F0DD12B460022C5
:1050F00080212046009600F01BF898B1606D40F0CA
:105100002000606503207CBD00BF019800B908E065
:105110000198401E019020688068C0F3C0100028EC
:10512000F3D100BF0020EEE70C00002040420F004A
:105130002DE9F04104460E4617461D46DDF818805D
:105140003EE0681CD8B3FDF705F9A0EB0800A842C3
:1051500000D2A5BB2068406820F0E00021684860CC
:105160006068B0F5827F0DD1A068B0F5004F03D024
:10517000A068B0F5806F05D12068006820F040007D
:1051800021680860A06AB0F5005F0DD100BF2068FB
:10519000006820F40050216808602068006840F42E
:1051A00000502168086000BF012084F8510000BF52
:1051B000002084F8500000BF0320BDE8F081FFE725
:1051C000206880683040B04201D1012000E000201A
:1051D000B842B6D10020F0E7704780ED100AC0ED6C
:1051E000110A80ED121AC0ED181A80ED190AC0EDEF
:1051F0001A0A80ED1B1AC0ED211A704780ED020AD1
:10520000C0ED010A704770B504460D462570207840
:10521000D4F88810884770BD0221017080ED010A22
:10522000704710B5044600202070227A0AB9012286
:1052300000E0002210462169884710BD10B50446E1
:1052400001202070207A2169884710BD10B50446DE
:10525000224610210148FDF777F810BD000C0240EE
:1052600070B52DED028B05460C46B0EE408A24B198
:10527000012C06D0022C0ED107E02846FFF7D1FF03
:1052800009E02846FFF7DAFF05E0B0EE480A2846B5
:10529000FFF7C2FF00BF00BFBDEC028B70BD000076
:1052A000B5EEC00AF1EE10FA03D2DFED0D0AB0EE52
:1052B000600ADFED0C0AB4EEE00AF1EE10FA03DD4D
:1052C000DFED080AB0EE600ADFED070A60EE200AA3
:1052D000FCEEE00A10EE900A044909684863704742
:1052E000000000000000C84200002842EC05002039
:1052F000B5EEC00AF1EE10FA03D2DFED0D0AB0EE02
:10530000600ADFED0C0AB4EEE00AF1EE10FA03DDFC
:10531000DFED080AB0EE600ADFED070A60EE200A52
:10532000FCEEE00A10EE900A0449096888637047B1
:10533000000000000000C84200002842EC050020E8
:10534000B5EEC00AF1EE10FA03D2DFED0D0AB0EEB1
:10535000600ADFED0C0AB4EEE00AF1EE10FA03DDAC
:10536000DFED080AB0EE600ADFED070A60EE200A02
:10537000FCEEE00A10EE900A04490968C863704721
:10538000000000000000C84200002842EC05002098
:10539000B5EEC00AF1EE10FA03D2DFED0D0AB0EE61
:1053A000600ADFED0C0AB4EEE00AF1EE10FA03DD5C
:1053B000DFED080AB0EE600ADFED070A60EE200AB2
:1053C000FCEEE00A10EE900A044909684863704751
:1053D000000000000000C842000028426C060020C7
:1053E000B5EEC00AF1EE10FA03D2DFED0D0AB0EE11
:1053F000600ADFED0C0AB4EEE00AF1EE10FA03DD0C
:10540000DFED080AB0EE600ADFED070A60EE200A61
:10541000FCEEE00A10EE900A0449096888637047C0
:10542000000000000000C842000028426C06002076
:10543000B5EEC00AF1EE10FA03D2DFED0D0AB0EEC0
:10544000600ADFED0C0AB4EEE00AF1EE10FA03DDBB
:10545000DFED080AB0EE600ADFED070A60EE200A11
:10546000FCEEE00A10EE900A04490968C863704730
:10547000000000000000C842000028426C06002026
:10548000FCEEC00A10EE901A0170704780ED020A1F
:10549000C0ED040A80ED031A704780ED050A7047DD
:1054A000FCEEC00A10EE901A0170704780ED020AFF
:1054B000C0ED040A80ED031A704780ED050A7047BD
:1054C00010B50446606B804784ED060A94ED050A2A
:1054D000D4ED060A30EE600A84ED070A94ED070A5F
:1054E000D4ED080A30EE600AD4ED020A20EE200A5C
:1054F000D4ED040A94ED071A00EE810AD4ED0A0AED
:1055000030EE200A84ED0A0A94ED070A84ED080AB9
:1055100094ED0A0AD4ED0B0AB4EEE00AF1EE10FAAB
:1055200004DD94ED0B0A84ED0A0A10E094ED0A0AFA
:10553000D4ED0B0AF1EE600AB4EEE00AF1EE10FAD7
:1055400005D294ED0B0AB1EE400A84ED0A0A2078E8
:1055500018B99FED050A84ED0A0AD4ED0A0AB0EEE7
:10556000600AA06B804710BD0000000010B5044623
:105570000E4960680968081A00EE100AB8EE400A81
:10558000D4ED0C0A9FED0A1A60EE810AB4EEE00A2F
:10559000F1EE10FA01DB012000E0002028B1034801
:1055A000006860602046FFF78BFF10BD38030020C5
:1055B00000007A4410B52DED028B0446F0EE408ACF
:1055C000B0EE608AC4ED008A84ED018A204600F0C6
:1055D000D5F82046FBF7FEFE204600F003F8BDECB0
:1055E000028B10BD10B5044694F83C00072820D269
:1055F000DFE800F0AC04203C5874900094ED090AF8
:10560000D4ED0B0A30EE200AD4ED0C0A30EE200A5D
:10561000574880ED000A94ED0B0AD4ED0C0A30EEE9
:10562000200A544880ED000A94ED0C0A524880ED9F
:10563000000A8BE094ED0B0AD4ED0C0A30EE200A40
:105640004B4880ED000A94ED070AD4ED0B0A30EECA
:10565000200AD4ED0C0A30EE200A464880ED000AFC
:1056600094ED0C0A444880ED000A6FE094ED0C0ABA
:105670003F4880ED000A94ED070AD4ED080A30EEA9
:10568000200AD4ED0C0A30EE200A3A4880ED000AD8
:1056900094ED080AD4ED0C0A30EE200A364880ED6D
:1056A000000A53E094ED0C0A314880ED000A94EDB5
:1056B000080AD4ED0C0A30EE200A2E4880ED000ACC
:1056C00094ED060AD4ED080A30EE200AD4ED0C0A57
:1056D00030EE200A284880ED000A37E094ED0A0AEF
:1056E000D4ED0C0A30EE200A214880ED000A94ED3A
:1056F0000C0A204880ED000A94ED060AD4ED0A0A4F
:1057000030EE200AD4ED0C0A30EE200A1A4880ED63
:10571000000A1BE094ED090AD4ED0A0A30EE200AD3
:10572000D4ED0C0A30EE200A114880ED000A94ED09
:105730000C0A104880ED000A94ED0A0AD4ED0C0A18
:1057400030EE200A0C4880ED000A00BF00BF084977
:10575000206C91ED000A80470649606C91ED000ACB
:1057600080470549A06C91ED000A804710BD0000FC
:105770003C030020400300204403002070B590ED5E
:10578000010A80ED020AD0ED010AB0EE001A80EEA7
:10579000810AD0ED000A9FED2E1A10EE810A80EDED
:1057A000030AD0ED010AB0EE001A80EE810AD0EDB6
:1057B000000AF1EE600A9FED261A10EE810A80EDD4
:1057C000040A90ED020AB5EEC00AF1EE10FA01DD0E
:1057D000012100E0002190ED030AB5EEC00AF1EED0
:1057E00010FA01DD012200E0002290ED040AB5EE7E
:1057F000C00AF1EE10FA01DD012300E000239D0054
:10580000022606FB02550D44ECB2072C1DD2DFE840
:1058100004F01C081804100C1400012580F83C50FA
:1058200013E0022580F83C500FE0032580F83C503F
:105830000BE0042580F83C5007E0052580F83C503B
:1058400003E0062580F83C5000BF00BF70BD00009B
:105850002DB25D3F10B50B480068401C0949086037
:1058600009480068401C0849086008480068401C56
:105870000649086006480068401C05490860FCF7B6
:105880006FFD10BD10000020300300203803002001
:105890003403002000B593B0302107A8FAF762FD69
:1058A000142102A8FAF75EFD00BF002001902448F1
:1058B000006840F08050224908600846006800F007
:1058C0008050019000BF00BF00BF002001901D4824
:1058D000006840F480401B4908600846006800F4F6
:1058E0008040019000BF00BF012007900004089095
:1058F00002200D9041050E9104210F91A8211091D5
:10590000022111910421129107A8FCF73FFF08B171
:10591000FBF7F0FB0F200290022003900020049080
:105920004FF4A05005904FF480500690052102A836
:10593000FCF7ECFD08B1FBF7DDFB13B000BD000088
:1059400040380240007000400548006840F4700094
:10595000034908604FF000600149803908607047D2
:1059600088ED00E010B506480068006800F01000FF
:10597000102801D1FEF74EFD0148FDF77EFE10BD57
:10598000EC05002010B506480068006800F0100023
:10599000102801D1FEF7F0FE0148FDF76EFE10BDA4
:1059A0006C06002010B50268294B98420ED0B0F169
:1059B000804F0BD0274B984208D0274B984205D0F8
:1059C000264B984202D0264B984203D122F0700217
:1059D0004B681A431E4B984220D0B0F1804F1DD027
:1059E0001C4B98421AD01C4B984217D01B4B984224
:1059F00014D01B4B984211D01A4B98420ED01A4B20
:105A000098420BD0194B984208D0194B984205D0B8
:105A1000184B984202D0184B984203D122F440729E
:105A2000CB681A4322F080034C6943EA0402026007
:105A30008B68C3620B688362054B984202D0084BA7
:105A4000984201D10B6903630123436110BD00003B
:105A5000000001400004004000080040000C00402D
:105A60000004014000400140004401400048014062
:105A700000180040001C00400020004030B501F03C
:105A80001F05012404FA05F3046A9C430462046AB6
:105A900001F01F0502FA05F52C43046230BD30B554
:105AA0000C46816821F47F4142EA032525432943BE
:105AB000816030BD30B5056A25F001050562026AD6
:105AC0004368846924F0700424F003040D682C43B7
:105AD00022F002028D682A43104DA84200D103E053
